{
  "_format": "hh-sol-artifact-1",
  "contractName": "ArweaveMonsterBank2",
  "sourceName": "contracts/ArweaveMonsterBank2.sol",
  "abi": [
    {
      "inputs": [
        {
          "internalType": "uint8",
          "name": "monsterId",
          "type": "uint8"
        }
      ],
      "name": "getMonsterName",
      "outputs": [
        {
          "internalType": "string",
          "name": "",
          "type": "string"
        }
      ],
      "stateMutability": "pure",
      "type": "function"
    },
    {
      "inputs": [
        {
          "internalType": "uint8",
          "name": "monsterId",
          "type": "uint8"
        }
      ],
      "name": "getMonsterSVG",
      "outputs": [
        {
          "internalType": "string",
          "name": "",
          "type": "string"
        }
      ],
      "stateMutability": "pure",
      "type": "function"
    }
  ],
  "bytecode": "0x6080806040523461001657613c51908161001c8239f35b600080fdfe6080604052600436101561001257600080fd5b6000803560e01c80626b021614610070576336681e761461003257600080fd5b3461006d57602036600319011261006d576004359060ff8216820361006d5761006961005d83610156565b6040519182918261009c565b0390f35b80fd5b503461006d57602036600319011261006d576004359060ff8216820361006d5761006961005d83613ac6565b6020808252825181830181905290939260005b8281106100d157505060409293506000838284010152601f8019910116010190565b8181018601518482016040015285016100af565b60405190604082018281106001600160401b038211176101085760405260088252565b634e487b7160e01b600052604160045260246000fd5b60609060208152601b60208201527f4d6f6e73746572204944206e6f7420696e20746869732062616e6b000000000060408201520190565b60ff16600581146133bd5760068114612c3057600781146125265760088114610c645760091461019d5760405162461bcd60e51b8152806101996004820161011e565b0390fd5b60405161094081018181106001600160401b038211176101085760405261090b8152600080516020613bfc8339815191526020820152600080516020613bdc83398151915260408201527f7420783d22382220793d2232222077696474683d223822206865696768743d2260608201527f32222066696c6c3d2223453845384538222f3e3c7265637420783d223722207960808201527f3d2234222077696474683d22313022206865696768743d2233222066696c6c3d60a08201527f2223453845384538222f3e3c7265637420783d22362220793d2236222077696460c08201527f74683d22313222206865696768743d2233222066696c6c3d222345384538453860e08201527f222f3e3c7265637420783d22372220793d2239222077696474683d22313022206101008201527f6865696768743d2232222066696c6c3d2223453845384538222f3e3c72656374806101208301527f20783d22382220793d2235222077696474683d223322206865696768743d22336101408301527f222066696c6c3d2223314331433143222f3e3c7265637420783d2231332220796101608301527f3d2235222077696474683d223322206865696768743d2233222066696c6c3d226101808301527f23314331433143222f3e3c7265637420783d22392220793d22362220776964746101a08301527f683d223122206865696768743d2231222066696c6c3d2223464636423642222f6101c08301527f3e3c7265637420783d2231342220793d2236222077696474683d2231222068656101e08301527f696768743d2231222066696c6c3d2223464636423642222f3e3c7265637420786102008301527f3d2231312220793d2237222077696474683d223222206865696768743d2232226102208301527f2066696c6c3d2223314331433143222f3e3c7265637420783d22382220793d226102408301527f3130222077696474683d223822206865696768743d2231222066696c6c3d22236102608301527f443344334433222f3e3c7265637420783d22382220793d2239222077696474686102808301527f3d223122206865696768743d2232222066696c6c3d2223463546354635222f3e806102a08401527f3c7265637420783d2231302220793d2239222077696474683d223122206865696102c08401527f6768743d2232222066696c6c3d2223463546354635222f3e3c7265637420783d6102e08401527f2231322220793d2239222077696474683d223122206865696768743d223222206103008401527f66696c6c3d2223463546354635222f3e3c7265637420783d2231342220793d226103208401527f39222077696474683d223122206865696768743d2232222066696c6c3d2223466103408401527f3546354635222f3e3c7265637420783d2231352220793d2239222077696474686103608401526103808301527f3c7265637420783d2231312220793d223131222077696474683d2232222068656103a08301527f696768743d2232222066696c6c3d2223453845384538222f3e3c7265637420786103c08301527f3d22372220793d223133222077696474683d22313022206865696768743d22316103e08301527f222066696c6c3d2223453845384538222f3e3c7265637420783d22362220793d6104008301527f223134222077696474683d22313222206865696768743d2231222066696c6c3d6104208301527f2223443344334433222f3e3c7265637420783d22372220793d223135222077696104408301527f6474683d22313022206865696768743d2231222066696c6c3d222345384538456104608301527f38222f3e3c7265637420783d22382220793d223136222077696474683d2238226104808301527f206865696768743d2231222066696c6c3d2223443344334433222f3e3c7265636104a08301527f7420783d22392220793d223137222077696474683d223622206865696768743d6104c08301527f2231222066696c6c3d2223453845384538222f3e3c7265637420783d223131226104e08301527f20793d223133222077696474683d223222206865696768743d2236222066696c6105008301527f6c3d2223463546354635222f3e3c7265637420783d22342220793d22313322206105208301527f77696474683d223322206865696768743d2232222066696c6c3d2223453845386105408301527f4538222f3e3c7265637420783d2231372220793d223133222077696474683d226105608301527f3322206865696768743d2232222066696c6c3d2223453845384538222f3e3c726105808301527f65637420783d22332220793d223135222077696474683d2232222068656967686105a08301527f743d2234222066696c6c3d2223443344334433222f3e3c7265637420783d22316105c08301527f392220793d223135222077696474683d223222206865696768743d22342220666105e08301527f696c6c3d2223443344334433222f3e3c7265637420783d22322220793d2231386106008301527f222077696474683d223322206865696768743d2231222066696c6c3d222345386106208301527f45384538222f3e3c7265637420783d2231392220793d223138222077696474686106408301527f3d223322206865696768743d2231222066696c6c3d2223453845384538222f3e6106608301527f3c7265637420783d22322220793d223139222077696474683d223122206865696106808301527f6768743d2232222066696c6c3d2223443344334433222f3e3c7265637420783d6106a08301527f22332220793d223139222077696474683d223122206865696768743d223222206106c08301527f66696c6c3d2223443344334433222f3e3c7265637420783d22342220793d22316106e08301527f39222077696474683d223122206865696768743d2232222066696c6c3d2223446107008301527f3344334433222f3e3c7265637420783d2231392220793d2231392220776964746107208301527f683d223122206865696768743d2232222066696c6c3d2223443344334433222f6107408301527f3e3c7265637420783d2232302220793d223139222077696474683d22312220686107608301527f65696768743d2232222066696c6c3d2223443344334433222f3e3c72656374206107808301527f783d2232312220793d223139222077696474683d223122206865696768743d226107a08301527f32222066696c6c3d2223443344334433222f3e3c7265637420783d22382220796107c08301527f3d223138222077696474683d223822206865696768743d2232222066696c6c3d6107e08301527f2223453845384538222f3e3c7265637420783d22392220793d223139222077696108008301527f6474683d223622206865696768743d2231222066696c6c3d22234433443344336108208301527f222f3e3c7265637420783d22392220793d223230222077696474683d223222206108408301526108608201527f20783d2231332220793d223230222077696474683d223222206865696768743d6108808201527f2232222066696c6c3d2223453845384538222f3e3c7265637420783d223922206108a08201527f793d223232222077696474683d223222206865696768743d2231222066696c6c6108c08201527f3d2223443344334433222f3e3c7265637420783d2231332220793d22323222206108e08201527f77696474683d223222206865696768743d2231222066696c6c3d2223443344336109008201526a221991179f1e17b9bb339f60a91b61092082015290565b5060405161148081018181106001600160401b038211176101085760405261145a8152600080516020613bfc83398151915260208201527f687474703a2f2f7777772e77332e6f72672f323030302f73766722207368617060408201527f652d72656e646572696e673d2263726973704564676573223e3c72656374207860608201527f3d22382220793d2232222077696474683d223122206865696768743d2231222060808201527f66696c6c3d2223384230303030222f3e3c7265637420783d2231352220793d2260a08201527f32222077696474683d223122206865696768743d2231222066696c6c3d22233860c08201527f4230303030222f3e3c7265637420783d22382220793d2238222077696474683d60e08201527f223122206865696768743d2232222066696c6c3d2223384230303030222f3e3c6101008201527f7265637420783d2231302220793d2238222077696474683d22312220686569676101208201527f68743d2232222066696c6c3d2223384230303030222f3e3c7265637420783d22806101408301527f31332220793d2238222077696474683d223122206865696768743d22322220666101608301527f696c6c3d2223384230303030222f3e3c7265637420783d2231352220793d22386101808301527f222077696474683d223122206865696768743d2232222066696c6c3d222338426101a08301527f30303030222f3e3c7265637420783d22392220793d223134222077696474683d6101c08301527f223522206865696768743d2233222066696c6c3d2223384230303030222f3e3c6101e08301527f7265637420783d22382220793d223135222077696474683d22312220686569676102008301526102208201527f31342220793d223135222077696474683d223122206865696768743d223222206102408201527f66696c6c3d2223384230303030222f3e3c7265637420783d2231332220793d226102608201527f3137222077696474683d223122206865696768743d2231222066696c6c3d22236102808201527f384230303030222f3e3c7265637420783d2231362220793d22313722207769646102a08201527f74683d223122206865696768743d2231222066696c6c3d2223384230303030226102c08201527f2f3e3c7265637420783d22392220793d223138222077696474683d22342220686102e08201527f65696768743d2231222066696c6c3d2223384230303030222f3e3c72656374206103008201527f783d22372220793d2233222077696474683d223222206865696768743d2231226103208201527f2066696c6c3d2223444331343343222f3e3c7265637420783d2231352220793d6103408201527f2233222077696474683d223222206865696768743d2231222066696c6c3d22236103608201527f444331343343222f3e3c7265637420783d22392220793d2239222077696474686103808201527f3d223122206865696768743d2231222066696c6c3d2223444331343343222f3e6103a08201527f3c7265637420783d2231302220793d223131222077696474683d2232222068656103c08201527f696768743d2231222066696c6c3d2223444331343343222f3e3c7265637420786103e08201527f3d2231332220793d223131222077696474683d223122206865696768743d22316104008201527f222066696c6c3d2223444331343343222f3e3c7265637420783d2231392220796104208201527f3d223138222077696474683d223122206865696768743d2231222066696c6c3d6104408201527f2223444331343343222f3e3c7265637420783d22362220793d223422207769646104608201527f74683d22313222206865696768743d2232222066696c6c3d22233442303038326104808201527f222f3e3c7265637420783d22352220793d2235222077696474683d22312220686104a08201527f65696768743d2239222066696c6c3d2223344230303832222f3e3c72656374206104c08201527f783d2231382220793d2235222077696474683d223122206865696768743d22386104e08201527f222066696c6c3d2223344230303832222f3e3c7265637420783d22362220793d6105008201527f2236222077696474683d223122206865696768743d2231222066696c6c3d22236105208201527f344230303832222f3e3c7265637420783d22382220793d2236222077696474686105408201527f3d223122206865696768743d2231222066696c6c3d2223344230303832222f3e6105608201527f3c7265637420783d2231302220793d2236222077696474683d223122206865696105808201527f6768743d2231222066696c6c3d2223344230303832222f3e3c7265637420783d6105a08201527f2231322220793d2236222077696474683d223122206865696768743d223122206105c08201527f66696c6c3d2223344230303832222f3e3c7265637420783d2231342220793d226105e08201527f36222077696474683d223122206865696768743d2231222066696c6c3d2223346106008201527f4230303832222f3e3c7265637420783d2231362220793d2236222077696474686106208201527f3d223222206865696768743d2231222066696c6c3d2223344230303832222f3e6106408201527f3c7265637420783d22342220793d2237222077696474683d22312220686569676106608201527f68743d2236222066696c6c3d2223344230303832222f3e3c7265637420783d226106808201527f31372220793d2237222077696474683d223122206865696768743d22312220666106a08201527f696c6c3d2223344230303832222f3e3c7265637420783d2231392220793d22376106c08201527f222077696474683d223122206865696768743d2236222066696c6c3d222334426106e08201527f30303832222f3e3c7265637420783d22362220793d223132222077696474683d6107008201527f223122206865696768743d2233222066696c6c3d2223344230303832222f3e3c6107208201527f7265637420783d2231372220793d223132222077696474683d223122206865696107408201527f6768743d2233222066696c6c3d2223344230303832222f3e3c7265637420783d6107608201527f22372220793d223133222077696474683d223322206865696768743d223122206107808201527f66696c6c3d2223344230303832222f3e3c7265637420783d2231352220793d226107a08201527f3133222077696474683d223222206865696768743d2232222066696c6c3d22236107c08201527f344230303832222f3e3c7265637420783d22372220793d2231342220776964746107e08201527f683d223222206865696768743d2231222066696c6c3d2223344230303832222f6108008201527f3e3c7265637420783d2231342220793d223134222077696474683d22312220686108208201527f65696768743d2231222066696c6c3d2223344230303832222f3e3c72656374206108408201527f783d2231372220793d223136222077696474683d223122206865696768743d226108608201527f32222066696c6c3d2223344230303832222f3e3c7265637420783d22372220796108808201527f3d2236222077696474683d223122206865696768743d2237222066696c6c3d226108a08201527f23464645344531222f3e3c7265637420783d22392220793d22362220776964746108c08201527f683d223122206865696768743d2232222066696c6c3d2223464645344531222f6108e08201527f3e3c7265637420783d2231312220793d2236222077696474683d2231222068656109008201527f696768743d2234222066696c6c3d2223464645344531222f3e3c7265637420786109208201527f3d2231332220793d2236222077696474683d223122206865696768743d2232226109408201527f2066696c6c3d2223464645344531222f3e3c7265637420783d2231352220793d6109608201527f2236222077696474683d223122206865696768743d2232222066696c6c3d22236109808201527f464645344531222f3e3c7265637420783d22362220793d2237222077696474686109a08201527f3d223122206865696768743d2235222066696c6c3d2223464645344531222f3e6109c08201527f3c7265637420783d22382220793d2237222077696474683d22312220686569676109e08201527f68743d2231222066696c6c3d2223464645344531222f3e3c7265637420783d22610a008201527f31302220793d2237222077696474683d223122206865696768743d2231222066610a208201527f696c6c3d2223464645344531222f3e3c7265637420783d2231322220793d2237610a408201527f222077696474683d223122206865696768743d2233222066696c6c3d22234646610a608201527f45344531222f3e3c7265637420783d2231342220793d2237222077696474683d610a808201527f223122206865696768743d2231222066696c6c3d2223464645344531222f3e3c610aa08201527f7265637420783d2231362220793d2237222077696474683d2231222068656967610ac08201527f68743d2235222066696c6c3d2223464645344531222f3e3c7265637420783d22610ae08201527f382220793d223130222077696474683d223322206865696768743d2231222066610b008201527f696c6c3d2223464645344531222f3e3c7265637420783d2231332220793d2231610b208201527f30222077696474683d223322206865696768743d2231222066696c6c3d222346610b408201527f4645344531222f3e3c7265637420783d22382220793d22313122207769647468610b608201527f3d223222206865696768743d2232222066696c6c3d2223464645344531222f3e610b808201527f3c7265637420783d2231342220793d223131222077696474683d223222206865610ba08201527f696768743d2231222066696c6c3d2223464645344531222f3e3c726563742078610bc08201527f3d2231302220793d223132222077696474683d223522206865696768743d2231610be08201527f222066696c6c3d2223464645344531222f3e3c7265637420783d223130222079610c008201527f3d223133222077696474683d223322206865696768743d2231222066696c6c3d610c208201527f2223464645344531222f3e3c7265637420783d22362220793d22313522207769610c408201527f6474683d223222206865696768743d2233222066696c6c3d2223464645344531610c608201527f222f3e3c7265637420783d2231352220793d223135222077696474683d223222610c808201527f206865696768743d2232222066696c6c3d2223464645344531222f3e3c726563610ca08201527f7420783d22382220793d223137222077696474683d223122206865696768743d610cc08201527f2235222066696c6c3d2223464645344531222f3e3c7265637420783d22313422610ce08201527f20793d223137222077696474683d223222206865696768743d2232222066696c610d008201527f6c3d2223464645344531222f3e3c7265637420783d22372220793d2231382220610d208201527f77696474683d223122206865696768743d2231222066696c6c3d222346464534610d408201527f4531222f3e3c7265637420783d22392220793d223139222077696474683d2231610d608201527f22206865696768743d2234222066696c6c3d2223464645344531222f3e3c7265610d808201527f637420783d2231332220793d223139222077696474683d223222206865696768610da08201527f743d2231222066696c6c3d2223464645344531222f3e3c7265637420783d2231610dc08201527f362220793d223139222077696474683d223222206865696768743d2232222066610de08201527f696c6c3d2223464645344531222f3e3c7265637420783d2231332220793d2232610e008201527f30222077696474683d223122206865696768743d2233222066696c6c3d222346610e208201527f4645344531222f3e3c7265637420783d2231352220793d223231222077696474610e408201527f683d223222206865696768743d2231222066696c6c3d2223464645344531222f610e608201527f3e3c7265637420783d22392220793d2238222077696474683d22312220686569610e808201527f6768743d2231222066696c6c3d2223464646222f3e3c7265637420783d223134610ea08201527f2220793d2238222077696474683d223122206865696768743d2231222066696c610ec08201527f6c3d2223464646222f3e3c7265637420783d2231372220793d22382220776964610ee08201527f74683d223122206865696768743d2234222066696c6c3d222345456363633522610f008201527f2f3e3c7265637420783d2231312220793d223130222077696474683d22322220610f208201527f6865696768743d2231222066696c6c3d2223454563636335222f3e3c72656374610f408201527f20783d2231352220793d223132222077696474683d223222206865696768743d610f608201527f2231222066696c6c3d2223454563636335222f3e3c7265637420783d22313322610f808201527f20793d223133222077696474683d223222206865696768743d2231222066696c610fa08201527f6c3d2223454563636335222f3e3c7265637420783d2231312220793d22323022610fc08201527f2077696474683d223122206865696768743d2232222066696c6c3d2223454563610fe08201527f636335222f3e3c7265637420783d2231352220793d223230222077696474683d6110008201527f223122206865696768743d2231222066696c6c3d2223454563636335222f3e3c6110208201527f7265637420783d2231342220793d223231222077696474683d223122206865696110408201527f6768743d2231222066696c6c3d2223454563636335222f3e3c7265637420783d6110608201527f2231342220793d2239222077696474683d223122206865696768743d223122206110808201527f66696c6c3d2223663036613835222f3e3c7265637420783d2231322220793d226110a08201527f3131222077696474683d223122206865696768743d2231222066696c6c3d22236110c08201527f663036613835222f3e3c7265637420783d22332220793d2231332220776964746110e08201527f683d223222206865696768743d2234222066696c6c3d2223344230303030222f6111008201527f3e3c7265637420783d2231382220793d223133222077696474683d22332220686111208201527f65696768743d2233222066696c6c3d2223344230303030222f3e3c72656374206111408201527f783d22322220793d223134222077696474683d223122206865696768743d22326111608201527f222066696c6c3d2223344230303030222f3e3c7265637420783d22352220793d6111808201527f223134222077696474683d223122206865696768743d2232222066696c6c3d226111a08201527f23344230303030222f3e3c7265637420783d2232312220793d223134222077696111c08201527f6474683d223122206865696768743d2234222066696c6c3d22233442303030306111e08201527f222f3e3c7265637420783d2231372220793d223135222077696474683d2231226112008201527f206865696768743d2231222066696c6c3d2223344230303030222f3e3c7265636112208201527f7420783d2231392220793d223136222077696474683d223222206865696768746112408201527f3d2231222066696c6c3d2223344230303030222f3e3c7265637420783d2234226112608201527f20793d223137222077696474683d223122206865696768743d2232222066696c6112808201527f6c3d2223344230303030222f3e3c7265637420783d22392220793d22313722206112a08201527f77696474683d223422206865696768743d2231222066696c6c3d2223396231376112c08201527f3137222f3e3c7265637420783d2231332220793d223138222077696474683d226112e08201527f3122206865696768743d2231222066696c6c3d2223366530323032222f3e3c726113008201527f65637420783d2231362220793d223138222077696474683d22322220686569676113208201527f68743d2231222066696c6c3d2223366530323032222f3e3c7265637420783d226113408201527f31302220793d223139222077696474683d223322206865696768743d223122206113608201527f66696c6c3d2223366530323032222f3e3c7265637420783d2231382220793d226113808201527f3139222077696474683d223122206865696768743d2231222066696c6c3d22236113a08201527f366530323032222f3e3c7265637420783d2231352220793d22313922207769646113c08201527f74683d223122206865696768743d2231222066696c6c3d2223643562346165226113e08201527f2f3e3c7265637420783d2231322220793d223230222077696474683d223122206114008201527f6865696768743d2232222066696c6c3d2223633861386132222f3e3c726563746114208201527f20783d2231342220793d223230222077696474683d223122206865696768743d6114408201527f2231222066696c6c3d2223633861386132222f3e3c2f7376673e00000000000061146082015290565b5060405161060081018181106001600160401b03821117610108576040526105c38152600080516020613bfc8339815191526020820152600080516020613bdc83398151915260408201527f7420783d22372220793d2233222077696474683d22313022206865696768743d60608201527f2239222066696c6c3d2223463544454233222f3e3c7265637420783d2236222060808201527f793d2234222077696474683d223122206865696768743d2237222066696c6c3d60a08201527f2223463544454233222f3e3c7265637420783d2231372220793d22342220776960c08201527f6474683d223122206865696768743d2237222066696c6c3d222346354445423360e08201527f222f3e3c7265637420783d22372220793d2235222077696474683d22313022206101008201527f6865696768743d2231222066696c6c3d2223443242343843222f3e3c726563746101208201527f20783d22372220793d2238222077696474683d22313022206865696768743d226101408201527f31222066696c6c3d2223443242343843222f3e3c7265637420783d22372220796101608201527f3d223131222077696474683d22313022206865696768743d2231222066696c6c6101808201527f3d2223443242343843222f3e3c7265637420783d22392220793d2236222077696101a08201527f6474683d223222206865696768743d2232222066696c6c3d22233030303030306101c08201527f222f3e3c7265637420783d2231332220793d2236222077696474683d223222206101e08201527f6865696768743d2232222066696c6c3d2223303030303030222f3e3c726563746102008201527f20783d22362220793d223132222077696474683d22313222206865696768743d6102208201527f2238222066696c6c3d2223463544454233222f3e3c7265637420783d223522206102408201527f793d223133222077696474683d223122206865696768743d2236222066696c6c6102608201527f3d2223463544454233222f3e3c7265637420783d2231382220793d22313322206102808201527f77696474683d223122206865696768743d2236222066696c6c3d2223463544456102a08201527f4233222f3e3c7265637420783d22362220793d223134222077696474683d22316102c08201527f3222206865696768743d2231222066696c6c3d2223443242343843222f3e3c726102e08201527f65637420783d22362220793d223137222077696474683d2231322220686569676103008201527f68743d2231222066696c6c3d2223443242343843222f3e3c7265637420783d226103208201527f332220793d223133222077696474683d223222206865696768743d22352220666103408201527f696c6c3d2223463544454233222f3e3c7265637420783d2231392220793d22316103608201527f33222077696474683d223222206865696768743d2235222066696c6c3d2223466103808201527f3544454233222f3e3c7265637420783d22332220793d223135222077696474686103a08201527f3d223222206865696768743d2231222066696c6c3d2223443242343843222f3e6103c08201527f3c7265637420783d2231392220793d223135222077696474683d2232222068656103e08201527f696768743d2231222066696c6c3d2223443242343843222f3e3c7265637420786104008201527f3d22322220793d223134222077696474683d223122206865696768743d2232226104208201527f2066696c6c3d2223463544454233222f3e3c7265637420783d2232312220793d6104408201527f223136222077696474683d223122206865696768743d2232222066696c6c3d226104608201527f23463544454233222f3e3c7265637420783d22372220793d22323022207769646104808201527f74683d223322206865696768743d2232222066696c6c3d2223463544454233226104a08201527f2f3e3c7265637420783d2231342220793d223230222077696474683d223322206104c08201527f6865696768743d2232222066696c6c3d2223463544454233222f3e3c726563746104e08201527f20783d22382220793d223232222077696474683d223222206865696768743d226105008201527f31222066696c6c3d2223463544454233222f3e3c7265637420783d22313522206105208201527f793d223232222077696474683d223222206865696768743d2231222066696c6c6105408201527f3d2223463544454233222f3e3c7265637420783d22372220793d2232312220776105608201527f696474683d223322206865696768743d2231222066696c6c3d222344324234386105808201527f43222f3e3c7265637420783d2231342220793d223231222077696474683d22336105a08201527f22206865696768743d2231222066696c6c3d2223443242343843222f3e3c2f736105c0820152623b339f60e91b6105e082015290565b5060405161066081018181106001600160401b03821117610108576040526106318152600080516020613bfc8339815191526020820152600080516020613bdc83398151915260408201527f7420783d22362220793d2232222077696474683d22313222206865696768743d60608201527f2233222066696c6c3d2223303030303030222f3e3c7265637420783d2235222060808201527f793d2233222077696474683d223122206865696768743d2232222066696c6c3d60a08201527f2223303030303030222f3e3c7265637420783d2231382220793d22332220776960c08201527f6474683d223122206865696768743d2232222066696c6c3d222330303030303060e08201527f222f3e3c7265637420783d22362220793d2235222077696474683d22313222206101008201527f6865696768743d2238222066696c6c3d2223443344334433222f3e3c726563746101208201527f20783d22352220793d2236222077696474683d223122206865696768743d22366101408201527f222066696c6c3d2223443344334433222f3e3c7265637420783d2231382220796101608201527f3d2236222077696474683d223122206865696768743d2236222066696c6c3d226101808201527f23443344334433222f3e3c7265637420783d22382220793d22372220776964746101a08201527f683d223222206865696768743d2232222066696c6c3d2223444331343343222f6101c08201527f3e3c7265637420783d2231342220793d2237222077696474683d2232222068656101e08201527f696768743d2232222066696c6c3d2223444331343343222f3e3c7265637420786102008201527f3d22392220793d223130222077696474683d223622206865696768743d2231226102208201527f2066696c6c3d2223303030303030222f3e3c7265637420783d22392220793d226102408201527f3131222077696474683d223122206865696768743d2232222066696c6c3d22236102608201527f464646464646222f3e3c7265637420783d2231342220793d22313122207769646102808201527f74683d223122206865696768743d2232222066696c6c3d2223464646464646226102a08201527f2f3e3c7265637420783d22342220793d223132222077696474683d22313622206102c08201527f6865696768743d2232222066696c6c3d2223344230303030222f3e3c726563746102e08201527f20783d22332220793d223133222077696474683d223122206865696768743d226103008201527f31222066696c6c3d2223344230303030222f3e3c7265637420783d22323022206103208201527f793d223133222077696474683d223122206865696768743d2231222066696c6c6103408201527f3d2223344230303030222f3e3c7265637420783d22372220793d2231342220776103608201527f696474683d22313022206865696768743d2235222066696c6c3d2223303030306103808201527f3030222f3e3c7265637420783d22362220793d223135222077696474683d22316103a08201527f22206865696768743d2233222066696c6c3d2223303030303030222f3e3c72656103c08201527f637420783d2231372220793d223135222077696474683d2231222068656967686103e08201527f743d2233222066696c6c3d2223303030303030222f3e3c7265637420783d22356104008201527f2220793d223134222077696474683d223122206865696768743d2236222066696104208201527f6c6c3d2223344230303030222f3e3c7265637420783d2231382220793d2231346104408201527f222077696474683d223122206865696768743d2236222066696c6c3d222334426104608201527f30303030222f3e3c7265637420783d22342220793d223135222077696474683d6104808201527f223122206865696768743d2235222066696c6c3d2223344230303030222f3e3c6104a08201527f7265637420783d2231392220793d223135222077696474683d223122206865696104c08201527f6768743d2235222066696c6c3d2223344230303030222f3e3c7265637420783d6104e08201527f22332220793d223136222077696474683d223122206865696768743d223422206105008201527f66696c6c3d2223344230303030222f3e3c7265637420783d2232302220793d226105208201527f3136222077696474683d223122206865696768743d2234222066696c6c3d22236105408201527f344230303030222f3e3c7265637420783d22382220793d2231392220776964746105608201527f683d223322206865696768743d2233222066696c6c3d2223303030303030222f6105808201527f3e3c7265637420783d2231332220793d223139222077696474683d22332220686105a08201527f65696768743d2233222066696c6c3d2223303030303030222f3e3c72656374206105c08201527f783d22392220793d223232222077696474683d223222206865696768743d22316105e08201527f222066696c6c3d2223303030303030222f3e3c7265637420783d2231342220796106008201527f3d223232222077696474683d223222206865696768743d2231222066696c6c3d61062082015270111198181818181811179f1e17b9bb339f60791b61064082015290565b5060405161060081018181106001600160401b03821117610108576040526105c28152600080516020613bfc8339815191526020820152600080516020613bdc83398151915260408201527f7420783d22372220793d2234222077696474683d22313022206865696768743d60608201527f2239222066696c6c3d2223353536423246222f3e3c7265637420783d2236222060808201527f793d2235222077696474683d223122206865696768743d2237222066696c6c3d60a08201527f2223353536423246222f3e3c7265637420783d2231372220793d22352220776960c08201527f6474683d223122206865696768743d2237222066696c6c3d222335353642324660e08201527f222f3e3c7265637420783d22392220793d2235222077696474683d22322220686101008201527f65696768743d2232222066696c6c3d2223334535463142222f3e3c72656374206101208201527f783d2231352220793d2237222077696474683d223222206865696768743d22326101408201527f222066696c6c3d2223334535463142222f3e3c7265637420783d22382220793d6101608201527f2238222077696474683d223222206865696768743d2232222066696c6c3d22236101808201527f444331343343222f3e3c7265637420783d2231342220793d22382220776964746101a08201527f683d223222206865696768743d2232222066696c6c3d2223444331343343222f6101c08201527f3e3c7265637420783d22392220793d223131222077696474683d2236222068656101e08201527f696768743d2231222066696c6c3d2223303030303030222f3e3c7265637420786102008201527f3d2231302220793d223132222077696474683d223122206865696768743d22316102208201527f222066696c6c3d2223464646464646222f3e3c7265637420783d2231322220796102408201527f3d223132222077696474683d223122206865696768743d2231222066696c6c3d6102608201527f2223464646464646222f3e3c7265637420783d2231342220793d2231322220776102808201527f696474683d223122206865696768743d2231222066696c6c3d222346464646466102a08201527f46222f3e3c7265637420783d22362220793d223133222077696474683d2231326102c08201527f22206865696768743d2237222066696c6c3d2223353536423246222f3e3c72656102e08201527f637420783d22352220793d223134222077696474683d223122206865696768746103008201527f3d2235222066696c6c3d2223353536423246222f3e3c7265637420783d2231386103208201527f2220793d223134222077696474683d223122206865696768743d2235222066696103408201527f6c6c3d2223353536423246222f3e3c7265637420783d22372220793d223134226103608201527f2077696474683d223322206865696768743d2233222066696c6c3d22233442306103808201527f303832222f3e3c7265637420783d2231342220793d223135222077696474683d6103a08201527f223322206865696768743d2232222066696c6c3d2223344230303832222f3e3c6103c08201527f7265637420783d2231312220793d223137222077696474683d223222206865696103e08201527f6768743d2232222066696c6c3d2223344230303832222f3e3c7265637420783d6104008201527f22332220793d223134222077696474683d223222206865696768743d223422206104208201527f66696c6c3d2223353536423246222f3e3c7265637420783d2231392220793d226104408201527f3134222077696474683d223222206865696768743d2234222066696c6c3d22236104608201527f353536423246222f3e3c7265637420783d22322220793d2231352220776964746104808201527f683d223122206865696768743d2232222066696c6c3d2223353536423246222f6104a08201527f3e3c7265637420783d2232312220793d223135222077696474683d22312220686104c08201527f65696768743d2232222066696c6c3d2223353536423246222f3e3c72656374206104e08201527f783d22372220793d223230222077696474683d223322206865696768743d22326105008201527f222066696c6c3d2223353536423246222f3e3c7265637420783d2231342220796105208201527f3d223230222077696474683d223322206865696768743d2232222066696c6c3d6105408201527f2223353536423246222f3e3c7265637420783d22382220793d223232222077696105608201527f6474683d223222206865696768743d2231222066696c6c3d22233535364232466105808201527f222f3e3c7265637420783d2231352220793d223232222077696474683d2232226105a08201527f206865696768743d2231222066696c6c3d2223353536423246222f3e3c2f73766105c082015261339f60f11b6105e082015290565b60ff1660058114613ba85760068114613b745760078114613b425760088114613b2557600914613b095760405162461bcd60e51b8152806101996004820161011e565b613b116100e5565b6729b5b2b632ba37b760c11b602082015290565b50613b2e6100e5565b67537563637562757360c01b602082015290565b50604051604081018181106001600160401b038211176101085760405260058152644d756d6d7960d81b602082015290565b50604051604081018181106001600160401b0382111761010857604052600781526656616d7069726560c81b602082015290565b50604051604081018181106001600160401b038211176101085760405260068152655a6f6d62696560d01b60208201529056fe687474703a2f2f7777772e77332e6f72672f323030302f737667223e3c7265633c7376672076696577426f783d223020302032342032342220786d6c6e733d22a2646970667358221220d7cbde1a20a81b7f227245978b55eec42762437c556d96a5db3340fe6143bd9c64736f6c63430008140033",
  "linkReferences": {},
  "deployedLinkReferences": {}
}