{"contracts/ArweaveMonsterBank1.sol":{"ArweaveMonsterBank1":{"abi":[{"inputs":[{"internalType":"uint8","name":"monsterId","type":"uint8"}],"name":"getMonsterName","outputs":[{"internalType":"string","name":"","type":"string"}],"stateMutability":"pure","type":"function"},{"inputs":[{"internalType":"uint8","name":"monsterId","type":"uint8"}],"name":"getMonsterSVG","outputs":[{"internalType":"string","name":"","type":"string"}],"stateMutability":"pure","type":"function"}],"evm":{"bytecode":{"linkReferences":{},"object":"6080806040523461001657613aa6908161001c8239f35b600080fdfe6080604052600436101561001257600080fd5b6000803560e01c80626b021614610070576336681e761461003257600080fd5b3461006d57602036600319011261006d576004359060ff8216820361006d5761006961005d83610156565b6040519182918261009c565b0390f35b80fd5b503461006d57602036600319011261006d576004359060ff8216820361006d5761006961005d8361391a565b6020808252825181830181905290939260005b8281106100d157505060409293506000838284010152601f8019910116010190565b8181018601518482016040015285016100af565b60405190604082018281106001600160401b038211176101085760405260068252565b634e487b7160e01b600052604160045260246000fd5b60609060208152601b60208201527f4d6f6e73746572204944206e6f7420696e20746869732062616e6b000000000060408201520190565b60ff168015612eab576001811461231c57600281146116095760038114610f0c5760041461019b5760405162461bcd60e51b8152806101976004820161011e565b0390fd5b604051610b4081018181106001600160401b0382111761010857604052610b058152600080516020613a518339815191526020820152600080516020613a3183398151915260408201527f7420783d22362220793d2231222077696474683d223222206865696768743d2260608201527f33222066696c6c3d2223384230303030222f3e3c7265637420783d223136222060808201527f793d2231222077696474683d223222206865696768743d2233222066696c6c3d60a08201527f2223384230303030222f3e3c7265637420783d22372220793d2232222077696460c08201527f74683d223122206865696768743d2232222066696c6c3d22234443313433432260e08201527f2f3e3c7265637420783d2231362220793d2232222077696474683d22312220686101008201527f65696768743d2232222066696c6c3d2223444331343343222f3e3c72656374206101208201527f783d2231312220793d2232222077696474683d223222206865696768743d22326101408201527f222066696c6c3d2223384230303030222f3e3c7265637420783d2231302220796101608201527f3d2233222077696474683d223422206865696768743d2231222066696c6c3d226101808201527f23384230303030222f3e3c7265637420783d22372220793d22342220776964746101a08201527f683d22313022206865696768743d2232222066696c6c3d2223324632463246226101c08201527f2f3e3c7265637420783d22352220793d2236222077696474683d2231342220686101e08201527f65696768743d2234222066696c6c3d2223324632463246222f3e3c72656374206102008201527f783d22372220793d2237222077696474683d223322206865696768743d2232226102208201527f2066696c6c3d2223464634353030222f3e3c7265637420783d2231342220793d6102408201527f2237222077696474683d223322206865696768743d2232222066696c6c3d22236102608201527f464634353030222f3e3c7265637420783d22382220793d2237222077696474686102808201527f3d223122206865696768743d2231222066696c6c3d2223464644373030222f3e6102a08201527f3c7265637420783d2231352220793d2237222077696474683d223122206865696102c08201527f6768743d2231222066696c6c3d2223464644373030222f3e3c7265637420783d6102e08201527f22342220793d2238222077696474683d223422206865696768743d22322220666103008201527f696c6c3d2223324632463246222f3e3c7265637420783d22352220793d2239226103208201527f2077696474683d223222206865696768743d2231222066696c6c3d22233143316103408201527f433143222f3e3c7265637420783d22322220793d2237222077696474683d22326103608201527f22206865696768743d2231222066696c6c3d2223464634353030222f3e3c72656103808201527f637420783d22312220793d2236222077696474683d223222206865696768743d6103a08201527f2231222066696c6c3d2223464641353030222f3e3c7265637420783d223222206103c08201527f793d2238222077696474683d223122206865696768743d2231222066696c6c3d6103e08201527f2223464644373030222f3e3c7265637420783d22382220793d223130222077696104008201527f6474683d223822206865696768743d2232222066696c6c3d22233246324632466104208201527f222f3e3c7265637420783d22362220793d223132222077696474683d223132226104408201527f206865696768743d2234222066696c6c3d2223324632463246222f3e3c7265636104608201527f7420783d22372220793d223136222077696474683d22313022206865696768746104808201527f3d2233222066696c6c3d2223324632463246222f3e3c7265637420783d2238226104a08201527f20793d223133222077696474683d223222206865696768743d2231222066696c6104c08201527f6c3d2223344134413441222f3e3c7265637420783d2231322220793d223133226104e08201527f2077696474683d223222206865696768743d2231222066696c6c3d22233441346105008201527f413441222f3e3c7265637420783d2231302220793d223134222077696474683d6105208201527f223222206865696768743d2231222066696c6c3d2223344134413441222f3e3c6105408201527f7265637420783d2231342220793d223134222077696474683d223222206865696105608201527f6768743d2231222066696c6c3d2223344134413441222f3e3c7265637420783d6105808201527f22392220793d223135222077696474683d223222206865696768743d223122206105a08201527f66696c6c3d2223344134413441222f3e3c7265637420783d2231332220793d226105c08201527f3135222077696474683d223222206865696768743d2231222066696c6c3d22236105e08201527f344134413441222f3e3c7265637420783d22322220793d2231312220776964746106008201527f683d223422206865696768743d2232222066696c6c3d2223384230303030222f6106208201527f3e3c7265637420783d2231382220793d223131222077696474683d22342220686106408201527f65696768743d2232222066696c6c3d2223384230303030222f3e3c72656374206106608201527f783d22312220793d223132222077696474683d223322206865696768743d22346106808201527f222066696c6c3d2223384230303030222f3e3c7265637420783d2232302220796106a08201527f3d223132222077696474683d223322206865696768743d2234222066696c6c3d6106c08201527f2223384230303030222f3e3c7265637420783d22302220793d223133222077696106e08201527f6474683d223222206865696768743d2232222066696c6c3d22234443313433436107008201527f222f3e3c7265637420783d2232322220793d223133222077696474683d2232226107208201527f206865696768743d2232222066696c6c3d2223444331343343222f3e3c7265636107408201527f7420783d22392220793d223131222077696474683d223122206865696768743d6107608201527f2232222066696c6c3d2223384230303030222f3e3c7265637420783d223132226107808201527f20793d223131222077696474683d223122206865696768743d2232222066696c6107a08201527f6c3d2223384230303030222f3e3c7265637420783d2231352220793d223131226107c08201527f2077696474683d223122206865696768743d2232222066696c6c3d22233842306107e08201527f303030222f3e3c7265637420783d22372220793d223139222077696474683d226108008201527f3322206865696768743d2232222066696c6c3d2223324632463246222f3e3c726108208201527f65637420783d2231342220793d223139222077696474683d22332220686569676108408201527f68743d2232222066696c6c3d2223324632463246222f3e3c7265637420783d226108608201527f362220793d223231222077696474683d223122206865696768743d22322220666108808201527f696c6c3d2223443344334433222f3e3c7265637420783d22372220793d2232316108a08201527f222077696474683d223122206865696768743d2232222066696c6c3d222344336108c08201527f44334433222f3e3c7265637420783d22382220793d223231222077696474683d6108e08201527f223122206865696768743d2232222066696c6c3d2223443344334433222f3e3c6109008201527f7265637420783d22392220793d223231222077696474683d22312220686569676109208201527f68743d2232222066696c6c3d2223443344334433222f3e3c7265637420783d226109408201527f31342220793d223231222077696474683d223122206865696768743d223222206109608201527f66696c6c3d2223443344334433222f3e3c7265637420783d2231352220793d226109808201527f3231222077696474683d223122206865696768743d2232222066696c6c3d22236109a08201527f443344334433222f3e3c7265637420783d2231362220793d22323122207769646109c08201527f74683d223122206865696768743d2232222066696c6c3d2223443344334433226109e08201527f2f3e3c7265637420783d2231372220793d223231222077696474683d22312220610a008201527f6865696768743d2232222066696c6c3d2223443344334433222f3e3c72656374610a208201527f20783d2231372220793d223137222077696474683d223322206865696768743d610a408201527f2232222066696c6c3d2223324632463246222f3e3c7265637420783d22313922610a608201527f20793d223138222077696474683d223222206865696768743d2232222066696c610a808201527f6c3d2223324632463246222f3e3c7265637420783d2232302220793d22313922610aa08201527f2077696474683d223222206865696768743d2231222066696c6c3d2223324632610ac08201527f463246222f3e3c7265637420783d2232312220793d223139222077696474683d610ae08201527f223122206865696768743d2231222066696c6c3d2223384230303030222f3e3c610b008201526417b9bb339f60d91b610b2082015290565b506040516105e081018181106001600160401b03821117610108576040526105bc8152600080516020613a518339815191526020820152600080516020613a3183398151915260408201527f7420783d22362220793d2232222077696474683d223222206865696768743d2260608201527f33222066696c6c3d2223384230303030222f3e3c7265637420783d223136222060808201527f793d2232222077696474683d223222206865696768743d2233222066696c6c3d60a08201527f2223384230303030222f3e3c7265637420783d22352220793d2233222077696460c08201527f74683d223122206865696768743d2232222066696c6c3d22233842303030302260e08201527f2f3e3c7265637420783d2231382220793d2233222077696474683d22312220686101008201527f65696768743d2232222066696c6c3d2223384230303030222f3e3c72656374206101208201527f783d22372220793d2235222077696474683d22313022206865696768743d22386101408201527f222066696c6c3d2223444331343343222f3e3c7265637420783d22362220793d6101608201527f2236222077696474683d223122206865696768743d2236222066696c6c3d22236101808201527f444331343343222f3e3c7265637420783d2231372220793d22362220776964746101a08201527f683d223122206865696768743d2236222066696c6c3d2223444331343343222f6101c08201527f3e3c7265637420783d22382220793d2237222077696474683d223322206865696101e08201527f6768743d2232222066696c6c3d2223464646463030222f3e3c7265637420783d6102008201527f2231332220793d2237222077696474683d223322206865696768743d223222206102208201527f66696c6c3d2223464646463030222f3e3c7265637420783d22392220793d22386102408201527f222077696474683d223122206865696768743d2231222066696c6c3d222330306102608201527f30303030222f3e3c7265637420783d2231342220793d2238222077696474683d6102808201527f223122206865696768743d2231222066696c6c3d2223303030303030222f3e3c6102a08201527f7265637420783d22392220793d223130222077696474683d22362220686569676102c08201527f68743d2231222066696c6c3d2223303030303030222f3e3c7265637420783d226102e08201527f392220793d223131222077696474683d223122206865696768743d22312220666103008201527f696c6c3d2223464646464646222f3e3c7265637420783d2231342220793d22316103208201527f31222077696474683d223122206865696768743d2231222066696c6c3d2223466103408201527f4646464646222f3e3c7265637420783d22362220793d223133222077696474686103608201527f3d22313222206865696768743d2236222066696c6c3d2223444331343343222f6103808201527f3e3c7265637420783d22352220793d223134222077696474683d2231222068656103a08201527f696768743d2234222066696c6c3d2223444331343343222f3e3c7265637420786103c08201527f3d2231382220793d223134222077696474683d223122206865696768743d22346103e08201527f222066696c6c3d2223444331343343222f3e3c7265637420783d22332220793d6104008201527f223132222077696474683d223222206865696768743d2235222066696c6c3d226104208201527f23344230303030222f3e3c7265637420783d2231392220793d223132222077696104408201527f6474683d223222206865696768743d2235222066696c6c3d22233442303030306104608201527f222f3e3c7265637420783d22322220793d223133222077696474683d223122206104808201527f6865696768743d2233222066696c6c3d2223344230303030222f3e3c726563746104a08201527f20783d2232312220793d223133222077696474683d223122206865696768743d6104c08201527f2233222066696c6c3d2223344230303030222f3e3c7265637420783d223722206104e08201527f793d223139222077696474683d223322206865696768743d2233222066696c6c6105008201527f3d2223444331343343222f3e3c7265637420783d2231342220793d22313922206105208201527f77696474683d223322206865696768743d2233222066696c6c3d2223444331346105408201527f3343222f3e3c7265637420783d22382220793d223232222077696474683d22326105608201527f22206865696768743d2231222066696c6c3d2223344230303030222f3e3c72656105808201527f637420783d2231352220793d223232222077696474683d2232222068656967686105a08201527f743d2231222066696c6c3d2223344230303030222f3e3c2f7376673e000000006105c082015290565b50604051610b4081018181106001600160401b0382111761010857604052610b068152600080516020613a518339815191526020820152600080516020613a3183398151915260408201527f7420783d22372220793d2230222077696474683d22313022206865696768743d60608201527f2232222066696c6c3d2223314331433143222f3e3c7265637420783d2236222060808201527f793d2231222077696474683d22313222206865696768743d2231222066696c6c60a08201527f3d2223314331433143222f3e3c7265637420783d22362220793d22322220776960c08201527f6474683d22313222206865696768743d2232222066696c6c3d2223373038303960e08201527f30222f3e3c7265637420783d22362220793d2234222077696474683d223132226101008201527f206865696768743d2236222066696c6c3d2223373038303930222f3e3c7265636101208201527f7420783d22362220793d223130222077696474683d22313222206865696768746101408201527f3d2232222066696c6c3d2223373038303930222f3e3c7265637420783d2237226101608201527f20793d223131222077696474683d22313022206865696768743d2231222066696101808201527f6c6c3d2223373038303930222f3e3c7265637420783d22342220793d223722206101a08201527f77696474683d223222206865696768743d2232222066696c6c3d2223433043306101c08201527f4330222f3e3c7265637420783d2231382220793d2237222077696474683d22326101e08201527f22206865696768743d2232222066696c6c3d2223433043304330222f3e3c72656102008201527f637420783d22332220793d2237222077696474683d223122206865696768743d6102208201527f2232222066696c6c3d2223383038303830222f3e3c7265637420783d223230226102408201527f20793d2237222077696474683d223122206865696768743d2232222066696c6c6102608201527f3d2223383038303830222f3e3c7265637420783d22382220793d2233222077696102808201527f6474683d223322206865696768743d2231222066696c6c3d22233246324632466102a08201527f222f3e3c7265637420783d2231322220793d2233222077696474683d223322206102c08201527f6865696768743d2231222066696c6c3d2223324632463246222f3e3c72656374806102e08301527f20783d2231312220793d2232222077696474683d223122206865696768743d226103008301527f32222066696c6c3d2223324632463246222f3e3c7265637420783d22372220796103208301527f3d2236222077696474683d223322206865696768743d2232222066696c6c3d226103408301527f23314331433143222f3e3c7265637420783d2231342220793d223622207769646103608301527f74683d223322206865696768743d2232222066696c6c3d2223314331433143226103808301527f2f3e3c7265637420783d22382220793d2236222077696474683d2231222068656103a08301527f696768743d2231222066696c6c3d2223463546354443222f3e3c7265637420786103c08301527f3d2231352220793d2236222077696474683d223122206865696768743d2231226103e08301527f2066696c6c3d2223463546354443222f3e3c7265637420783d2231312220793d6104008301527f2238222077696474683d223222206865696768743d2231222066696c6c3d22236104208301527f324632463246222f3e3c7265637420783d22392220793d2231302220776964746104408301527f683d223622206865696768743d2231222066696c6c3d2223314331433143222f6104608301527f3e3c7265637420783d22382220793d2239222077696474683d223122206865696104808301527f6768743d2231222066696c6c3d2223324632463246222f3e3c7265637420783d806104a08401527f2231302220793d2239222077696474683d223122206865696768743d223122206104c08401527f66696c6c3d2223324632463246222f3e3c7265637420783d2231322220793d226104e08401527f39222077696474683d223122206865696768743d2231222066696c6c3d2223326105008401527f4632463246222f3e3c7265637420783d2231342220793d2239222077696474686105208401527f3d223122206865696768743d2231222066696c6c3d2223324632463246222f3e6105408401527f3c7265637420783d2231352220793d2239222077696474683d223122206865696105608401526105808301527f22382220793d223132222077696474683d223822206865696768743d223222206105a08301527f66696c6c3d2223373038303930222f3e3c7265637420783d2231302220793d226105c08301527f3132222077696474683d223122206865696768743d2231222066696c6c3d22236105e08301527f324632463246222f3e3c7265637420783d2231332220793d22313322207769646106008301527f74683d223122206865696768743d2231222066696c6c3d222332463246324622806106208401527f2f3e3c7265637420783d22362220793d223134222077696474683d22313222206106408401527f6865696768743d2234222066696c6c3d2223314331433143222f3e3c726563746106608401527f20783d22372220793d223138222077696474683d22313022206865696768743d6106808401527f2232222066696c6c3d2223314331433143222f3e3c7265637420783d223722206106a08401527f793d223134222077696474683d223322206865696768743d2232222066696c6c6106c08401527f3d2223324632463246222f3e3c7265637420783d2231342220793d22313422206106e08401527f77696474683d223322206865696768743d2232222066696c6c3d2223324632466107008401527f3246222f3e3c7265637420783d2231302220793d223134222077696474683d226107208401527f3422206865696768743d2233222066696c6c3d2223423232323232222f3e3c726107408401527f65637420783d2231312220793d223137222077696474683d22322220686569676107608401527f68743d2231222066696c6c3d2223423232323232222f3e3c7265637420783d226107808401527f332220793d223134222077696474683d223322206865696768743d22322220666107a08401527f696c6c3d2223314331433143222f3e3c7265637420783d2231382220793d22316107c08401527f34222077696474683d223322206865696768743d2232222066696c6c3d2223316107e08401527f4331433143222f3e3c7265637420783d22322220793d223136222077696474686108008401527f3d223322206865696768743d2233222066696c6c3d2223314331433143222f3e6108208401527f3c7265637420783d2231392220793d223136222077696474683d2233222068656108408401527f696768743d2233222066696c6c3d2223314331433143222f3e3c7265637420786108608401527f3d22322220793d223139222077696474683d223322206865696768743d2231226108808401527f2066696c6c3d2223373038303930222f3e3c7265637420783d2231392220793d6108a08401527f223139222077696474683d223322206865696768743d2231222066696c6c3d226108c08401527f23373038303930222f3e3c7265637420783d22332220793d22313722207769646108e08401526109008301527f2f3e3c7265637420783d2232302220793d223137222077696474683d223122206109208301526109408201527f20783d22322220793d223230222077696474683d223322206865696768743d226109608201527f32222066696c6c3d2223373038303930222f3e3c7265637420783d22313922206109808201527f793d223230222077696474683d223322206865696768743d2232222066696c6c6109a08201527f3d2223373038303930222f3e3c7265637420783d22382220793d2232302220776109c08201527f696474683d223322206865696768743d2232222066696c6c3d222334363832426109e08201527f34222f3e3c7265637420783d2231332220793d223230222077696474683d2233610a008201527f22206865696768743d2232222066696c6c3d2223343638324234222f3e3c7265610a208201527f637420783d2231312220793d223230222077696474683d223122206865696768610a408201527f743d2232222066696c6c3d2223313931393730222f3e3c7265637420783d2231610a608201527f322220793d223230222077696474683d223122206865696768743d2232222066610a808201527f696c6c3d2223313931393730222f3e3c7265637420783d22382220793d223232610aa08201527f222077696474683d223322206865696768743d2231222066696c6c3d22233246610ac08201527f32463246222f3e3c7265637420783d2231332220793d22323222207769647468610ae08201527f3d223322206865696768743d2231222066696c6c3d2223324632463246222f3e610b00820152651e17b9bb339f60d11b610b2082015290565b506040516109a081018181106001600160401b038211176101085760405261097d8152600080516020613a518339815191526020820152600080516020613a3183398151915260408201527f7420783d22332220793d2235222077696474683d223222206865696768743d2260608201527f32222066696c6c3d2223324634463246222f3e3c7265637420783d223422207960808201527f3d2236222077696474683d223222206865696768743d2233222066696c6c3d2260a08201527f23324634463246222f3e3c7265637420783d22352220793d223722207769647460c08201527f683d223122206865696768743d2232222066696c6c3d2223334342333731222f60e08201527f3e3c7265637420783d2231392220793d2235222077696474683d2232222068656101008201527f696768743d2232222066696c6c3d2223324634463246222f3e3c7265637420786101208201527f3d2231382220793d2236222077696474683d223222206865696768743d2233226101408201527f2066696c6c3d2223324634463246222f3e3c7265637420783d2231382220793d6101608201527f2237222077696474683d223122206865696768743d2232222066696c6c3d22236101808201527f334342333731222f3e3c7265637420783d22362220793d2234222077696474686101a08201527f3d22313222206865696768743d2232222066696c6c3d2223324634463246222f6101c08201527f3e3c7265637420783d22352220793d2236222077696474683d223134222068656101e08201527f696768743d2233222066696c6c3d2223324634463246222f3e3c7265637420786102008201527f3d22362220793d2239222077696474683d22313222206865696768743d2233226102208201527f2066696c6c3d2223324634463246222f3e3c7265637420783d22382220793d226102408201527f37222077696474683d223322206865696768743d2232222066696c6c3d2223446102608201527f4331343343222f3e3c7265637420783d2231332220793d2237222077696474686102808201527f3d223322206865696768743d2232222066696c6c3d2223444331343343222f3e6102a08201527f3c7265637420783d22392220793d2237222077696474683d22312220686569676102c08201527f68743d2231222066696c6c3d2223464641353030222f3e3c7265637420783d226102e08201527f31342220793d2237222077696474683d223122206865696768743d22312220666103008201527f696c6c3d2223464641353030222f3e3c7265637420783d2231312220793d22396103208201527f222077696474683d223222206865696768743d2232222066696c6c3d222331436103408201527f31433143222f3e3c7265637420783d2231302220793d223130222077696474686103608201527f3d223122206865696768743d2231222066696c6c3d2223314331433143222f3e6103808201527f3c7265637420783d2231332220793d223130222077696474683d2231222068656103a08201527f696768743d2231222066696c6c3d2223314331433143222f3e3c7265637420786103c08201527f3d22392220793d223131222077696474683d223622206865696768743d2231226103e08201527f2066696c6c3d2223314331433143222f3e3c7265637420783d22382220793d226104008201527f3132222077696474683d223822206865696768743d2231222066696c6c3d22236104208201527f324634463246222f3e3c7265637420783d22392220793d2231312220776964746104408201527f683d223122206865696768743d2232222066696c6c3d2223463546354635222f6104608201527f3e3c7265637420783d2231312220793d223131222077696474683d22312220686104808201527f65696768743d2232222066696c6c3d2223463546354635222f3e3c72656374206104a08201527f783d2231332220793d223131222077696474683d223122206865696768743d226104c08201527f32222066696c6c3d2223463546354635222f3e3c7265637420783d22313422206104e08201527f793d223131222077696474683d223122206865696768743d2232222066696c6c6105008201527f3d2223463546354635222f3e3c7265637420783d2231302220793d22313322206105208201527f77696474683d223422206865696768743d2231222066696c6c3d2223324634466105408201527f3246222f3e3c7265637420783d22372220793d223134222077696474683d22316105608201527f3022206865696768743d2234222066696c6c3d2223324634463246222f3e3c726105808201527f65637420783d22382220793d223138222077696474683d2238222068656967686105a08201527f743d2232222066696c6c3d2223324634463246222f3e3c7265637420783d22396105c08201527f2220793d223135222077696474683d223622206865696768743d2231222066696105e08201527f6c6c3d2223334342333731222f3e3c7265637420783d2231302220793d2231376106008201527f222077696474683d223422206865696768743d2231222066696c6c3d222333436106208201527f42333731222f3e3c7265637420783d2231322220793d223136222077696474686106408201527f3d223322206865696768743d2231222066696c6c3d2223314331433143222f3e6106608201527f3c7265637420783d22342220793d223134222077696474683d223322206865696106808201527f6768743d2232222066696c6c3d2223324634463246222f3e3c7265637420783d6106a08201527f2231372220793d223134222077696474683d223322206865696768743d2232226106c08201527f2066696c6c3d2223324634463246222f3e3c7265637420783d22332220793d226106e08201527f3136222077696474683d223322206865696768743d2233222066696c6c3d22236107008201527f324634463246222f3e3c7265637420783d2231382220793d22313622207769646107208201527f74683d223322206865696768743d2233222066696c6c3d2223324634463246226107408201527f2f3e3c7265637420783d22322220793d223138222077696474683d22312220686107608201527f65696768743d2232222066696c6c3d2223443344334433222f3e3c72656374206107808201527f783d22332220793d223139222077696474683d223122206865696768743d22326107a08201527f222066696c6c3d2223443344334433222f3e3c7265637420783d22342220793d6107c08201527f223139222077696474683d223122206865696768743d2232222066696c6c3d226107e08201527f23443344334433222f3e3c7265637420783d2231392220793d223139222077696108008201527f6474683d223122206865696768743d2232222066696c6c3d22234433443344336108208201527f222f3e3c7265637420783d2232302220793d223139222077696474683d2231226108408201527f206865696768743d2232222066696c6c3d2223443344334433222f3e3c7265636108608201527f7420783d2232312220793d223138222077696474683d223122206865696768746108808201527f3d2232222066696c6c3d2223443344334433222f3e3c7265637420783d2238226108a08201527f20793d223230222077696474683d223322206865696768743d2232222066696c6108c08201527f6c3d2223324634463246222f3e3c7265637420783d2231332220793d223230226108e08201527f2077696474683d223322206865696768743d2232222066696c6c3d22233246346109008201527f463246222f3e3c7265637420783d22382220793d223232222077696474683d226109208201527f3322206865696768743d2231222066696c6c3d2223314331433143222f3e3c726109408201527f65637420783d2231332220793d223232222077696474683d22332220686569676109608201527f68743d2231222066696c6c3d2223314331433143222f3e3c2f7376673e00000061098082015290565b506040516108c081018181106001600160401b038211176101085760405261088e8152600080516020613a518339815191526020820152600080516020613a3183398151915260408201527f7420783d22362220793d2232222077696474683d223222206865696768743d2260608201527f35222066696c6c3d2223344134413441222f3e3c7265637420783d223136222060808201527f793d2232222077696474683d223222206865696768743d2235222066696c6c3d60a08201527f2223344134413441222f3e3c7265637420783d22372220793d2233222077696460c08201527f74683d223122206865696768743d2233222066696c6c3d22233639363936392260e08201527f2f3e3c7265637420783d2231362220793d2233222077696474683d22312220686101008201527f65696768743d2233222066696c6c3d2223363936393639222f3e3c72656374206101208201527f783d22372220793d2235222077696474683d22313022206865696768743d22326101408201527f222066696c6c3d2223344134413441222f3e3c7265637420783d22362220793d6101608201527f2237222077696474683d22313222206865696768743d2233222066696c6c3d226101808201527f23344134413441222f3e3c7265637420783d22342220793d22392220776964746101a08201527f683d223522206865696768743d2232222066696c6c3d2223344134413441222f6101c08201527f3e3c7265637420783d22352220793d223130222077696474683d2233222068656101e08201527f696768743d2231222066696c6c3d2223363936393639222f3e3c7265637420786102008201527f3d22392220793d2239222077696474683d223822206865696768743d223322206102208201527f66696c6c3d2223344134413441222f3e3c7265637420783d22382220793d22376102408201527f222077696474683d223322206865696768743d2232222066696c6c3d222344436102608201527f31343343222f3e3c7265637420783d2231332220793d2237222077696474683d6102808201527f223322206865696768743d2232222066696c6c3d2223444331343343222f3e3c6102a08201527f7265637420783d22392220793d2237222077696474683d2231222068656967686102c08201527f743d2231222066696c6c3d2223464646222f3e3c7265637420783d22313422206102e08201527f793d2237222077696474683d223122206865696768743d2231222066696c6c3d6103008201527f2223464646222f3e3c7265637420783d22352220793d223130222077696474686103208201527f3d223222206865696768743d2231222066696c6c3d2223303030222f3e3c72656103408201527f637420783d22362220793d223131222077696474683d223622206865696768746103608201527f3d2231222066696c6c3d2223324632463246222f3e3c7265637420783d2237226103808201527f20793d223131222077696474683d223122206865696768743d2232222066696c6103a08201527f6c3d2223463546354635222f3e3c7265637420783d22392220793d22313122206103c08201527f77696474683d223122206865696768743d2232222066696c6c3d2223463546356103e08201527f4635222f3e3c7265637420783d2231312220793d223131222077696474683d226104008201527f3122206865696768743d2232222066696c6c3d2223463546354635222f3e3c726104208201527f65637420783d22392220793d223132222077696474683d2236222068656967686104408201527f743d2232222066696c6c3d2223344134413441222f3e3c7265637420783d22376104608201527f2220793d223134222077696474683d22313022206865696768743d22342220666104808201527f696c6c3d2223344134413441222f3e3c7265637420783d22382220793d2231386104a08201527f222077696474683d223822206865696768743d2232222066696c6c3d222334416104c08201527f34413441222f3e3c7265637420783d22392220793d223135222077696474683d6104e08201527f223222206865696768743d2232222066696c6c3d2223363936393639222f3e3c6105008201527f7265637420783d2231332220793d223135222077696474683d223222206865696105208201527f6768743d2232222066696c6c3d2223363936393639222f3e3c7265637420783d6105408201527f2231312220793d223136222077696474683d223222206865696768743d2232226105608201527f2066696c6c3d2223363936393639222f3e3c7265637420783d22352220793d226105808201527f3134222077696474683d223222206865696768743d2235222066696c6c3d22236105a08201527f344134413441222f3e3c7265637420783d2231372220793d22313422207769646105c08201527f74683d223222206865696768743d2235222066696c6c3d2223344134413441226105e08201527f2f3e3c7265637420783d22342220793d223136222077696474683d22332220686106008201527f65696768743d2232222066696c6c3d2223344134413441222f3e3c72656374206106208201527f783d2231372220793d223136222077696474683d223322206865696768743d226106408201527f32222066696c6c3d2223344134413441222f3e3c7265637420783d22332220796106608201527f3d223137222077696474683d223122206865696768743d2232222066696c6c3d6106808201527f2223443344334433222f3e3c7265637420783d22342220793d223138222077696106a08201527f6474683d223122206865696768743d2232222066696c6c3d22234433443344336106c08201527f222f3e3c7265637420783d22352220793d223138222077696474683d223122206106e08201527f6865696768743d2232222066696c6c3d2223443344334433222f3e3c726563746107008201527f20783d2231392220793d223138222077696474683d223122206865696768743d6107208201527f2232222066696c6c3d2223443344334433222f3e3c7265637420783d223230226107408201527f20793d223137222077696474683d223122206865696768743d2232222066696c6107608201527f6c3d2223443344334433222f3e3c7265637420783d2231382220793d223138226107808201527f2077696474683d223122206865696768743d2232222066696c6c3d22234433446107a08201527f334433222f3e3c7265637420783d22382220793d223139222077696474683d226107c08201527f3322206865696768743d2233222066696c6c3d2223344134413441222f3e3c726107e08201527f65637420783d2231332220793d223139222077696474683d22332220686569676108008201527f68743d2233222066696c6c3d2223344134413441222f3e3c7265637420783d226108208201527f382220793d223232222077696474683d223322206865696768743d22312220666108408201527f696c6c3d2223324632463246222f3e3c7265637420783d2231332220793d22326108608201527f32222077696474683d223322206865696768743d2231222066696c6c3d2223326108808201526d231923192311179f1e17b9bb339f60911b6108a082015290565b60ff1680156139fb57600181146139e057600281146139a757600381146139755760041461395b5760405162461bcd60e51b8152806101976004820161011e565b6139636100e5565b65223930b3b7b760d11b602082015290565b50604051604081018181106001600160401b038211176101085760405260058152642232b6b7b760d91b602082015290565b50604051604081018181106001600160401b0382111761010857604052600c81526b233930b735b2b739ba32b4b760a11b602082015290565b506139e96100e5565b6523b7b13634b760d11b602082015290565b50604051604081018181106001600160401b038211176101085760405260088152672bb2b932bbb7b63360c11b60208201529056fe687474703a2f2f7777772e77332e6f72672f323030302f737667223e3c7265633c7376672076696577426f783d223020302032342032342220786d6c6e733d22a26469706673582212201114d63374caa18622d4e7a51f8be7781909fb075ed046cce7482a1a0ec10d3164736f6c63430008140033","opcodes":"PUSH1 0x80 DUP1 PUSH1 0x40 MSTORE CALLVALUE PUSH2 0x16 JUMPI PUSH2 0x3AA6 SWAP1 DUP2 PUSH2 0x1C DUP3 CODECOPY RETURN JUMPDEST PUSH1 0x0 DUP1 REVERT INVALID PUSH1 0x80 PUSH1 0x40 MSTORE PUSH1 0x4 CALLDATASIZE LT ISZERO PUSH2 0x12 JUMPI PUSH1 0x0 DUP1 REVERT JUMPDEST PUSH1 0x0 DUP1 CALLDATALOAD PUSH1 0xE0 SHR DUP1 PUSH3 0x6B0216 EQ PUSH2 0x70 JUMPI PUSH4 0x36681E76 EQ PUSH2 0x32 JUMPI PUSH1 0x0 DUP1 REVERT JUMPDEST CALLVALUE PUSH2 0x6D JUMPI PUSH1 0x20 CALLDATASIZE PUSH1 0x3 NOT ADD SLT PUSH2 0x6D JUMPI PUSH1 0x4 CALLDATALOAD SWAP1 PUSH1 0xFF DUP3 AND DUP3 SUB PUSH2 0x6D JUMPI PUSH2 0x69 PUSH2 0x5D DUP4 PUSH2 0x156 JUMP JUMPDEST PUSH1 0x40 MLOAD SWAP2 DUP3 SWAP2 DUP3 PUSH2 0x9C JUMP JUMPDEST SUB SWAP1 RETURN JUMPDEST DUP1 REVERT JUMPDEST POP CALLVALUE PUSH2 0x6D JUMPI PUSH1 0x20 CALLDATASIZE PUSH1 0x3 NOT ADD SLT PUSH2 0x6D JUMPI PUSH1 0x4 CALLDATALOAD SWAP1 PUSH1 0xFF DUP3 AND DUP3 SUB PUSH2 0x6D JUMPI PUSH2 0x69 PUSH2 0x5D DUP4 PUSH2 0x391A JUMP JUMPDEST PUSH1 0x20 DUP1 DUP3 MSTORE DUP3 MLOAD DUP2 DUP4 ADD DUP2 SWAP1 MSTORE SWAP1 SWAP4 SWAP3 PUSH1 0x0 JUMPDEST DUP3 DUP2 LT PUSH2 0xD1 JUMPI POP POP PUSH1 0x40 SWAP3 SWAP4 POP PUSH1 0x0 DUP4 DUP3 DUP5 ADD ADD MSTORE PUSH1 0x1F DUP1 NOT SWAP2 ADD AND ADD ADD SWAP1 JUMP JUMPDEST DUP2 DUP2 ADD DUP7 ADD MLOAD DUP5 DUP3 ADD PUSH1 0x40 ADD MSTORE DUP6 ADD PUSH2 0xAF JUMP JUMPDEST PUSH1 0x40 MLOAD SWAP1 PUSH1 0x40 DUP3 ADD DUP3 DUP2 LT PUSH1 0x1 PUSH1 0x1 PUSH1 0x40 SHL SUB DUP3 GT OR PUSH2 0x108 JUMPI PUSH1 0x40 MSTORE PUSH1 0x6 DUP3 MSTORE JUMP JUMPDEST PUSH4 0x4E487B71 PUSH1 0xE0 SHL PUSH1 0x0 MSTORE PUSH1 0x41 PUSH1 0x4 MSTORE PUSH1 0x24 PUSH1 0x0 REVERT JUMPDEST PUSH1 0x60 SWAP1 PUSH1 0x20 DUP2 MSTORE PUSH1 0x1B PUSH1 0x20 DUP3 ADD MSTORE PUSH32 0x4D6F6E73746572204944206E6F7420696E20746869732062616E6B0000000000 PUSH1 0x40 DUP3 ADD MSTORE ADD SWAP1 JUMP JUMPDEST PUSH1 0xFF AND DUP1 ISZERO PUSH2 0x2EAB JUMPI PUSH1 0x1 DUP2 EQ PUSH2 0x231C JUMPI PUSH1 0x2 DUP2 EQ PUSH2 0x1609 JUMPI PUSH1 0x3 DUP2 EQ PUSH2 0xF0C JUMPI PUSH1 0x4 EQ PUSH2 0x19B JUMPI PUSH1 0x40 MLOAD PUSH3 0x461BCD PUSH1 0xE5 SHL DUP2 MSTORE DUP1 PUSH2 0x197 PUSH1 0x4 DUP3 ADD PUSH2 0x11E JUMP JUMPDEST SUB SWAP1 REVERT JUMPDEST PUSH1 0x40 MLOAD PUSH2 0xB40 DUP2 ADD DUP2 DUP2 LT PUSH1 0x1 PUSH1 0x1 PUSH1 0x40 SHL SUB DUP3 GT OR PUSH2 0x108 JUMPI PUSH1 0x40 MSTORE PUSH2 0xB05 DUP2 MSTORE PUSH1 0x0 DUP1 MLOAD PUSH1 0x20 PUSH2 0x3A51 DUP4 CODECOPY DUP2 MLOAD SWAP2 MSTORE PUSH1 0x20 DUP3 ADD MSTORE PUSH1 0x0 DUP1 MLOAD PUSH1 0x20 PUSH2 0x3A31 DUP4 CODECOPY DUP2 MLOAD SWAP2 MSTORE PUSH1 0x40 DUP3 ADD MSTORE PUSH32 0x7420783D22362220793D2231222077696474683D223222206865696768743D22 PUSH1 0x60 DUP3 ADD MSTORE PUSH32 0x33222066696C6C3D2223384230303030222F3E3C7265637420783D2231362220 PUSH1 0x80 DUP3 ADD MSTORE PUSH32 0x793D2231222077696474683D223222206865696768743D2233222066696C6C3D PUSH1 0xA0 DUP3 ADD MSTORE PUSH32 0x2223384230303030222F3E3C7265637420783D22372220793D22322220776964 PUSH1 0xC0 DUP3 ADD MSTORE PUSH32 0x74683D223122206865696768743D2232222066696C6C3D222344433134334322 PUSH1 0xE0 DUP3 ADD MSTORE PUSH32 0x2F3E3C7265637420783D2231362220793D2232222077696474683D2231222068 PUSH2 0x100 DUP3 ADD MSTORE PUSH32 0x65696768743D2232222066696C6C3D2223444331343343222F3E3C7265637420 PUSH2 0x120 DUP3 ADD MSTORE PUSH32 0x783D2231312220793D2232222077696474683D223222206865696768743D2232 PUSH2 0x140 DUP3 ADD MSTORE PUSH32 0x222066696C6C3D2223384230303030222F3E3C7265637420783D223130222079 PUSH2 0x160 DUP3 ADD MSTORE PUSH32 0x3D2233222077696474683D223422206865696768743D2231222066696C6C3D22 PUSH2 0x180 DUP3 ADD MSTORE PUSH32 0x23384230303030222F3E3C7265637420783D22372220793D2234222077696474 PUSH2 0x1A0 DUP3 ADD MSTORE PUSH32 0x683D22313022206865696768743D2232222066696C6C3D222332463246324622 PUSH2 0x1C0 DUP3 ADD MSTORE PUSH32 0x2F3E3C7265637420783D22352220793D2236222077696474683D223134222068 PUSH2 0x1E0 DUP3 ADD MSTORE PUSH32 0x65696768743D2234222066696C6C3D2223324632463246222F3E3C7265637420 PUSH2 0x200 DUP3 ADD MSTORE PUSH32 0x783D22372220793D2237222077696474683D223322206865696768743D223222 PUSH2 0x220 DUP3 ADD MSTORE PUSH32 0x2066696C6C3D2223464634353030222F3E3C7265637420783D2231342220793D PUSH2 0x240 DUP3 ADD MSTORE PUSH32 0x2237222077696474683D223322206865696768743D2232222066696C6C3D2223 PUSH2 0x260 DUP3 ADD MSTORE PUSH32 0x464634353030222F3E3C7265637420783D22382220793D223722207769647468 PUSH2 0x280 DUP3 ADD MSTORE PUSH32 0x3D223122206865696768743D2231222066696C6C3D2223464644373030222F3E PUSH2 0x2A0 DUP3 ADD MSTORE PUSH32 0x3C7265637420783D2231352220793D2237222077696474683D22312220686569 PUSH2 0x2C0 DUP3 ADD MSTORE PUSH32 0x6768743D2231222066696C6C3D2223464644373030222F3E3C7265637420783D PUSH2 0x2E0 DUP3 ADD MSTORE PUSH32 0x22342220793D2238222077696474683D223422206865696768743D2232222066 PUSH2 0x300 DUP3 ADD MSTORE PUSH32 0x696C6C3D2223324632463246222F3E3C7265637420783D22352220793D223922 PUSH2 0x320 DUP3 ADD MSTORE PUSH32 0x2077696474683D223222206865696768743D2231222066696C6C3D2223314331 PUSH2 0x340 DUP3 ADD MSTORE PUSH32 0x433143222F3E3C7265637420783D22322220793D2237222077696474683D2232 PUSH2 0x360 DUP3 ADD MSTORE PUSH32 0x22206865696768743D2231222066696C6C3D2223464634353030222F3E3C7265 PUSH2 0x380 DUP3 ADD MSTORE PUSH32 0x637420783D22312220793D2236222077696474683D223222206865696768743D PUSH2 0x3A0 DUP3 ADD MSTORE PUSH32 0x2231222066696C6C3D2223464641353030222F3E3C7265637420783D22322220 PUSH2 0x3C0 DUP3 ADD MSTORE PUSH32 0x793D2238222077696474683D223122206865696768743D2231222066696C6C3D PUSH2 0x3E0 DUP3 ADD MSTORE PUSH32 0x2223464644373030222F3E3C7265637420783D22382220793D22313022207769 PUSH2 0x400 DUP3 ADD MSTORE PUSH32 0x6474683D223822206865696768743D2232222066696C6C3D2223324632463246 PUSH2 0x420 DUP3 ADD MSTORE PUSH32 0x222F3E3C7265637420783D22362220793D223132222077696474683D22313222 PUSH2 0x440 DUP3 ADD MSTORE PUSH32 0x206865696768743D2234222066696C6C3D2223324632463246222F3E3C726563 PUSH2 0x460 DUP3 ADD MSTORE PUSH32 0x7420783D22372220793D223136222077696474683D2231302220686569676874 PUSH2 0x480 DUP3 ADD MSTORE PUSH32 0x3D2233222066696C6C3D2223324632463246222F3E3C7265637420783D223822 PUSH2 0x4A0 DUP3 ADD MSTORE PUSH32 0x20793D223133222077696474683D223222206865696768743D2231222066696C PUSH2 0x4C0 DUP3 ADD MSTORE PUSH32 0x6C3D2223344134413441222F3E3C7265637420783D2231322220793D22313322 PUSH2 0x4E0 DUP3 ADD MSTORE PUSH32 0x2077696474683D223222206865696768743D2231222066696C6C3D2223344134 PUSH2 0x500 DUP3 ADD MSTORE PUSH32 0x413441222F3E3C7265637420783D2231302220793D223134222077696474683D PUSH2 0x520 DUP3 ADD MSTORE PUSH32 0x223222206865696768743D2231222066696C6C3D2223344134413441222F3E3C PUSH2 0x540 DUP3 ADD MSTORE PUSH32 0x7265637420783D2231342220793D223134222077696474683D22322220686569 PUSH2 0x560 DUP3 ADD MSTORE PUSH32 0x6768743D2231222066696C6C3D2223344134413441222F3E3C7265637420783D PUSH2 0x580 DUP3 ADD MSTORE PUSH32 0x22392220793D223135222077696474683D223222206865696768743D22312220 PUSH2 0x5A0 DUP3 ADD MSTORE PUSH32 0x66696C6C3D2223344134413441222F3E3C7265637420783D2231332220793D22 PUSH2 0x5C0 DUP3 ADD MSTORE PUSH32 0x3135222077696474683D223222206865696768743D2231222066696C6C3D2223 PUSH2 0x5E0 DUP3 ADD MSTORE PUSH32 0x344134413441222F3E3C7265637420783D22322220793D223131222077696474 PUSH2 0x600 DUP3 ADD MSTORE PUSH32 0x683D223422206865696768743D2232222066696C6C3D2223384230303030222F PUSH2 0x620 DUP3 ADD MSTORE PUSH32 0x3E3C7265637420783D2231382220793D223131222077696474683D2234222068 PUSH2 0x640 DUP3 ADD MSTORE PUSH32 0x65696768743D2232222066696C6C3D2223384230303030222F3E3C7265637420 PUSH2 0x660 DUP3 ADD MSTORE PUSH32 0x783D22312220793D223132222077696474683D223322206865696768743D2234 PUSH2 0x680 DUP3 ADD MSTORE PUSH32 0x222066696C6C3D2223384230303030222F3E3C7265637420783D223230222079 PUSH2 0x6A0 DUP3 ADD MSTORE PUSH32 0x3D223132222077696474683D223322206865696768743D2234222066696C6C3D PUSH2 0x6C0 DUP3 ADD MSTORE PUSH32 0x2223384230303030222F3E3C7265637420783D22302220793D22313322207769 PUSH2 0x6E0 DUP3 ADD MSTORE PUSH32 0x6474683D223222206865696768743D2232222066696C6C3D2223444331343343 PUSH2 0x700 DUP3 ADD MSTORE PUSH32 0x222F3E3C7265637420783D2232322220793D223133222077696474683D223222 PUSH2 0x720 DUP3 ADD MSTORE PUSH32 0x206865696768743D2232222066696C6C3D2223444331343343222F3E3C726563 PUSH2 0x740 DUP3 ADD MSTORE PUSH32 0x7420783D22392220793D223131222077696474683D223122206865696768743D PUSH2 0x760 DUP3 ADD MSTORE PUSH32 0x2232222066696C6C3D2223384230303030222F3E3C7265637420783D22313222 PUSH2 0x780 DUP3 ADD MSTORE PUSH32 0x20793D223131222077696474683D223122206865696768743D2232222066696C PUSH2 0x7A0 DUP3 ADD MSTORE PUSH32 0x6C3D2223384230303030222F3E3C7265637420783D2231352220793D22313122 PUSH2 0x7C0 DUP3 ADD MSTORE PUSH32 0x2077696474683D223122206865696768743D2232222066696C6C3D2223384230 PUSH2 0x7E0 DUP3 ADD MSTORE PUSH32 0x303030222F3E3C7265637420783D22372220793D223139222077696474683D22 PUSH2 0x800 DUP3 ADD MSTORE PUSH32 0x3322206865696768743D2232222066696C6C3D2223324632463246222F3E3C72 PUSH2 0x820 DUP3 ADD MSTORE PUSH32 0x65637420783D2231342220793D223139222077696474683D2233222068656967 PUSH2 0x840 DUP3 ADD MSTORE PUSH32 0x68743D2232222066696C6C3D2223324632463246222F3E3C7265637420783D22 PUSH2 0x860 DUP3 ADD MSTORE PUSH32 0x362220793D223231222077696474683D223122206865696768743D2232222066 PUSH2 0x880 DUP3 ADD MSTORE PUSH32 0x696C6C3D2223443344334433222F3E3C7265637420783D22372220793D223231 PUSH2 0x8A0 DUP3 ADD MSTORE PUSH32 0x222077696474683D223122206865696768743D2232222066696C6C3D22234433 PUSH2 0x8C0 DUP3 ADD MSTORE PUSH32 0x44334433222F3E3C7265637420783D22382220793D223231222077696474683D PUSH2 0x8E0 DUP3 ADD MSTORE PUSH32 0x223122206865696768743D2232222066696C6C3D2223443344334433222F3E3C PUSH2 0x900 DUP3 ADD MSTORE PUSH32 0x7265637420783D22392220793D223231222077696474683D2231222068656967 PUSH2 0x920 DUP3 ADD MSTORE PUSH32 0x68743D2232222066696C6C3D2223443344334433222F3E3C7265637420783D22 PUSH2 0x940 DUP3 ADD MSTORE PUSH32 0x31342220793D223231222077696474683D223122206865696768743D22322220 PUSH2 0x960 DUP3 ADD MSTORE PUSH32 0x66696C6C3D2223443344334433222F3E3C7265637420783D2231352220793D22 PUSH2 0x980 DUP3 ADD MSTORE PUSH32 0x3231222077696474683D223122206865696768743D2232222066696C6C3D2223 PUSH2 0x9A0 DUP3 ADD MSTORE PUSH32 0x443344334433222F3E3C7265637420783D2231362220793D2232312220776964 PUSH2 0x9C0 DUP3 ADD MSTORE PUSH32 0x74683D223122206865696768743D2232222066696C6C3D222344334433443322 PUSH2 0x9E0 DUP3 ADD MSTORE PUSH32 0x2F3E3C7265637420783D2231372220793D223231222077696474683D22312220 PUSH2 0xA00 DUP3 ADD MSTORE PUSH32 0x6865696768743D2232222066696C6C3D2223443344334433222F3E3C72656374 PUSH2 0xA20 DUP3 ADD MSTORE PUSH32 0x20783D2231372220793D223137222077696474683D223322206865696768743D PUSH2 0xA40 DUP3 ADD MSTORE PUSH32 0x2232222066696C6C3D2223324632463246222F3E3C7265637420783D22313922 PUSH2 0xA60 DUP3 ADD MSTORE PUSH32 0x20793D223138222077696474683D223222206865696768743D2232222066696C PUSH2 0xA80 DUP3 ADD MSTORE PUSH32 0x6C3D2223324632463246222F3E3C7265637420783D2232302220793D22313922 PUSH2 0xAA0 DUP3 ADD MSTORE PUSH32 0x2077696474683D223222206865696768743D2231222066696C6C3D2223324632 PUSH2 0xAC0 DUP3 ADD MSTORE PUSH32 0x463246222F3E3C7265637420783D2232312220793D223139222077696474683D PUSH2 0xAE0 DUP3 ADD MSTORE PUSH32 0x223122206865696768743D2231222066696C6C3D2223384230303030222F3E3C PUSH2 0xB00 DUP3 ADD MSTORE PUSH5 0x17B9BB339F PUSH1 0xD9 SHL PUSH2 0xB20 DUP3 ADD MSTORE SWAP1 JUMP JUMPDEST POP PUSH1 0x40 MLOAD PUSH2 0x5E0 DUP2 ADD DUP2 DUP2 LT PUSH1 0x1 PUSH1 0x1 PUSH1 0x40 SHL SUB DUP3 GT OR PUSH2 0x108 JUMPI PUSH1 0x40 MSTORE PUSH2 0x5BC DUP2 MSTORE PUSH1 0x0 DUP1 MLOAD PUSH1 0x20 PUSH2 0x3A51 DUP4 CODECOPY DUP2 MLOAD SWAP2 MSTORE PUSH1 0x20 DUP3 ADD MSTORE PUSH1 0x0 DUP1 MLOAD PUSH1 0x20 PUSH2 0x3A31 DUP4 CODECOPY DUP2 MLOAD SWAP2 MSTORE PUSH1 0x40 DUP3 ADD MSTORE PUSH32 0x7420783D22362220793D2232222077696474683D223222206865696768743D22 PUSH1 0x60 DUP3 ADD MSTORE PUSH32 0x33222066696C6C3D2223384230303030222F3E3C7265637420783D2231362220 PUSH1 0x80 DUP3 ADD MSTORE PUSH32 0x793D2232222077696474683D223222206865696768743D2233222066696C6C3D PUSH1 0xA0 DUP3 ADD MSTORE PUSH32 0x2223384230303030222F3E3C7265637420783D22352220793D22332220776964 PUSH1 0xC0 DUP3 ADD MSTORE PUSH32 0x74683D223122206865696768743D2232222066696C6C3D222338423030303022 PUSH1 0xE0 DUP3 ADD MSTORE PUSH32 0x2F3E3C7265637420783D2231382220793D2233222077696474683D2231222068 PUSH2 0x100 DUP3 ADD MSTORE PUSH32 0x65696768743D2232222066696C6C3D2223384230303030222F3E3C7265637420 PUSH2 0x120 DUP3 ADD MSTORE PUSH32 0x783D22372220793D2235222077696474683D22313022206865696768743D2238 PUSH2 0x140 DUP3 ADD MSTORE PUSH32 0x222066696C6C3D2223444331343343222F3E3C7265637420783D22362220793D PUSH2 0x160 DUP3 ADD MSTORE PUSH32 0x2236222077696474683D223122206865696768743D2236222066696C6C3D2223 PUSH2 0x180 DUP3 ADD MSTORE PUSH32 0x444331343343222F3E3C7265637420783D2231372220793D2236222077696474 PUSH2 0x1A0 DUP3 ADD MSTORE PUSH32 0x683D223122206865696768743D2236222066696C6C3D2223444331343343222F PUSH2 0x1C0 DUP3 ADD MSTORE PUSH32 0x3E3C7265637420783D22382220793D2237222077696474683D22332220686569 PUSH2 0x1E0 DUP3 ADD MSTORE PUSH32 0x6768743D2232222066696C6C3D2223464646463030222F3E3C7265637420783D PUSH2 0x200 DUP3 ADD MSTORE PUSH32 0x2231332220793D2237222077696474683D223322206865696768743D22322220 PUSH2 0x220 DUP3 ADD MSTORE PUSH32 0x66696C6C3D2223464646463030222F3E3C7265637420783D22392220793D2238 PUSH2 0x240 DUP3 ADD MSTORE PUSH32 0x222077696474683D223122206865696768743D2231222066696C6C3D22233030 PUSH2 0x260 DUP3 ADD MSTORE PUSH32 0x30303030222F3E3C7265637420783D2231342220793D2238222077696474683D PUSH2 0x280 DUP3 ADD MSTORE PUSH32 0x223122206865696768743D2231222066696C6C3D2223303030303030222F3E3C PUSH2 0x2A0 DUP3 ADD MSTORE PUSH32 0x7265637420783D22392220793D223130222077696474683D2236222068656967 PUSH2 0x2C0 DUP3 ADD MSTORE PUSH32 0x68743D2231222066696C6C3D2223303030303030222F3E3C7265637420783D22 PUSH2 0x2E0 DUP3 ADD MSTORE PUSH32 0x392220793D223131222077696474683D223122206865696768743D2231222066 PUSH2 0x300 DUP3 ADD MSTORE PUSH32 0x696C6C3D2223464646464646222F3E3C7265637420783D2231342220793D2231 PUSH2 0x320 DUP3 ADD MSTORE PUSH32 0x31222077696474683D223122206865696768743D2231222066696C6C3D222346 PUSH2 0x340 DUP3 ADD MSTORE PUSH32 0x4646464646222F3E3C7265637420783D22362220793D22313322207769647468 PUSH2 0x360 DUP3 ADD MSTORE PUSH32 0x3D22313222206865696768743D2236222066696C6C3D2223444331343343222F PUSH2 0x380 DUP3 ADD MSTORE PUSH32 0x3E3C7265637420783D22352220793D223134222077696474683D223122206865 PUSH2 0x3A0 DUP3 ADD MSTORE PUSH32 0x696768743D2234222066696C6C3D2223444331343343222F3E3C726563742078 PUSH2 0x3C0 DUP3 ADD MSTORE PUSH32 0x3D2231382220793D223134222077696474683D223122206865696768743D2234 PUSH2 0x3E0 DUP3 ADD MSTORE PUSH32 0x222066696C6C3D2223444331343343222F3E3C7265637420783D22332220793D PUSH2 0x400 DUP3 ADD MSTORE PUSH32 0x223132222077696474683D223222206865696768743D2235222066696C6C3D22 PUSH2 0x420 DUP3 ADD MSTORE PUSH32 0x23344230303030222F3E3C7265637420783D2231392220793D22313222207769 PUSH2 0x440 DUP3 ADD MSTORE PUSH32 0x6474683D223222206865696768743D2235222066696C6C3D2223344230303030 PUSH2 0x460 DUP3 ADD MSTORE PUSH32 0x222F3E3C7265637420783D22322220793D223133222077696474683D22312220 PUSH2 0x480 DUP3 ADD MSTORE PUSH32 0x6865696768743D2233222066696C6C3D2223344230303030222F3E3C72656374 PUSH2 0x4A0 DUP3 ADD MSTORE PUSH32 0x20783D2232312220793D223133222077696474683D223122206865696768743D PUSH2 0x4C0 DUP3 ADD MSTORE PUSH32 0x2233222066696C6C3D2223344230303030222F3E3C7265637420783D22372220 PUSH2 0x4E0 DUP3 ADD MSTORE PUSH32 0x793D223139222077696474683D223322206865696768743D2233222066696C6C PUSH2 0x500 DUP3 ADD MSTORE PUSH32 0x3D2223444331343343222F3E3C7265637420783D2231342220793D2231392220 PUSH2 0x520 DUP3 ADD MSTORE PUSH32 0x77696474683D223322206865696768743D2233222066696C6C3D222344433134 PUSH2 0x540 DUP3 ADD MSTORE PUSH32 0x3343222F3E3C7265637420783D22382220793D223232222077696474683D2232 PUSH2 0x560 DUP3 ADD MSTORE PUSH32 0x22206865696768743D2231222066696C6C3D2223344230303030222F3E3C7265 PUSH2 0x580 DUP3 ADD MSTORE PUSH32 0x637420783D2231352220793D223232222077696474683D223222206865696768 PUSH2 0x5A0 DUP3 ADD MSTORE PUSH32 0x743D2231222066696C6C3D2223344230303030222F3E3C2F7376673E00000000 PUSH2 0x5C0 DUP3 ADD MSTORE SWAP1 JUMP JUMPDEST POP PUSH1 0x40 MLOAD PUSH2 0xB40 DUP2 ADD DUP2 DUP2 LT PUSH1 0x1 PUSH1 0x1 PUSH1 0x40 SHL SUB DUP3 GT OR PUSH2 0x108 JUMPI PUSH1 0x40 MSTORE PUSH2 0xB06 DUP2 MSTORE PUSH1 0x0 DUP1 MLOAD PUSH1 0x20 PUSH2 0x3A51 DUP4 CODECOPY DUP2 MLOAD SWAP2 MSTORE PUSH1 0x20 DUP3 ADD MSTORE PUSH1 0x0 DUP1 MLOAD PUSH1 0x20 PUSH2 0x3A31 DUP4 CODECOPY DUP2 MLOAD SWAP2 MSTORE PUSH1 0x40 DUP3 ADD MSTORE PUSH32 0x7420783D22372220793D2230222077696474683D22313022206865696768743D PUSH1 0x60 DUP3 ADD MSTORE PUSH32 0x2232222066696C6C3D2223314331433143222F3E3C7265637420783D22362220 PUSH1 0x80 DUP3 ADD MSTORE PUSH32 0x793D2231222077696474683D22313222206865696768743D2231222066696C6C PUSH1 0xA0 DUP3 ADD MSTORE PUSH32 0x3D2223314331433143222F3E3C7265637420783D22362220793D223222207769 PUSH1 0xC0 DUP3 ADD MSTORE PUSH32 0x6474683D22313222206865696768743D2232222066696C6C3D22233730383039 PUSH1 0xE0 DUP3 ADD MSTORE PUSH32 0x30222F3E3C7265637420783D22362220793D2234222077696474683D22313222 PUSH2 0x100 DUP3 ADD MSTORE PUSH32 0x206865696768743D2236222066696C6C3D2223373038303930222F3E3C726563 PUSH2 0x120 DUP3 ADD MSTORE PUSH32 0x7420783D22362220793D223130222077696474683D2231322220686569676874 PUSH2 0x140 DUP3 ADD MSTORE PUSH32 0x3D2232222066696C6C3D2223373038303930222F3E3C7265637420783D223722 PUSH2 0x160 DUP3 ADD MSTORE PUSH32 0x20793D223131222077696474683D22313022206865696768743D223122206669 PUSH2 0x180 DUP3 ADD MSTORE PUSH32 0x6C6C3D2223373038303930222F3E3C7265637420783D22342220793D22372220 PUSH2 0x1A0 DUP3 ADD MSTORE PUSH32 0x77696474683D223222206865696768743D2232222066696C6C3D222343304330 PUSH2 0x1C0 DUP3 ADD MSTORE PUSH32 0x4330222F3E3C7265637420783D2231382220793D2237222077696474683D2232 PUSH2 0x1E0 DUP3 ADD MSTORE PUSH32 0x22206865696768743D2232222066696C6C3D2223433043304330222F3E3C7265 PUSH2 0x200 DUP3 ADD MSTORE PUSH32 0x637420783D22332220793D2237222077696474683D223122206865696768743D PUSH2 0x220 DUP3 ADD MSTORE PUSH32 0x2232222066696C6C3D2223383038303830222F3E3C7265637420783D22323022 PUSH2 0x240 DUP3 ADD MSTORE PUSH32 0x20793D2237222077696474683D223122206865696768743D2232222066696C6C PUSH2 0x260 DUP3 ADD MSTORE PUSH32 0x3D2223383038303830222F3E3C7265637420783D22382220793D223322207769 PUSH2 0x280 DUP3 ADD MSTORE PUSH32 0x6474683D223322206865696768743D2231222066696C6C3D2223324632463246 PUSH2 0x2A0 DUP3 ADD MSTORE PUSH32 0x222F3E3C7265637420783D2231322220793D2233222077696474683D22332220 PUSH2 0x2C0 DUP3 ADD MSTORE PUSH32 0x6865696768743D2231222066696C6C3D2223324632463246222F3E3C72656374 DUP1 PUSH2 0x2E0 DUP4 ADD MSTORE PUSH32 0x20783D2231312220793D2232222077696474683D223122206865696768743D22 PUSH2 0x300 DUP4 ADD MSTORE PUSH32 0x32222066696C6C3D2223324632463246222F3E3C7265637420783D2237222079 PUSH2 0x320 DUP4 ADD MSTORE PUSH32 0x3D2236222077696474683D223322206865696768743D2232222066696C6C3D22 PUSH2 0x340 DUP4 ADD MSTORE PUSH32 0x23314331433143222F3E3C7265637420783D2231342220793D22362220776964 PUSH2 0x360 DUP4 ADD MSTORE PUSH32 0x74683D223322206865696768743D2232222066696C6C3D222331433143314322 PUSH2 0x380 DUP4 ADD MSTORE PUSH32 0x2F3E3C7265637420783D22382220793D2236222077696474683D223122206865 PUSH2 0x3A0 DUP4 ADD MSTORE PUSH32 0x696768743D2231222066696C6C3D2223463546354443222F3E3C726563742078 PUSH2 0x3C0 DUP4 ADD MSTORE PUSH32 0x3D2231352220793D2236222077696474683D223122206865696768743D223122 PUSH2 0x3E0 DUP4 ADD MSTORE PUSH32 0x2066696C6C3D2223463546354443222F3E3C7265637420783D2231312220793D PUSH2 0x400 DUP4 ADD MSTORE PUSH32 0x2238222077696474683D223222206865696768743D2231222066696C6C3D2223 PUSH2 0x420 DUP4 ADD MSTORE PUSH32 0x324632463246222F3E3C7265637420783D22392220793D223130222077696474 PUSH2 0x440 DUP4 ADD MSTORE PUSH32 0x683D223622206865696768743D2231222066696C6C3D2223314331433143222F PUSH2 0x460 DUP4 ADD MSTORE PUSH32 0x3E3C7265637420783D22382220793D2239222077696474683D22312220686569 PUSH2 0x480 DUP4 ADD MSTORE PUSH32 0x6768743D2231222066696C6C3D2223324632463246222F3E3C7265637420783D DUP1 PUSH2 0x4A0 DUP5 ADD MSTORE PUSH32 0x2231302220793D2239222077696474683D223122206865696768743D22312220 PUSH2 0x4C0 DUP5 ADD MSTORE PUSH32 0x66696C6C3D2223324632463246222F3E3C7265637420783D2231322220793D22 PUSH2 0x4E0 DUP5 ADD MSTORE PUSH32 0x39222077696474683D223122206865696768743D2231222066696C6C3D222332 PUSH2 0x500 DUP5 ADD MSTORE PUSH32 0x4632463246222F3E3C7265637420783D2231342220793D223922207769647468 PUSH2 0x520 DUP5 ADD MSTORE PUSH32 0x3D223122206865696768743D2231222066696C6C3D2223324632463246222F3E PUSH2 0x540 DUP5 ADD MSTORE PUSH32 0x3C7265637420783D2231352220793D2239222077696474683D22312220686569 PUSH2 0x560 DUP5 ADD MSTORE PUSH2 0x580 DUP4 ADD MSTORE PUSH32 0x22382220793D223132222077696474683D223822206865696768743D22322220 PUSH2 0x5A0 DUP4 ADD MSTORE PUSH32 0x66696C6C3D2223373038303930222F3E3C7265637420783D2231302220793D22 PUSH2 0x5C0 DUP4 ADD MSTORE PUSH32 0x3132222077696474683D223122206865696768743D2231222066696C6C3D2223 PUSH2 0x5E0 DUP4 ADD MSTORE PUSH32 0x324632463246222F3E3C7265637420783D2231332220793D2231332220776964 PUSH2 0x600 DUP4 ADD MSTORE PUSH32 0x74683D223122206865696768743D2231222066696C6C3D222332463246324622 DUP1 PUSH2 0x620 DUP5 ADD MSTORE PUSH32 0x2F3E3C7265637420783D22362220793D223134222077696474683D2231322220 PUSH2 0x640 DUP5 ADD MSTORE PUSH32 0x6865696768743D2234222066696C6C3D2223314331433143222F3E3C72656374 PUSH2 0x660 DUP5 ADD MSTORE PUSH32 0x20783D22372220793D223138222077696474683D22313022206865696768743D PUSH2 0x680 DUP5 ADD MSTORE PUSH32 0x2232222066696C6C3D2223314331433143222F3E3C7265637420783D22372220 PUSH2 0x6A0 DUP5 ADD MSTORE PUSH32 0x793D223134222077696474683D223322206865696768743D2232222066696C6C PUSH2 0x6C0 DUP5 ADD MSTORE PUSH32 0x3D2223324632463246222F3E3C7265637420783D2231342220793D2231342220 PUSH2 0x6E0 DUP5 ADD MSTORE PUSH32 0x77696474683D223322206865696768743D2232222066696C6C3D222332463246 PUSH2 0x700 DUP5 ADD MSTORE PUSH32 0x3246222F3E3C7265637420783D2231302220793D223134222077696474683D22 PUSH2 0x720 DUP5 ADD MSTORE PUSH32 0x3422206865696768743D2233222066696C6C3D2223423232323232222F3E3C72 PUSH2 0x740 DUP5 ADD MSTORE PUSH32 0x65637420783D2231312220793D223137222077696474683D2232222068656967 PUSH2 0x760 DUP5 ADD MSTORE PUSH32 0x68743D2231222066696C6C3D2223423232323232222F3E3C7265637420783D22 PUSH2 0x780 DUP5 ADD MSTORE PUSH32 0x332220793D223134222077696474683D223322206865696768743D2232222066 PUSH2 0x7A0 DUP5 ADD MSTORE PUSH32 0x696C6C3D2223314331433143222F3E3C7265637420783D2231382220793D2231 PUSH2 0x7C0 DUP5 ADD MSTORE PUSH32 0x34222077696474683D223322206865696768743D2232222066696C6C3D222331 PUSH2 0x7E0 DUP5 ADD MSTORE PUSH32 0x4331433143222F3E3C7265637420783D22322220793D22313622207769647468 PUSH2 0x800 DUP5 ADD MSTORE PUSH32 0x3D223322206865696768743D2233222066696C6C3D2223314331433143222F3E PUSH2 0x820 DUP5 ADD MSTORE PUSH32 0x3C7265637420783D2231392220793D223136222077696474683D223322206865 PUSH2 0x840 DUP5 ADD MSTORE PUSH32 0x696768743D2233222066696C6C3D2223314331433143222F3E3C726563742078 PUSH2 0x860 DUP5 ADD MSTORE PUSH32 0x3D22322220793D223139222077696474683D223322206865696768743D223122 PUSH2 0x880 DUP5 ADD MSTORE PUSH32 0x2066696C6C3D2223373038303930222F3E3C7265637420783D2231392220793D PUSH2 0x8A0 DUP5 ADD MSTORE PUSH32 0x223139222077696474683D223322206865696768743D2231222066696C6C3D22 PUSH2 0x8C0 DUP5 ADD MSTORE PUSH32 0x23373038303930222F3E3C7265637420783D22332220793D2231372220776964 PUSH2 0x8E0 DUP5 ADD MSTORE PUSH2 0x900 DUP4 ADD MSTORE PUSH32 0x2F3E3C7265637420783D2232302220793D223137222077696474683D22312220 PUSH2 0x920 DUP4 ADD MSTORE PUSH2 0x940 DUP3 ADD MSTORE PUSH32 0x20783D22322220793D223230222077696474683D223322206865696768743D22 PUSH2 0x960 DUP3 ADD MSTORE PUSH32 0x32222066696C6C3D2223373038303930222F3E3C7265637420783D2231392220 PUSH2 0x980 DUP3 ADD MSTORE PUSH32 0x793D223230222077696474683D223322206865696768743D2232222066696C6C PUSH2 0x9A0 DUP3 ADD MSTORE PUSH32 0x3D2223373038303930222F3E3C7265637420783D22382220793D223230222077 PUSH2 0x9C0 DUP3 ADD MSTORE PUSH32 0x696474683D223322206865696768743D2232222066696C6C3D22233436383242 PUSH2 0x9E0 DUP3 ADD MSTORE PUSH32 0x34222F3E3C7265637420783D2231332220793D223230222077696474683D2233 PUSH2 0xA00 DUP3 ADD MSTORE PUSH32 0x22206865696768743D2232222066696C6C3D2223343638324234222F3E3C7265 PUSH2 0xA20 DUP3 ADD MSTORE PUSH32 0x637420783D2231312220793D223230222077696474683D223122206865696768 PUSH2 0xA40 DUP3 ADD MSTORE PUSH32 0x743D2232222066696C6C3D2223313931393730222F3E3C7265637420783D2231 PUSH2 0xA60 DUP3 ADD MSTORE PUSH32 0x322220793D223230222077696474683D223122206865696768743D2232222066 PUSH2 0xA80 DUP3 ADD MSTORE PUSH32 0x696C6C3D2223313931393730222F3E3C7265637420783D22382220793D223232 PUSH2 0xAA0 DUP3 ADD MSTORE PUSH32 0x222077696474683D223322206865696768743D2231222066696C6C3D22233246 PUSH2 0xAC0 DUP3 ADD MSTORE PUSH32 0x32463246222F3E3C7265637420783D2231332220793D22323222207769647468 PUSH2 0xAE0 DUP3 ADD MSTORE PUSH32 0x3D223322206865696768743D2231222066696C6C3D2223324632463246222F3E PUSH2 0xB00 DUP3 ADD MSTORE PUSH6 0x1E17B9BB339F PUSH1 0xD1 SHL PUSH2 0xB20 DUP3 ADD MSTORE SWAP1 JUMP JUMPDEST POP PUSH1 0x40 MLOAD PUSH2 0x9A0 DUP2 ADD DUP2 DUP2 LT PUSH1 0x1 PUSH1 0x1 PUSH1 0x40 SHL SUB DUP3 GT OR PUSH2 0x108 JUMPI PUSH1 0x40 MSTORE PUSH2 0x97D DUP2 MSTORE PUSH1 0x0 DUP1 MLOAD PUSH1 0x20 PUSH2 0x3A51 DUP4 CODECOPY DUP2 MLOAD SWAP2 MSTORE PUSH1 0x20 DUP3 ADD MSTORE PUSH1 0x0 DUP1 MLOAD PUSH1 0x20 PUSH2 0x3A31 DUP4 CODECOPY DUP2 MLOAD SWAP2 MSTORE PUSH1 0x40 DUP3 ADD MSTORE PUSH32 0x7420783D22332220793D2235222077696474683D223222206865696768743D22 PUSH1 0x60 DUP3 ADD MSTORE PUSH32 0x32222066696C6C3D2223324634463246222F3E3C7265637420783D2234222079 PUSH1 0x80 DUP3 ADD MSTORE PUSH32 0x3D2236222077696474683D223222206865696768743D2233222066696C6C3D22 PUSH1 0xA0 DUP3 ADD MSTORE PUSH32 0x23324634463246222F3E3C7265637420783D22352220793D2237222077696474 PUSH1 0xC0 DUP3 ADD MSTORE PUSH32 0x683D223122206865696768743D2232222066696C6C3D2223334342333731222F PUSH1 0xE0 DUP3 ADD MSTORE PUSH32 0x3E3C7265637420783D2231392220793D2235222077696474683D223222206865 PUSH2 0x100 DUP3 ADD MSTORE PUSH32 0x696768743D2232222066696C6C3D2223324634463246222F3E3C726563742078 PUSH2 0x120 DUP3 ADD MSTORE PUSH32 0x3D2231382220793D2236222077696474683D223222206865696768743D223322 PUSH2 0x140 DUP3 ADD MSTORE PUSH32 0x2066696C6C3D2223324634463246222F3E3C7265637420783D2231382220793D PUSH2 0x160 DUP3 ADD MSTORE PUSH32 0x2237222077696474683D223122206865696768743D2232222066696C6C3D2223 PUSH2 0x180 DUP3 ADD MSTORE PUSH32 0x334342333731222F3E3C7265637420783D22362220793D223422207769647468 PUSH2 0x1A0 DUP3 ADD MSTORE PUSH32 0x3D22313222206865696768743D2232222066696C6C3D2223324634463246222F PUSH2 0x1C0 DUP3 ADD MSTORE PUSH32 0x3E3C7265637420783D22352220793D2236222077696474683D22313422206865 PUSH2 0x1E0 DUP3 ADD MSTORE PUSH32 0x696768743D2233222066696C6C3D2223324634463246222F3E3C726563742078 PUSH2 0x200 DUP3 ADD MSTORE PUSH32 0x3D22362220793D2239222077696474683D22313222206865696768743D223322 PUSH2 0x220 DUP3 ADD MSTORE PUSH32 0x2066696C6C3D2223324634463246222F3E3C7265637420783D22382220793D22 PUSH2 0x240 DUP3 ADD MSTORE PUSH32 0x37222077696474683D223322206865696768743D2232222066696C6C3D222344 PUSH2 0x260 DUP3 ADD MSTORE PUSH32 0x4331343343222F3E3C7265637420783D2231332220793D223722207769647468 PUSH2 0x280 DUP3 ADD MSTORE PUSH32 0x3D223322206865696768743D2232222066696C6C3D2223444331343343222F3E PUSH2 0x2A0 DUP3 ADD MSTORE PUSH32 0x3C7265637420783D22392220793D2237222077696474683D2231222068656967 PUSH2 0x2C0 DUP3 ADD MSTORE PUSH32 0x68743D2231222066696C6C3D2223464641353030222F3E3C7265637420783D22 PUSH2 0x2E0 DUP3 ADD MSTORE PUSH32 0x31342220793D2237222077696474683D223122206865696768743D2231222066 PUSH2 0x300 DUP3 ADD MSTORE PUSH32 0x696C6C3D2223464641353030222F3E3C7265637420783D2231312220793D2239 PUSH2 0x320 DUP3 ADD MSTORE PUSH32 0x222077696474683D223222206865696768743D2232222066696C6C3D22233143 PUSH2 0x340 DUP3 ADD MSTORE PUSH32 0x31433143222F3E3C7265637420783D2231302220793D22313022207769647468 PUSH2 0x360 DUP3 ADD MSTORE PUSH32 0x3D223122206865696768743D2231222066696C6C3D2223314331433143222F3E PUSH2 0x380 DUP3 ADD MSTORE PUSH32 0x3C7265637420783D2231332220793D223130222077696474683D223122206865 PUSH2 0x3A0 DUP3 ADD MSTORE PUSH32 0x696768743D2231222066696C6C3D2223314331433143222F3E3C726563742078 PUSH2 0x3C0 DUP3 ADD MSTORE PUSH32 0x3D22392220793D223131222077696474683D223622206865696768743D223122 PUSH2 0x3E0 DUP3 ADD MSTORE PUSH32 0x2066696C6C3D2223314331433143222F3E3C7265637420783D22382220793D22 PUSH2 0x400 DUP3 ADD MSTORE PUSH32 0x3132222077696474683D223822206865696768743D2231222066696C6C3D2223 PUSH2 0x420 DUP3 ADD MSTORE PUSH32 0x324634463246222F3E3C7265637420783D22392220793D223131222077696474 PUSH2 0x440 DUP3 ADD MSTORE PUSH32 0x683D223122206865696768743D2232222066696C6C3D2223463546354635222F PUSH2 0x460 DUP3 ADD MSTORE PUSH32 0x3E3C7265637420783D2231312220793D223131222077696474683D2231222068 PUSH2 0x480 DUP3 ADD MSTORE PUSH32 0x65696768743D2232222066696C6C3D2223463546354635222F3E3C7265637420 PUSH2 0x4A0 DUP3 ADD MSTORE PUSH32 0x783D2231332220793D223131222077696474683D223122206865696768743D22 PUSH2 0x4C0 DUP3 ADD MSTORE PUSH32 0x32222066696C6C3D2223463546354635222F3E3C7265637420783D2231342220 PUSH2 0x4E0 DUP3 ADD MSTORE PUSH32 0x793D223131222077696474683D223122206865696768743D2232222066696C6C PUSH2 0x500 DUP3 ADD MSTORE PUSH32 0x3D2223463546354635222F3E3C7265637420783D2231302220793D2231332220 PUSH2 0x520 DUP3 ADD MSTORE PUSH32 0x77696474683D223422206865696768743D2231222066696C6C3D222332463446 PUSH2 0x540 DUP3 ADD MSTORE PUSH32 0x3246222F3E3C7265637420783D22372220793D223134222077696474683D2231 PUSH2 0x560 DUP3 ADD MSTORE PUSH32 0x3022206865696768743D2234222066696C6C3D2223324634463246222F3E3C72 PUSH2 0x580 DUP3 ADD MSTORE PUSH32 0x65637420783D22382220793D223138222077696474683D223822206865696768 PUSH2 0x5A0 DUP3 ADD MSTORE PUSH32 0x743D2232222066696C6C3D2223324634463246222F3E3C7265637420783D2239 PUSH2 0x5C0 DUP3 ADD MSTORE PUSH32 0x2220793D223135222077696474683D223622206865696768743D223122206669 PUSH2 0x5E0 DUP3 ADD MSTORE PUSH32 0x6C6C3D2223334342333731222F3E3C7265637420783D2231302220793D223137 PUSH2 0x600 DUP3 ADD MSTORE PUSH32 0x222077696474683D223422206865696768743D2231222066696C6C3D22233343 PUSH2 0x620 DUP3 ADD MSTORE PUSH32 0x42333731222F3E3C7265637420783D2231322220793D22313622207769647468 PUSH2 0x640 DUP3 ADD MSTORE PUSH32 0x3D223322206865696768743D2231222066696C6C3D2223314331433143222F3E PUSH2 0x660 DUP3 ADD MSTORE PUSH32 0x3C7265637420783D22342220793D223134222077696474683D22332220686569 PUSH2 0x680 DUP3 ADD MSTORE PUSH32 0x6768743D2232222066696C6C3D2223324634463246222F3E3C7265637420783D PUSH2 0x6A0 DUP3 ADD MSTORE PUSH32 0x2231372220793D223134222077696474683D223322206865696768743D223222 PUSH2 0x6C0 DUP3 ADD MSTORE PUSH32 0x2066696C6C3D2223324634463246222F3E3C7265637420783D22332220793D22 PUSH2 0x6E0 DUP3 ADD MSTORE PUSH32 0x3136222077696474683D223322206865696768743D2233222066696C6C3D2223 PUSH2 0x700 DUP3 ADD MSTORE PUSH32 0x324634463246222F3E3C7265637420783D2231382220793D2231362220776964 PUSH2 0x720 DUP3 ADD MSTORE PUSH32 0x74683D223322206865696768743D2233222066696C6C3D222332463446324622 PUSH2 0x740 DUP3 ADD MSTORE PUSH32 0x2F3E3C7265637420783D22322220793D223138222077696474683D2231222068 PUSH2 0x760 DUP3 ADD MSTORE PUSH32 0x65696768743D2232222066696C6C3D2223443344334433222F3E3C7265637420 PUSH2 0x780 DUP3 ADD MSTORE PUSH32 0x783D22332220793D223139222077696474683D223122206865696768743D2232 PUSH2 0x7A0 DUP3 ADD MSTORE PUSH32 0x222066696C6C3D2223443344334433222F3E3C7265637420783D22342220793D PUSH2 0x7C0 DUP3 ADD MSTORE PUSH32 0x223139222077696474683D223122206865696768743D2232222066696C6C3D22 PUSH2 0x7E0 DUP3 ADD MSTORE PUSH32 0x23443344334433222F3E3C7265637420783D2231392220793D22313922207769 PUSH2 0x800 DUP3 ADD MSTORE PUSH32 0x6474683D223122206865696768743D2232222066696C6C3D2223443344334433 PUSH2 0x820 DUP3 ADD MSTORE PUSH32 0x222F3E3C7265637420783D2232302220793D223139222077696474683D223122 PUSH2 0x840 DUP3 ADD MSTORE PUSH32 0x206865696768743D2232222066696C6C3D2223443344334433222F3E3C726563 PUSH2 0x860 DUP3 ADD MSTORE PUSH32 0x7420783D2232312220793D223138222077696474683D22312220686569676874 PUSH2 0x880 DUP3 ADD MSTORE PUSH32 0x3D2232222066696C6C3D2223443344334433222F3E3C7265637420783D223822 PUSH2 0x8A0 DUP3 ADD MSTORE PUSH32 0x20793D223230222077696474683D223322206865696768743D2232222066696C PUSH2 0x8C0 DUP3 ADD MSTORE PUSH32 0x6C3D2223324634463246222F3E3C7265637420783D2231332220793D22323022 PUSH2 0x8E0 DUP3 ADD MSTORE PUSH32 0x2077696474683D223322206865696768743D2232222066696C6C3D2223324634 PUSH2 0x900 DUP3 ADD MSTORE PUSH32 0x463246222F3E3C7265637420783D22382220793D223232222077696474683D22 PUSH2 0x920 DUP3 ADD MSTORE PUSH32 0x3322206865696768743D2231222066696C6C3D2223314331433143222F3E3C72 PUSH2 0x940 DUP3 ADD MSTORE PUSH32 0x65637420783D2231332220793D223232222077696474683D2233222068656967 PUSH2 0x960 DUP3 ADD MSTORE PUSH32 0x68743D2231222066696C6C3D2223314331433143222F3E3C2F7376673E000000 PUSH2 0x980 DUP3 ADD MSTORE SWAP1 JUMP JUMPDEST POP PUSH1 0x40 MLOAD PUSH2 0x8C0 DUP2 ADD DUP2 DUP2 LT PUSH1 0x1 PUSH1 0x1 PUSH1 0x40 SHL SUB DUP3 GT OR PUSH2 0x108 JUMPI PUSH1 0x40 MSTORE PUSH2 0x88E DUP2 MSTORE PUSH1 0x0 DUP1 MLOAD PUSH1 0x20 PUSH2 0x3A51 DUP4 CODECOPY DUP2 MLOAD SWAP2 MSTORE PUSH1 0x20 DUP3 ADD MSTORE PUSH1 0x0 DUP1 MLOAD PUSH1 0x20 PUSH2 0x3A31 DUP4 CODECOPY DUP2 MLOAD SWAP2 MSTORE PUSH1 0x40 DUP3 ADD MSTORE PUSH32 0x7420783D22362220793D2232222077696474683D223222206865696768743D22 PUSH1 0x60 DUP3 ADD MSTORE PUSH32 0x35222066696C6C3D2223344134413441222F3E3C7265637420783D2231362220 PUSH1 0x80 DUP3 ADD MSTORE PUSH32 0x793D2232222077696474683D223222206865696768743D2235222066696C6C3D PUSH1 0xA0 DUP3 ADD MSTORE PUSH32 0x2223344134413441222F3E3C7265637420783D22372220793D22332220776964 PUSH1 0xC0 DUP3 ADD MSTORE PUSH32 0x74683D223122206865696768743D2233222066696C6C3D222336393639363922 PUSH1 0xE0 DUP3 ADD MSTORE PUSH32 0x2F3E3C7265637420783D2231362220793D2233222077696474683D2231222068 PUSH2 0x100 DUP3 ADD MSTORE PUSH32 0x65696768743D2233222066696C6C3D2223363936393639222F3E3C7265637420 PUSH2 0x120 DUP3 ADD MSTORE PUSH32 0x783D22372220793D2235222077696474683D22313022206865696768743D2232 PUSH2 0x140 DUP3 ADD MSTORE PUSH32 0x222066696C6C3D2223344134413441222F3E3C7265637420783D22362220793D PUSH2 0x160 DUP3 ADD MSTORE PUSH32 0x2237222077696474683D22313222206865696768743D2233222066696C6C3D22 PUSH2 0x180 DUP3 ADD MSTORE PUSH32 0x23344134413441222F3E3C7265637420783D22342220793D2239222077696474 PUSH2 0x1A0 DUP3 ADD MSTORE PUSH32 0x683D223522206865696768743D2232222066696C6C3D2223344134413441222F PUSH2 0x1C0 DUP3 ADD MSTORE PUSH32 0x3E3C7265637420783D22352220793D223130222077696474683D223322206865 PUSH2 0x1E0 DUP3 ADD MSTORE PUSH32 0x696768743D2231222066696C6C3D2223363936393639222F3E3C726563742078 PUSH2 0x200 DUP3 ADD MSTORE PUSH32 0x3D22392220793D2239222077696474683D223822206865696768743D22332220 PUSH2 0x220 DUP3 ADD MSTORE PUSH32 0x66696C6C3D2223344134413441222F3E3C7265637420783D22382220793D2237 PUSH2 0x240 DUP3 ADD MSTORE PUSH32 0x222077696474683D223322206865696768743D2232222066696C6C3D22234443 PUSH2 0x260 DUP3 ADD MSTORE PUSH32 0x31343343222F3E3C7265637420783D2231332220793D2237222077696474683D PUSH2 0x280 DUP3 ADD MSTORE PUSH32 0x223322206865696768743D2232222066696C6C3D2223444331343343222F3E3C PUSH2 0x2A0 DUP3 ADD MSTORE PUSH32 0x7265637420783D22392220793D2237222077696474683D223122206865696768 PUSH2 0x2C0 DUP3 ADD MSTORE PUSH32 0x743D2231222066696C6C3D2223464646222F3E3C7265637420783D2231342220 PUSH2 0x2E0 DUP3 ADD MSTORE PUSH32 0x793D2237222077696474683D223122206865696768743D2231222066696C6C3D PUSH2 0x300 DUP3 ADD MSTORE PUSH32 0x2223464646222F3E3C7265637420783D22352220793D22313022207769647468 PUSH2 0x320 DUP3 ADD MSTORE PUSH32 0x3D223222206865696768743D2231222066696C6C3D2223303030222F3E3C7265 PUSH2 0x340 DUP3 ADD MSTORE PUSH32 0x637420783D22362220793D223131222077696474683D22362220686569676874 PUSH2 0x360 DUP3 ADD MSTORE PUSH32 0x3D2231222066696C6C3D2223324632463246222F3E3C7265637420783D223722 PUSH2 0x380 DUP3 ADD MSTORE PUSH32 0x20793D223131222077696474683D223122206865696768743D2232222066696C PUSH2 0x3A0 DUP3 ADD MSTORE PUSH32 0x6C3D2223463546354635222F3E3C7265637420783D22392220793D2231312220 PUSH2 0x3C0 DUP3 ADD MSTORE PUSH32 0x77696474683D223122206865696768743D2232222066696C6C3D222346354635 PUSH2 0x3E0 DUP3 ADD MSTORE PUSH32 0x4635222F3E3C7265637420783D2231312220793D223131222077696474683D22 PUSH2 0x400 DUP3 ADD MSTORE PUSH32 0x3122206865696768743D2232222066696C6C3D2223463546354635222F3E3C72 PUSH2 0x420 DUP3 ADD MSTORE PUSH32 0x65637420783D22392220793D223132222077696474683D223622206865696768 PUSH2 0x440 DUP3 ADD MSTORE PUSH32 0x743D2232222066696C6C3D2223344134413441222F3E3C7265637420783D2237 PUSH2 0x460 DUP3 ADD MSTORE PUSH32 0x2220793D223134222077696474683D22313022206865696768743D2234222066 PUSH2 0x480 DUP3 ADD MSTORE PUSH32 0x696C6C3D2223344134413441222F3E3C7265637420783D22382220793D223138 PUSH2 0x4A0 DUP3 ADD MSTORE PUSH32 0x222077696474683D223822206865696768743D2232222066696C6C3D22233441 PUSH2 0x4C0 DUP3 ADD MSTORE PUSH32 0x34413441222F3E3C7265637420783D22392220793D223135222077696474683D PUSH2 0x4E0 DUP3 ADD MSTORE PUSH32 0x223222206865696768743D2232222066696C6C3D2223363936393639222F3E3C PUSH2 0x500 DUP3 ADD MSTORE PUSH32 0x7265637420783D2231332220793D223135222077696474683D22322220686569 PUSH2 0x520 DUP3 ADD MSTORE PUSH32 0x6768743D2232222066696C6C3D2223363936393639222F3E3C7265637420783D PUSH2 0x540 DUP3 ADD MSTORE PUSH32 0x2231312220793D223136222077696474683D223222206865696768743D223222 PUSH2 0x560 DUP3 ADD MSTORE PUSH32 0x2066696C6C3D2223363936393639222F3E3C7265637420783D22352220793D22 PUSH2 0x580 DUP3 ADD MSTORE PUSH32 0x3134222077696474683D223222206865696768743D2235222066696C6C3D2223 PUSH2 0x5A0 DUP3 ADD MSTORE PUSH32 0x344134413441222F3E3C7265637420783D2231372220793D2231342220776964 PUSH2 0x5C0 DUP3 ADD MSTORE PUSH32 0x74683D223222206865696768743D2235222066696C6C3D222334413441344122 PUSH2 0x5E0 DUP3 ADD MSTORE PUSH32 0x2F3E3C7265637420783D22342220793D223136222077696474683D2233222068 PUSH2 0x600 DUP3 ADD MSTORE PUSH32 0x65696768743D2232222066696C6C3D2223344134413441222F3E3C7265637420 PUSH2 0x620 DUP3 ADD MSTORE PUSH32 0x783D2231372220793D223136222077696474683D223322206865696768743D22 PUSH2 0x640 DUP3 ADD MSTORE PUSH32 0x32222066696C6C3D2223344134413441222F3E3C7265637420783D2233222079 PUSH2 0x660 DUP3 ADD MSTORE PUSH32 0x3D223137222077696474683D223122206865696768743D2232222066696C6C3D PUSH2 0x680 DUP3 ADD MSTORE PUSH32 0x2223443344334433222F3E3C7265637420783D22342220793D22313822207769 PUSH2 0x6A0 DUP3 ADD MSTORE PUSH32 0x6474683D223122206865696768743D2232222066696C6C3D2223443344334433 PUSH2 0x6C0 DUP3 ADD MSTORE PUSH32 0x222F3E3C7265637420783D22352220793D223138222077696474683D22312220 PUSH2 0x6E0 DUP3 ADD MSTORE PUSH32 0x6865696768743D2232222066696C6C3D2223443344334433222F3E3C72656374 PUSH2 0x700 DUP3 ADD MSTORE PUSH32 0x20783D2231392220793D223138222077696474683D223122206865696768743D PUSH2 0x720 DUP3 ADD MSTORE PUSH32 0x2232222066696C6C3D2223443344334433222F3E3C7265637420783D22323022 PUSH2 0x740 DUP3 ADD MSTORE PUSH32 0x20793D223137222077696474683D223122206865696768743D2232222066696C PUSH2 0x760 DUP3 ADD MSTORE PUSH32 0x6C3D2223443344334433222F3E3C7265637420783D2231382220793D22313822 PUSH2 0x780 DUP3 ADD MSTORE PUSH32 0x2077696474683D223122206865696768743D2232222066696C6C3D2223443344 PUSH2 0x7A0 DUP3 ADD MSTORE PUSH32 0x334433222F3E3C7265637420783D22382220793D223139222077696474683D22 PUSH2 0x7C0 DUP3 ADD MSTORE PUSH32 0x3322206865696768743D2233222066696C6C3D2223344134413441222F3E3C72 PUSH2 0x7E0 DUP3 ADD MSTORE PUSH32 0x65637420783D2231332220793D223139222077696474683D2233222068656967 PUSH2 0x800 DUP3 ADD MSTORE PUSH32 0x68743D2233222066696C6C3D2223344134413441222F3E3C7265637420783D22 PUSH2 0x820 DUP3 ADD MSTORE PUSH32 0x382220793D223232222077696474683D223322206865696768743D2231222066 PUSH2 0x840 DUP3 ADD MSTORE PUSH32 0x696C6C3D2223324632463246222F3E3C7265637420783D2231332220793D2232 PUSH2 0x860 DUP3 ADD MSTORE PUSH32 0x32222077696474683D223322206865696768743D2231222066696C6C3D222332 PUSH2 0x880 DUP3 ADD MSTORE PUSH14 0x231923192311179F1E17B9BB339F PUSH1 0x91 SHL PUSH2 0x8A0 DUP3 ADD MSTORE SWAP1 JUMP JUMPDEST PUSH1 0xFF AND DUP1 ISZERO PUSH2 0x39FB JUMPI PUSH1 0x1 DUP2 EQ PUSH2 0x39E0 JUMPI PUSH1 0x2 DUP2 EQ PUSH2 0x39A7 JUMPI PUSH1 0x3 DUP2 EQ PUSH2 0x3975 JUMPI PUSH1 0x4 EQ PUSH2 0x395B JUMPI PUSH1 0x40 MLOAD PUSH3 0x461BCD PUSH1 0xE5 SHL DUP2 MSTORE DUP1 PUSH2 0x197 PUSH1 0x4 DUP3 ADD PUSH2 0x11E JUMP JUMPDEST PUSH2 0x3963 PUSH2 0xE5 JUMP JUMPDEST PUSH6 0x223930B3B7B7 PUSH1 0xD1 SHL PUSH1 0x20 DUP3 ADD MSTORE SWAP1 JUMP JUMPDEST POP PUSH1 0x40 MLOAD PUSH1 0x40 DUP2 ADD DUP2 DUP2 LT PUSH1 0x1 PUSH1 0x1 PUSH1 0x40 SHL SUB DUP3 GT OR PUSH2 0x108 JUMPI PUSH1 0x40 MSTORE PUSH1 0x5 DUP2 MSTORE PUSH5 0x2232B6B7B7 PUSH1 0xD9 SHL PUSH1 0x20 DUP3 ADD MSTORE SWAP1 JUMP JUMPDEST POP PUSH1 0x40 MLOAD PUSH1 0x40 DUP2 ADD DUP2 DUP2 LT PUSH1 0x1 PUSH1 0x1 PUSH1 0x40 SHL SUB DUP3 GT OR PUSH2 0x108 JUMPI PUSH1 0x40 MSTORE PUSH1 0xC DUP2 MSTORE PUSH12 0x233930B735B2B739BA32B4B7 PUSH1 0xA1 SHL PUSH1 0x20 DUP3 ADD MSTORE SWAP1 JUMP JUMPDEST POP PUSH2 0x39E9 PUSH2 0xE5 JUMP JUMPDEST PUSH6 0x23B7B13634B7 PUSH1 0xD1 SHL PUSH1 0x20 DUP3 ADD MSTORE SWAP1 JUMP JUMPDEST POP PUSH1 0x40 MLOAD PUSH1 0x40 DUP2 ADD DUP2 DUP2 LT PUSH1 0x1 PUSH1 0x1 PUSH1 0x40 SHL SUB DUP3 GT OR PUSH2 0x108 JUMPI PUSH1 0x40 MSTORE PUSH1 0x8 DUP2 MSTORE PUSH8 0x2BB2B932BBB7B633 PUSH1 0xC1 SHL PUSH1 0x20 DUP3 ADD MSTORE SWAP1 JUMP INVALID PUSH9 0x7474703A2F2F777777 0x2E PUSH24 0x332E6F72672F323030302F737667223E3C7265633C737667 KECCAK256 PUSH23 0x696577426F783D223020302032342032342220786D6C6E PUSH20 0x3D22A26469706673582212201114D63374CAA186 0x22 0xD4 0xE7 0xA5 0x1F DUP12 0xE7 PUSH25 0x1909FB075ED046CCE7482A1A0EC10D3164736F6C6343000814 STOP CALLER "},"methodIdentifiers":{"getMonsterName(uint8)":"006b0216","getMonsterSVG(uint8)":"36681e76"}}}}}