{"contracts/ArweaveItemBankV3.sol":{"ArweaveItemBankV3":{"abi":[{"inputs":[{"internalType":"address","name":"_bank1","type":"address"},{"internalType":"address","name":"_bank2","type":"address"}],"stateMutability":"nonpayable","type":"constructor"},{"inputs":[],"name":"bank1","outputs":[{"internalType":"contract IItemBank","name":"","type":"address"}],"stateMutability":"view","type":"function"},{"inputs":[],"name":"bank2","outputs":[{"internalType":"contract IItemBank","name":"","type":"address"}],"stateMutability":"view","type":"function"},{"inputs":[{"internalType":"uint8","name":"itemId","type":"uint8"}],"name":"getItemName","outputs":[{"internalType":"string","name":"","type":"string"}],"stateMutability":"view","type":"function"},{"inputs":[{"internalType":"uint8","name":"itemId","type":"uint8"}],"name":"getItemSVG","outputs":[{"internalType":"string","name":"","type":"string"}],"stateMutability":"view","type":"function"}],"evm":{"bytecode":{"linkReferences":{},"object":"60803461008d57601f61049538819003918201601f19168301916001600160401b0383118484101761009257808492604094855283398101031261008d57610052602061004b836100a8565b92016100a8565b600080546001600160a01b039384166001600160a01b031991821617909155600180549290931691161790556040516103d890816100bd8239f35b600080fd5b634e487b7160e01b600052604160045260246000fd5b51906001600160a01b038216820361008d5756fe6080604052600436101561001257600080fd5b6000803560e01c806330a86006146100d7578063d001425a146100ae578063da11f709146100875763f6d405581461004957600080fd5b34610084576020366003190112610084576004359060ff821682036100845761008061007483610225565b60405191829182610126565b0390f35b80fd5b5034610084578060031936011261008457546040516001600160a01b039091168152602090f35b50346100845780600319360112610084576001546040516001600160a01b039091168152602090f35b5034610084576020366003190112610084576004359060ff8216820361008457610080610074836102f9565b60005b8381106101165750506000910152565b8181015183820152602001610106565b604091602082526101468151809281602086015260208686019101610103565b601f01601f1916010190565b90601f8019910116810190811067ffffffffffffffff82111761017457604052565b634e487b7160e01b600052604160045260246000fd5b6020818303126101f657805167ffffffffffffffff918282116101f657019082601f830112156101f657815190811161017457604051926101d5601f8301601f191660200185610152565b818452602082840101116101f6576101f39160208085019101610103565b90565b600080fd5b60609060208152600f60208201526e125b9d985b1a59081a5d195b481251608a1b60408201520190565b60ff1660058110156102955760008054604051631eda80ab60e31b81526004810193909352829060249082906001600160a01b03165afa9081156102895760009161026e575090565b6101f3913d8091833e6102818183610152565b81019061018a565b6040513d6000823e3d90fd5b600a81106102ba5760405162461bcd60e51b8152806102b6600482016101fb565b0390fd5b600154604051631eda80ab60e31b81526004810192909252600090829060249082906001600160a01b03165afa9081156102895760009161026e575090565b60ff1660058110156103425760008054604051631854300360e11b81526004810193909352829060249082906001600160a01b03165afa9081156102895760009161026e575090565b600a81106103635760405162461bcd60e51b8152806102b6600482016101fb565b600154604051631854300360e11b81526004810192909252600090829060249082906001600160a01b03165afa9081156102895760009161026e57509056fea264697066735822122001f35b70a5dd425719e2e7db89d736d3f261fff5985b017feeb5bb3d5904c02564736f6c63430008140033","opcodes":"PUSH1 0x80 CALLVALUE PUSH2 0x8D JUMPI PUSH1 0x1F PUSH2 0x495 CODESIZE DUP2 SWAP1 SUB SWAP2 DUP3 ADD PUSH1 0x1F NOT AND DUP4 ADD SWAP2 PUSH1 0x1 PUSH1 0x1 PUSH1 0x40 SHL SUB DUP4 GT DUP5 DUP5 LT OR PUSH2 0x92 JUMPI DUP1 DUP5 SWAP3 PUSH1 0x40 SWAP5 DUP6 MSTORE DUP4 CODECOPY DUP2 ADD SUB SLT PUSH2 0x8D JUMPI PUSH2 0x52 PUSH1 0x20 PUSH2 0x4B DUP4 PUSH2 0xA8 JUMP JUMPDEST SWAP3 ADD PUSH2 0xA8 JUMP JUMPDEST PUSH1 0x0 DUP1 SLOAD PUSH1 0x1 PUSH1 0x1 PUSH1 0xA0 SHL SUB SWAP4 DUP5 AND PUSH1 0x1 PUSH1 0x1 PUSH1 0xA0 SHL SUB NOT SWAP2 DUP3 AND OR SWAP1 SWAP2 SSTORE PUSH1 0x1 DUP1 SLOAD SWAP3 SWAP1 SWAP4 AND SWAP2 AND OR SWAP1 SSTORE PUSH1 0x40 MLOAD PUSH2 0x3D8 SWAP1 DUP2 PUSH2 0xBD DUP3 CODECOPY RETURN JUMPDEST PUSH1 0x0 DUP1 REVERT JUMPDEST PUSH4 0x4E487B71 PUSH1 0xE0 SHL PUSH1 0x0 MSTORE PUSH1 0x41 PUSH1 0x4 MSTORE PUSH1 0x24 PUSH1 0x0 REVERT JUMPDEST MLOAD SWAP1 PUSH1 0x1 PUSH1 0x1 PUSH1 0xA0 SHL SUB DUP3 AND DUP3 SUB PUSH2 0x8D JUMPI JUMP INVALID PUSH1 0x80 PUSH1 0x40 MSTORE PUSH1 0x4 CALLDATASIZE LT ISZERO PUSH2 0x12 JUMPI PUSH1 0x0 DUP1 REVERT JUMPDEST PUSH1 0x0 DUP1 CALLDATALOAD PUSH1 0xE0 SHR DUP1 PUSH4 0x30A86006 EQ PUSH2 0xD7 JUMPI DUP1 PUSH4 0xD001425A EQ PUSH2 0xAE JUMPI DUP1 PUSH4 0xDA11F709 EQ PUSH2 0x87 JUMPI PUSH4 0xF6D40558 EQ PUSH2 0x49 JUMPI PUSH1 0x0 DUP1 REVERT JUMPDEST CALLVALUE PUSH2 0x84 JUMPI PUSH1 0x20 CALLDATASIZE PUSH1 0x3 NOT ADD SLT PUSH2 0x84 JUMPI PUSH1 0x4 CALLDATALOAD SWAP1 PUSH1 0xFF DUP3 AND DUP3 SUB PUSH2 0x84 JUMPI PUSH2 0x80 PUSH2 0x74 DUP4 PUSH2 0x225 JUMP JUMPDEST PUSH1 0x40 MLOAD SWAP2 DUP3 SWAP2 DUP3 PUSH2 0x126 JUMP JUMPDEST SUB SWAP1 RETURN JUMPDEST DUP1 REVERT JUMPDEST POP CALLVALUE PUSH2 0x84 JUMPI DUP1 PUSH1 0x3 NOT CALLDATASIZE ADD SLT PUSH2 0x84 JUMPI SLOAD PUSH1 0x40 MLOAD PUSH1 0x1 PUSH1 0x1 PUSH1 0xA0 SHL SUB SWAP1 SWAP2 AND DUP2 MSTORE PUSH1 0x20 SWAP1 RETURN JUMPDEST POP CALLVALUE PUSH2 0x84 JUMPI DUP1 PUSH1 0x3 NOT CALLDATASIZE ADD SLT PUSH2 0x84 JUMPI PUSH1 0x1 SLOAD PUSH1 0x40 MLOAD PUSH1 0x1 PUSH1 0x1 PUSH1 0xA0 SHL SUB SWAP1 SWAP2 AND DUP2 MSTORE PUSH1 0x20 SWAP1 RETURN JUMPDEST POP CALLVALUE PUSH2 0x84 JUMPI PUSH1 0x20 CALLDATASIZE PUSH1 0x3 NOT ADD SLT PUSH2 0x84 JUMPI PUSH1 0x4 CALLDATALOAD SWAP1 PUSH1 0xFF DUP3 AND DUP3 SUB PUSH2 0x84 JUMPI PUSH2 0x80 PUSH2 0x74 DUP4 PUSH2 0x2F9 JUMP JUMPDEST PUSH1 0x0 JUMPDEST DUP4 DUP2 LT PUSH2 0x116 JUMPI POP POP PUSH1 0x0 SWAP2 ADD MSTORE JUMP JUMPDEST DUP2 DUP2 ADD MLOAD DUP4 DUP3 ADD MSTORE PUSH1 0x20 ADD PUSH2 0x106 JUMP JUMPDEST PUSH1 0x40 SWAP2 PUSH1 0x20 DUP3 MSTORE PUSH2 0x146 DUP2 MLOAD DUP1 SWAP3 DUP2 PUSH1 0x20 DUP7 ADD MSTORE PUSH1 0x20 DUP7 DUP7 ADD SWAP2 ADD PUSH2 0x103 JUMP JUMPDEST PUSH1 0x1F ADD PUSH1 0x1F NOT AND ADD ADD SWAP1 JUMP JUMPDEST SWAP1 PUSH1 0x1F DUP1 NOT SWAP2 ADD AND DUP2 ADD SWAP1 DUP2 LT PUSH8 0xFFFFFFFFFFFFFFFF DUP3 GT OR PUSH2 0x174 JUMPI PUSH1 0x40 MSTORE JUMP JUMPDEST PUSH4 0x4E487B71 PUSH1 0xE0 SHL PUSH1 0x0 MSTORE PUSH1 0x41 PUSH1 0x4 MSTORE PUSH1 0x24 PUSH1 0x0 REVERT JUMPDEST PUSH1 0x20 DUP2 DUP4 SUB SLT PUSH2 0x1F6 JUMPI DUP1 MLOAD PUSH8 0xFFFFFFFFFFFFFFFF SWAP2 DUP3 DUP3 GT PUSH2 0x1F6 JUMPI ADD SWAP1 DUP3 PUSH1 0x1F DUP4 ADD SLT ISZERO PUSH2 0x1F6 JUMPI DUP2 MLOAD SWAP1 DUP2 GT PUSH2 0x174 JUMPI PUSH1 0x40 MLOAD SWAP3 PUSH2 0x1D5 PUSH1 0x1F DUP4 ADD PUSH1 0x1F NOT AND PUSH1 0x20 ADD DUP6 PUSH2 0x152 JUMP JUMPDEST DUP2 DUP5 MSTORE PUSH1 0x20 DUP3 DUP5 ADD ADD GT PUSH2 0x1F6 JUMPI PUSH2 0x1F3 SWAP2 PUSH1 0x20 DUP1 DUP6 ADD SWAP2 ADD PUSH2 0x103 JUMP JUMPDEST SWAP1 JUMP JUMPDEST PUSH1 0x0 DUP1 REVERT JUMPDEST PUSH1 0x60 SWAP1 PUSH1 0x20 DUP2 MSTORE PUSH1 0xF PUSH1 0x20 DUP3 ADD MSTORE PUSH15 0x125B9D985B1A59081A5D195B481251 PUSH1 0x8A SHL PUSH1 0x40 DUP3 ADD MSTORE ADD SWAP1 JUMP JUMPDEST PUSH1 0xFF AND PUSH1 0x5 DUP2 LT ISZERO PUSH2 0x295 JUMPI PUSH1 0x0 DUP1 SLOAD PUSH1 0x40 MLOAD PUSH4 0x1EDA80AB PUSH1 0xE3 SHL DUP2 MSTORE PUSH1 0x4 DUP2 ADD SWAP4 SWAP1 SWAP4 MSTORE DUP3 SWAP1 PUSH1 0x24 SWAP1 DUP3 SWAP1 PUSH1 0x1 PUSH1 0x1 PUSH1 0xA0 SHL SUB AND GAS STATICCALL SWAP1 DUP2 ISZERO PUSH2 0x289 JUMPI PUSH1 0x0 SWAP2 PUSH2 0x26E JUMPI POP SWAP1 JUMP JUMPDEST PUSH2 0x1F3 SWAP2 RETURNDATASIZE DUP1 SWAP2 DUP4 RETURNDATACOPY PUSH2 0x281 DUP2 DUP4 PUSH2 0x152 JUMP JUMPDEST DUP2 ADD SWAP1 PUSH2 0x18A JUMP JUMPDEST PUSH1 0x40 MLOAD RETURNDATASIZE PUSH1 0x0 DUP3 RETURNDATACOPY RETURNDATASIZE SWAP1 REVERT JUMPDEST PUSH1 0xA DUP2 LT PUSH2 0x2BA JUMPI PUSH1 0x40 MLOAD PUSH3 0x461BCD PUSH1 0xE5 SHL DUP2 MSTORE DUP1 PUSH2 0x2B6 PUSH1 0x4 DUP3 ADD PUSH2 0x1FB JUMP JUMPDEST SUB SWAP1 REVERT JUMPDEST PUSH1 0x1 SLOAD PUSH1 0x40 MLOAD PUSH4 0x1EDA80AB PUSH1 0xE3 SHL DUP2 MSTORE PUSH1 0x4 DUP2 ADD SWAP3 SWAP1 SWAP3 MSTORE PUSH1 0x0 SWAP1 DUP3 SWAP1 PUSH1 0x24 SWAP1 DUP3 SWAP1 PUSH1 0x1 PUSH1 0x1 PUSH1 0xA0 SHL SUB AND GAS STATICCALL SWAP1 DUP2 ISZERO PUSH2 0x289 JUMPI PUSH1 0x0 SWAP2 PUSH2 0x26E JUMPI POP SWAP1 JUMP JUMPDEST PUSH1 0xFF AND PUSH1 0x5 DUP2 LT ISZERO PUSH2 0x342 JUMPI PUSH1 0x0 DUP1 SLOAD PUSH1 0x40 MLOAD PUSH4 0x18543003 PUSH1 0xE1 SHL DUP2 MSTORE PUSH1 0x4 DUP2 ADD SWAP4 SWAP1 SWAP4 MSTORE DUP3 SWAP1 PUSH1 0x24 SWAP1 DUP3 SWAP1 PUSH1 0x1 PUSH1 0x1 PUSH1 0xA0 SHL SUB AND GAS STATICCALL SWAP1 DUP2 ISZERO PUSH2 0x289 JUMPI PUSH1 0x0 SWAP2 PUSH2 0x26E JUMPI POP SWAP1 JUMP JUMPDEST PUSH1 0xA DUP2 LT PUSH2 0x363 JUMPI PUSH1 0x40 MLOAD PUSH3 0x461BCD PUSH1 0xE5 SHL DUP2 MSTORE DUP1 PUSH2 0x2B6 PUSH1 0x4 DUP3 ADD PUSH2 0x1FB JUMP JUMPDEST PUSH1 0x1 SLOAD PUSH1 0x40 MLOAD PUSH4 0x18543003 PUSH1 0xE1 SHL DUP2 MSTORE PUSH1 0x4 DUP2 ADD SWAP3 SWAP1 SWAP3 MSTORE PUSH1 0x0 SWAP1 DUP3 SWAP1 PUSH1 0x24 SWAP1 DUP3 SWAP1 PUSH1 0x1 PUSH1 0x1 PUSH1 0xA0 SHL SUB AND GAS STATICCALL SWAP1 DUP2 ISZERO PUSH2 0x289 JUMPI PUSH1 0x0 SWAP2 PUSH2 0x26E JUMPI POP SWAP1 JUMP INVALID LOG2 PUSH5 0x6970667358 0x22 SLT KECCAK256 ADD RETURN JUMPDEST PUSH17 0xA5DD425719E2E7DB89D736D3F261FFF598 JUMPDEST ADD PUSH32 0xEEB5BB3D5904C02564736F6C6343000814003300000000000000000000000000 "},"methodIdentifiers":{"bank1()":"da11f709","bank2()":"d001425a","getItemName(uint8)":"30a86006","getItemSVG(uint8)":"f6d40558"}}}}}