{"contracts/ArweaveMonsterBank2.sol":{"ArweaveMonsterBank2":{"abi":[{"inputs":[{"internalType":"uint8","name":"monsterId","type":"uint8"}],"name":"getMonsterName","outputs":[{"internalType":"string","name":"","type":"string"}],"stateMutability":"pure","type":"function"},{"inputs":[{"internalType":"uint8","name":"monsterId","type":"uint8"}],"name":"getMonsterSVG","outputs":[{"internalType":"string","name":"","type":"string"}],"stateMutability":"pure","type":"function"}],"evm":{"bytecode":{"linkReferences":{},"object":"6080806040523461001657613c51908161001c8239f35b600080fdfe6080604052600436101561001257600080fd5b6000803560e01c80626b021614610070576336681e761461003257600080fd5b3461006d57602036600319011261006d576004359060ff8216820361006d5761006961005d83610156565b6040519182918261009c565b0390f35b80fd5b503461006d57602036600319011261006d576004359060ff8216820361006d5761006961005d83613ac6565b6020808252825181830181905290939260005b8281106100d157505060409293506000838284010152601f8019910116010190565b8181018601518482016040015285016100af565b60405190604082018281106001600160401b038211176101085760405260088252565b634e487b7160e01b600052604160045260246000fd5b60609060208152601b60208201527f4d6f6e73746572204944206e6f7420696e20746869732062616e6b000000000060408201520190565b60ff16600581146133bd5760068114612c3057600781146125265760088114610c645760091461019d5760405162461bcd60e51b8152806101996004820161011e565b0390fd5b60405161094081018181106001600160401b038211176101085760405261090b8152600080516020613bfc8339815191526020820152600080516020613bdc83398151915260408201527f7420783d22382220793d2232222077696474683d223822206865696768743d2260608201527f32222066696c6c3d2223453845384538222f3e3c7265637420783d223722207960808201527f3d2234222077696474683d22313022206865696768743d2233222066696c6c3d60a08201527f2223453845384538222f3e3c7265637420783d22362220793d2236222077696460c08201527f74683d22313222206865696768743d2233222066696c6c3d222345384538453860e08201527f222f3e3c7265637420783d22372220793d2239222077696474683d22313022206101008201527f6865696768743d2232222066696c6c3d2223453845384538222f3e3c72656374806101208301527f20783d22382220793d2235222077696474683d223322206865696768743d22336101408301527f222066696c6c3d2223314331433143222f3e3c7265637420783d2231332220796101608301527f3d2235222077696474683d223322206865696768743d2233222066696c6c3d226101808301527f23314331433143222f3e3c7265637420783d22392220793d22362220776964746101a08301527f683d223122206865696768743d2231222066696c6c3d2223464636423642222f6101c08301527f3e3c7265637420783d2231342220793d2236222077696474683d2231222068656101e08301527f696768743d2231222066696c6c3d2223464636423642222f3e3c7265637420786102008301527f3d2231312220793d2237222077696474683d223222206865696768743d2232226102208301527f2066696c6c3d2223314331433143222f3e3c7265637420783d22382220793d226102408301527f3130222077696474683d223822206865696768743d2231222066696c6c3d22236102608301527f443344334433222f3e3c7265637420783d22382220793d2239222077696474686102808301527f3d223122206865696768743d2232222066696c6c3d2223463546354635222f3e806102a08401527f3c7265637420783d2231302220793d2239222077696474683d223122206865696102c08401527f6768743d2232222066696c6c3d2223463546354635222f3e3c7265637420783d6102e08401527f2231322220793d2239222077696474683d223122206865696768743d223222206103008401527f66696c6c3d2223463546354635222f3e3c7265637420783d2231342220793d226103208401527f39222077696474683d223122206865696768743d2232222066696c6c3d2223466103408401527f3546354635222f3e3c7265637420783d2231352220793d2239222077696474686103608401526103808301527f3c7265637420783d2231312220793d223131222077696474683d2232222068656103a08301527f696768743d2232222066696c6c3d2223453845384538222f3e3c7265637420786103c08301527f3d22372220793d223133222077696474683d22313022206865696768743d22316103e08301527f222066696c6c3d2223453845384538222f3e3c7265637420783d22362220793d6104008301527f223134222077696474683d22313222206865696768743d2231222066696c6c3d6104208301527f2223443344334433222f3e3c7265637420783d22372220793d223135222077696104408301527f6474683d22313022206865696768743d2231222066696c6c3d222345384538456104608301527f38222f3e3c7265637420783d22382220793d223136222077696474683d2238226104808301527f206865696768743d2231222066696c6c3d2223443344334433222f3e3c7265636104a08301527f7420783d22392220793d223137222077696474683d223622206865696768743d6104c08301527f2231222066696c6c3d2223453845384538222f3e3c7265637420783d223131226104e08301527f20793d223133222077696474683d223222206865696768743d2236222066696c6105008301527f6c3d2223463546354635222f3e3c7265637420783d22342220793d22313322206105208301527f77696474683d223322206865696768743d2232222066696c6c3d2223453845386105408301527f4538222f3e3c7265637420783d2231372220793d223133222077696474683d226105608301527f3322206865696768743d2232222066696c6c3d2223453845384538222f3e3c726105808301527f65637420783d22332220793d223135222077696474683d2232222068656967686105a08301527f743d2234222066696c6c3d2223443344334433222f3e3c7265637420783d22316105c08301527f392220793d223135222077696474683d223222206865696768743d22342220666105e08301527f696c6c3d2223443344334433222f3e3c7265637420783d22322220793d2231386106008301527f222077696474683d223322206865696768743d2231222066696c6c3d222345386106208301527f45384538222f3e3c7265637420783d2231392220793d223138222077696474686106408301527f3d223322206865696768743d2231222066696c6c3d2223453845384538222f3e6106608301527f3c7265637420783d22322220793d223139222077696474683d223122206865696106808301527f6768743d2232222066696c6c3d2223443344334433222f3e3c7265637420783d6106a08301527f22332220793d223139222077696474683d223122206865696768743d223222206106c08301527f66696c6c3d2223443344334433222f3e3c7265637420783d22342220793d22316106e08301527f39222077696474683d223122206865696768743d2232222066696c6c3d2223446107008301527f3344334433222f3e3c7265637420783d2231392220793d2231392220776964746107208301527f683d223122206865696768743d2232222066696c6c3d2223443344334433222f6107408301527f3e3c7265637420783d2232302220793d223139222077696474683d22312220686107608301527f65696768743d2232222066696c6c3d2223443344334433222f3e3c72656374206107808301527f783d2232312220793d223139222077696474683d223122206865696768743d226107a08301527f32222066696c6c3d2223443344334433222f3e3c7265637420783d22382220796107c08301527f3d223138222077696474683d223822206865696768743d2232222066696c6c3d6107e08301527f2223453845384538222f3e3c7265637420783d22392220793d223139222077696108008301527f6474683d223622206865696768743d2231222066696c6c3d22234433443344336108208301527f222f3e3c7265637420783d22392220793d223230222077696474683d223222206108408301526108608201527f20783d2231332220793d223230222077696474683d223222206865696768743d6108808201527f2232222066696c6c3d2223453845384538222f3e3c7265637420783d223922206108a08201527f793d223232222077696474683d223222206865696768743d2231222066696c6c6108c08201527f3d2223443344334433222f3e3c7265637420783d2231332220793d22323222206108e08201527f77696474683d223222206865696768743d2231222066696c6c3d2223443344336109008201526a221991179f1e17b9bb339f60a91b61092082015290565b5060405161148081018181106001600160401b038211176101085760405261145a8152600080516020613bfc83398151915260208201527f687474703a2f2f7777772e77332e6f72672f323030302f73766722207368617060408201527f652d72656e646572696e673d2263726973704564676573223e3c72656374207860608201527f3d22382220793d2232222077696474683d223122206865696768743d2231222060808201527f66696c6c3d2223384230303030222f3e3c7265637420783d2231352220793d2260a08201527f32222077696474683d223122206865696768743d2231222066696c6c3d22233860c08201527f4230303030222f3e3c7265637420783d22382220793d2238222077696474683d60e08201527f223122206865696768743d2232222066696c6c3d2223384230303030222f3e3c6101008201527f7265637420783d2231302220793d2238222077696474683d22312220686569676101208201527f68743d2232222066696c6c3d2223384230303030222f3e3c7265637420783d22806101408301527f31332220793d2238222077696474683d223122206865696768743d22322220666101608301527f696c6c3d2223384230303030222f3e3c7265637420783d2231352220793d22386101808301527f222077696474683d223122206865696768743d2232222066696c6c3d222338426101a08301527f30303030222f3e3c7265637420783d22392220793d223134222077696474683d6101c08301527f223522206865696768743d2233222066696c6c3d2223384230303030222f3e3c6101e08301527f7265637420783d22382220793d223135222077696474683d22312220686569676102008301526102208201527f31342220793d223135222077696474683d223122206865696768743d223222206102408201527f66696c6c3d2223384230303030222f3e3c7265637420783d2231332220793d226102608201527f3137222077696474683d223122206865696768743d2231222066696c6c3d22236102808201527f384230303030222f3e3c7265637420783d2231362220793d22313722207769646102a08201527f74683d223122206865696768743d2231222066696c6c3d2223384230303030226102c08201527f2f3e3c7265637420783d22392220793d223138222077696474683d22342220686102e08201527f65696768743d2231222066696c6c3d2223384230303030222f3e3c72656374206103008201527f783d22372220793d2233222077696474683d223222206865696768743d2231226103208201527f2066696c6c3d2223444331343343222f3e3c7265637420783d2231352220793d6103408201527f2233222077696474683d223222206865696768743d2231222066696c6c3d22236103608201527f444331343343222f3e3c7265637420783d22392220793d2239222077696474686103808201527f3d223122206865696768743d2231222066696c6c3d2223444331343343222f3e6103a08201527f3c7265637420783d2231302220793d223131222077696474683d2232222068656103c08201527f696768743d2231222066696c6c3d2223444331343343222f3e3c7265637420786103e08201527f3d2231332220793d223131222077696474683d223122206865696768743d22316104008201527f222066696c6c3d2223444331343343222f3e3c7265637420783d2231392220796104208201527f3d223138222077696474683d223122206865696768743d2231222066696c6c3d6104408201527f2223444331343343222f3e3c7265637420783d22362220793d223422207769646104608201527f74683d22313222206865696768743d2232222066696c6c3d22233442303038326104808201527f222f3e3c7265637420783d22352220793d2235222077696474683d22312220686104a08201527f65696768743d2239222066696c6c3d2223344230303832222f3e3c72656374206104c08201527f783d2231382220793d2235222077696474683d223122206865696768743d22386104e08201527f222066696c6c3d2223344230303832222f3e3c7265637420783d22362220793d6105008201527f2236222077696474683d223122206865696768743d2231222066696c6c3d22236105208201527f344230303832222f3e3c7265637420783d22382220793d2236222077696474686105408201527f3d223122206865696768743d2231222066696c6c3d2223344230303832222f3e6105608201527f3c7265637420783d2231302220793d2236222077696474683d223122206865696105808201527f6768743d2231222066696c6c3d2223344230303832222f3e3c7265637420783d6105a08201527f2231322220793d2236222077696474683d223122206865696768743d223122206105c08201527f66696c6c3d2223344230303832222f3e3c7265637420783d2231342220793d226105e08201527f36222077696474683d223122206865696768743d2231222066696c6c3d2223346106008201527f4230303832222f3e3c7265637420783d2231362220793d2236222077696474686106208201527f3d223222206865696768743d2231222066696c6c3d2223344230303832222f3e6106408201527f3c7265637420783d22342220793d2237222077696474683d22312220686569676106608201527f68743d2236222066696c6c3d2223344230303832222f3e3c7265637420783d226106808201527f31372220793d2237222077696474683d223122206865696768743d22312220666106a08201527f696c6c3d2223344230303832222f3e3c7265637420783d2231392220793d22376106c08201527f222077696474683d223122206865696768743d2236222066696c6c3d222334426106e08201527f30303832222f3e3c7265637420783d22362220793d223132222077696474683d6107008201527f223122206865696768743d2233222066696c6c3d2223344230303832222f3e3c6107208201527f7265637420783d2231372220793d223132222077696474683d223122206865696107408201527f6768743d2233222066696c6c3d2223344230303832222f3e3c7265637420783d6107608201527f22372220793d223133222077696474683d223322206865696768743d223122206107808201527f66696c6c3d2223344230303832222f3e3c7265637420783d2231352220793d226107a08201527f3133222077696474683d223222206865696768743d2232222066696c6c3d22236107c08201527f344230303832222f3e3c7265637420783d22372220793d2231342220776964746107e08201527f683d223222206865696768743d2231222066696c6c3d2223344230303832222f6108008201527f3e3c7265637420783d2231342220793d223134222077696474683d22312220686108208201527f65696768743d2231222066696c6c3d2223344230303832222f3e3c72656374206108408201527f783d2231372220793d223136222077696474683d223122206865696768743d226108608201527f32222066696c6c3d2223344230303832222f3e3c7265637420783d22372220796108808201527f3d2236222077696474683d223122206865696768743d2237222066696c6c3d226108a08201527f23464645344531222f3e3c7265637420783d22392220793d22362220776964746108c08201527f683d223122206865696768743d2232222066696c6c3d2223464645344531222f6108e08201527f3e3c7265637420783d2231312220793d2236222077696474683d2231222068656109008201527f696768743d2234222066696c6c3d2223464645344531222f3e3c7265637420786109208201527f3d2231332220793d2236222077696474683d223122206865696768743d2232226109408201527f2066696c6c3d2223464645344531222f3e3c7265637420783d2231352220793d6109608201527f2236222077696474683d223122206865696768743d2232222066696c6c3d22236109808201527f464645344531222f3e3c7265637420783d22362220793d2237222077696474686109a08201527f3d223122206865696768743d2235222066696c6c3d2223464645344531222f3e6109c08201527f3c7265637420783d22382220793d2237222077696474683d22312220686569676109e08201527f68743d2231222066696c6c3d2223464645344531222f3e3c7265637420783d22610a008201527f31302220793d2237222077696474683d223122206865696768743d2231222066610a208201527f696c6c3d2223464645344531222f3e3c7265637420783d2231322220793d2237610a408201527f222077696474683d223122206865696768743d2233222066696c6c3d22234646610a608201527f45344531222f3e3c7265637420783d2231342220793d2237222077696474683d610a808201527f223122206865696768743d2231222066696c6c3d2223464645344531222f3e3c610aa08201527f7265637420783d2231362220793d2237222077696474683d2231222068656967610ac08201527f68743d2235222066696c6c3d2223464645344531222f3e3c7265637420783d22610ae08201527f382220793d223130222077696474683d223322206865696768743d2231222066610b008201527f696c6c3d2223464645344531222f3e3c7265637420783d2231332220793d2231610b208201527f30222077696474683d223322206865696768743d2231222066696c6c3d222346610b408201527f4645344531222f3e3c7265637420783d22382220793d22313122207769647468610b608201527f3d223222206865696768743d2232222066696c6c3d2223464645344531222f3e610b808201527f3c7265637420783d2231342220793d223131222077696474683d223222206865610ba08201527f696768743d2231222066696c6c3d2223464645344531222f3e3c726563742078610bc08201527f3d2231302220793d223132222077696474683d223522206865696768743d2231610be08201527f222066696c6c3d2223464645344531222f3e3c7265637420783d223130222079610c008201527f3d223133222077696474683d223322206865696768743d2231222066696c6c3d610c208201527f2223464645344531222f3e3c7265637420783d22362220793d22313522207769610c408201527f6474683d223222206865696768743d2233222066696c6c3d2223464645344531610c608201527f222f3e3c7265637420783d2231352220793d223135222077696474683d223222610c808201527f206865696768743d2232222066696c6c3d2223464645344531222f3e3c726563610ca08201527f7420783d22382220793d223137222077696474683d223122206865696768743d610cc08201527f2235222066696c6c3d2223464645344531222f3e3c7265637420783d22313422610ce08201527f20793d223137222077696474683d223222206865696768743d2232222066696c610d008201527f6c3d2223464645344531222f3e3c7265637420783d22372220793d2231382220610d208201527f77696474683d223122206865696768743d2231222066696c6c3d222346464534610d408201527f4531222f3e3c7265637420783d22392220793d223139222077696474683d2231610d608201527f22206865696768743d2234222066696c6c3d2223464645344531222f3e3c7265610d808201527f637420783d2231332220793d223139222077696474683d223222206865696768610da08201527f743d2231222066696c6c3d2223464645344531222f3e3c7265637420783d2231610dc08201527f362220793d223139222077696474683d223222206865696768743d2232222066610de08201527f696c6c3d2223464645344531222f3e3c7265637420783d2231332220793d2232610e008201527f30222077696474683d223122206865696768743d2233222066696c6c3d222346610e208201527f4645344531222f3e3c7265637420783d2231352220793d223231222077696474610e408201527f683d223222206865696768743d2231222066696c6c3d2223464645344531222f610e608201527f3e3c7265637420783d22392220793d2238222077696474683d22312220686569610e808201527f6768743d2231222066696c6c3d2223464646222f3e3c7265637420783d223134610ea08201527f2220793d2238222077696474683d223122206865696768743d2231222066696c610ec08201527f6c3d2223464646222f3e3c7265637420783d2231372220793d22382220776964610ee08201527f74683d223122206865696768743d2234222066696c6c3d222345456363633522610f008201527f2f3e3c7265637420783d2231312220793d223130222077696474683d22322220610f208201527f6865696768743d2231222066696c6c3d2223454563636335222f3e3c72656374610f408201527f20783d2231352220793d223132222077696474683d223222206865696768743d610f608201527f2231222066696c6c3d2223454563636335222f3e3c7265637420783d22313322610f808201527f20793d223133222077696474683d223222206865696768743d2231222066696c610fa08201527f6c3d2223454563636335222f3e3c7265637420783d2231312220793d22323022610fc08201527f2077696474683d223122206865696768743d2232222066696c6c3d2223454563610fe08201527f636335222f3e3c7265637420783d2231352220793d223230222077696474683d6110008201527f223122206865696768743d2231222066696c6c3d2223454563636335222f3e3c6110208201527f7265637420783d2231342220793d223231222077696474683d223122206865696110408201527f6768743d2231222066696c6c3d2223454563636335222f3e3c7265637420783d6110608201527f2231342220793d2239222077696474683d223122206865696768743d223122206110808201527f66696c6c3d2223663036613835222f3e3c7265637420783d2231322220793d226110a08201527f3131222077696474683d223122206865696768743d2231222066696c6c3d22236110c08201527f663036613835222f3e3c7265637420783d22332220793d2231332220776964746110e08201527f683d223222206865696768743d2234222066696c6c3d2223344230303030222f6111008201527f3e3c7265637420783d2231382220793d223133222077696474683d22332220686111208201527f65696768743d2233222066696c6c3d2223344230303030222f3e3c72656374206111408201527f783d22322220793d223134222077696474683d223122206865696768743d22326111608201527f222066696c6c3d2223344230303030222f3e3c7265637420783d22352220793d6111808201527f223134222077696474683d223122206865696768743d2232222066696c6c3d226111a08201527f23344230303030222f3e3c7265637420783d2232312220793d223134222077696111c08201527f6474683d223122206865696768743d2234222066696c6c3d22233442303030306111e08201527f222f3e3c7265637420783d2231372220793d223135222077696474683d2231226112008201527f206865696768743d2231222066696c6c3d2223344230303030222f3e3c7265636112208201527f7420783d2231392220793d223136222077696474683d223222206865696768746112408201527f3d2231222066696c6c3d2223344230303030222f3e3c7265637420783d2234226112608201527f20793d223137222077696474683d223122206865696768743d2232222066696c6112808201527f6c3d2223344230303030222f3e3c7265637420783d22392220793d22313722206112a08201527f77696474683d223422206865696768743d2231222066696c6c3d2223396231376112c08201527f3137222f3e3c7265637420783d2231332220793d223138222077696474683d226112e08201527f3122206865696768743d2231222066696c6c3d2223366530323032222f3e3c726113008201527f65637420783d2231362220793d223138222077696474683d22322220686569676113208201527f68743d2231222066696c6c3d2223366530323032222f3e3c7265637420783d226113408201527f31302220793d223139222077696474683d223322206865696768743d223122206113608201527f66696c6c3d2223366530323032222f3e3c7265637420783d2231382220793d226113808201527f3139222077696474683d223122206865696768743d2231222066696c6c3d22236113a08201527f366530323032222f3e3c7265637420783d2231352220793d22313922207769646113c08201527f74683d223122206865696768743d2231222066696c6c3d2223643562346165226113e08201527f2f3e3c7265637420783d2231322220793d223230222077696474683d223122206114008201527f6865696768743d2232222066696c6c3d2223633861386132222f3e3c726563746114208201527f20783d2231342220793d223230222077696474683d223122206865696768743d6114408201527f2231222066696c6c3d2223633861386132222f3e3c2f7376673e00000000000061146082015290565b5060405161060081018181106001600160401b03821117610108576040526105c38152600080516020613bfc8339815191526020820152600080516020613bdc83398151915260408201527f7420783d22372220793d2233222077696474683d22313022206865696768743d60608201527f2239222066696c6c3d2223463544454233222f3e3c7265637420783d2236222060808201527f793d2234222077696474683d223122206865696768743d2237222066696c6c3d60a08201527f2223463544454233222f3e3c7265637420783d2231372220793d22342220776960c08201527f6474683d223122206865696768743d2237222066696c6c3d222346354445423360e08201527f222f3e3c7265637420783d22372220793d2235222077696474683d22313022206101008201527f6865696768743d2231222066696c6c3d2223443242343843222f3e3c726563746101208201527f20783d22372220793d2238222077696474683d22313022206865696768743d226101408201527f31222066696c6c3d2223443242343843222f3e3c7265637420783d22372220796101608201527f3d223131222077696474683d22313022206865696768743d2231222066696c6c6101808201527f3d2223443242343843222f3e3c7265637420783d22392220793d2236222077696101a08201527f6474683d223222206865696768743d2232222066696c6c3d22233030303030306101c08201527f222f3e3c7265637420783d2231332220793d2236222077696474683d223222206101e08201527f6865696768743d2232222066696c6c3d2223303030303030222f3e3c726563746102008201527f20783d22362220793d223132222077696474683d22313222206865696768743d6102208201527f2238222066696c6c3d2223463544454233222f3e3c7265637420783d223522206102408201527f793d223133222077696474683d223122206865696768743d2236222066696c6c6102608201527f3d2223463544454233222f3e3c7265637420783d2231382220793d22313322206102808201527f77696474683d223122206865696768743d2236222066696c6c3d2223463544456102a08201527f4233222f3e3c7265637420783d22362220793d223134222077696474683d22316102c08201527f3222206865696768743d2231222066696c6c3d2223443242343843222f3e3c726102e08201527f65637420783d22362220793d223137222077696474683d2231322220686569676103008201527f68743d2231222066696c6c3d2223443242343843222f3e3c7265637420783d226103208201527f332220793d223133222077696474683d223222206865696768743d22352220666103408201527f696c6c3d2223463544454233222f3e3c7265637420783d2231392220793d22316103608201527f33222077696474683d223222206865696768743d2235222066696c6c3d2223466103808201527f3544454233222f3e3c7265637420783d22332220793d223135222077696474686103a08201527f3d223222206865696768743d2231222066696c6c3d2223443242343843222f3e6103c08201527f3c7265637420783d2231392220793d223135222077696474683d2232222068656103e08201527f696768743d2231222066696c6c3d2223443242343843222f3e3c7265637420786104008201527f3d22322220793d223134222077696474683d223122206865696768743d2232226104208201527f2066696c6c3d2223463544454233222f3e3c7265637420783d2232312220793d6104408201527f223136222077696474683d223122206865696768743d2232222066696c6c3d226104608201527f23463544454233222f3e3c7265637420783d22372220793d22323022207769646104808201527f74683d223322206865696768743d2232222066696c6c3d2223463544454233226104a08201527f2f3e3c7265637420783d2231342220793d223230222077696474683d223322206104c08201527f6865696768743d2232222066696c6c3d2223463544454233222f3e3c726563746104e08201527f20783d22382220793d223232222077696474683d223222206865696768743d226105008201527f31222066696c6c3d2223463544454233222f3e3c7265637420783d22313522206105208201527f793d223232222077696474683d223222206865696768743d2231222066696c6c6105408201527f3d2223463544454233222f3e3c7265637420783d22372220793d2232312220776105608201527f696474683d223322206865696768743d2231222066696c6c3d222344324234386105808201527f43222f3e3c7265637420783d2231342220793d223231222077696474683d22336105a08201527f22206865696768743d2231222066696c6c3d2223443242343843222f3e3c2f736105c0820152623b339f60e91b6105e082015290565b5060405161066081018181106001600160401b03821117610108576040526106318152600080516020613bfc8339815191526020820152600080516020613bdc83398151915260408201527f7420783d22362220793d2232222077696474683d22313222206865696768743d60608201527f2233222066696c6c3d2223303030303030222f3e3c7265637420783d2235222060808201527f793d2233222077696474683d223122206865696768743d2232222066696c6c3d60a08201527f2223303030303030222f3e3c7265637420783d2231382220793d22332220776960c08201527f6474683d223122206865696768743d2232222066696c6c3d222330303030303060e08201527f222f3e3c7265637420783d22362220793d2235222077696474683d22313222206101008201527f6865696768743d2238222066696c6c3d2223443344334433222f3e3c726563746101208201527f20783d22352220793d2236222077696474683d223122206865696768743d22366101408201527f222066696c6c3d2223443344334433222f3e3c7265637420783d2231382220796101608201527f3d2236222077696474683d223122206865696768743d2236222066696c6c3d226101808201527f23443344334433222f3e3c7265637420783d22382220793d22372220776964746101a08201527f683d223222206865696768743d2232222066696c6c3d2223444331343343222f6101c08201527f3e3c7265637420783d2231342220793d2237222077696474683d2232222068656101e08201527f696768743d2232222066696c6c3d2223444331343343222f3e3c7265637420786102008201527f3d22392220793d223130222077696474683d223622206865696768743d2231226102208201527f2066696c6c3d2223303030303030222f3e3c7265637420783d22392220793d226102408201527f3131222077696474683d223122206865696768743d2232222066696c6c3d22236102608201527f464646464646222f3e3c7265637420783d2231342220793d22313122207769646102808201527f74683d223122206865696768743d2232222066696c6c3d2223464646464646226102a08201527f2f3e3c7265637420783d22342220793d223132222077696474683d22313622206102c08201527f6865696768743d2232222066696c6c3d2223344230303030222f3e3c726563746102e08201527f20783d22332220793d223133222077696474683d223122206865696768743d226103008201527f31222066696c6c3d2223344230303030222f3e3c7265637420783d22323022206103208201527f793d223133222077696474683d223122206865696768743d2231222066696c6c6103408201527f3d2223344230303030222f3e3c7265637420783d22372220793d2231342220776103608201527f696474683d22313022206865696768743d2235222066696c6c3d2223303030306103808201527f3030222f3e3c7265637420783d22362220793d223135222077696474683d22316103a08201527f22206865696768743d2233222066696c6c3d2223303030303030222f3e3c72656103c08201527f637420783d2231372220793d223135222077696474683d2231222068656967686103e08201527f743d2233222066696c6c3d2223303030303030222f3e3c7265637420783d22356104008201527f2220793d223134222077696474683d223122206865696768743d2236222066696104208201527f6c6c3d2223344230303030222f3e3c7265637420783d2231382220793d2231346104408201527f222077696474683d223122206865696768743d2236222066696c6c3d222334426104608201527f30303030222f3e3c7265637420783d22342220793d223135222077696474683d6104808201527f223122206865696768743d2235222066696c6c3d2223344230303030222f3e3c6104a08201527f7265637420783d2231392220793d223135222077696474683d223122206865696104c08201527f6768743d2235222066696c6c3d2223344230303030222f3e3c7265637420783d6104e08201527f22332220793d223136222077696474683d223122206865696768743d223422206105008201527f66696c6c3d2223344230303030222f3e3c7265637420783d2232302220793d226105208201527f3136222077696474683d223122206865696768743d2234222066696c6c3d22236105408201527f344230303030222f3e3c7265637420783d22382220793d2231392220776964746105608201527f683d223322206865696768743d2233222066696c6c3d2223303030303030222f6105808201527f3e3c7265637420783d2231332220793d223139222077696474683d22332220686105a08201527f65696768743d2233222066696c6c3d2223303030303030222f3e3c72656374206105c08201527f783d22392220793d223232222077696474683d223222206865696768743d22316105e08201527f222066696c6c3d2223303030303030222f3e3c7265637420783d2231342220796106008201527f3d223232222077696474683d223222206865696768743d2231222066696c6c3d61062082015270111198181818181811179f1e17b9bb339f60791b61064082015290565b5060405161060081018181106001600160401b03821117610108576040526105c28152600080516020613bfc8339815191526020820152600080516020613bdc83398151915260408201527f7420783d22372220793d2234222077696474683d22313022206865696768743d60608201527f2239222066696c6c3d2223353536423246222f3e3c7265637420783d2236222060808201527f793d2235222077696474683d223122206865696768743d2237222066696c6c3d60a08201527f2223353536423246222f3e3c7265637420783d2231372220793d22352220776960c08201527f6474683d223122206865696768743d2237222066696c6c3d222335353642324660e08201527f222f3e3c7265637420783d22392220793d2235222077696474683d22322220686101008201527f65696768743d2232222066696c6c3d2223334535463142222f3e3c72656374206101208201527f783d2231352220793d2237222077696474683d223222206865696768743d22326101408201527f222066696c6c3d2223334535463142222f3e3c7265637420783d22382220793d6101608201527f2238222077696474683d223222206865696768743d2232222066696c6c3d22236101808201527f444331343343222f3e3c7265637420783d2231342220793d22382220776964746101a08201527f683d223222206865696768743d2232222066696c6c3d2223444331343343222f6101c08201527f3e3c7265637420783d22392220793d223131222077696474683d2236222068656101e08201527f696768743d2231222066696c6c3d2223303030303030222f3e3c7265637420786102008201527f3d2231302220793d223132222077696474683d223122206865696768743d22316102208201527f222066696c6c3d2223464646464646222f3e3c7265637420783d2231322220796102408201527f3d223132222077696474683d223122206865696768743d2231222066696c6c3d6102608201527f2223464646464646222f3e3c7265637420783d2231342220793d2231322220776102808201527f696474683d223122206865696768743d2231222066696c6c3d222346464646466102a08201527f46222f3e3c7265637420783d22362220793d223133222077696474683d2231326102c08201527f22206865696768743d2237222066696c6c3d2223353536423246222f3e3c72656102e08201527f637420783d22352220793d223134222077696474683d223122206865696768746103008201527f3d2235222066696c6c3d2223353536423246222f3e3c7265637420783d2231386103208201527f2220793d223134222077696474683d223122206865696768743d2235222066696103408201527f6c6c3d2223353536423246222f3e3c7265637420783d22372220793d223134226103608201527f2077696474683d223322206865696768743d2233222066696c6c3d22233442306103808201527f303832222f3e3c7265637420783d2231342220793d223135222077696474683d6103a08201527f223322206865696768743d2232222066696c6c3d2223344230303832222f3e3c6103c08201527f7265637420783d2231312220793d223137222077696474683d223222206865696103e08201527f6768743d2232222066696c6c3d2223344230303832222f3e3c7265637420783d6104008201527f22332220793d223134222077696474683d223222206865696768743d223422206104208201527f66696c6c3d2223353536423246222f3e3c7265637420783d2231392220793d226104408201527f3134222077696474683d223222206865696768743d2234222066696c6c3d22236104608201527f353536423246222f3e3c7265637420783d22322220793d2231352220776964746104808201527f683d223122206865696768743d2232222066696c6c3d2223353536423246222f6104a08201527f3e3c7265637420783d2232312220793d223135222077696474683d22312220686104c08201527f65696768743d2232222066696c6c3d2223353536423246222f3e3c72656374206104e08201527f783d22372220793d223230222077696474683d223322206865696768743d22326105008201527f222066696c6c3d2223353536423246222f3e3c7265637420783d2231342220796105208201527f3d223230222077696474683d223322206865696768743d2232222066696c6c3d6105408201527f2223353536423246222f3e3c7265637420783d22382220793d223232222077696105608201527f6474683d223222206865696768743d2231222066696c6c3d22233535364232466105808201527f222f3e3c7265637420783d2231352220793d223232222077696474683d2232226105a08201527f206865696768743d2231222066696c6c3d2223353536423246222f3e3c2f73766105c082015261339f60f11b6105e082015290565b60ff1660058114613ba85760068114613b745760078114613b425760088114613b2557600914613b095760405162461bcd60e51b8152806101996004820161011e565b613b116100e5565b6729b5b2b632ba37b760c11b602082015290565b50613b2e6100e5565b67537563637562757360c01b602082015290565b50604051604081018181106001600160401b038211176101085760405260058152644d756d6d7960d81b602082015290565b50604051604081018181106001600160401b0382111761010857604052600781526656616d7069726560c81b602082015290565b50604051604081018181106001600160401b038211176101085760405260068152655a6f6d62696560d01b60208201529056fe687474703a2f2f7777772e77332e6f72672f323030302f737667223e3c7265633c7376672076696577426f783d223020302032342032342220786d6c6e733d22a2646970667358221220d7cbde1a20a81b7f227245978b55eec42762437c556d96a5db3340fe6143bd9c64736f6c63430008140033","opcodes":"PUSH1 0x80 DUP1 PUSH1 0x40 MSTORE CALLVALUE PUSH2 0x16 JUMPI PUSH2 0x3C51 SWAP1 DUP2 PUSH2 0x1C DUP3 CODECOPY RETURN JUMPDEST PUSH1 0x0 DUP1 REVERT INVALID PUSH1 0x80 PUSH1 0x40 MSTORE PUSH1 0x4 CALLDATASIZE LT ISZERO PUSH2 0x12 JUMPI PUSH1 0x0 DUP1 REVERT JUMPDEST PUSH1 0x0 DUP1 CALLDATALOAD PUSH1 0xE0 SHR DUP1 PUSH3 0x6B0216 EQ PUSH2 0x70 JUMPI PUSH4 0x36681E76 EQ PUSH2 0x32 JUMPI PUSH1 0x0 DUP1 REVERT JUMPDEST CALLVALUE PUSH2 0x6D JUMPI PUSH1 0x20 CALLDATASIZE PUSH1 0x3 NOT ADD SLT PUSH2 0x6D JUMPI PUSH1 0x4 CALLDATALOAD SWAP1 PUSH1 0xFF DUP3 AND DUP3 SUB PUSH2 0x6D JUMPI PUSH2 0x69 PUSH2 0x5D DUP4 PUSH2 0x156 JUMP JUMPDEST PUSH1 0x40 MLOAD SWAP2 DUP3 SWAP2 DUP3 PUSH2 0x9C JUMP JUMPDEST SUB SWAP1 RETURN JUMPDEST DUP1 REVERT JUMPDEST POP CALLVALUE PUSH2 0x6D JUMPI PUSH1 0x20 CALLDATASIZE PUSH1 0x3 NOT ADD SLT PUSH2 0x6D JUMPI PUSH1 0x4 CALLDATALOAD SWAP1 PUSH1 0xFF DUP3 AND DUP3 SUB PUSH2 0x6D JUMPI PUSH2 0x69 PUSH2 0x5D DUP4 PUSH2 0x3AC6 JUMP JUMPDEST PUSH1 0x20 DUP1 DUP3 MSTORE DUP3 MLOAD DUP2 DUP4 ADD DUP2 SWAP1 MSTORE SWAP1 SWAP4 SWAP3 PUSH1 0x0 JUMPDEST DUP3 DUP2 LT PUSH2 0xD1 JUMPI POP POP PUSH1 0x40 SWAP3 SWAP4 POP PUSH1 0x0 DUP4 DUP3 DUP5 ADD ADD MSTORE PUSH1 0x1F DUP1 NOT SWAP2 ADD AND ADD ADD SWAP1 JUMP JUMPDEST DUP2 DUP2 ADD DUP7 ADD MLOAD DUP5 DUP3 ADD PUSH1 0x40 ADD MSTORE DUP6 ADD PUSH2 0xAF JUMP JUMPDEST PUSH1 0x40 MLOAD SWAP1 PUSH1 0x40 DUP3 ADD DUP3 DUP2 LT PUSH1 0x1 PUSH1 0x1 PUSH1 0x40 SHL SUB DUP3 GT OR PUSH2 0x108 JUMPI PUSH1 0x40 MSTORE PUSH1 0x8 DUP3 MSTORE JUMP JUMPDEST PUSH4 0x4E487B71 PUSH1 0xE0 SHL PUSH1 0x0 MSTORE PUSH1 0x41 PUSH1 0x4 MSTORE PUSH1 0x24 PUSH1 0x0 REVERT JUMPDEST PUSH1 0x60 SWAP1 PUSH1 0x20 DUP2 MSTORE PUSH1 0x1B PUSH1 0x20 DUP3 ADD MSTORE PUSH32 0x4D6F6E73746572204944206E6F7420696E20746869732062616E6B0000000000 PUSH1 0x40 DUP3 ADD MSTORE ADD SWAP1 JUMP JUMPDEST PUSH1 0xFF AND PUSH1 0x5 DUP2 EQ PUSH2 0x33BD JUMPI PUSH1 0x6 DUP2 EQ PUSH2 0x2C30 JUMPI PUSH1 0x7 DUP2 EQ PUSH2 0x2526 JUMPI PUSH1 0x8 DUP2 EQ PUSH2 0xC64 JUMPI PUSH1 0x9 EQ PUSH2 0x19D JUMPI PUSH1 0x40 MLOAD PUSH3 0x461BCD PUSH1 0xE5 SHL DUP2 MSTORE DUP1 PUSH2 0x199 PUSH1 0x4 DUP3 ADD PUSH2 0x11E JUMP JUMPDEST SUB SWAP1 REVERT JUMPDEST PUSH1 0x40 MLOAD PUSH2 0x940 DUP2 ADD DUP2 DUP2 LT PUSH1 0x1 PUSH1 0x1 PUSH1 0x40 SHL SUB DUP3 GT OR PUSH2 0x108 JUMPI PUSH1 0x40 MSTORE PUSH2 0x90B DUP2 MSTORE PUSH1 0x0 DUP1 MLOAD PUSH1 0x20 PUSH2 0x3BFC DUP4 CODECOPY DUP2 MLOAD SWAP2 MSTORE PUSH1 0x20 DUP3 ADD MSTORE PUSH1 0x0 DUP1 MLOAD PUSH1 0x20 PUSH2 0x3BDC DUP4 CODECOPY DUP2 MLOAD SWAP2 MSTORE PUSH1 0x40 DUP3 ADD MSTORE PUSH32 0x7420783D22382220793D2232222077696474683D223822206865696768743D22 PUSH1 0x60 DUP3 ADD MSTORE PUSH32 0x32222066696C6C3D2223453845384538222F3E3C7265637420783D2237222079 PUSH1 0x80 DUP3 ADD MSTORE PUSH32 0x3D2234222077696474683D22313022206865696768743D2233222066696C6C3D PUSH1 0xA0 DUP3 ADD MSTORE PUSH32 0x2223453845384538222F3E3C7265637420783D22362220793D22362220776964 PUSH1 0xC0 DUP3 ADD MSTORE PUSH32 0x74683D22313222206865696768743D2233222066696C6C3D2223453845384538 PUSH1 0xE0 DUP3 ADD MSTORE PUSH32 0x222F3E3C7265637420783D22372220793D2239222077696474683D2231302220 PUSH2 0x100 DUP3 ADD MSTORE PUSH32 0x6865696768743D2232222066696C6C3D2223453845384538222F3E3C72656374 DUP1 PUSH2 0x120 DUP4 ADD MSTORE PUSH32 0x20783D22382220793D2235222077696474683D223322206865696768743D2233 PUSH2 0x140 DUP4 ADD MSTORE PUSH32 0x222066696C6C3D2223314331433143222F3E3C7265637420783D223133222079 PUSH2 0x160 DUP4 ADD MSTORE PUSH32 0x3D2235222077696474683D223322206865696768743D2233222066696C6C3D22 PUSH2 0x180 DUP4 ADD MSTORE PUSH32 0x23314331433143222F3E3C7265637420783D22392220793D2236222077696474 PUSH2 0x1A0 DUP4 ADD MSTORE PUSH32 0x683D223122206865696768743D2231222066696C6C3D2223464636423642222F PUSH2 0x1C0 DUP4 ADD MSTORE PUSH32 0x3E3C7265637420783D2231342220793D2236222077696474683D223122206865 PUSH2 0x1E0 DUP4 ADD MSTORE PUSH32 0x696768743D2231222066696C6C3D2223464636423642222F3E3C726563742078 PUSH2 0x200 DUP4 ADD MSTORE PUSH32 0x3D2231312220793D2237222077696474683D223222206865696768743D223222 PUSH2 0x220 DUP4 ADD MSTORE PUSH32 0x2066696C6C3D2223314331433143222F3E3C7265637420783D22382220793D22 PUSH2 0x240 DUP4 ADD MSTORE PUSH32 0x3130222077696474683D223822206865696768743D2231222066696C6C3D2223 PUSH2 0x260 DUP4 ADD MSTORE PUSH32 0x443344334433222F3E3C7265637420783D22382220793D223922207769647468 PUSH2 0x280 DUP4 ADD MSTORE PUSH32 0x3D223122206865696768743D2232222066696C6C3D2223463546354635222F3E DUP1 PUSH2 0x2A0 DUP5 ADD MSTORE PUSH32 0x3C7265637420783D2231302220793D2239222077696474683D22312220686569 PUSH2 0x2C0 DUP5 ADD MSTORE PUSH32 0x6768743D2232222066696C6C3D2223463546354635222F3E3C7265637420783D PUSH2 0x2E0 DUP5 ADD MSTORE PUSH32 0x2231322220793D2239222077696474683D223122206865696768743D22322220 PUSH2 0x300 DUP5 ADD MSTORE PUSH32 0x66696C6C3D2223463546354635222F3E3C7265637420783D2231342220793D22 PUSH2 0x320 DUP5 ADD MSTORE PUSH32 0x39222077696474683D223122206865696768743D2232222066696C6C3D222346 PUSH2 0x340 DUP5 ADD MSTORE PUSH32 0x3546354635222F3E3C7265637420783D2231352220793D223922207769647468 PUSH2 0x360 DUP5 ADD MSTORE PUSH2 0x380 DUP4 ADD MSTORE PUSH32 0x3C7265637420783D2231312220793D223131222077696474683D223222206865 PUSH2 0x3A0 DUP4 ADD MSTORE PUSH32 0x696768743D2232222066696C6C3D2223453845384538222F3E3C726563742078 PUSH2 0x3C0 DUP4 ADD MSTORE PUSH32 0x3D22372220793D223133222077696474683D22313022206865696768743D2231 PUSH2 0x3E0 DUP4 ADD MSTORE PUSH32 0x222066696C6C3D2223453845384538222F3E3C7265637420783D22362220793D PUSH2 0x400 DUP4 ADD MSTORE PUSH32 0x223134222077696474683D22313222206865696768743D2231222066696C6C3D PUSH2 0x420 DUP4 ADD MSTORE PUSH32 0x2223443344334433222F3E3C7265637420783D22372220793D22313522207769 PUSH2 0x440 DUP4 ADD MSTORE PUSH32 0x6474683D22313022206865696768743D2231222066696C6C3D22234538453845 PUSH2 0x460 DUP4 ADD MSTORE PUSH32 0x38222F3E3C7265637420783D22382220793D223136222077696474683D223822 PUSH2 0x480 DUP4 ADD MSTORE PUSH32 0x206865696768743D2231222066696C6C3D2223443344334433222F3E3C726563 PUSH2 0x4A0 DUP4 ADD MSTORE PUSH32 0x7420783D22392220793D223137222077696474683D223622206865696768743D PUSH2 0x4C0 DUP4 ADD MSTORE PUSH32 0x2231222066696C6C3D2223453845384538222F3E3C7265637420783D22313122 PUSH2 0x4E0 DUP4 ADD MSTORE PUSH32 0x20793D223133222077696474683D223222206865696768743D2236222066696C PUSH2 0x500 DUP4 ADD MSTORE PUSH32 0x6C3D2223463546354635222F3E3C7265637420783D22342220793D2231332220 PUSH2 0x520 DUP4 ADD MSTORE PUSH32 0x77696474683D223322206865696768743D2232222066696C6C3D222345384538 PUSH2 0x540 DUP4 ADD MSTORE PUSH32 0x4538222F3E3C7265637420783D2231372220793D223133222077696474683D22 PUSH2 0x560 DUP4 ADD MSTORE PUSH32 0x3322206865696768743D2232222066696C6C3D2223453845384538222F3E3C72 PUSH2 0x580 DUP4 ADD MSTORE PUSH32 0x65637420783D22332220793D223135222077696474683D223222206865696768 PUSH2 0x5A0 DUP4 ADD MSTORE PUSH32 0x743D2234222066696C6C3D2223443344334433222F3E3C7265637420783D2231 PUSH2 0x5C0 DUP4 ADD MSTORE PUSH32 0x392220793D223135222077696474683D223222206865696768743D2234222066 PUSH2 0x5E0 DUP4 ADD MSTORE PUSH32 0x696C6C3D2223443344334433222F3E3C7265637420783D22322220793D223138 PUSH2 0x600 DUP4 ADD MSTORE PUSH32 0x222077696474683D223322206865696768743D2231222066696C6C3D22234538 PUSH2 0x620 DUP4 ADD MSTORE PUSH32 0x45384538222F3E3C7265637420783D2231392220793D22313822207769647468 PUSH2 0x640 DUP4 ADD MSTORE PUSH32 0x3D223322206865696768743D2231222066696C6C3D2223453845384538222F3E PUSH2 0x660 DUP4 ADD MSTORE PUSH32 0x3C7265637420783D22322220793D223139222077696474683D22312220686569 PUSH2 0x680 DUP4 ADD MSTORE PUSH32 0x6768743D2232222066696C6C3D2223443344334433222F3E3C7265637420783D PUSH2 0x6A0 DUP4 ADD MSTORE PUSH32 0x22332220793D223139222077696474683D223122206865696768743D22322220 PUSH2 0x6C0 DUP4 ADD MSTORE PUSH32 0x66696C6C3D2223443344334433222F3E3C7265637420783D22342220793D2231 PUSH2 0x6E0 DUP4 ADD MSTORE PUSH32 0x39222077696474683D223122206865696768743D2232222066696C6C3D222344 PUSH2 0x700 DUP4 ADD MSTORE PUSH32 0x3344334433222F3E3C7265637420783D2231392220793D223139222077696474 PUSH2 0x720 DUP4 ADD MSTORE PUSH32 0x683D223122206865696768743D2232222066696C6C3D2223443344334433222F PUSH2 0x740 DUP4 ADD MSTORE PUSH32 0x3E3C7265637420783D2232302220793D223139222077696474683D2231222068 PUSH2 0x760 DUP4 ADD MSTORE PUSH32 0x65696768743D2232222066696C6C3D2223443344334433222F3E3C7265637420 PUSH2 0x780 DUP4 ADD MSTORE PUSH32 0x783D2232312220793D223139222077696474683D223122206865696768743D22 PUSH2 0x7A0 DUP4 ADD MSTORE PUSH32 0x32222066696C6C3D2223443344334433222F3E3C7265637420783D2238222079 PUSH2 0x7C0 DUP4 ADD MSTORE PUSH32 0x3D223138222077696474683D223822206865696768743D2232222066696C6C3D PUSH2 0x7E0 DUP4 ADD MSTORE PUSH32 0x2223453845384538222F3E3C7265637420783D22392220793D22313922207769 PUSH2 0x800 DUP4 ADD MSTORE PUSH32 0x6474683D223622206865696768743D2231222066696C6C3D2223443344334433 PUSH2 0x820 DUP4 ADD MSTORE PUSH32 0x222F3E3C7265637420783D22392220793D223230222077696474683D22322220 PUSH2 0x840 DUP4 ADD MSTORE PUSH2 0x860 DUP3 ADD MSTORE PUSH32 0x20783D2231332220793D223230222077696474683D223222206865696768743D PUSH2 0x880 DUP3 ADD MSTORE PUSH32 0x2232222066696C6C3D2223453845384538222F3E3C7265637420783D22392220 PUSH2 0x8A0 DUP3 ADD MSTORE PUSH32 0x793D223232222077696474683D223222206865696768743D2231222066696C6C PUSH2 0x8C0 DUP3 ADD MSTORE PUSH32 0x3D2223443344334433222F3E3C7265637420783D2231332220793D2232322220 PUSH2 0x8E0 DUP3 ADD MSTORE PUSH32 0x77696474683D223222206865696768743D2231222066696C6C3D222344334433 PUSH2 0x900 DUP3 ADD MSTORE PUSH11 0x221991179F1E17B9BB339F PUSH1 0xA9 SHL PUSH2 0x920 DUP3 ADD MSTORE SWAP1 JUMP JUMPDEST POP PUSH1 0x40 MLOAD PUSH2 0x1480 DUP2 ADD DUP2 DUP2 LT PUSH1 0x1 PUSH1 0x1 PUSH1 0x40 SHL SUB DUP3 GT OR PUSH2 0x108 JUMPI PUSH1 0x40 MSTORE PUSH2 0x145A DUP2 MSTORE PUSH1 0x0 DUP1 MLOAD PUSH1 0x20 PUSH2 0x3BFC DUP4 CODECOPY DUP2 MLOAD SWAP2 MSTORE PUSH1 0x20 DUP3 ADD MSTORE PUSH32 0x687474703A2F2F7777772E77332E6F72672F323030302F737667222073686170 PUSH1 0x40 DUP3 ADD MSTORE PUSH32 0x652D72656E646572696E673D2263726973704564676573223E3C726563742078 PUSH1 0x60 DUP3 ADD MSTORE PUSH32 0x3D22382220793D2232222077696474683D223122206865696768743D22312220 PUSH1 0x80 DUP3 ADD MSTORE PUSH32 0x66696C6C3D2223384230303030222F3E3C7265637420783D2231352220793D22 PUSH1 0xA0 DUP3 ADD MSTORE PUSH32 0x32222077696474683D223122206865696768743D2231222066696C6C3D222338 PUSH1 0xC0 DUP3 ADD MSTORE PUSH32 0x4230303030222F3E3C7265637420783D22382220793D2238222077696474683D PUSH1 0xE0 DUP3 ADD MSTORE PUSH32 0x223122206865696768743D2232222066696C6C3D2223384230303030222F3E3C PUSH2 0x100 DUP3 ADD MSTORE PUSH32 0x7265637420783D2231302220793D2238222077696474683D2231222068656967 PUSH2 0x120 DUP3 ADD MSTORE PUSH32 0x68743D2232222066696C6C3D2223384230303030222F3E3C7265637420783D22 DUP1 PUSH2 0x140 DUP4 ADD MSTORE PUSH32 0x31332220793D2238222077696474683D223122206865696768743D2232222066 PUSH2 0x160 DUP4 ADD MSTORE PUSH32 0x696C6C3D2223384230303030222F3E3C7265637420783D2231352220793D2238 PUSH2 0x180 DUP4 ADD MSTORE PUSH32 0x222077696474683D223122206865696768743D2232222066696C6C3D22233842 PUSH2 0x1A0 DUP4 ADD MSTORE PUSH32 0x30303030222F3E3C7265637420783D22392220793D223134222077696474683D PUSH2 0x1C0 DUP4 ADD MSTORE PUSH32 0x223522206865696768743D2233222066696C6C3D2223384230303030222F3E3C PUSH2 0x1E0 DUP4 ADD MSTORE PUSH32 0x7265637420783D22382220793D223135222077696474683D2231222068656967 PUSH2 0x200 DUP4 ADD MSTORE PUSH2 0x220 DUP3 ADD MSTORE PUSH32 0x31342220793D223135222077696474683D223122206865696768743D22322220 PUSH2 0x240 DUP3 ADD MSTORE PUSH32 0x66696C6C3D2223384230303030222F3E3C7265637420783D2231332220793D22 PUSH2 0x260 DUP3 ADD MSTORE PUSH32 0x3137222077696474683D223122206865696768743D2231222066696C6C3D2223 PUSH2 0x280 DUP3 ADD MSTORE PUSH32 0x384230303030222F3E3C7265637420783D2231362220793D2231372220776964 PUSH2 0x2A0 DUP3 ADD MSTORE PUSH32 0x74683D223122206865696768743D2231222066696C6C3D222338423030303022 PUSH2 0x2C0 DUP3 ADD MSTORE PUSH32 0x2F3E3C7265637420783D22392220793D223138222077696474683D2234222068 PUSH2 0x2E0 DUP3 ADD MSTORE PUSH32 0x65696768743D2231222066696C6C3D2223384230303030222F3E3C7265637420 PUSH2 0x300 DUP3 ADD MSTORE PUSH32 0x783D22372220793D2233222077696474683D223222206865696768743D223122 PUSH2 0x320 DUP3 ADD MSTORE PUSH32 0x2066696C6C3D2223444331343343222F3E3C7265637420783D2231352220793D PUSH2 0x340 DUP3 ADD MSTORE PUSH32 0x2233222077696474683D223222206865696768743D2231222066696C6C3D2223 PUSH2 0x360 DUP3 ADD MSTORE PUSH32 0x444331343343222F3E3C7265637420783D22392220793D223922207769647468 PUSH2 0x380 DUP3 ADD MSTORE PUSH32 0x3D223122206865696768743D2231222066696C6C3D2223444331343343222F3E PUSH2 0x3A0 DUP3 ADD MSTORE PUSH32 0x3C7265637420783D2231302220793D223131222077696474683D223222206865 PUSH2 0x3C0 DUP3 ADD MSTORE PUSH32 0x696768743D2231222066696C6C3D2223444331343343222F3E3C726563742078 PUSH2 0x3E0 DUP3 ADD MSTORE PUSH32 0x3D2231332220793D223131222077696474683D223122206865696768743D2231 PUSH2 0x400 DUP3 ADD MSTORE PUSH32 0x222066696C6C3D2223444331343343222F3E3C7265637420783D223139222079 PUSH2 0x420 DUP3 ADD MSTORE PUSH32 0x3D223138222077696474683D223122206865696768743D2231222066696C6C3D PUSH2 0x440 DUP3 ADD MSTORE PUSH32 0x2223444331343343222F3E3C7265637420783D22362220793D22342220776964 PUSH2 0x460 DUP3 ADD MSTORE PUSH32 0x74683D22313222206865696768743D2232222066696C6C3D2223344230303832 PUSH2 0x480 DUP3 ADD MSTORE PUSH32 0x222F3E3C7265637420783D22352220793D2235222077696474683D2231222068 PUSH2 0x4A0 DUP3 ADD MSTORE PUSH32 0x65696768743D2239222066696C6C3D2223344230303832222F3E3C7265637420 PUSH2 0x4C0 DUP3 ADD MSTORE PUSH32 0x783D2231382220793D2235222077696474683D223122206865696768743D2238 PUSH2 0x4E0 DUP3 ADD MSTORE PUSH32 0x222066696C6C3D2223344230303832222F3E3C7265637420783D22362220793D PUSH2 0x500 DUP3 ADD MSTORE PUSH32 0x2236222077696474683D223122206865696768743D2231222066696C6C3D2223 PUSH2 0x520 DUP3 ADD MSTORE PUSH32 0x344230303832222F3E3C7265637420783D22382220793D223622207769647468 PUSH2 0x540 DUP3 ADD MSTORE PUSH32 0x3D223122206865696768743D2231222066696C6C3D2223344230303832222F3E PUSH2 0x560 DUP3 ADD MSTORE PUSH32 0x3C7265637420783D2231302220793D2236222077696474683D22312220686569 PUSH2 0x580 DUP3 ADD MSTORE PUSH32 0x6768743D2231222066696C6C3D2223344230303832222F3E3C7265637420783D PUSH2 0x5A0 DUP3 ADD MSTORE PUSH32 0x2231322220793D2236222077696474683D223122206865696768743D22312220 PUSH2 0x5C0 DUP3 ADD MSTORE PUSH32 0x66696C6C3D2223344230303832222F3E3C7265637420783D2231342220793D22 PUSH2 0x5E0 DUP3 ADD MSTORE PUSH32 0x36222077696474683D223122206865696768743D2231222066696C6C3D222334 PUSH2 0x600 DUP3 ADD MSTORE PUSH32 0x4230303832222F3E3C7265637420783D2231362220793D223622207769647468 PUSH2 0x620 DUP3 ADD MSTORE PUSH32 0x3D223222206865696768743D2231222066696C6C3D2223344230303832222F3E PUSH2 0x640 DUP3 ADD MSTORE PUSH32 0x3C7265637420783D22342220793D2237222077696474683D2231222068656967 PUSH2 0x660 DUP3 ADD MSTORE PUSH32 0x68743D2236222066696C6C3D2223344230303832222F3E3C7265637420783D22 PUSH2 0x680 DUP3 ADD MSTORE PUSH32 0x31372220793D2237222077696474683D223122206865696768743D2231222066 PUSH2 0x6A0 DUP3 ADD MSTORE PUSH32 0x696C6C3D2223344230303832222F3E3C7265637420783D2231392220793D2237 PUSH2 0x6C0 DUP3 ADD MSTORE PUSH32 0x222077696474683D223122206865696768743D2236222066696C6C3D22233442 PUSH2 0x6E0 DUP3 ADD MSTORE PUSH32 0x30303832222F3E3C7265637420783D22362220793D223132222077696474683D PUSH2 0x700 DUP3 ADD MSTORE PUSH32 0x223122206865696768743D2233222066696C6C3D2223344230303832222F3E3C PUSH2 0x720 DUP3 ADD MSTORE PUSH32 0x7265637420783D2231372220793D223132222077696474683D22312220686569 PUSH2 0x740 DUP3 ADD MSTORE PUSH32 0x6768743D2233222066696C6C3D2223344230303832222F3E3C7265637420783D PUSH2 0x760 DUP3 ADD MSTORE PUSH32 0x22372220793D223133222077696474683D223322206865696768743D22312220 PUSH2 0x780 DUP3 ADD MSTORE PUSH32 0x66696C6C3D2223344230303832222F3E3C7265637420783D2231352220793D22 PUSH2 0x7A0 DUP3 ADD MSTORE PUSH32 0x3133222077696474683D223222206865696768743D2232222066696C6C3D2223 PUSH2 0x7C0 DUP3 ADD MSTORE PUSH32 0x344230303832222F3E3C7265637420783D22372220793D223134222077696474 PUSH2 0x7E0 DUP3 ADD MSTORE PUSH32 0x683D223222206865696768743D2231222066696C6C3D2223344230303832222F PUSH2 0x800 DUP3 ADD MSTORE PUSH32 0x3E3C7265637420783D2231342220793D223134222077696474683D2231222068 PUSH2 0x820 DUP3 ADD MSTORE PUSH32 0x65696768743D2231222066696C6C3D2223344230303832222F3E3C7265637420 PUSH2 0x840 DUP3 ADD MSTORE PUSH32 0x783D2231372220793D223136222077696474683D223122206865696768743D22 PUSH2 0x860 DUP3 ADD MSTORE PUSH32 0x32222066696C6C3D2223344230303832222F3E3C7265637420783D2237222079 PUSH2 0x880 DUP3 ADD MSTORE PUSH32 0x3D2236222077696474683D223122206865696768743D2237222066696C6C3D22 PUSH2 0x8A0 DUP3 ADD MSTORE PUSH32 0x23464645344531222F3E3C7265637420783D22392220793D2236222077696474 PUSH2 0x8C0 DUP3 ADD MSTORE PUSH32 0x683D223122206865696768743D2232222066696C6C3D2223464645344531222F PUSH2 0x8E0 DUP3 ADD MSTORE PUSH32 0x3E3C7265637420783D2231312220793D2236222077696474683D223122206865 PUSH2 0x900 DUP3 ADD MSTORE PUSH32 0x696768743D2234222066696C6C3D2223464645344531222F3E3C726563742078 PUSH2 0x920 DUP3 ADD MSTORE PUSH32 0x3D2231332220793D2236222077696474683D223122206865696768743D223222 PUSH2 0x940 DUP3 ADD MSTORE PUSH32 0x2066696C6C3D2223464645344531222F3E3C7265637420783D2231352220793D PUSH2 0x960 DUP3 ADD MSTORE PUSH32 0x2236222077696474683D223122206865696768743D2232222066696C6C3D2223 PUSH2 0x980 DUP3 ADD MSTORE PUSH32 0x464645344531222F3E3C7265637420783D22362220793D223722207769647468 PUSH2 0x9A0 DUP3 ADD MSTORE PUSH32 0x3D223122206865696768743D2235222066696C6C3D2223464645344531222F3E PUSH2 0x9C0 DUP3 ADD MSTORE PUSH32 0x3C7265637420783D22382220793D2237222077696474683D2231222068656967 PUSH2 0x9E0 DUP3 ADD MSTORE PUSH32 0x68743D2231222066696C6C3D2223464645344531222F3E3C7265637420783D22 PUSH2 0xA00 DUP3 ADD MSTORE PUSH32 0x31302220793D2237222077696474683D223122206865696768743D2231222066 PUSH2 0xA20 DUP3 ADD MSTORE PUSH32 0x696C6C3D2223464645344531222F3E3C7265637420783D2231322220793D2237 PUSH2 0xA40 DUP3 ADD MSTORE PUSH32 0x222077696474683D223122206865696768743D2233222066696C6C3D22234646 PUSH2 0xA60 DUP3 ADD MSTORE PUSH32 0x45344531222F3E3C7265637420783D2231342220793D2237222077696474683D PUSH2 0xA80 DUP3 ADD MSTORE PUSH32 0x223122206865696768743D2231222066696C6C3D2223464645344531222F3E3C PUSH2 0xAA0 DUP3 ADD MSTORE PUSH32 0x7265637420783D2231362220793D2237222077696474683D2231222068656967 PUSH2 0xAC0 DUP3 ADD MSTORE PUSH32 0x68743D2235222066696C6C3D2223464645344531222F3E3C7265637420783D22 PUSH2 0xAE0 DUP3 ADD MSTORE PUSH32 0x382220793D223130222077696474683D223322206865696768743D2231222066 PUSH2 0xB00 DUP3 ADD MSTORE PUSH32 0x696C6C3D2223464645344531222F3E3C7265637420783D2231332220793D2231 PUSH2 0xB20 DUP3 ADD MSTORE PUSH32 0x30222077696474683D223322206865696768743D2231222066696C6C3D222346 PUSH2 0xB40 DUP3 ADD MSTORE PUSH32 0x4645344531222F3E3C7265637420783D22382220793D22313122207769647468 PUSH2 0xB60 DUP3 ADD MSTORE PUSH32 0x3D223222206865696768743D2232222066696C6C3D2223464645344531222F3E PUSH2 0xB80 DUP3 ADD MSTORE PUSH32 0x3C7265637420783D2231342220793D223131222077696474683D223222206865 PUSH2 0xBA0 DUP3 ADD MSTORE PUSH32 0x696768743D2231222066696C6C3D2223464645344531222F3E3C726563742078 PUSH2 0xBC0 DUP3 ADD MSTORE PUSH32 0x3D2231302220793D223132222077696474683D223522206865696768743D2231 PUSH2 0xBE0 DUP3 ADD MSTORE PUSH32 0x222066696C6C3D2223464645344531222F3E3C7265637420783D223130222079 PUSH2 0xC00 DUP3 ADD MSTORE PUSH32 0x3D223133222077696474683D223322206865696768743D2231222066696C6C3D PUSH2 0xC20 DUP3 ADD MSTORE PUSH32 0x2223464645344531222F3E3C7265637420783D22362220793D22313522207769 PUSH2 0xC40 DUP3 ADD MSTORE PUSH32 0x6474683D223222206865696768743D2233222066696C6C3D2223464645344531 PUSH2 0xC60 DUP3 ADD MSTORE PUSH32 0x222F3E3C7265637420783D2231352220793D223135222077696474683D223222 PUSH2 0xC80 DUP3 ADD MSTORE PUSH32 0x206865696768743D2232222066696C6C3D2223464645344531222F3E3C726563 PUSH2 0xCA0 DUP3 ADD MSTORE PUSH32 0x7420783D22382220793D223137222077696474683D223122206865696768743D PUSH2 0xCC0 DUP3 ADD MSTORE PUSH32 0x2235222066696C6C3D2223464645344531222F3E3C7265637420783D22313422 PUSH2 0xCE0 DUP3 ADD MSTORE PUSH32 0x20793D223137222077696474683D223222206865696768743D2232222066696C PUSH2 0xD00 DUP3 ADD MSTORE PUSH32 0x6C3D2223464645344531222F3E3C7265637420783D22372220793D2231382220 PUSH2 0xD20 DUP3 ADD MSTORE PUSH32 0x77696474683D223122206865696768743D2231222066696C6C3D222346464534 PUSH2 0xD40 DUP3 ADD MSTORE PUSH32 0x4531222F3E3C7265637420783D22392220793D223139222077696474683D2231 PUSH2 0xD60 DUP3 ADD MSTORE PUSH32 0x22206865696768743D2234222066696C6C3D2223464645344531222F3E3C7265 PUSH2 0xD80 DUP3 ADD MSTORE PUSH32 0x637420783D2231332220793D223139222077696474683D223222206865696768 PUSH2 0xDA0 DUP3 ADD MSTORE PUSH32 0x743D2231222066696C6C3D2223464645344531222F3E3C7265637420783D2231 PUSH2 0xDC0 DUP3 ADD MSTORE PUSH32 0x362220793D223139222077696474683D223222206865696768743D2232222066 PUSH2 0xDE0 DUP3 ADD MSTORE PUSH32 0x696C6C3D2223464645344531222F3E3C7265637420783D2231332220793D2232 PUSH2 0xE00 DUP3 ADD MSTORE PUSH32 0x30222077696474683D223122206865696768743D2233222066696C6C3D222346 PUSH2 0xE20 DUP3 ADD MSTORE PUSH32 0x4645344531222F3E3C7265637420783D2231352220793D223231222077696474 PUSH2 0xE40 DUP3 ADD MSTORE PUSH32 0x683D223222206865696768743D2231222066696C6C3D2223464645344531222F PUSH2 0xE60 DUP3 ADD MSTORE PUSH32 0x3E3C7265637420783D22392220793D2238222077696474683D22312220686569 PUSH2 0xE80 DUP3 ADD MSTORE PUSH32 0x6768743D2231222066696C6C3D2223464646222F3E3C7265637420783D223134 PUSH2 0xEA0 DUP3 ADD MSTORE PUSH32 0x2220793D2238222077696474683D223122206865696768743D2231222066696C PUSH2 0xEC0 DUP3 ADD MSTORE PUSH32 0x6C3D2223464646222F3E3C7265637420783D2231372220793D22382220776964 PUSH2 0xEE0 DUP3 ADD MSTORE PUSH32 0x74683D223122206865696768743D2234222066696C6C3D222345456363633522 PUSH2 0xF00 DUP3 ADD MSTORE PUSH32 0x2F3E3C7265637420783D2231312220793D223130222077696474683D22322220 PUSH2 0xF20 DUP3 ADD MSTORE PUSH32 0x6865696768743D2231222066696C6C3D2223454563636335222F3E3C72656374 PUSH2 0xF40 DUP3 ADD MSTORE PUSH32 0x20783D2231352220793D223132222077696474683D223222206865696768743D PUSH2 0xF60 DUP3 ADD MSTORE PUSH32 0x2231222066696C6C3D2223454563636335222F3E3C7265637420783D22313322 PUSH2 0xF80 DUP3 ADD MSTORE PUSH32 0x20793D223133222077696474683D223222206865696768743D2231222066696C PUSH2 0xFA0 DUP3 ADD MSTORE PUSH32 0x6C3D2223454563636335222F3E3C7265637420783D2231312220793D22323022 PUSH2 0xFC0 DUP3 ADD MSTORE PUSH32 0x2077696474683D223122206865696768743D2232222066696C6C3D2223454563 PUSH2 0xFE0 DUP3 ADD MSTORE PUSH32 0x636335222F3E3C7265637420783D2231352220793D223230222077696474683D PUSH2 0x1000 DUP3 ADD MSTORE PUSH32 0x223122206865696768743D2231222066696C6C3D2223454563636335222F3E3C PUSH2 0x1020 DUP3 ADD MSTORE PUSH32 0x7265637420783D2231342220793D223231222077696474683D22312220686569 PUSH2 0x1040 DUP3 ADD MSTORE PUSH32 0x6768743D2231222066696C6C3D2223454563636335222F3E3C7265637420783D PUSH2 0x1060 DUP3 ADD MSTORE PUSH32 0x2231342220793D2239222077696474683D223122206865696768743D22312220 PUSH2 0x1080 DUP3 ADD MSTORE PUSH32 0x66696C6C3D2223663036613835222F3E3C7265637420783D2231322220793D22 PUSH2 0x10A0 DUP3 ADD MSTORE PUSH32 0x3131222077696474683D223122206865696768743D2231222066696C6C3D2223 PUSH2 0x10C0 DUP3 ADD MSTORE PUSH32 0x663036613835222F3E3C7265637420783D22332220793D223133222077696474 PUSH2 0x10E0 DUP3 ADD MSTORE PUSH32 0x683D223222206865696768743D2234222066696C6C3D2223344230303030222F PUSH2 0x1100 DUP3 ADD MSTORE PUSH32 0x3E3C7265637420783D2231382220793D223133222077696474683D2233222068 PUSH2 0x1120 DUP3 ADD MSTORE PUSH32 0x65696768743D2233222066696C6C3D2223344230303030222F3E3C7265637420 PUSH2 0x1140 DUP3 ADD MSTORE PUSH32 0x783D22322220793D223134222077696474683D223122206865696768743D2232 PUSH2 0x1160 DUP3 ADD MSTORE PUSH32 0x222066696C6C3D2223344230303030222F3E3C7265637420783D22352220793D PUSH2 0x1180 DUP3 ADD MSTORE PUSH32 0x223134222077696474683D223122206865696768743D2232222066696C6C3D22 PUSH2 0x11A0 DUP3 ADD MSTORE PUSH32 0x23344230303030222F3E3C7265637420783D2232312220793D22313422207769 PUSH2 0x11C0 DUP3 ADD MSTORE PUSH32 0x6474683D223122206865696768743D2234222066696C6C3D2223344230303030 PUSH2 0x11E0 DUP3 ADD MSTORE PUSH32 0x222F3E3C7265637420783D2231372220793D223135222077696474683D223122 PUSH2 0x1200 DUP3 ADD MSTORE PUSH32 0x206865696768743D2231222066696C6C3D2223344230303030222F3E3C726563 PUSH2 0x1220 DUP3 ADD MSTORE PUSH32 0x7420783D2231392220793D223136222077696474683D22322220686569676874 PUSH2 0x1240 DUP3 ADD MSTORE PUSH32 0x3D2231222066696C6C3D2223344230303030222F3E3C7265637420783D223422 PUSH2 0x1260 DUP3 ADD MSTORE PUSH32 0x20793D223137222077696474683D223122206865696768743D2232222066696C PUSH2 0x1280 DUP3 ADD MSTORE PUSH32 0x6C3D2223344230303030222F3E3C7265637420783D22392220793D2231372220 PUSH2 0x12A0 DUP3 ADD MSTORE PUSH32 0x77696474683D223422206865696768743D2231222066696C6C3D222339623137 PUSH2 0x12C0 DUP3 ADD MSTORE PUSH32 0x3137222F3E3C7265637420783D2231332220793D223138222077696474683D22 PUSH2 0x12E0 DUP3 ADD MSTORE PUSH32 0x3122206865696768743D2231222066696C6C3D2223366530323032222F3E3C72 PUSH2 0x1300 DUP3 ADD MSTORE PUSH32 0x65637420783D2231362220793D223138222077696474683D2232222068656967 PUSH2 0x1320 DUP3 ADD MSTORE PUSH32 0x68743D2231222066696C6C3D2223366530323032222F3E3C7265637420783D22 PUSH2 0x1340 DUP3 ADD MSTORE PUSH32 0x31302220793D223139222077696474683D223322206865696768743D22312220 PUSH2 0x1360 DUP3 ADD MSTORE PUSH32 0x66696C6C3D2223366530323032222F3E3C7265637420783D2231382220793D22 PUSH2 0x1380 DUP3 ADD MSTORE PUSH32 0x3139222077696474683D223122206865696768743D2231222066696C6C3D2223 PUSH2 0x13A0 DUP3 ADD MSTORE PUSH32 0x366530323032222F3E3C7265637420783D2231352220793D2231392220776964 PUSH2 0x13C0 DUP3 ADD MSTORE PUSH32 0x74683D223122206865696768743D2231222066696C6C3D222364356234616522 PUSH2 0x13E0 DUP3 ADD MSTORE PUSH32 0x2F3E3C7265637420783D2231322220793D223230222077696474683D22312220 PUSH2 0x1400 DUP3 ADD MSTORE PUSH32 0x6865696768743D2232222066696C6C3D2223633861386132222F3E3C72656374 PUSH2 0x1420 DUP3 ADD MSTORE PUSH32 0x20783D2231342220793D223230222077696474683D223122206865696768743D PUSH2 0x1440 DUP3 ADD MSTORE PUSH32 0x2231222066696C6C3D2223633861386132222F3E3C2F7376673E000000000000 PUSH2 0x1460 DUP3 ADD MSTORE SWAP1 JUMP JUMPDEST POP PUSH1 0x40 MLOAD PUSH2 0x600 DUP2 ADD DUP2 DUP2 LT PUSH1 0x1 PUSH1 0x1 PUSH1 0x40 SHL SUB DUP3 GT OR PUSH2 0x108 JUMPI PUSH1 0x40 MSTORE PUSH2 0x5C3 DUP2 MSTORE PUSH1 0x0 DUP1 MLOAD PUSH1 0x20 PUSH2 0x3BFC DUP4 CODECOPY DUP2 MLOAD SWAP2 MSTORE PUSH1 0x20 DUP3 ADD MSTORE PUSH1 0x0 DUP1 MLOAD PUSH1 0x20 PUSH2 0x3BDC DUP4 CODECOPY DUP2 MLOAD SWAP2 MSTORE PUSH1 0x40 DUP3 ADD MSTORE PUSH32 0x7420783D22372220793D2233222077696474683D22313022206865696768743D PUSH1 0x60 DUP3 ADD MSTORE PUSH32 0x2239222066696C6C3D2223463544454233222F3E3C7265637420783D22362220 PUSH1 0x80 DUP3 ADD MSTORE PUSH32 0x793D2234222077696474683D223122206865696768743D2237222066696C6C3D PUSH1 0xA0 DUP3 ADD MSTORE PUSH32 0x2223463544454233222F3E3C7265637420783D2231372220793D223422207769 PUSH1 0xC0 DUP3 ADD MSTORE PUSH32 0x6474683D223122206865696768743D2237222066696C6C3D2223463544454233 PUSH1 0xE0 DUP3 ADD MSTORE PUSH32 0x222F3E3C7265637420783D22372220793D2235222077696474683D2231302220 PUSH2 0x100 DUP3 ADD MSTORE PUSH32 0x6865696768743D2231222066696C6C3D2223443242343843222F3E3C72656374 PUSH2 0x120 DUP3 ADD MSTORE PUSH32 0x20783D22372220793D2238222077696474683D22313022206865696768743D22 PUSH2 0x140 DUP3 ADD MSTORE PUSH32 0x31222066696C6C3D2223443242343843222F3E3C7265637420783D2237222079 PUSH2 0x160 DUP3 ADD MSTORE PUSH32 0x3D223131222077696474683D22313022206865696768743D2231222066696C6C PUSH2 0x180 DUP3 ADD MSTORE PUSH32 0x3D2223443242343843222F3E3C7265637420783D22392220793D223622207769 PUSH2 0x1A0 DUP3 ADD MSTORE PUSH32 0x6474683D223222206865696768743D2232222066696C6C3D2223303030303030 PUSH2 0x1C0 DUP3 ADD MSTORE PUSH32 0x222F3E3C7265637420783D2231332220793D2236222077696474683D22322220 PUSH2 0x1E0 DUP3 ADD MSTORE PUSH32 0x6865696768743D2232222066696C6C3D2223303030303030222F3E3C72656374 PUSH2 0x200 DUP3 ADD MSTORE PUSH32 0x20783D22362220793D223132222077696474683D22313222206865696768743D PUSH2 0x220 DUP3 ADD MSTORE PUSH32 0x2238222066696C6C3D2223463544454233222F3E3C7265637420783D22352220 PUSH2 0x240 DUP3 ADD MSTORE PUSH32 0x793D223133222077696474683D223122206865696768743D2236222066696C6C PUSH2 0x260 DUP3 ADD MSTORE PUSH32 0x3D2223463544454233222F3E3C7265637420783D2231382220793D2231332220 PUSH2 0x280 DUP3 ADD MSTORE PUSH32 0x77696474683D223122206865696768743D2236222066696C6C3D222346354445 PUSH2 0x2A0 DUP3 ADD MSTORE PUSH32 0x4233222F3E3C7265637420783D22362220793D223134222077696474683D2231 PUSH2 0x2C0 DUP3 ADD MSTORE PUSH32 0x3222206865696768743D2231222066696C6C3D2223443242343843222F3E3C72 PUSH2 0x2E0 DUP3 ADD MSTORE PUSH32 0x65637420783D22362220793D223137222077696474683D223132222068656967 PUSH2 0x300 DUP3 ADD MSTORE PUSH32 0x68743D2231222066696C6C3D2223443242343843222F3E3C7265637420783D22 PUSH2 0x320 DUP3 ADD MSTORE PUSH32 0x332220793D223133222077696474683D223222206865696768743D2235222066 PUSH2 0x340 DUP3 ADD MSTORE PUSH32 0x696C6C3D2223463544454233222F3E3C7265637420783D2231392220793D2231 PUSH2 0x360 DUP3 ADD MSTORE PUSH32 0x33222077696474683D223222206865696768743D2235222066696C6C3D222346 PUSH2 0x380 DUP3 ADD MSTORE PUSH32 0x3544454233222F3E3C7265637420783D22332220793D22313522207769647468 PUSH2 0x3A0 DUP3 ADD MSTORE PUSH32 0x3D223222206865696768743D2231222066696C6C3D2223443242343843222F3E PUSH2 0x3C0 DUP3 ADD MSTORE PUSH32 0x3C7265637420783D2231392220793D223135222077696474683D223222206865 PUSH2 0x3E0 DUP3 ADD MSTORE PUSH32 0x696768743D2231222066696C6C3D2223443242343843222F3E3C726563742078 PUSH2 0x400 DUP3 ADD MSTORE PUSH32 0x3D22322220793D223134222077696474683D223122206865696768743D223222 PUSH2 0x420 DUP3 ADD MSTORE PUSH32 0x2066696C6C3D2223463544454233222F3E3C7265637420783D2232312220793D PUSH2 0x440 DUP3 ADD MSTORE PUSH32 0x223136222077696474683D223122206865696768743D2232222066696C6C3D22 PUSH2 0x460 DUP3 ADD MSTORE PUSH32 0x23463544454233222F3E3C7265637420783D22372220793D2232302220776964 PUSH2 0x480 DUP3 ADD MSTORE PUSH32 0x74683D223322206865696768743D2232222066696C6C3D222346354445423322 PUSH2 0x4A0 DUP3 ADD MSTORE PUSH32 0x2F3E3C7265637420783D2231342220793D223230222077696474683D22332220 PUSH2 0x4C0 DUP3 ADD MSTORE PUSH32 0x6865696768743D2232222066696C6C3D2223463544454233222F3E3C72656374 PUSH2 0x4E0 DUP3 ADD MSTORE PUSH32 0x20783D22382220793D223232222077696474683D223222206865696768743D22 PUSH2 0x500 DUP3 ADD MSTORE PUSH32 0x31222066696C6C3D2223463544454233222F3E3C7265637420783D2231352220 PUSH2 0x520 DUP3 ADD MSTORE PUSH32 0x793D223232222077696474683D223222206865696768743D2231222066696C6C PUSH2 0x540 DUP3 ADD MSTORE PUSH32 0x3D2223463544454233222F3E3C7265637420783D22372220793D223231222077 PUSH2 0x560 DUP3 ADD MSTORE PUSH32 0x696474683D223322206865696768743D2231222066696C6C3D22234432423438 PUSH2 0x580 DUP3 ADD MSTORE PUSH32 0x43222F3E3C7265637420783D2231342220793D223231222077696474683D2233 PUSH2 0x5A0 DUP3 ADD MSTORE PUSH32 0x22206865696768743D2231222066696C6C3D2223443242343843222F3E3C2F73 PUSH2 0x5C0 DUP3 ADD MSTORE PUSH3 0x3B339F PUSH1 0xE9 SHL PUSH2 0x5E0 DUP3 ADD MSTORE SWAP1 JUMP JUMPDEST POP PUSH1 0x40 MLOAD PUSH2 0x660 DUP2 ADD DUP2 DUP2 LT PUSH1 0x1 PUSH1 0x1 PUSH1 0x40 SHL SUB DUP3 GT OR PUSH2 0x108 JUMPI PUSH1 0x40 MSTORE PUSH2 0x631 DUP2 MSTORE PUSH1 0x0 DUP1 MLOAD PUSH1 0x20 PUSH2 0x3BFC DUP4 CODECOPY DUP2 MLOAD SWAP2 MSTORE PUSH1 0x20 DUP3 ADD MSTORE PUSH1 0x0 DUP1 MLOAD PUSH1 0x20 PUSH2 0x3BDC DUP4 CODECOPY DUP2 MLOAD SWAP2 MSTORE PUSH1 0x40 DUP3 ADD MSTORE PUSH32 0x7420783D22362220793D2232222077696474683D22313222206865696768743D PUSH1 0x60 DUP3 ADD MSTORE PUSH32 0x2233222066696C6C3D2223303030303030222F3E3C7265637420783D22352220 PUSH1 0x80 DUP3 ADD MSTORE PUSH32 0x793D2233222077696474683D223122206865696768743D2232222066696C6C3D PUSH1 0xA0 DUP3 ADD MSTORE PUSH32 0x2223303030303030222F3E3C7265637420783D2231382220793D223322207769 PUSH1 0xC0 DUP3 ADD MSTORE PUSH32 0x6474683D223122206865696768743D2232222066696C6C3D2223303030303030 PUSH1 0xE0 DUP3 ADD MSTORE PUSH32 0x222F3E3C7265637420783D22362220793D2235222077696474683D2231322220 PUSH2 0x100 DUP3 ADD MSTORE PUSH32 0x6865696768743D2238222066696C6C3D2223443344334433222F3E3C72656374 PUSH2 0x120 DUP3 ADD MSTORE PUSH32 0x20783D22352220793D2236222077696474683D223122206865696768743D2236 PUSH2 0x140 DUP3 ADD MSTORE PUSH32 0x222066696C6C3D2223443344334433222F3E3C7265637420783D223138222079 PUSH2 0x160 DUP3 ADD MSTORE PUSH32 0x3D2236222077696474683D223122206865696768743D2236222066696C6C3D22 PUSH2 0x180 DUP3 ADD MSTORE PUSH32 0x23443344334433222F3E3C7265637420783D22382220793D2237222077696474 PUSH2 0x1A0 DUP3 ADD MSTORE PUSH32 0x683D223222206865696768743D2232222066696C6C3D2223444331343343222F PUSH2 0x1C0 DUP3 ADD MSTORE PUSH32 0x3E3C7265637420783D2231342220793D2237222077696474683D223222206865 PUSH2 0x1E0 DUP3 ADD MSTORE PUSH32 0x696768743D2232222066696C6C3D2223444331343343222F3E3C726563742078 PUSH2 0x200 DUP3 ADD MSTORE PUSH32 0x3D22392220793D223130222077696474683D223622206865696768743D223122 PUSH2 0x220 DUP3 ADD MSTORE PUSH32 0x2066696C6C3D2223303030303030222F3E3C7265637420783D22392220793D22 PUSH2 0x240 DUP3 ADD MSTORE PUSH32 0x3131222077696474683D223122206865696768743D2232222066696C6C3D2223 PUSH2 0x260 DUP3 ADD MSTORE PUSH32 0x464646464646222F3E3C7265637420783D2231342220793D2231312220776964 PUSH2 0x280 DUP3 ADD MSTORE PUSH32 0x74683D223122206865696768743D2232222066696C6C3D222346464646464622 PUSH2 0x2A0 DUP3 ADD MSTORE PUSH32 0x2F3E3C7265637420783D22342220793D223132222077696474683D2231362220 PUSH2 0x2C0 DUP3 ADD MSTORE PUSH32 0x6865696768743D2232222066696C6C3D2223344230303030222F3E3C72656374 PUSH2 0x2E0 DUP3 ADD MSTORE PUSH32 0x20783D22332220793D223133222077696474683D223122206865696768743D22 PUSH2 0x300 DUP3 ADD MSTORE PUSH32 0x31222066696C6C3D2223344230303030222F3E3C7265637420783D2232302220 PUSH2 0x320 DUP3 ADD MSTORE PUSH32 0x793D223133222077696474683D223122206865696768743D2231222066696C6C PUSH2 0x340 DUP3 ADD MSTORE PUSH32 0x3D2223344230303030222F3E3C7265637420783D22372220793D223134222077 PUSH2 0x360 DUP3 ADD MSTORE PUSH32 0x696474683D22313022206865696768743D2235222066696C6C3D222330303030 PUSH2 0x380 DUP3 ADD MSTORE PUSH32 0x3030222F3E3C7265637420783D22362220793D223135222077696474683D2231 PUSH2 0x3A0 DUP3 ADD MSTORE PUSH32 0x22206865696768743D2233222066696C6C3D2223303030303030222F3E3C7265 PUSH2 0x3C0 DUP3 ADD MSTORE PUSH32 0x637420783D2231372220793D223135222077696474683D223122206865696768 PUSH2 0x3E0 DUP3 ADD MSTORE PUSH32 0x743D2233222066696C6C3D2223303030303030222F3E3C7265637420783D2235 PUSH2 0x400 DUP3 ADD MSTORE PUSH32 0x2220793D223134222077696474683D223122206865696768743D223622206669 PUSH2 0x420 DUP3 ADD MSTORE PUSH32 0x6C6C3D2223344230303030222F3E3C7265637420783D2231382220793D223134 PUSH2 0x440 DUP3 ADD MSTORE PUSH32 0x222077696474683D223122206865696768743D2236222066696C6C3D22233442 PUSH2 0x460 DUP3 ADD MSTORE PUSH32 0x30303030222F3E3C7265637420783D22342220793D223135222077696474683D PUSH2 0x480 DUP3 ADD MSTORE PUSH32 0x223122206865696768743D2235222066696C6C3D2223344230303030222F3E3C PUSH2 0x4A0 DUP3 ADD MSTORE PUSH32 0x7265637420783D2231392220793D223135222077696474683D22312220686569 PUSH2 0x4C0 DUP3 ADD MSTORE PUSH32 0x6768743D2235222066696C6C3D2223344230303030222F3E3C7265637420783D PUSH2 0x4E0 DUP3 ADD MSTORE PUSH32 0x22332220793D223136222077696474683D223122206865696768743D22342220 PUSH2 0x500 DUP3 ADD MSTORE PUSH32 0x66696C6C3D2223344230303030222F3E3C7265637420783D2232302220793D22 PUSH2 0x520 DUP3 ADD MSTORE PUSH32 0x3136222077696474683D223122206865696768743D2234222066696C6C3D2223 PUSH2 0x540 DUP3 ADD MSTORE PUSH32 0x344230303030222F3E3C7265637420783D22382220793D223139222077696474 PUSH2 0x560 DUP3 ADD MSTORE PUSH32 0x683D223322206865696768743D2233222066696C6C3D2223303030303030222F PUSH2 0x580 DUP3 ADD MSTORE PUSH32 0x3E3C7265637420783D2231332220793D223139222077696474683D2233222068 PUSH2 0x5A0 DUP3 ADD MSTORE PUSH32 0x65696768743D2233222066696C6C3D2223303030303030222F3E3C7265637420 PUSH2 0x5C0 DUP3 ADD MSTORE PUSH32 0x783D22392220793D223232222077696474683D223222206865696768743D2231 PUSH2 0x5E0 DUP3 ADD MSTORE PUSH32 0x222066696C6C3D2223303030303030222F3E3C7265637420783D223134222079 PUSH2 0x600 DUP3 ADD MSTORE PUSH32 0x3D223232222077696474683D223222206865696768743D2231222066696C6C3D PUSH2 0x620 DUP3 ADD MSTORE PUSH17 0x111198181818181811179F1E17B9BB339F PUSH1 0x79 SHL PUSH2 0x640 DUP3 ADD MSTORE SWAP1 JUMP JUMPDEST POP PUSH1 0x40 MLOAD PUSH2 0x600 DUP2 ADD DUP2 DUP2 LT PUSH1 0x1 PUSH1 0x1 PUSH1 0x40 SHL SUB DUP3 GT OR PUSH2 0x108 JUMPI PUSH1 0x40 MSTORE PUSH2 0x5C2 DUP2 MSTORE PUSH1 0x0 DUP1 MLOAD PUSH1 0x20 PUSH2 0x3BFC DUP4 CODECOPY DUP2 MLOAD SWAP2 MSTORE PUSH1 0x20 DUP3 ADD MSTORE PUSH1 0x0 DUP1 MLOAD PUSH1 0x20 PUSH2 0x3BDC DUP4 CODECOPY DUP2 MLOAD SWAP2 MSTORE PUSH1 0x40 DUP3 ADD MSTORE PUSH32 0x7420783D22372220793D2234222077696474683D22313022206865696768743D PUSH1 0x60 DUP3 ADD MSTORE PUSH32 0x2239222066696C6C3D2223353536423246222F3E3C7265637420783D22362220 PUSH1 0x80 DUP3 ADD MSTORE PUSH32 0x793D2235222077696474683D223122206865696768743D2237222066696C6C3D PUSH1 0xA0 DUP3 ADD MSTORE PUSH32 0x2223353536423246222F3E3C7265637420783D2231372220793D223522207769 PUSH1 0xC0 DUP3 ADD MSTORE PUSH32 0x6474683D223122206865696768743D2237222066696C6C3D2223353536423246 PUSH1 0xE0 DUP3 ADD MSTORE PUSH32 0x222F3E3C7265637420783D22392220793D2235222077696474683D2232222068 PUSH2 0x100 DUP3 ADD MSTORE PUSH32 0x65696768743D2232222066696C6C3D2223334535463142222F3E3C7265637420 PUSH2 0x120 DUP3 ADD MSTORE PUSH32 0x783D2231352220793D2237222077696474683D223222206865696768743D2232 PUSH2 0x140 DUP3 ADD MSTORE PUSH32 0x222066696C6C3D2223334535463142222F3E3C7265637420783D22382220793D PUSH2 0x160 DUP3 ADD MSTORE PUSH32 0x2238222077696474683D223222206865696768743D2232222066696C6C3D2223 PUSH2 0x180 DUP3 ADD MSTORE PUSH32 0x444331343343222F3E3C7265637420783D2231342220793D2238222077696474 PUSH2 0x1A0 DUP3 ADD MSTORE PUSH32 0x683D223222206865696768743D2232222066696C6C3D2223444331343343222F PUSH2 0x1C0 DUP3 ADD MSTORE PUSH32 0x3E3C7265637420783D22392220793D223131222077696474683D223622206865 PUSH2 0x1E0 DUP3 ADD MSTORE PUSH32 0x696768743D2231222066696C6C3D2223303030303030222F3E3C726563742078 PUSH2 0x200 DUP3 ADD MSTORE PUSH32 0x3D2231302220793D223132222077696474683D223122206865696768743D2231 PUSH2 0x220 DUP3 ADD MSTORE PUSH32 0x222066696C6C3D2223464646464646222F3E3C7265637420783D223132222079 PUSH2 0x240 DUP3 ADD MSTORE PUSH32 0x3D223132222077696474683D223122206865696768743D2231222066696C6C3D PUSH2 0x260 DUP3 ADD MSTORE PUSH32 0x2223464646464646222F3E3C7265637420783D2231342220793D223132222077 PUSH2 0x280 DUP3 ADD MSTORE PUSH32 0x696474683D223122206865696768743D2231222066696C6C3D22234646464646 PUSH2 0x2A0 DUP3 ADD MSTORE PUSH32 0x46222F3E3C7265637420783D22362220793D223133222077696474683D223132 PUSH2 0x2C0 DUP3 ADD MSTORE PUSH32 0x22206865696768743D2237222066696C6C3D2223353536423246222F3E3C7265 PUSH2 0x2E0 DUP3 ADD MSTORE PUSH32 0x637420783D22352220793D223134222077696474683D22312220686569676874 PUSH2 0x300 DUP3 ADD MSTORE PUSH32 0x3D2235222066696C6C3D2223353536423246222F3E3C7265637420783D223138 PUSH2 0x320 DUP3 ADD MSTORE PUSH32 0x2220793D223134222077696474683D223122206865696768743D223522206669 PUSH2 0x340 DUP3 ADD MSTORE PUSH32 0x6C6C3D2223353536423246222F3E3C7265637420783D22372220793D22313422 PUSH2 0x360 DUP3 ADD MSTORE PUSH32 0x2077696474683D223322206865696768743D2233222066696C6C3D2223344230 PUSH2 0x380 DUP3 ADD MSTORE PUSH32 0x303832222F3E3C7265637420783D2231342220793D223135222077696474683D PUSH2 0x3A0 DUP3 ADD MSTORE PUSH32 0x223322206865696768743D2232222066696C6C3D2223344230303832222F3E3C PUSH2 0x3C0 DUP3 ADD MSTORE PUSH32 0x7265637420783D2231312220793D223137222077696474683D22322220686569 PUSH2 0x3E0 DUP3 ADD MSTORE PUSH32 0x6768743D2232222066696C6C3D2223344230303832222F3E3C7265637420783D PUSH2 0x400 DUP3 ADD MSTORE PUSH32 0x22332220793D223134222077696474683D223222206865696768743D22342220 PUSH2 0x420 DUP3 ADD MSTORE PUSH32 0x66696C6C3D2223353536423246222F3E3C7265637420783D2231392220793D22 PUSH2 0x440 DUP3 ADD MSTORE PUSH32 0x3134222077696474683D223222206865696768743D2234222066696C6C3D2223 PUSH2 0x460 DUP3 ADD MSTORE PUSH32 0x353536423246222F3E3C7265637420783D22322220793D223135222077696474 PUSH2 0x480 DUP3 ADD MSTORE PUSH32 0x683D223122206865696768743D2232222066696C6C3D2223353536423246222F PUSH2 0x4A0 DUP3 ADD MSTORE PUSH32 0x3E3C7265637420783D2232312220793D223135222077696474683D2231222068 PUSH2 0x4C0 DUP3 ADD MSTORE PUSH32 0x65696768743D2232222066696C6C3D2223353536423246222F3E3C7265637420 PUSH2 0x4E0 DUP3 ADD MSTORE PUSH32 0x783D22372220793D223230222077696474683D223322206865696768743D2232 PUSH2 0x500 DUP3 ADD MSTORE PUSH32 0x222066696C6C3D2223353536423246222F3E3C7265637420783D223134222079 PUSH2 0x520 DUP3 ADD MSTORE PUSH32 0x3D223230222077696474683D223322206865696768743D2232222066696C6C3D PUSH2 0x540 DUP3 ADD MSTORE PUSH32 0x2223353536423246222F3E3C7265637420783D22382220793D22323222207769 PUSH2 0x560 DUP3 ADD MSTORE PUSH32 0x6474683D223222206865696768743D2231222066696C6C3D2223353536423246 PUSH2 0x580 DUP3 ADD MSTORE PUSH32 0x222F3E3C7265637420783D2231352220793D223232222077696474683D223222 PUSH2 0x5A0 DUP3 ADD MSTORE PUSH32 0x206865696768743D2231222066696C6C3D2223353536423246222F3E3C2F7376 PUSH2 0x5C0 DUP3 ADD MSTORE PUSH2 0x339F PUSH1 0xF1 SHL PUSH2 0x5E0 DUP3 ADD MSTORE SWAP1 JUMP JUMPDEST PUSH1 0xFF AND PUSH1 0x5 DUP2 EQ PUSH2 0x3BA8 JUMPI PUSH1 0x6 DUP2 EQ PUSH2 0x3B74 JUMPI PUSH1 0x7 DUP2 EQ PUSH2 0x3B42 JUMPI PUSH1 0x8 DUP2 EQ PUSH2 0x3B25 JUMPI PUSH1 0x9 EQ PUSH2 0x3B09 JUMPI PUSH1 0x40 MLOAD PUSH3 0x461BCD PUSH1 0xE5 SHL DUP2 MSTORE DUP1 PUSH2 0x199 PUSH1 0x4 DUP3 ADD PUSH2 0x11E JUMP JUMPDEST PUSH2 0x3B11 PUSH2 0xE5 JUMP JUMPDEST PUSH8 0x29B5B2B632BA37B7 PUSH1 0xC1 SHL PUSH1 0x20 DUP3 ADD MSTORE SWAP1 JUMP JUMPDEST POP PUSH2 0x3B2E PUSH2 0xE5 JUMP JUMPDEST PUSH8 0x5375636375627573 PUSH1 0xC0 SHL PUSH1 0x20 DUP3 ADD MSTORE SWAP1 JUMP JUMPDEST POP PUSH1 0x40 MLOAD PUSH1 0x40 DUP2 ADD DUP2 DUP2 LT PUSH1 0x1 PUSH1 0x1 PUSH1 0x40 SHL SUB DUP3 GT OR PUSH2 0x108 JUMPI PUSH1 0x40 MSTORE PUSH1 0x5 DUP2 MSTORE PUSH5 0x4D756D6D79 PUSH1 0xD8 SHL PUSH1 0x20 DUP3 ADD MSTORE SWAP1 JUMP JUMPDEST POP PUSH1 0x40 MLOAD PUSH1 0x40 DUP2 ADD DUP2 DUP2 LT PUSH1 0x1 PUSH1 0x1 PUSH1 0x40 SHL SUB DUP3 GT OR PUSH2 0x108 JUMPI PUSH1 0x40 MSTORE PUSH1 0x7 DUP2 MSTORE PUSH7 0x56616D70697265 PUSH1 0xC8 SHL PUSH1 0x20 DUP3 ADD MSTORE SWAP1 JUMP JUMPDEST POP PUSH1 0x40 MLOAD PUSH1 0x40 DUP2 ADD DUP2 DUP2 LT PUSH1 0x1 PUSH1 0x1 PUSH1 0x40 SHL SUB DUP3 GT OR PUSH2 0x108 JUMPI PUSH1 0x40 MSTORE PUSH1 0x6 DUP2 MSTORE PUSH6 0x5A6F6D626965 PUSH1 0xD0 SHL PUSH1 0x20 DUP3 ADD MSTORE SWAP1 JUMP INVALID PUSH9 0x7474703A2F2F777777 0x2E PUSH24 0x332E6F72672F323030302F737667223E3C7265633C737667 KECCAK256 PUSH23 0x696577426F783D223020302032342032342220786D6C6E PUSH20 0x3D22A2646970667358221220D7CBDE1A20A81B7F 0x22 PUSH19 0x45978B55EEC42762437C556D96A5DB3340FE61 NUMBER 0xBD SWAP13 PUSH5 0x736F6C6343 STOP ADDMOD EQ STOP CALLER "},"methodIdentifiers":{"getMonsterName(uint8)":"006b0216","getMonsterSVG(uint8)":"36681e76"}}}}}