{"contracts/ArweaveItemBank2.sol":{"ArweaveItemBank2":{"abi":[{"inputs":[{"internalType":"uint8","name":"itemId","type":"uint8"}],"name":"getItemName","outputs":[{"internalType":"string","name":"","type":"string"}],"stateMutability":"pure","type":"function"},{"inputs":[{"internalType":"uint8","name":"itemId","type":"uint8"}],"name":"getItemSVG","outputs":[{"internalType":"string","name":"","type":"string"}],"stateMutability":"pure","type":"function"}],"evm":{"bytecode":{"linkReferences":{},"object":"6080806040523461001657613279908161001c8239f35b600080fdfe6080604052600436101561001257600080fd5b6000803560e01c806330a86006146100715763f6d405581461003357600080fd5b3461006e57602036600319011261006e576004359060ff8216820361006e5761006a61005e83610152565b6040519182918261009d565b0390f35b80fd5b503461006e57602036600319011261006e576004359060ff8216820361006e5761006a61005e8361309b565b6020808252825181830181905290939260005b8281106100d257505060409293506000838284010152601f8019910116010190565b8181018601518482016040015285016100b0565b60405190604082018281106001600160401b038211176101095760405260068252565b634e487b7160e01b600052604160045260246000fd5b6060906020815260186020820152774974656d204944206e6f7420696e20746869732062616e6b60401b60408201520190565b60ff1660068114612bbe57600781146125855760088114611afa57600981146112e057600a8114610a0157600b146101a15760405162461bcd60e51b81528061019d6004820161011f565b0390fd5b60405161072081018181106001600160401b03821117610109576040526106ed8152600080516020613224833981519152602082015260008051602061320483398151915260408201526000805160206131e483398151915260608201527f72696e673d2263726973704564676573223e3c7265637420783d22333122207960808201527f3d223237222077696474683d223122206865696768743d2236222066696c6c3d60a08201527f2223463544454233222f3e3c7265637420783d2233322220793d22323822207760c08201527f696474683d223122206865696768743d2234222066696c6c3d2223463544454260e08201527f33222f3e3c7265637420783d2233392220793d223238222077696474683d22346101008201527f22206865696768743d2233222066696c6c3d2223463544454233222f3e3c72656101208201527f637420783d2233342220793d223239222077696474683d2234222068656967686101408201527f743d2233222066696c6c3d2223463544454233222f3e3c7265637420783d22336101608201527f322220793d223333222077696474683d223122206865696768743d22312220666101808201527f696c6c3d2223463544454233222f3e3c7265637420783d2234302220793d22326101a08201527f37222077696474683d223222206865696768743d2231222066696c6c3d2223446101c08201527f4542383837222f3e3c7265637420783d2233352220793d2232382220776964746101e08201527f683d223222206865696768743d2231222066696c6c3d2223444542383837222f6102008201527f3e3c7265637420783d2233382220793d223238222077696474683d22312220686102208201527f65696768743d2233222066696c6c3d2223444542383837222f3e3c72656374206102408201527f783d2233332220793d223239222077696474683d223122206865696768743d226102608201527f33222066696c6c3d2223444542383837222f3e3c7265637420783d22343322206102808201527f793d223237222077696474683d223322206865696768743d2231222066696c6c6102a08201527f3d2223384230303030222f3e3c7265637420783d2234342220793d22323822206102c08201527f77696474683d223122206865696768743d2236222066696c6c3d2223384230306102e08201527f3030222f3e3c7265637420783d2234332220793d223330222077696474683d226103008201527f3122206865696768743d2231222066696c6c3d2223384230303030222f3e3c726103208201527f65637420783d2234352220793d223330222077696474683d22312220686569676103408201527f68743d2231222066696c6c3d2223384230303030222f3e3c7265637420783d226103608201527f34352220793d223332222077696474683d223122206865696768743d223122206103808201527f66696c6c3d2223384230303030222f3e3c7265637420783d2234332220793d226103a08201527f3333222077696474683d223122206865696768743d2232222066696c6c3d22236103c08201527f384230303030222f3e3c7265637420783d2234342220793d22333622207769646103e08201527f74683d223122206865696768743d2234222066696c6c3d2223384230303030226104008201527f2f3e3c7265637420783d2233302220793d223238222077696474683d223122206104208201527f6865696768743d2231222066696c6c3d2223464645344531222f3e3c726563746104408201527f20783d2233302220793d223330222077696474683d223122206865696768743d6104608201527f2231222066696c6c3d2223464645344531222f3e3c7265637420783d223330226104808201527f20793d223332222077696474683d223122206865696768743d2231222066696c6104a08201527f6c3d2223464645344531222f3e3c7265637420783d2234332220793d223238226104c08201527f2077696474683d223122206865696768743d2232222066696c6c3d22234443316104e08201527f343343222f3e3c7265637420783d2234362220793d223238222077696474683d6105008201527f223122206865696768743d2231222066696c6c3d2223444331343343222f3e3c6105208201527f7265637420783d2234332220793d223331222077696474683d223122206865696105408201527f6768743d2232222066696c6c3d2223444331343343222f3e3c7265637420783d6105608201527f2234322220793d223333222077696474683d223122206865696768743d2233226105808201527f2066696c6c3d2223444331343343222f3e3c7265637420783d2234352220793d6105a08201527f223333222077696474683d223122206865696768743d2233222066696c6c3d226105c08201527f23444331343343222f3e3c7265637420783d2234342220793d223334222077696105e08201527f6474683d223122206865696768743d2232222066696c6c3d22234443313433436106008201527f222f3e3c7265637420783d2234332220793d223335222077696474683d2231226106208201527f206865696768743d2236222066696c6c3d2223444331343343222f3e3c7265636106408201527f7420783d2234362220793d223336222077696474683d223122206865696768746106608201527f3d2231222066696c6c3d2223444331343343222f3e3c7265637420783d2234306106808201527f2220793d223331222077696474683d223222206865696768743d2231222066696106a08201527f6c6c3d2223464645344235222f3e3c7265637420783d2233352220793d2233326106c08201527f222077696474683d223222206865696768743d2231222066696c6c3d222346466106e08201526c229a211a91179f1e17b9bb339f60991b61070082015290565b5060405161078081018181106001600160401b03821117610109576040526107568152600080516020613224833981519152602082015260008051602061320483398151915260408201526000805160206131e483398151915260608201527f72696e673d2263726973704564676573223e3c7265637420783d22333822207960808201527f3d223332222077696474683d223822206865696768743d2232222066696c6c3d60a08201527f2223324634463446222f3e3c7265637420783d2233372220793d22333322207760c08201527f696474683d223122206865696768743d2233222066696c6c3d2223324634463460e08201527f46222f3e3c7265637420783d2234362220793d223333222077696474683d22316101008201527f22206865696768743d2233222066696c6c3d2223324634463446222f3e3c72656101208201527f637420783d2233382220793d223334222077696474683d2231222068656967686101408201527f743d2231222066696c6c3d2223324634463446222f3e3c7265637420783d22346101608201527f352220793d223334222077696474683d223122206865696768743d22312220666101808201527f696c6c3d2223324634463446222f3e3c7265637420783d2233392220793d22336101a08201527f34222077696474683d223622206865696768743d2232222066696c6c3d2223436101c08201527f3043304330222f3e3c7265637420783d2233382220793d2233352220776964746101e08201527f683d223122206865696768743d2231222066696c6c3d2223433043304330222f6102008201527f3e3c7265637420783d2234352220793d223335222077696474683d22312220686102208201527f65696768743d2234222066696c6c3d2223433043304330222f3e3c72656374206102408201527f783d2233392220793d223336222077696474683d223122206865696768743d226102608201527f35222066696c6c3d2223433043304330222f3e3c7265637420783d22343222206102808201527f793d223336222077696474683d223122206865696768743d2232222066696c6c6102a08201527f3d2223433043304330222f3e3c7265637420783d2234302220793d22333722206102c08201527f77696474683d223222206865696768743d2231222066696c6c3d2223433043306102e08201527f4330222f3e3c7265637420783d2234332220793d223337222077696474683d226103008201527f3222206865696768743d2231222066696c6c3d2223433043304330222f3e3c726103208201527f65637420783d2234302220793d223338222077696474683d22312220686569676103408201527f68743d2233222066696c6c3d2223433043304330222f3e3c7265637420783d226103608201527f34342220793d223338222077696474683d223122206865696768743d223322206103808201527f66696c6c3d2223433043304330222f3e3c7265637420783d2234312220793d226103a08201527f3430222077696474683d223122206865696768743d2231222066696c6c3d22236103c08201527f433043304330222f3e3c7265637420783d2234332220793d22343022207769646103e08201527f74683d223122206865696768743d2231222066696c6c3d2223433043304330226104008201527f2f3e3c7265637420783d2233382220793d223336222077696474683d223122206104208201527f6865696768743d2233222066696c6c3d2223383038303830222f3e3c726563746104408201527f20783d2234362220793d223336222077696474683d223122206865696768743d6104608201527f2233222066696c6c3d2223383038303830222f3e3c7265637420783d223430226104808201527f20793d223336222077696474683d223222206865696768743d2231222066696c6104a08201527f6c3d2223303030222f3e3c7265637420783d2234332220793d223336222077696104c08201527f6474683d223222206865696768743d2231222066696c6c3d2223303030222f3e6104e08201527f3c7265637420783d2234312220793d223338222077696474683d2233222068656105008201527f696768743d2231222066696c6c3d2223303030222f3e3c7265637420783d22346105208201527f312220793d223339222077696474683d223322206865696768743d22312220666105408201527f696c6c3d2223384230303030222f3e3c7265637420783d2234302220793d22346105608201527f31222077696474683d223522206865696768743d2231222066696c6c3d2223386105808201527f4230303030222f3e3c7265637420783d2234302220793d2234322220776964746105a08201527f683d223122206865696768743d2231222066696c6c3d2223384230303030222f6105c08201527f3e3c7265637420783d2234322220793d223432222077696474683d22312220686105e08201527f65696768743d2232222066696c6c3d2223384230303030222f3e3c72656374206106008201527f783d2234342220793d223432222077696474683d223122206865696768743d226106208201527f31222066696c6c3d2223384230303030222f3e3c7265637420783d22343222206106408201527f793d223430222077696474683d223122206865696768743d2231222066696c6c6106608201527f3d2223444331343343222f3e3c7265637420783d2233392220793d22343222206106808201527f77696474683d223122206865696768743d2231222066696c6c3d2223444331346106a08201527f3343222f3e3c7265637420783d2234312220793d223432222077696474683d226106c08201527f3122206865696768743d2232222066696c6c3d2223444331343343222f3e3c726106e08201527f65637420783d2234332220793d223432222077696474683d22312220686569676107008201527f68743d2231222066696c6c3d2223444331343343222f3e3c7265637420783d226107208201527f34352220793d223432222077696474683d223122206865696768743d22312220610740820152753334b6361e9111a221989a19a191179f1e17b9bb339f60511b61076082015290565b506040516106e081018181106001600160401b03821117610109576040526106b48152600080516020613224833981519152602082015260008051602061320483398151915260408201526000805160206131e483398151915260608201527f72696e673d2263726973704564676573223e3c7265637420783d22323022207960808201527f3d223237222077696474683d223122206865696768743d2232222066696c6c3d60a08201527f2223433043304330222f3e3c7265637420783d2232372220793d22323722207760c08201527f696474683d223122206865696768743d2232222066696c6c3d2223433043304360e08201527f30222f3e3c7265637420783d2232312220793d223239222077696474683d22366101008201527f22206865696768743d2231222066696c6c3d2223464644373030222f3e3c72656101208201527f637420783d2232302220793d223330222077696474683d2231222068656967686101408201527f743d2231222066696c6c3d2223464644373030222f3e3c7265637420783d22326101608201527f332220793d223330222077696474683d223522206865696768743d22312220666101808201527f696c6c3d2223464644373030222f3e3c7265637420783d2231392220793d22336101a08201527f31222077696474683d223122206865696768743d2233222066696c6c3d2223466101c08201527f4644373030222f3e3c7265637420783d2232312220793d2233312220776964746101e08201527f683d223122206865696768743d2231222066696c6c3d2223464644373030222f6102008201527f3e3c7265637420783d2232362220793d223331222077696474683d22332220686102208201527f65696768743d2231222066696c6c3d2223464644373030222f3e3c72656374206102408201527f783d2232302220793d223332222077696474683d223122206865696768743d226102608201527f33222066696c6c3d2223464644373030222f3e3c7265637420783d22323722206102808201527f793d223332222077696474683d223222206865696768743d2231222066696c6c6102a08201527f3d2223464644373030222f3e3c7265637420783d2232312220793d22333322206102c08201527f77696474683d223122206865696768743d2233222066696c6c3d2223464644376102e08201527f3030222f3e3c7265637420783d2232362220793d223333222077696474683d226103008201527f3122206865696768743d2231222066696c6c3d2223464644373030222f3e3c726103208201527f65637420783d2232382220793d223333222077696474683d22312220686569676103408201527f68743d2231222066696c6c3d2223464644373030222f3e3c7265637420783d226103608201527f32322220793d223334222077696474683d223422206865696768743d223122206103808201527f66696c6c3d2223464644373030222f3e3c7265637420783d2232372220793d226103a08201527f3334222077696474683d223122206865696768743d2231222066696c6c3d22236103c08201527f464644373030222f3e3c7265637420783d2232322220793d22333522207769646103e08201527f74683d223222206865696768743d2231222066696c6c3d2223464644373030226104008201527f2f3e3c7265637420783d2232362220793d223335222077696474683d223122206104208201527f6865696768743d2231222066696c6c3d2223464644373030222f3e3c726563746104408201527f20783d2232332220793d223336222077696474683d223222206865696768743d6104608201527f2231222066696c6c3d2223464644373030222f3e3c7265637420783d223231226104808201527f20793d223330222077696474683d223222206865696768743d2231222066696c6104a08201527f6c3d2223464646464530222f3e3c7265637420783d2232302220793d223331226104c08201527f2077696474683d223122206865696768743d2231222066696c6c3d22234646466104e08201527f464530222f3e3c7265637420783d2232322220793d223331222077696474683d6105008201527f223422206865696768743d2231222066696c6c3d2223393337304442222f3e3c6105208201527f7265637420783d2232312220793d223332222077696474683d223222206865696105408201527f6768743d2231222066696c6c3d2223393337304442222f3e3c7265637420783d6105608201527f2232352220793d223332222077696474683d223222206865696768743d2231226105808201527f2066696c6c3d2223393337304442222f3e3c7265637420783d2232322220793d6105a08201527f223333222077696474683d223422206865696768743d2231222066696c6c3d226105c08201527f23393337304442222f3e3c7265637420783d2232332220793d223332222077696105e08201527f6474683d223222206865696768743d2231222066696c6c3d22234444413044446106008201527f222f3e3c7265637420783d2232372220793d223333222077696474683d2231226106208201527f206865696768743d2231222066696c6c3d2223444141353230222f3e3c7265636106408201527f7420783d2232362220793d223334222077696474683d223122206865696768746106608201527f3d2231222066696c6c3d2223444141353230222f3e3c7265637420783d2232346106808201527f2220793d223335222077696474683d223222206865696768743d2231222066696106a08201527336361e9111a220a09a991811179f1e17b9bb339f60611b6106c082015290565b506040516108e081018181106001600160401b03821117610109576040526108b58152600080516020613224833981519152602082015260008051602061320483398151915260408201526000805160206131e483398151915260608201527f72696e673d2263726973704564676573223e3c7265637420783d22333822207960808201527f3d223138222077696474683d223122206865696768743d2231222066696c6c3d60a08201527f2223413941394139222f3e3c7265637420783d2234312220793d22313822207760c08201527f696474683d223122206865696768743d2231222066696c6c3d2223413941394160e08201527f39222f3e3c7265637420783d2233382220793d223139222077696474683d22316101008201527f22206865696768743d2231222066696c6c3d2223383038303830222f3e3c72656101208201527f637420783d2234312220793d223139222077696474683d2231222068656967686101408201527f743d2231222066696c6c3d2223383038303830222f3e3c7265637420783d22336101608201527f362220793d223230222077696474683d223822206865696768743d22312220666101808201527f696c6c3d2223363936393639222f3e3c7265637420783d2233352220793d22326101a08201527f31222077696474683d223222206865696768743d2231222066696c6c3d2223366101c08201527f3936393639222f3e3c7265637420783d2233392220793d2232312220776964746101e08201527f683d223622206865696768743d2231222066696c6c3d2223363936393639222f6102008201527f3e3c7265637420783d2233342220793d223232222077696474683d22322220686102208201527f65696768743d2231222066696c6c3d2223363936393639222f3e3c72656374206102408201527f783d2233382220793d223232222077696474683d223622206865696768743d226102608201527f32222066696c6c3d2223363936393639222f3e3c7265637420783d22343522206102808201527f793d223232222077696474683d223122206865696768743d2231222066696c6c6102a08201527f3d2223363936393639222f3e3c7265637420783d2233342220793d22323322206102c08201527f77696474683d223122206865696768743d2232222066696c6c3d2223363936396102e08201527f3639222f3e3c7265637420783d2233362220793d223233222077696474683d226103008201527f3222206865696768743d2231222066696c6c3d2223363936393639222f3e3c726103208201527f65637420783d2234342220793d223233222077696474683d22312220686569676103408201527f68743d2231222066696c6c3d2223363936393639222f3e3c7265637420783d226103608201527f33352220793d223234222077696474683d223122206865696768743d223222206103808201527f66696c6c3d2223363936393639222f3e3c7265637420783d2233372220793d226103a08201527f3234222077696474683d223622206865696768743d2232222066696c6c3d22236103c08201527f363936393639222f3e3c7265637420783d2234352220793d22323422207769646103e08201527f74683d223122206865696768743d2231222066696c6c3d2223363936393639226104008201527f2f3e3c7265637420783d2233362220793d223235222077696474683d223122206104208201527f6865696768743d2232222066696c6c3d2223363936393639222f3e3c726563746104408201527f20783d2234332220793d223235222077696474683d223222206865696768743d6104608201527f2231222066696c6c3d2223363936393639222f3e3c7265637420783d223337226104808201527f20793d223236222077696474683d223122206865696768743d2232222066696c6104a08201527f6c3d2223363936393639222f3e3c7265637420783d2233392220793d223236226104c08201527f2077696474683d223222206865696768743d2232222066696c6c3d22233639366104e08201527f393639222f3e3c7265637420783d2234322220793d223236222077696474683d6105008201527f223222206865696768743d2231222066696c6c3d2223363936393639222f3e3c6105208201527f7265637420783d2233382220793d223237222077696474683d223122206865696105408201527f6768743d2231222066696c6c3d2223363936393639222f3e3c7265637420783d6105608201527f2234312220793d223237222077696474683d223122206865696768743d2231226105808201527f2066696c6c3d2223363936393639222f3e3c7265637420783d2233372220793d6105a08201527f223231222077696474683d223222206865696768743d2231222066696c6c3d226105c08201527f23433043304330222f3e3c7265637420783d2233362220793d223232222077696105e08201527f6474683d223222206865696768743d2231222066696c6c3d22234330433043306106008201527f222f3e3c7265637420783d2233352220793d223233222077696474683d2231226106208201527f206865696768743d2231222066696c6c3d2223433043304330222f3e3c7265636106408201527f7420783d2234342220793d223232222077696474683d223122206865696768746106608201527f3d2231222066696c6c3d2223324632463246222f3e3c7265637420783d2234356106808201527f2220793d223233222077696474683d223122206865696768743d2231222066696106a08201527f6c6c3d2223324632463246222f3e3c7265637420783d2234342220793d2232346106c08201527f222077696474683d223122206865696768743d2231222066696c6c3d222332466106e08201527f32463246222f3e3c7265637420783d2234322220793d223237222077696474686107008201527f3d223122206865696768743d2231222066696c6c3d2223324632463246222f3e6107208201527f3c7265637420783d2233362220793d223234222077696474683d2231222068656107408201527f696768743d2231222066696c6c3d2223344234423442222f3e3c7265637420786107608201527f3d2234332220793d223234222077696474683d223122206865696768743d22316107808201527f222066696c6c3d2223344234423442222f3e3c7265637420783d2233382220796107a08201527f3d223236222077696474683d223122206865696768743d2231222066696c6c3d6107c08201527f2223344234423442222f3e3c7265637420783d2234312220793d2232362220776107e08201527f696474683d223122206865696768743d2231222066696c6c3d222334423442346108008201527f42222f3e3c7265637420783d2233382220793d223238222077696474683d22316108208201527f22206865696768743d2232222066696c6c3d2223384234353133222f3e3c72656108408201527f637420783d2234312220793d223238222077696474683d2231222068656967686108608201527f743d2232222066696c6c3d2223384234353133222f3e3c7265637420783d22336108808201527f392220793d223239222077696474683d223222206865696768743d22312220666108a08201527434b6361e91119c211a1a989991179f1e17b9bb339f60591b6108c082015290565b5060405161056081018181106001600160401b03821117610109576040526105278152600080516020613224833981519152602082015260008051602061320483398151915260408201526000805160206131e483398151915260608201527f72696e673d2263726973704564676573223e3c7265637420783d22343022207960808201527f3d223230222077696474683d223122206865696768743d2231222066696c6c3d60a08201527f2223464644373030222f3e3c7265637420783d2233362220793d22323322207760c08201527f696474683d223122206865696768743d2231222066696c6c3d2223464644373060e08201527f30222f3e3c7265637420783d2234342220793d223233222077696474683d22316101008201527f22206865696768743d2231222066696c6c3d2223464644373030222f3e3c72656101208201527f637420783d2234302220793d223237222077696474683d2231222068656967686101408201527f743d2231222066696c6c3d2223464644373030222f3e3c7265637420783d22336101608201527f382220793d223232222077696474683d223522206865696768743d22312220666101808201527f696c6c3d2223393337304442222f3e3c7265637420783d2233372220793d22326101a08201527f33222077696474683d223222206865696768743d2232222066696c6c3d2223396101c08201527f3337304442222f3e3c7265637420783d2234312220793d2232332220776964746101e08201527f683d223322206865696768743d2231222066696c6c3d2223393337304442222f6102008201527f3e3c7265637420783d2233392220793d223234222077696474683d22312220686102208201527f65696768743d2233222066696c6c3d2223393337304442222f3e3c72656374206102408201527f783d2234322220793d223234222077696474683d223222206865696768743d226102608201527f31222066696c6c3d2223393337304442222f3e3c7265637420783d22343022206102808201527f793d223235222077696474683d223222206865696768743d2232222066696c6c6102a08201527f3d2223393337304442222f3e3c7265637420783d2233382220793d22323622206102c08201527f77696474683d223122206865696768743d2231222066696c6c3d2223393337306102e08201527f4442222f3e3c7265637420783d2234322220793d223236222077696474683d226103008201527f3122206865696768743d2231222066696c6c3d2223393337304442222f3e3c726103208201527f65637420783d2233392220793d223233222077696474683d22322220686569676103408201527f68743d2231222066696c6c3d2223444441304444222f3e3c7265637420783d226103608201527f34302220793d223234222077696474683d223222206865696768743d223122206103808201527f66696c6c3d2223444441304444222f3e3c7265637420783d2233372220793d226103a08201527f3235222077696474683d223222206865696768743d2231222066696c6c3d22236103c08201527f364130444144222f3e3c7265637420783d2234322220793d22323522207769646103e08201527f74683d223222206865696768743d2231222066696c6c3d2223364130444144226104008201527f2f3e3c7265637420783d2233392220793d223237222077696474683d223122206104208201527f6865696768743d223136222066696c6c3d2223363534333231222f3e3c7265636104408201527f7420783d2234302220793d223431222077696474683d223122206865696768746104608201527f3d2233222066696c6c3d2223363534333231222f3e3c7265637420783d2234316104808201527f2220793d223237222077696474683d223122206865696768743d2238222066696104a08201527f6c6c3d2223413035323244222f3e3c7265637420783d2234302220793d2232386104c08201527f222077696474683d223122206865696768743d223133222066696c6c3d2223386104e08201527f4234353133222f3e3c7265637420783d2234312220793d2233352220776964746105008201527f683d223122206865696768743d2238222066696c6c3d2223384234353133222f610520820152661f1e17b9bb339f60c91b61054082015290565b5060405161044081018181106001600160401b038211176101095760405261040a8152600080516020613224833981519152602082015260008051602061320483398151915260408201526000805160206131e483398151915260608201527f72696e673d2263726973704564676573223e3c7265637420783d22333722207960808201527f3d223135222077696474683d223322206865696768743d2231222066696c6c3d60a08201527f2223324632463246222f3e3c7265637420783d2233372220793d22313622207760c08201527f696474683d223322206865696768743d2231222066696c6c3d2223344134413460e08201527f41222f3e3c7265637420783d2233382220793d223137222077696474683d22336101008201527f22206865696768743d2231222066696c6c3d2223433043304330222f3e3c72656101208201527f637420783d2234342220793d223137222077696474683d2231222068656967686101408201527f743d2232222066696c6c3d2223433043304330222f3e3c7265637420783d22346101608201527f312220793d223138222077696474683d223322206865696768743d22312220666101808201527f696c6c3d2223433043304330222f3e3c7265637420783d2234352220793d22316101a08201527f38222077696474683d223122206865696768743d2233222066696c6c3d2223436101c08201527f3043304330222f3e3c7265637420783d2234312220793d2231392220776964746101e08201527f683d223222206865696768743d2231222066696c6c3d2223433043304330222f6102008201527f3e3c7265637420783d2234322220793d223230222077696474683d22332220686102208201527f65696768743d2232222066696c6c3d2223433043304330222f3e3c72656374206102408201527f783d2234332220793d223232222077696474683d223222206865696768743d226102608201527f31222066696c6c3d2223433043304330222f3e3c7265637420783d22343322206102808201527f793d223233222077696474683d223122206865696768743d2231222066696c6c6102a08201527f3d2223433043304330222f3e3c7265637420783d2234312220793d22313722206102c08201527f77696474683d223322206865696768743d2231222066696c6c3d2223453545356102e08201527f4535222f3e3c7265637420783d2234332220793d223139222077696474683d226103008201527f3222206865696768743d2231222066696c6c3d2223453545354535222f3e3c726103208201527f65637420783d2233382220793d223138222077696474683d22312220686569676103408201527f68743d223230222066696c6c3d2223384234353133222f3e3c7265637420783d6103608201527f2233392220793d223138222077696474683d223122206865696768743d2232306103808201527f222066696c6c3d2223363534333231222f3e3c7265637420783d2234302220796103a08201527f3d223138222077696474683d223122206865696768743d2233222066696c6c3d6103c08201527f2223383038303830222f3e3c7265637420783d2233372220793d2233382220776103e08201527f696474683d223422206865696768743d2231222066696c6c3d22233842303030610400820152691811179f1e17b9bb339f60b11b61042082015290565b60ff16600681146131c857600781146131965760088114613161576009811461314657600a811461311557600b146130e65760405162461bcd60e51b81528061019d6004820161011f565b604051604081018181106001600160401b0382111761010957604052600381526241726d60e81b602082015290565b50604051604081018181106001600160401b038211176101095760405260048152631219585960e21b602082015290565b5061314f6100e6565b65105b5d5b195d60d21b602082015290565b50604051604081018181106001600160401b0382111761010957604052600881526729b437bab63232b960c11b602082015290565b50604051604081018181106001600160401b0382111761010957604052600581526429ba30b33360d91b602082015290565b506131d16100e6565b6553637974686560d01b60208201529056fe7777772e77332e6f72672f323030302f737667222073686170652d72656e64656577426f783d223020302034382034382220786d6c6e733d22687474703a2f2f3c7376672077696474683d2237363822206865696768743d2237363822207669a2646970667358221220fd9776b27859c49767c35d2284a7d8de16bbfb18d7d976cdc50cc800e994cbcb64736f6c63430008140033","opcodes":"PUSH1 0x80 DUP1 PUSH1 0x40 MSTORE CALLVALUE PUSH2 0x16 JUMPI PUSH2 0x3279 SWAP1 DUP2 PUSH2 0x1C DUP3 CODECOPY RETURN JUMPDEST PUSH1 0x0 DUP1 REVERT INVALID PUSH1 0x80 PUSH1 0x40 MSTORE PUSH1 0x4 CALLDATASIZE LT ISZERO PUSH2 0x12 JUMPI PUSH1 0x0 DUP1 REVERT JUMPDEST PUSH1 0x0 DUP1 CALLDATALOAD PUSH1 0xE0 SHR DUP1 PUSH4 0x30A86006 EQ PUSH2 0x71 JUMPI PUSH4 0xF6D40558 EQ PUSH2 0x33 JUMPI PUSH1 0x0 DUP1 REVERT JUMPDEST CALLVALUE PUSH2 0x6E JUMPI PUSH1 0x20 CALLDATASIZE PUSH1 0x3 NOT ADD SLT PUSH2 0x6E JUMPI PUSH1 0x4 CALLDATALOAD SWAP1 PUSH1 0xFF DUP3 AND DUP3 SUB PUSH2 0x6E JUMPI PUSH2 0x6A PUSH2 0x5E DUP4 PUSH2 0x152 JUMP JUMPDEST PUSH1 0x40 MLOAD SWAP2 DUP3 SWAP2 DUP3 PUSH2 0x9D JUMP JUMPDEST SUB SWAP1 RETURN JUMPDEST DUP1 REVERT JUMPDEST POP CALLVALUE PUSH2 0x6E JUMPI PUSH1 0x20 CALLDATASIZE PUSH1 0x3 NOT ADD SLT PUSH2 0x6E JUMPI PUSH1 0x4 CALLDATALOAD SWAP1 PUSH1 0xFF DUP3 AND DUP3 SUB PUSH2 0x6E JUMPI PUSH2 0x6A PUSH2 0x5E DUP4 PUSH2 0x309B JUMP JUMPDEST PUSH1 0x20 DUP1 DUP3 MSTORE DUP3 MLOAD DUP2 DUP4 ADD DUP2 SWAP1 MSTORE SWAP1 SWAP4 SWAP3 PUSH1 0x0 JUMPDEST DUP3 DUP2 LT PUSH2 0xD2 JUMPI POP POP PUSH1 0x40 SWAP3 SWAP4 POP PUSH1 0x0 DUP4 DUP3 DUP5 ADD ADD MSTORE PUSH1 0x1F DUP1 NOT SWAP2 ADD AND ADD ADD SWAP1 JUMP JUMPDEST DUP2 DUP2 ADD DUP7 ADD MLOAD DUP5 DUP3 ADD PUSH1 0x40 ADD MSTORE DUP6 ADD PUSH2 0xB0 JUMP JUMPDEST PUSH1 0x40 MLOAD SWAP1 PUSH1 0x40 DUP3 ADD DUP3 DUP2 LT PUSH1 0x1 PUSH1 0x1 PUSH1 0x40 SHL SUB DUP3 GT OR PUSH2 0x109 JUMPI PUSH1 0x40 MSTORE PUSH1 0x6 DUP3 MSTORE JUMP JUMPDEST PUSH4 0x4E487B71 PUSH1 0xE0 SHL PUSH1 0x0 MSTORE PUSH1 0x41 PUSH1 0x4 MSTORE PUSH1 0x24 PUSH1 0x0 REVERT JUMPDEST PUSH1 0x60 SWAP1 PUSH1 0x20 DUP2 MSTORE PUSH1 0x18 PUSH1 0x20 DUP3 ADD MSTORE PUSH24 0x4974656D204944206E6F7420696E20746869732062616E6B PUSH1 0x40 SHL PUSH1 0x40 DUP3 ADD MSTORE ADD SWAP1 JUMP JUMPDEST PUSH1 0xFF AND PUSH1 0x6 DUP2 EQ PUSH2 0x2BBE JUMPI PUSH1 0x7 DUP2 EQ PUSH2 0x2585 JUMPI PUSH1 0x8 DUP2 EQ PUSH2 0x1AFA JUMPI PUSH1 0x9 DUP2 EQ PUSH2 0x12E0 JUMPI PUSH1 0xA DUP2 EQ PUSH2 0xA01 JUMPI PUSH1 0xB EQ PUSH2 0x1A1 JUMPI PUSH1 0x40 MLOAD PUSH3 0x461BCD PUSH1 0xE5 SHL DUP2 MSTORE DUP1 PUSH2 0x19D PUSH1 0x4 DUP3 ADD PUSH2 0x11F JUMP JUMPDEST SUB SWAP1 REVERT JUMPDEST PUSH1 0x40 MLOAD PUSH2 0x720 DUP2 ADD DUP2 DUP2 LT PUSH1 0x1 PUSH1 0x1 PUSH1 0x40 SHL SUB DUP3 GT OR PUSH2 0x109 JUMPI PUSH1 0x40 MSTORE PUSH2 0x6ED DUP2 MSTORE PUSH1 0x0 DUP1 MLOAD PUSH1 0x20 PUSH2 0x3224 DUP4 CODECOPY DUP2 MLOAD SWAP2 MSTORE PUSH1 0x20 DUP3 ADD MSTORE PUSH1 0x0 DUP1 MLOAD PUSH1 0x20 PUSH2 0x3204 DUP4 CODECOPY DUP2 MLOAD SWAP2 MSTORE PUSH1 0x40 DUP3 ADD MSTORE PUSH1 0x0 DUP1 MLOAD PUSH1 0x20 PUSH2 0x31E4 DUP4 CODECOPY DUP2 MLOAD SWAP2 MSTORE PUSH1 0x60 DUP3 ADD MSTORE PUSH32 0x72696E673D2263726973704564676573223E3C7265637420783D223331222079 PUSH1 0x80 DUP3 ADD MSTORE PUSH32 0x3D223237222077696474683D223122206865696768743D2236222066696C6C3D PUSH1 0xA0 DUP3 ADD MSTORE PUSH32 0x2223463544454233222F3E3C7265637420783D2233322220793D223238222077 PUSH1 0xC0 DUP3 ADD MSTORE PUSH32 0x696474683D223122206865696768743D2234222066696C6C3D22234635444542 PUSH1 0xE0 DUP3 ADD MSTORE PUSH32 0x33222F3E3C7265637420783D2233392220793D223238222077696474683D2234 PUSH2 0x100 DUP3 ADD MSTORE PUSH32 0x22206865696768743D2233222066696C6C3D2223463544454233222F3E3C7265 PUSH2 0x120 DUP3 ADD MSTORE PUSH32 0x637420783D2233342220793D223239222077696474683D223422206865696768 PUSH2 0x140 DUP3 ADD MSTORE PUSH32 0x743D2233222066696C6C3D2223463544454233222F3E3C7265637420783D2233 PUSH2 0x160 DUP3 ADD MSTORE PUSH32 0x322220793D223333222077696474683D223122206865696768743D2231222066 PUSH2 0x180 DUP3 ADD MSTORE PUSH32 0x696C6C3D2223463544454233222F3E3C7265637420783D2234302220793D2232 PUSH2 0x1A0 DUP3 ADD MSTORE PUSH32 0x37222077696474683D223222206865696768743D2231222066696C6C3D222344 PUSH2 0x1C0 DUP3 ADD MSTORE PUSH32 0x4542383837222F3E3C7265637420783D2233352220793D223238222077696474 PUSH2 0x1E0 DUP3 ADD MSTORE PUSH32 0x683D223222206865696768743D2231222066696C6C3D2223444542383837222F PUSH2 0x200 DUP3 ADD MSTORE PUSH32 0x3E3C7265637420783D2233382220793D223238222077696474683D2231222068 PUSH2 0x220 DUP3 ADD MSTORE PUSH32 0x65696768743D2233222066696C6C3D2223444542383837222F3E3C7265637420 PUSH2 0x240 DUP3 ADD MSTORE PUSH32 0x783D2233332220793D223239222077696474683D223122206865696768743D22 PUSH2 0x260 DUP3 ADD MSTORE PUSH32 0x33222066696C6C3D2223444542383837222F3E3C7265637420783D2234332220 PUSH2 0x280 DUP3 ADD MSTORE PUSH32 0x793D223237222077696474683D223322206865696768743D2231222066696C6C PUSH2 0x2A0 DUP3 ADD MSTORE PUSH32 0x3D2223384230303030222F3E3C7265637420783D2234342220793D2232382220 PUSH2 0x2C0 DUP3 ADD MSTORE PUSH32 0x77696474683D223122206865696768743D2236222066696C6C3D222338423030 PUSH2 0x2E0 DUP3 ADD MSTORE PUSH32 0x3030222F3E3C7265637420783D2234332220793D223330222077696474683D22 PUSH2 0x300 DUP3 ADD MSTORE PUSH32 0x3122206865696768743D2231222066696C6C3D2223384230303030222F3E3C72 PUSH2 0x320 DUP3 ADD MSTORE PUSH32 0x65637420783D2234352220793D223330222077696474683D2231222068656967 PUSH2 0x340 DUP3 ADD MSTORE PUSH32 0x68743D2231222066696C6C3D2223384230303030222F3E3C7265637420783D22 PUSH2 0x360 DUP3 ADD MSTORE PUSH32 0x34352220793D223332222077696474683D223122206865696768743D22312220 PUSH2 0x380 DUP3 ADD MSTORE PUSH32 0x66696C6C3D2223384230303030222F3E3C7265637420783D2234332220793D22 PUSH2 0x3A0 DUP3 ADD MSTORE PUSH32 0x3333222077696474683D223122206865696768743D2232222066696C6C3D2223 PUSH2 0x3C0 DUP3 ADD MSTORE PUSH32 0x384230303030222F3E3C7265637420783D2234342220793D2233362220776964 PUSH2 0x3E0 DUP3 ADD MSTORE PUSH32 0x74683D223122206865696768743D2234222066696C6C3D222338423030303022 PUSH2 0x400 DUP3 ADD MSTORE PUSH32 0x2F3E3C7265637420783D2233302220793D223238222077696474683D22312220 PUSH2 0x420 DUP3 ADD MSTORE PUSH32 0x6865696768743D2231222066696C6C3D2223464645344531222F3E3C72656374 PUSH2 0x440 DUP3 ADD MSTORE PUSH32 0x20783D2233302220793D223330222077696474683D223122206865696768743D PUSH2 0x460 DUP3 ADD MSTORE PUSH32 0x2231222066696C6C3D2223464645344531222F3E3C7265637420783D22333022 PUSH2 0x480 DUP3 ADD MSTORE PUSH32 0x20793D223332222077696474683D223122206865696768743D2231222066696C PUSH2 0x4A0 DUP3 ADD MSTORE PUSH32 0x6C3D2223464645344531222F3E3C7265637420783D2234332220793D22323822 PUSH2 0x4C0 DUP3 ADD MSTORE PUSH32 0x2077696474683D223122206865696768743D2232222066696C6C3D2223444331 PUSH2 0x4E0 DUP3 ADD MSTORE PUSH32 0x343343222F3E3C7265637420783D2234362220793D223238222077696474683D PUSH2 0x500 DUP3 ADD MSTORE PUSH32 0x223122206865696768743D2231222066696C6C3D2223444331343343222F3E3C PUSH2 0x520 DUP3 ADD MSTORE PUSH32 0x7265637420783D2234332220793D223331222077696474683D22312220686569 PUSH2 0x540 DUP3 ADD MSTORE PUSH32 0x6768743D2232222066696C6C3D2223444331343343222F3E3C7265637420783D PUSH2 0x560 DUP3 ADD MSTORE PUSH32 0x2234322220793D223333222077696474683D223122206865696768743D223322 PUSH2 0x580 DUP3 ADD MSTORE PUSH32 0x2066696C6C3D2223444331343343222F3E3C7265637420783D2234352220793D PUSH2 0x5A0 DUP3 ADD MSTORE PUSH32 0x223333222077696474683D223122206865696768743D2233222066696C6C3D22 PUSH2 0x5C0 DUP3 ADD MSTORE PUSH32 0x23444331343343222F3E3C7265637420783D2234342220793D22333422207769 PUSH2 0x5E0 DUP3 ADD MSTORE PUSH32 0x6474683D223122206865696768743D2232222066696C6C3D2223444331343343 PUSH2 0x600 DUP3 ADD MSTORE PUSH32 0x222F3E3C7265637420783D2234332220793D223335222077696474683D223122 PUSH2 0x620 DUP3 ADD MSTORE PUSH32 0x206865696768743D2236222066696C6C3D2223444331343343222F3E3C726563 PUSH2 0x640 DUP3 ADD MSTORE PUSH32 0x7420783D2234362220793D223336222077696474683D22312220686569676874 PUSH2 0x660 DUP3 ADD MSTORE PUSH32 0x3D2231222066696C6C3D2223444331343343222F3E3C7265637420783D223430 PUSH2 0x680 DUP3 ADD MSTORE PUSH32 0x2220793D223331222077696474683D223222206865696768743D223122206669 PUSH2 0x6A0 DUP3 ADD MSTORE PUSH32 0x6C6C3D2223464645344235222F3E3C7265637420783D2233352220793D223332 PUSH2 0x6C0 DUP3 ADD MSTORE PUSH32 0x222077696474683D223222206865696768743D2231222066696C6C3D22234646 PUSH2 0x6E0 DUP3 ADD MSTORE PUSH13 0x229A211A91179F1E17B9BB339F PUSH1 0x99 SHL PUSH2 0x700 DUP3 ADD MSTORE SWAP1 JUMP JUMPDEST POP PUSH1 0x40 MLOAD PUSH2 0x780 DUP2 ADD DUP2 DUP2 LT PUSH1 0x1 PUSH1 0x1 PUSH1 0x40 SHL SUB DUP3 GT OR PUSH2 0x109 JUMPI PUSH1 0x40 MSTORE PUSH2 0x756 DUP2 MSTORE PUSH1 0x0 DUP1 MLOAD PUSH1 0x20 PUSH2 0x3224 DUP4 CODECOPY DUP2 MLOAD SWAP2 MSTORE PUSH1 0x20 DUP3 ADD MSTORE PUSH1 0x0 DUP1 MLOAD PUSH1 0x20 PUSH2 0x3204 DUP4 CODECOPY DUP2 MLOAD SWAP2 MSTORE PUSH1 0x40 DUP3 ADD MSTORE PUSH1 0x0 DUP1 MLOAD PUSH1 0x20 PUSH2 0x31E4 DUP4 CODECOPY DUP2 MLOAD SWAP2 MSTORE PUSH1 0x60 DUP3 ADD MSTORE PUSH32 0x72696E673D2263726973704564676573223E3C7265637420783D223338222079 PUSH1 0x80 DUP3 ADD MSTORE PUSH32 0x3D223332222077696474683D223822206865696768743D2232222066696C6C3D PUSH1 0xA0 DUP3 ADD MSTORE PUSH32 0x2223324634463446222F3E3C7265637420783D2233372220793D223333222077 PUSH1 0xC0 DUP3 ADD MSTORE PUSH32 0x696474683D223122206865696768743D2233222066696C6C3D22233246344634 PUSH1 0xE0 DUP3 ADD MSTORE PUSH32 0x46222F3E3C7265637420783D2234362220793D223333222077696474683D2231 PUSH2 0x100 DUP3 ADD MSTORE PUSH32 0x22206865696768743D2233222066696C6C3D2223324634463446222F3E3C7265 PUSH2 0x120 DUP3 ADD MSTORE PUSH32 0x637420783D2233382220793D223334222077696474683D223122206865696768 PUSH2 0x140 DUP3 ADD MSTORE PUSH32 0x743D2231222066696C6C3D2223324634463446222F3E3C7265637420783D2234 PUSH2 0x160 DUP3 ADD MSTORE PUSH32 0x352220793D223334222077696474683D223122206865696768743D2231222066 PUSH2 0x180 DUP3 ADD MSTORE PUSH32 0x696C6C3D2223324634463446222F3E3C7265637420783D2233392220793D2233 PUSH2 0x1A0 DUP3 ADD MSTORE PUSH32 0x34222077696474683D223622206865696768743D2232222066696C6C3D222343 PUSH2 0x1C0 DUP3 ADD MSTORE PUSH32 0x3043304330222F3E3C7265637420783D2233382220793D223335222077696474 PUSH2 0x1E0 DUP3 ADD MSTORE PUSH32 0x683D223122206865696768743D2231222066696C6C3D2223433043304330222F PUSH2 0x200 DUP3 ADD MSTORE PUSH32 0x3E3C7265637420783D2234352220793D223335222077696474683D2231222068 PUSH2 0x220 DUP3 ADD MSTORE PUSH32 0x65696768743D2234222066696C6C3D2223433043304330222F3E3C7265637420 PUSH2 0x240 DUP3 ADD MSTORE PUSH32 0x783D2233392220793D223336222077696474683D223122206865696768743D22 PUSH2 0x260 DUP3 ADD MSTORE PUSH32 0x35222066696C6C3D2223433043304330222F3E3C7265637420783D2234322220 PUSH2 0x280 DUP3 ADD MSTORE PUSH32 0x793D223336222077696474683D223122206865696768743D2232222066696C6C PUSH2 0x2A0 DUP3 ADD MSTORE PUSH32 0x3D2223433043304330222F3E3C7265637420783D2234302220793D2233372220 PUSH2 0x2C0 DUP3 ADD MSTORE PUSH32 0x77696474683D223222206865696768743D2231222066696C6C3D222343304330 PUSH2 0x2E0 DUP3 ADD MSTORE PUSH32 0x4330222F3E3C7265637420783D2234332220793D223337222077696474683D22 PUSH2 0x300 DUP3 ADD MSTORE PUSH32 0x3222206865696768743D2231222066696C6C3D2223433043304330222F3E3C72 PUSH2 0x320 DUP3 ADD MSTORE PUSH32 0x65637420783D2234302220793D223338222077696474683D2231222068656967 PUSH2 0x340 DUP3 ADD MSTORE PUSH32 0x68743D2233222066696C6C3D2223433043304330222F3E3C7265637420783D22 PUSH2 0x360 DUP3 ADD MSTORE PUSH32 0x34342220793D223338222077696474683D223122206865696768743D22332220 PUSH2 0x380 DUP3 ADD MSTORE PUSH32 0x66696C6C3D2223433043304330222F3E3C7265637420783D2234312220793D22 PUSH2 0x3A0 DUP3 ADD MSTORE PUSH32 0x3430222077696474683D223122206865696768743D2231222066696C6C3D2223 PUSH2 0x3C0 DUP3 ADD MSTORE PUSH32 0x433043304330222F3E3C7265637420783D2234332220793D2234302220776964 PUSH2 0x3E0 DUP3 ADD MSTORE PUSH32 0x74683D223122206865696768743D2231222066696C6C3D222343304330433022 PUSH2 0x400 DUP3 ADD MSTORE PUSH32 0x2F3E3C7265637420783D2233382220793D223336222077696474683D22312220 PUSH2 0x420 DUP3 ADD MSTORE PUSH32 0x6865696768743D2233222066696C6C3D2223383038303830222F3E3C72656374 PUSH2 0x440 DUP3 ADD MSTORE PUSH32 0x20783D2234362220793D223336222077696474683D223122206865696768743D PUSH2 0x460 DUP3 ADD MSTORE PUSH32 0x2233222066696C6C3D2223383038303830222F3E3C7265637420783D22343022 PUSH2 0x480 DUP3 ADD MSTORE PUSH32 0x20793D223336222077696474683D223222206865696768743D2231222066696C PUSH2 0x4A0 DUP3 ADD MSTORE PUSH32 0x6C3D2223303030222F3E3C7265637420783D2234332220793D22333622207769 PUSH2 0x4C0 DUP3 ADD MSTORE PUSH32 0x6474683D223222206865696768743D2231222066696C6C3D2223303030222F3E PUSH2 0x4E0 DUP3 ADD MSTORE PUSH32 0x3C7265637420783D2234312220793D223338222077696474683D223322206865 PUSH2 0x500 DUP3 ADD MSTORE PUSH32 0x696768743D2231222066696C6C3D2223303030222F3E3C7265637420783D2234 PUSH2 0x520 DUP3 ADD MSTORE PUSH32 0x312220793D223339222077696474683D223322206865696768743D2231222066 PUSH2 0x540 DUP3 ADD MSTORE PUSH32 0x696C6C3D2223384230303030222F3E3C7265637420783D2234302220793D2234 PUSH2 0x560 DUP3 ADD MSTORE PUSH32 0x31222077696474683D223522206865696768743D2231222066696C6C3D222338 PUSH2 0x580 DUP3 ADD MSTORE PUSH32 0x4230303030222F3E3C7265637420783D2234302220793D223432222077696474 PUSH2 0x5A0 DUP3 ADD MSTORE PUSH32 0x683D223122206865696768743D2231222066696C6C3D2223384230303030222F PUSH2 0x5C0 DUP3 ADD MSTORE PUSH32 0x3E3C7265637420783D2234322220793D223432222077696474683D2231222068 PUSH2 0x5E0 DUP3 ADD MSTORE PUSH32 0x65696768743D2232222066696C6C3D2223384230303030222F3E3C7265637420 PUSH2 0x600 DUP3 ADD MSTORE PUSH32 0x783D2234342220793D223432222077696474683D223122206865696768743D22 PUSH2 0x620 DUP3 ADD MSTORE PUSH32 0x31222066696C6C3D2223384230303030222F3E3C7265637420783D2234322220 PUSH2 0x640 DUP3 ADD MSTORE PUSH32 0x793D223430222077696474683D223122206865696768743D2231222066696C6C PUSH2 0x660 DUP3 ADD MSTORE PUSH32 0x3D2223444331343343222F3E3C7265637420783D2233392220793D2234322220 PUSH2 0x680 DUP3 ADD MSTORE PUSH32 0x77696474683D223122206865696768743D2231222066696C6C3D222344433134 PUSH2 0x6A0 DUP3 ADD MSTORE PUSH32 0x3343222F3E3C7265637420783D2234312220793D223432222077696474683D22 PUSH2 0x6C0 DUP3 ADD MSTORE PUSH32 0x3122206865696768743D2232222066696C6C3D2223444331343343222F3E3C72 PUSH2 0x6E0 DUP3 ADD MSTORE PUSH32 0x65637420783D2234332220793D223432222077696474683D2231222068656967 PUSH2 0x700 DUP3 ADD MSTORE PUSH32 0x68743D2231222066696C6C3D2223444331343343222F3E3C7265637420783D22 PUSH2 0x720 DUP3 ADD MSTORE PUSH32 0x34352220793D223432222077696474683D223122206865696768743D22312220 PUSH2 0x740 DUP3 ADD MSTORE PUSH22 0x3334B6361E9111A221989A19A191179F1E17B9BB339F PUSH1 0x51 SHL PUSH2 0x760 DUP3 ADD MSTORE SWAP1 JUMP JUMPDEST POP PUSH1 0x40 MLOAD PUSH2 0x6E0 DUP2 ADD DUP2 DUP2 LT PUSH1 0x1 PUSH1 0x1 PUSH1 0x40 SHL SUB DUP3 GT OR PUSH2 0x109 JUMPI PUSH1 0x40 MSTORE PUSH2 0x6B4 DUP2 MSTORE PUSH1 0x0 DUP1 MLOAD PUSH1 0x20 PUSH2 0x3224 DUP4 CODECOPY DUP2 MLOAD SWAP2 MSTORE PUSH1 0x20 DUP3 ADD MSTORE PUSH1 0x0 DUP1 MLOAD PUSH1 0x20 PUSH2 0x3204 DUP4 CODECOPY DUP2 MLOAD SWAP2 MSTORE PUSH1 0x40 DUP3 ADD MSTORE PUSH1 0x0 DUP1 MLOAD PUSH1 0x20 PUSH2 0x31E4 DUP4 CODECOPY DUP2 MLOAD SWAP2 MSTORE PUSH1 0x60 DUP3 ADD MSTORE PUSH32 0x72696E673D2263726973704564676573223E3C7265637420783D223230222079 PUSH1 0x80 DUP3 ADD MSTORE PUSH32 0x3D223237222077696474683D223122206865696768743D2232222066696C6C3D PUSH1 0xA0 DUP3 ADD MSTORE PUSH32 0x2223433043304330222F3E3C7265637420783D2232372220793D223237222077 PUSH1 0xC0 DUP3 ADD MSTORE PUSH32 0x696474683D223122206865696768743D2232222066696C6C3D22234330433043 PUSH1 0xE0 DUP3 ADD MSTORE PUSH32 0x30222F3E3C7265637420783D2232312220793D223239222077696474683D2236 PUSH2 0x100 DUP3 ADD MSTORE PUSH32 0x22206865696768743D2231222066696C6C3D2223464644373030222F3E3C7265 PUSH2 0x120 DUP3 ADD MSTORE PUSH32 0x637420783D2232302220793D223330222077696474683D223122206865696768 PUSH2 0x140 DUP3 ADD MSTORE PUSH32 0x743D2231222066696C6C3D2223464644373030222F3E3C7265637420783D2232 PUSH2 0x160 DUP3 ADD MSTORE PUSH32 0x332220793D223330222077696474683D223522206865696768743D2231222066 PUSH2 0x180 DUP3 ADD MSTORE PUSH32 0x696C6C3D2223464644373030222F3E3C7265637420783D2231392220793D2233 PUSH2 0x1A0 DUP3 ADD MSTORE PUSH32 0x31222077696474683D223122206865696768743D2233222066696C6C3D222346 PUSH2 0x1C0 DUP3 ADD MSTORE PUSH32 0x4644373030222F3E3C7265637420783D2232312220793D223331222077696474 PUSH2 0x1E0 DUP3 ADD MSTORE PUSH32 0x683D223122206865696768743D2231222066696C6C3D2223464644373030222F PUSH2 0x200 DUP3 ADD MSTORE PUSH32 0x3E3C7265637420783D2232362220793D223331222077696474683D2233222068 PUSH2 0x220 DUP3 ADD MSTORE PUSH32 0x65696768743D2231222066696C6C3D2223464644373030222F3E3C7265637420 PUSH2 0x240 DUP3 ADD MSTORE PUSH32 0x783D2232302220793D223332222077696474683D223122206865696768743D22 PUSH2 0x260 DUP3 ADD MSTORE PUSH32 0x33222066696C6C3D2223464644373030222F3E3C7265637420783D2232372220 PUSH2 0x280 DUP3 ADD MSTORE PUSH32 0x793D223332222077696474683D223222206865696768743D2231222066696C6C PUSH2 0x2A0 DUP3 ADD MSTORE PUSH32 0x3D2223464644373030222F3E3C7265637420783D2232312220793D2233332220 PUSH2 0x2C0 DUP3 ADD MSTORE PUSH32 0x77696474683D223122206865696768743D2233222066696C6C3D222346464437 PUSH2 0x2E0 DUP3 ADD MSTORE PUSH32 0x3030222F3E3C7265637420783D2232362220793D223333222077696474683D22 PUSH2 0x300 DUP3 ADD MSTORE PUSH32 0x3122206865696768743D2231222066696C6C3D2223464644373030222F3E3C72 PUSH2 0x320 DUP3 ADD MSTORE PUSH32 0x65637420783D2232382220793D223333222077696474683D2231222068656967 PUSH2 0x340 DUP3 ADD MSTORE PUSH32 0x68743D2231222066696C6C3D2223464644373030222F3E3C7265637420783D22 PUSH2 0x360 DUP3 ADD MSTORE PUSH32 0x32322220793D223334222077696474683D223422206865696768743D22312220 PUSH2 0x380 DUP3 ADD MSTORE PUSH32 0x66696C6C3D2223464644373030222F3E3C7265637420783D2232372220793D22 PUSH2 0x3A0 DUP3 ADD MSTORE PUSH32 0x3334222077696474683D223122206865696768743D2231222066696C6C3D2223 PUSH2 0x3C0 DUP3 ADD MSTORE PUSH32 0x464644373030222F3E3C7265637420783D2232322220793D2233352220776964 PUSH2 0x3E0 DUP3 ADD MSTORE PUSH32 0x74683D223222206865696768743D2231222066696C6C3D222346464437303022 PUSH2 0x400 DUP3 ADD MSTORE PUSH32 0x2F3E3C7265637420783D2232362220793D223335222077696474683D22312220 PUSH2 0x420 DUP3 ADD MSTORE PUSH32 0x6865696768743D2231222066696C6C3D2223464644373030222F3E3C72656374 PUSH2 0x440 DUP3 ADD MSTORE PUSH32 0x20783D2232332220793D223336222077696474683D223222206865696768743D PUSH2 0x460 DUP3 ADD MSTORE PUSH32 0x2231222066696C6C3D2223464644373030222F3E3C7265637420783D22323122 PUSH2 0x480 DUP3 ADD MSTORE PUSH32 0x20793D223330222077696474683D223222206865696768743D2231222066696C PUSH2 0x4A0 DUP3 ADD MSTORE PUSH32 0x6C3D2223464646464530222F3E3C7265637420783D2232302220793D22333122 PUSH2 0x4C0 DUP3 ADD MSTORE PUSH32 0x2077696474683D223122206865696768743D2231222066696C6C3D2223464646 PUSH2 0x4E0 DUP3 ADD MSTORE PUSH32 0x464530222F3E3C7265637420783D2232322220793D223331222077696474683D PUSH2 0x500 DUP3 ADD MSTORE PUSH32 0x223422206865696768743D2231222066696C6C3D2223393337304442222F3E3C PUSH2 0x520 DUP3 ADD MSTORE PUSH32 0x7265637420783D2232312220793D223332222077696474683D22322220686569 PUSH2 0x540 DUP3 ADD MSTORE PUSH32 0x6768743D2231222066696C6C3D2223393337304442222F3E3C7265637420783D PUSH2 0x560 DUP3 ADD MSTORE PUSH32 0x2232352220793D223332222077696474683D223222206865696768743D223122 PUSH2 0x580 DUP3 ADD MSTORE PUSH32 0x2066696C6C3D2223393337304442222F3E3C7265637420783D2232322220793D PUSH2 0x5A0 DUP3 ADD MSTORE PUSH32 0x223333222077696474683D223422206865696768743D2231222066696C6C3D22 PUSH2 0x5C0 DUP3 ADD MSTORE PUSH32 0x23393337304442222F3E3C7265637420783D2232332220793D22333222207769 PUSH2 0x5E0 DUP3 ADD MSTORE PUSH32 0x6474683D223222206865696768743D2231222066696C6C3D2223444441304444 PUSH2 0x600 DUP3 ADD MSTORE PUSH32 0x222F3E3C7265637420783D2232372220793D223333222077696474683D223122 PUSH2 0x620 DUP3 ADD MSTORE PUSH32 0x206865696768743D2231222066696C6C3D2223444141353230222F3E3C726563 PUSH2 0x640 DUP3 ADD MSTORE PUSH32 0x7420783D2232362220793D223334222077696474683D22312220686569676874 PUSH2 0x660 DUP3 ADD MSTORE PUSH32 0x3D2231222066696C6C3D2223444141353230222F3E3C7265637420783D223234 PUSH2 0x680 DUP3 ADD MSTORE PUSH32 0x2220793D223335222077696474683D223222206865696768743D223122206669 PUSH2 0x6A0 DUP3 ADD MSTORE PUSH20 0x36361E9111A220A09A991811179F1E17B9BB339F PUSH1 0x61 SHL PUSH2 0x6C0 DUP3 ADD MSTORE SWAP1 JUMP JUMPDEST POP PUSH1 0x40 MLOAD PUSH2 0x8E0 DUP2 ADD DUP2 DUP2 LT PUSH1 0x1 PUSH1 0x1 PUSH1 0x40 SHL SUB DUP3 GT OR PUSH2 0x109 JUMPI PUSH1 0x40 MSTORE PUSH2 0x8B5 DUP2 MSTORE PUSH1 0x0 DUP1 MLOAD PUSH1 0x20 PUSH2 0x3224 DUP4 CODECOPY DUP2 MLOAD SWAP2 MSTORE PUSH1 0x20 DUP3 ADD MSTORE PUSH1 0x0 DUP1 MLOAD PUSH1 0x20 PUSH2 0x3204 DUP4 CODECOPY DUP2 MLOAD SWAP2 MSTORE PUSH1 0x40 DUP3 ADD MSTORE PUSH1 0x0 DUP1 MLOAD PUSH1 0x20 PUSH2 0x31E4 DUP4 CODECOPY DUP2 MLOAD SWAP2 MSTORE PUSH1 0x60 DUP3 ADD MSTORE PUSH32 0x72696E673D2263726973704564676573223E3C7265637420783D223338222079 PUSH1 0x80 DUP3 ADD MSTORE PUSH32 0x3D223138222077696474683D223122206865696768743D2231222066696C6C3D PUSH1 0xA0 DUP3 ADD MSTORE PUSH32 0x2223413941394139222F3E3C7265637420783D2234312220793D223138222077 PUSH1 0xC0 DUP3 ADD MSTORE PUSH32 0x696474683D223122206865696768743D2231222066696C6C3D22234139413941 PUSH1 0xE0 DUP3 ADD MSTORE PUSH32 0x39222F3E3C7265637420783D2233382220793D223139222077696474683D2231 PUSH2 0x100 DUP3 ADD MSTORE PUSH32 0x22206865696768743D2231222066696C6C3D2223383038303830222F3E3C7265 PUSH2 0x120 DUP3 ADD MSTORE PUSH32 0x637420783D2234312220793D223139222077696474683D223122206865696768 PUSH2 0x140 DUP3 ADD MSTORE PUSH32 0x743D2231222066696C6C3D2223383038303830222F3E3C7265637420783D2233 PUSH2 0x160 DUP3 ADD MSTORE PUSH32 0x362220793D223230222077696474683D223822206865696768743D2231222066 PUSH2 0x180 DUP3 ADD MSTORE PUSH32 0x696C6C3D2223363936393639222F3E3C7265637420783D2233352220793D2232 PUSH2 0x1A0 DUP3 ADD MSTORE PUSH32 0x31222077696474683D223222206865696768743D2231222066696C6C3D222336 PUSH2 0x1C0 DUP3 ADD MSTORE PUSH32 0x3936393639222F3E3C7265637420783D2233392220793D223231222077696474 PUSH2 0x1E0 DUP3 ADD MSTORE PUSH32 0x683D223622206865696768743D2231222066696C6C3D2223363936393639222F PUSH2 0x200 DUP3 ADD MSTORE PUSH32 0x3E3C7265637420783D2233342220793D223232222077696474683D2232222068 PUSH2 0x220 DUP3 ADD MSTORE PUSH32 0x65696768743D2231222066696C6C3D2223363936393639222F3E3C7265637420 PUSH2 0x240 DUP3 ADD MSTORE PUSH32 0x783D2233382220793D223232222077696474683D223622206865696768743D22 PUSH2 0x260 DUP3 ADD MSTORE PUSH32 0x32222066696C6C3D2223363936393639222F3E3C7265637420783D2234352220 PUSH2 0x280 DUP3 ADD MSTORE PUSH32 0x793D223232222077696474683D223122206865696768743D2231222066696C6C PUSH2 0x2A0 DUP3 ADD MSTORE PUSH32 0x3D2223363936393639222F3E3C7265637420783D2233342220793D2232332220 PUSH2 0x2C0 DUP3 ADD MSTORE PUSH32 0x77696474683D223122206865696768743D2232222066696C6C3D222336393639 PUSH2 0x2E0 DUP3 ADD MSTORE PUSH32 0x3639222F3E3C7265637420783D2233362220793D223233222077696474683D22 PUSH2 0x300 DUP3 ADD MSTORE PUSH32 0x3222206865696768743D2231222066696C6C3D2223363936393639222F3E3C72 PUSH2 0x320 DUP3 ADD MSTORE PUSH32 0x65637420783D2234342220793D223233222077696474683D2231222068656967 PUSH2 0x340 DUP3 ADD MSTORE PUSH32 0x68743D2231222066696C6C3D2223363936393639222F3E3C7265637420783D22 PUSH2 0x360 DUP3 ADD MSTORE PUSH32 0x33352220793D223234222077696474683D223122206865696768743D22322220 PUSH2 0x380 DUP3 ADD MSTORE PUSH32 0x66696C6C3D2223363936393639222F3E3C7265637420783D2233372220793D22 PUSH2 0x3A0 DUP3 ADD MSTORE PUSH32 0x3234222077696474683D223622206865696768743D2232222066696C6C3D2223 PUSH2 0x3C0 DUP3 ADD MSTORE PUSH32 0x363936393639222F3E3C7265637420783D2234352220793D2232342220776964 PUSH2 0x3E0 DUP3 ADD MSTORE PUSH32 0x74683D223122206865696768743D2231222066696C6C3D222336393639363922 PUSH2 0x400 DUP3 ADD MSTORE PUSH32 0x2F3E3C7265637420783D2233362220793D223235222077696474683D22312220 PUSH2 0x420 DUP3 ADD MSTORE PUSH32 0x6865696768743D2232222066696C6C3D2223363936393639222F3E3C72656374 PUSH2 0x440 DUP3 ADD MSTORE PUSH32 0x20783D2234332220793D223235222077696474683D223222206865696768743D PUSH2 0x460 DUP3 ADD MSTORE PUSH32 0x2231222066696C6C3D2223363936393639222F3E3C7265637420783D22333722 PUSH2 0x480 DUP3 ADD MSTORE PUSH32 0x20793D223236222077696474683D223122206865696768743D2232222066696C PUSH2 0x4A0 DUP3 ADD MSTORE PUSH32 0x6C3D2223363936393639222F3E3C7265637420783D2233392220793D22323622 PUSH2 0x4C0 DUP3 ADD MSTORE PUSH32 0x2077696474683D223222206865696768743D2232222066696C6C3D2223363936 PUSH2 0x4E0 DUP3 ADD MSTORE PUSH32 0x393639222F3E3C7265637420783D2234322220793D223236222077696474683D PUSH2 0x500 DUP3 ADD MSTORE PUSH32 0x223222206865696768743D2231222066696C6C3D2223363936393639222F3E3C PUSH2 0x520 DUP3 ADD MSTORE PUSH32 0x7265637420783D2233382220793D223237222077696474683D22312220686569 PUSH2 0x540 DUP3 ADD MSTORE PUSH32 0x6768743D2231222066696C6C3D2223363936393639222F3E3C7265637420783D PUSH2 0x560 DUP3 ADD MSTORE PUSH32 0x2234312220793D223237222077696474683D223122206865696768743D223122 PUSH2 0x580 DUP3 ADD MSTORE PUSH32 0x2066696C6C3D2223363936393639222F3E3C7265637420783D2233372220793D PUSH2 0x5A0 DUP3 ADD MSTORE PUSH32 0x223231222077696474683D223222206865696768743D2231222066696C6C3D22 PUSH2 0x5C0 DUP3 ADD MSTORE PUSH32 0x23433043304330222F3E3C7265637420783D2233362220793D22323222207769 PUSH2 0x5E0 DUP3 ADD MSTORE PUSH32 0x6474683D223222206865696768743D2231222066696C6C3D2223433043304330 PUSH2 0x600 DUP3 ADD MSTORE PUSH32 0x222F3E3C7265637420783D2233352220793D223233222077696474683D223122 PUSH2 0x620 DUP3 ADD MSTORE PUSH32 0x206865696768743D2231222066696C6C3D2223433043304330222F3E3C726563 PUSH2 0x640 DUP3 ADD MSTORE PUSH32 0x7420783D2234342220793D223232222077696474683D22312220686569676874 PUSH2 0x660 DUP3 ADD MSTORE PUSH32 0x3D2231222066696C6C3D2223324632463246222F3E3C7265637420783D223435 PUSH2 0x680 DUP3 ADD MSTORE PUSH32 0x2220793D223233222077696474683D223122206865696768743D223122206669 PUSH2 0x6A0 DUP3 ADD MSTORE PUSH32 0x6C6C3D2223324632463246222F3E3C7265637420783D2234342220793D223234 PUSH2 0x6C0 DUP3 ADD MSTORE PUSH32 0x222077696474683D223122206865696768743D2231222066696C6C3D22233246 PUSH2 0x6E0 DUP3 ADD MSTORE PUSH32 0x32463246222F3E3C7265637420783D2234322220793D22323722207769647468 PUSH2 0x700 DUP3 ADD MSTORE PUSH32 0x3D223122206865696768743D2231222066696C6C3D2223324632463246222F3E PUSH2 0x720 DUP3 ADD MSTORE PUSH32 0x3C7265637420783D2233362220793D223234222077696474683D223122206865 PUSH2 0x740 DUP3 ADD MSTORE PUSH32 0x696768743D2231222066696C6C3D2223344234423442222F3E3C726563742078 PUSH2 0x760 DUP3 ADD MSTORE PUSH32 0x3D2234332220793D223234222077696474683D223122206865696768743D2231 PUSH2 0x780 DUP3 ADD MSTORE PUSH32 0x222066696C6C3D2223344234423442222F3E3C7265637420783D223338222079 PUSH2 0x7A0 DUP3 ADD MSTORE PUSH32 0x3D223236222077696474683D223122206865696768743D2231222066696C6C3D PUSH2 0x7C0 DUP3 ADD MSTORE PUSH32 0x2223344234423442222F3E3C7265637420783D2234312220793D223236222077 PUSH2 0x7E0 DUP3 ADD MSTORE PUSH32 0x696474683D223122206865696768743D2231222066696C6C3D22233442344234 PUSH2 0x800 DUP3 ADD MSTORE PUSH32 0x42222F3E3C7265637420783D2233382220793D223238222077696474683D2231 PUSH2 0x820 DUP3 ADD MSTORE PUSH32 0x22206865696768743D2232222066696C6C3D2223384234353133222F3E3C7265 PUSH2 0x840 DUP3 ADD MSTORE PUSH32 0x637420783D2234312220793D223238222077696474683D223122206865696768 PUSH2 0x860 DUP3 ADD MSTORE PUSH32 0x743D2232222066696C6C3D2223384234353133222F3E3C7265637420783D2233 PUSH2 0x880 DUP3 ADD MSTORE PUSH32 0x392220793D223239222077696474683D223222206865696768743D2231222066 PUSH2 0x8A0 DUP3 ADD MSTORE PUSH21 0x34B6361E91119C211A1A989991179F1E17B9BB339F PUSH1 0x59 SHL PUSH2 0x8C0 DUP3 ADD MSTORE SWAP1 JUMP JUMPDEST POP PUSH1 0x40 MLOAD PUSH2 0x560 DUP2 ADD DUP2 DUP2 LT PUSH1 0x1 PUSH1 0x1 PUSH1 0x40 SHL SUB DUP3 GT OR PUSH2 0x109 JUMPI PUSH1 0x40 MSTORE PUSH2 0x527 DUP2 MSTORE PUSH1 0x0 DUP1 MLOAD PUSH1 0x20 PUSH2 0x3224 DUP4 CODECOPY DUP2 MLOAD SWAP2 MSTORE PUSH1 0x20 DUP3 ADD MSTORE PUSH1 0x0 DUP1 MLOAD PUSH1 0x20 PUSH2 0x3204 DUP4 CODECOPY DUP2 MLOAD SWAP2 MSTORE PUSH1 0x40 DUP3 ADD MSTORE PUSH1 0x0 DUP1 MLOAD PUSH1 0x20 PUSH2 0x31E4 DUP4 CODECOPY DUP2 MLOAD SWAP2 MSTORE PUSH1 0x60 DUP3 ADD MSTORE PUSH32 0x72696E673D2263726973704564676573223E3C7265637420783D223430222079 PUSH1 0x80 DUP3 ADD MSTORE PUSH32 0x3D223230222077696474683D223122206865696768743D2231222066696C6C3D PUSH1 0xA0 DUP3 ADD MSTORE PUSH32 0x2223464644373030222F3E3C7265637420783D2233362220793D223233222077 PUSH1 0xC0 DUP3 ADD MSTORE PUSH32 0x696474683D223122206865696768743D2231222066696C6C3D22234646443730 PUSH1 0xE0 DUP3 ADD MSTORE PUSH32 0x30222F3E3C7265637420783D2234342220793D223233222077696474683D2231 PUSH2 0x100 DUP3 ADD MSTORE PUSH32 0x22206865696768743D2231222066696C6C3D2223464644373030222F3E3C7265 PUSH2 0x120 DUP3 ADD MSTORE PUSH32 0x637420783D2234302220793D223237222077696474683D223122206865696768 PUSH2 0x140 DUP3 ADD MSTORE PUSH32 0x743D2231222066696C6C3D2223464644373030222F3E3C7265637420783D2233 PUSH2 0x160 DUP3 ADD MSTORE PUSH32 0x382220793D223232222077696474683D223522206865696768743D2231222066 PUSH2 0x180 DUP3 ADD MSTORE PUSH32 0x696C6C3D2223393337304442222F3E3C7265637420783D2233372220793D2232 PUSH2 0x1A0 DUP3 ADD MSTORE PUSH32 0x33222077696474683D223222206865696768743D2232222066696C6C3D222339 PUSH2 0x1C0 DUP3 ADD MSTORE PUSH32 0x3337304442222F3E3C7265637420783D2234312220793D223233222077696474 PUSH2 0x1E0 DUP3 ADD MSTORE PUSH32 0x683D223322206865696768743D2231222066696C6C3D2223393337304442222F PUSH2 0x200 DUP3 ADD MSTORE PUSH32 0x3E3C7265637420783D2233392220793D223234222077696474683D2231222068 PUSH2 0x220 DUP3 ADD MSTORE PUSH32 0x65696768743D2233222066696C6C3D2223393337304442222F3E3C7265637420 PUSH2 0x240 DUP3 ADD MSTORE PUSH32 0x783D2234322220793D223234222077696474683D223222206865696768743D22 PUSH2 0x260 DUP3 ADD MSTORE PUSH32 0x31222066696C6C3D2223393337304442222F3E3C7265637420783D2234302220 PUSH2 0x280 DUP3 ADD MSTORE PUSH32 0x793D223235222077696474683D223222206865696768743D2232222066696C6C PUSH2 0x2A0 DUP3 ADD MSTORE PUSH32 0x3D2223393337304442222F3E3C7265637420783D2233382220793D2232362220 PUSH2 0x2C0 DUP3 ADD MSTORE PUSH32 0x77696474683D223122206865696768743D2231222066696C6C3D222339333730 PUSH2 0x2E0 DUP3 ADD MSTORE PUSH32 0x4442222F3E3C7265637420783D2234322220793D223236222077696474683D22 PUSH2 0x300 DUP3 ADD MSTORE PUSH32 0x3122206865696768743D2231222066696C6C3D2223393337304442222F3E3C72 PUSH2 0x320 DUP3 ADD MSTORE PUSH32 0x65637420783D2233392220793D223233222077696474683D2232222068656967 PUSH2 0x340 DUP3 ADD MSTORE PUSH32 0x68743D2231222066696C6C3D2223444441304444222F3E3C7265637420783D22 PUSH2 0x360 DUP3 ADD MSTORE PUSH32 0x34302220793D223234222077696474683D223222206865696768743D22312220 PUSH2 0x380 DUP3 ADD MSTORE PUSH32 0x66696C6C3D2223444441304444222F3E3C7265637420783D2233372220793D22 PUSH2 0x3A0 DUP3 ADD MSTORE PUSH32 0x3235222077696474683D223222206865696768743D2231222066696C6C3D2223 PUSH2 0x3C0 DUP3 ADD MSTORE PUSH32 0x364130444144222F3E3C7265637420783D2234322220793D2232352220776964 PUSH2 0x3E0 DUP3 ADD MSTORE PUSH32 0x74683D223222206865696768743D2231222066696C6C3D222336413044414422 PUSH2 0x400 DUP3 ADD MSTORE PUSH32 0x2F3E3C7265637420783D2233392220793D223237222077696474683D22312220 PUSH2 0x420 DUP3 ADD MSTORE PUSH32 0x6865696768743D223136222066696C6C3D2223363534333231222F3E3C726563 PUSH2 0x440 DUP3 ADD MSTORE PUSH32 0x7420783D2234302220793D223431222077696474683D22312220686569676874 PUSH2 0x460 DUP3 ADD MSTORE PUSH32 0x3D2233222066696C6C3D2223363534333231222F3E3C7265637420783D223431 PUSH2 0x480 DUP3 ADD MSTORE PUSH32 0x2220793D223237222077696474683D223122206865696768743D223822206669 PUSH2 0x4A0 DUP3 ADD MSTORE PUSH32 0x6C6C3D2223413035323244222F3E3C7265637420783D2234302220793D223238 PUSH2 0x4C0 DUP3 ADD MSTORE PUSH32 0x222077696474683D223122206865696768743D223133222066696C6C3D222338 PUSH2 0x4E0 DUP3 ADD MSTORE PUSH32 0x4234353133222F3E3C7265637420783D2234312220793D223335222077696474 PUSH2 0x500 DUP3 ADD MSTORE PUSH32 0x683D223122206865696768743D2238222066696C6C3D2223384234353133222F PUSH2 0x520 DUP3 ADD MSTORE PUSH7 0x1F1E17B9BB339F PUSH1 0xC9 SHL PUSH2 0x540 DUP3 ADD MSTORE SWAP1 JUMP JUMPDEST POP PUSH1 0x40 MLOAD PUSH2 0x440 DUP2 ADD DUP2 DUP2 LT PUSH1 0x1 PUSH1 0x1 PUSH1 0x40 SHL SUB DUP3 GT OR PUSH2 0x109 JUMPI PUSH1 0x40 MSTORE PUSH2 0x40A DUP2 MSTORE PUSH1 0x0 DUP1 MLOAD PUSH1 0x20 PUSH2 0x3224 DUP4 CODECOPY DUP2 MLOAD SWAP2 MSTORE PUSH1 0x20 DUP3 ADD MSTORE PUSH1 0x0 DUP1 MLOAD PUSH1 0x20 PUSH2 0x3204 DUP4 CODECOPY DUP2 MLOAD SWAP2 MSTORE PUSH1 0x40 DUP3 ADD MSTORE PUSH1 0x0 DUP1 MLOAD PUSH1 0x20 PUSH2 0x31E4 DUP4 CODECOPY DUP2 MLOAD SWAP2 MSTORE PUSH1 0x60 DUP3 ADD MSTORE PUSH32 0x72696E673D2263726973704564676573223E3C7265637420783D223337222079 PUSH1 0x80 DUP3 ADD MSTORE PUSH32 0x3D223135222077696474683D223322206865696768743D2231222066696C6C3D PUSH1 0xA0 DUP3 ADD MSTORE PUSH32 0x2223324632463246222F3E3C7265637420783D2233372220793D223136222077 PUSH1 0xC0 DUP3 ADD MSTORE PUSH32 0x696474683D223322206865696768743D2231222066696C6C3D22233441344134 PUSH1 0xE0 DUP3 ADD MSTORE PUSH32 0x41222F3E3C7265637420783D2233382220793D223137222077696474683D2233 PUSH2 0x100 DUP3 ADD MSTORE PUSH32 0x22206865696768743D2231222066696C6C3D2223433043304330222F3E3C7265 PUSH2 0x120 DUP3 ADD MSTORE PUSH32 0x637420783D2234342220793D223137222077696474683D223122206865696768 PUSH2 0x140 DUP3 ADD MSTORE PUSH32 0x743D2232222066696C6C3D2223433043304330222F3E3C7265637420783D2234 PUSH2 0x160 DUP3 ADD MSTORE PUSH32 0x312220793D223138222077696474683D223322206865696768743D2231222066 PUSH2 0x180 DUP3 ADD MSTORE PUSH32 0x696C6C3D2223433043304330222F3E3C7265637420783D2234352220793D2231 PUSH2 0x1A0 DUP3 ADD MSTORE PUSH32 0x38222077696474683D223122206865696768743D2233222066696C6C3D222343 PUSH2 0x1C0 DUP3 ADD MSTORE PUSH32 0x3043304330222F3E3C7265637420783D2234312220793D223139222077696474 PUSH2 0x1E0 DUP3 ADD MSTORE PUSH32 0x683D223222206865696768743D2231222066696C6C3D2223433043304330222F PUSH2 0x200 DUP3 ADD MSTORE PUSH32 0x3E3C7265637420783D2234322220793D223230222077696474683D2233222068 PUSH2 0x220 DUP3 ADD MSTORE PUSH32 0x65696768743D2232222066696C6C3D2223433043304330222F3E3C7265637420 PUSH2 0x240 DUP3 ADD MSTORE PUSH32 0x783D2234332220793D223232222077696474683D223222206865696768743D22 PUSH2 0x260 DUP3 ADD MSTORE PUSH32 0x31222066696C6C3D2223433043304330222F3E3C7265637420783D2234332220 PUSH2 0x280 DUP3 ADD MSTORE PUSH32 0x793D223233222077696474683D223122206865696768743D2231222066696C6C PUSH2 0x2A0 DUP3 ADD MSTORE PUSH32 0x3D2223433043304330222F3E3C7265637420783D2234312220793D2231372220 PUSH2 0x2C0 DUP3 ADD MSTORE PUSH32 0x77696474683D223322206865696768743D2231222066696C6C3D222345354535 PUSH2 0x2E0 DUP3 ADD MSTORE PUSH32 0x4535222F3E3C7265637420783D2234332220793D223139222077696474683D22 PUSH2 0x300 DUP3 ADD MSTORE PUSH32 0x3222206865696768743D2231222066696C6C3D2223453545354535222F3E3C72 PUSH2 0x320 DUP3 ADD MSTORE PUSH32 0x65637420783D2233382220793D223138222077696474683D2231222068656967 PUSH2 0x340 DUP3 ADD MSTORE PUSH32 0x68743D223230222066696C6C3D2223384234353133222F3E3C7265637420783D PUSH2 0x360 DUP3 ADD MSTORE PUSH32 0x2233392220793D223138222077696474683D223122206865696768743D223230 PUSH2 0x380 DUP3 ADD MSTORE PUSH32 0x222066696C6C3D2223363534333231222F3E3C7265637420783D223430222079 PUSH2 0x3A0 DUP3 ADD MSTORE PUSH32 0x3D223138222077696474683D223122206865696768743D2233222066696C6C3D PUSH2 0x3C0 DUP3 ADD MSTORE PUSH32 0x2223383038303830222F3E3C7265637420783D2233372220793D223338222077 PUSH2 0x3E0 DUP3 ADD MSTORE PUSH32 0x696474683D223422206865696768743D2231222066696C6C3D22233842303030 PUSH2 0x400 DUP3 ADD MSTORE PUSH10 0x1811179F1E17B9BB339F PUSH1 0xB1 SHL PUSH2 0x420 DUP3 ADD MSTORE SWAP1 JUMP JUMPDEST PUSH1 0xFF AND PUSH1 0x6 DUP2 EQ PUSH2 0x31C8 JUMPI PUSH1 0x7 DUP2 EQ PUSH2 0x3196 JUMPI PUSH1 0x8 DUP2 EQ PUSH2 0x3161 JUMPI PUSH1 0x9 DUP2 EQ PUSH2 0x3146 JUMPI PUSH1 0xA DUP2 EQ PUSH2 0x3115 JUMPI PUSH1 0xB EQ PUSH2 0x30E6 JUMPI PUSH1 0x40 MLOAD PUSH3 0x461BCD PUSH1 0xE5 SHL DUP2 MSTORE DUP1 PUSH2 0x19D PUSH1 0x4 DUP3 ADD PUSH2 0x11F JUMP JUMPDEST PUSH1 0x40 MLOAD PUSH1 0x40 DUP2 ADD DUP2 DUP2 LT PUSH1 0x1 PUSH1 0x1 PUSH1 0x40 SHL SUB DUP3 GT OR PUSH2 0x109 JUMPI PUSH1 0x40 MSTORE PUSH1 0x3 DUP2 MSTORE PUSH3 0x41726D PUSH1 0xE8 SHL PUSH1 0x20 DUP3 ADD MSTORE SWAP1 JUMP JUMPDEST POP PUSH1 0x40 MLOAD PUSH1 0x40 DUP2 ADD DUP2 DUP2 LT PUSH1 0x1 PUSH1 0x1 PUSH1 0x40 SHL SUB DUP3 GT OR PUSH2 0x109 JUMPI PUSH1 0x40 MSTORE PUSH1 0x4 DUP2 MSTORE PUSH4 0x12195859 PUSH1 0xE2 SHL PUSH1 0x20 DUP3 ADD MSTORE SWAP1 JUMP JUMPDEST POP PUSH2 0x314F PUSH2 0xE6 JUMP JUMPDEST PUSH6 0x105B5D5B195D PUSH1 0xD2 SHL PUSH1 0x20 DUP3 ADD MSTORE SWAP1 JUMP JUMPDEST POP PUSH1 0x40 MLOAD PUSH1 0x40 DUP2 ADD DUP2 DUP2 LT PUSH1 0x1 PUSH1 0x1 PUSH1 0x40 SHL SUB DUP3 GT OR PUSH2 0x109 JUMPI PUSH1 0x40 MSTORE PUSH1 0x8 DUP2 MSTORE PUSH8 0x29B437BAB63232B9 PUSH1 0xC1 SHL PUSH1 0x20 DUP3 ADD MSTORE SWAP1 JUMP JUMPDEST POP PUSH1 0x40 MLOAD PUSH1 0x40 DUP2 ADD DUP2 DUP2 LT PUSH1 0x1 PUSH1 0x1 PUSH1 0x40 SHL SUB DUP3 GT OR PUSH2 0x109 JUMPI PUSH1 0x40 MSTORE PUSH1 0x5 DUP2 MSTORE PUSH5 0x29BA30B333 PUSH1 0xD9 SHL PUSH1 0x20 DUP3 ADD MSTORE SWAP1 JUMP JUMPDEST POP PUSH2 0x31D1 PUSH2 0xE6 JUMP JUMPDEST PUSH6 0x536379746865 PUSH1 0xD0 SHL PUSH1 0x20 DUP3 ADD MSTORE SWAP1 JUMP INVALID PUSH24 0x77772E77332E6F72672F323030302F737667222073686170 PUSH6 0x2D72656E6465 PUSH6 0x77426F783D22 ADDRESS KECCAK256 ADDRESS KECCAK256 CALLVALUE CODESIZE KECCAK256 CALLVALUE CODESIZE 0x22 KECCAK256 PUSH25 0x6D6C6E733D22687474703A2F2F3C7376672077696474683D22 CALLDATACOPY CALLDATASIZE CODESIZE 0x22 KECCAK256 PUSH9 0x65696768743D223736 CODESIZE 0x22 KECCAK256 PUSH23 0x69A2646970667358221220FD9776B27859C49767C35D22 DUP5 0xA7 0xD8 0xDE AND 0xBB 0xFB XOR 0xD7 0xD9 PUSH23 0xCDC50CC800E994CBCB64736F6C63430008140033000000 "},"methodIdentifiers":{"getItemName(uint8)":"30a86006","getItemSVG(uint8)":"f6d40558"}}}}}