{"contracts/ArweaveItemBank.sol":{"ArweaveItemBank":{"abi":[{"inputs":[],"stateMutability":"nonpayable","type":"constructor"},{"inputs":[{"internalType":"uint8","name":"id","type":"uint8"}],"name":"getItemName","outputs":[{"internalType":"string","name":"","type":"string"}],"stateMutability":"view","type":"function"},{"inputs":[{"internalType":"uint8","name":"id","type":"uint8"}],"name":"getItemSVG","outputs":[{"internalType":"string","name":"","type":"string"}],"stateMutability":"view","type":"function"},{"inputs":[{"internalType":"uint256","name":"","type":"uint256"}],"name":"itemNames","outputs":[{"internalType":"string","name":"","type":"string"}],"stateMutability":"view","type":"function"},{"inputs":[],"name":"owner","outputs":[{"internalType":"address","name":"","type":"address"}],"stateMutability":"view","type":"function"},{"inputs":[{"internalType":"uint8","name":"id","type":"uint8"},{"internalType":"string","name":"svg","type":"string"}],"name":"setItemSVG","outputs":[],"stateMutability":"nonpayable","type":"function"}],"evm":{"bytecode":{"linkReferences":{},"object":"60803462000f22576101408101906001600160401b03908183118184101762000f0c5760409283526200003162000f27565b9160058084526020936421b937bbb760d91b8582015283526200005362000f27565b8181526414dddbdc9960da1b85820152848401526200007162000f27565b906006918281526514da1a595b1960d21b86820152868501526200009462000f27565b828152652837b4b9b7b760d11b868201526060850152620000b462000f27565b818152640a8dee4c6d60db1b868201526080850152620000d362000f27565b926004938481526357696e6560e01b8782015260a0860152620000f562000f27565b8381526553637974686560d01b8782015260c08601526200011562000f27565b8281526429ba30b33360d91b8782015260e08601526200013462000f27565b946008958681526729b437bab63232b960c11b888201526101008201526200015b62000f27565b84815265105b5d5b195d60d21b888201526101208201529060016000925b600a841062000dd5575050600b80546001600160a01b03191633179055505060008080528086528690208054620001b09062000f47565b620001bc908262000f9d565b6101fb815560005284600020927f3c73766720786d6c6e733d22687474703a2f2f7777772e77332e6f72672f3230958685557f30302f737667222076696577426f783d22302030203234203234223e3c6720668060018701556002908187017f696c6c3d2223464644373030223e3c7061746820643d224d372038683130763290556003928388017f48377a6d2d312032683132763148367a6d312031683130763148377a6d33203190558488017f68347631682d347a222f3e3c2f673e3c672066696c6c3d22234646303030302290558588017f3e3c7061746820643d224d3920386831763148397a6d35203068317631682d3190558688017f7a222f3e3c2f673e3c672066696c6c3d2223303030304646223e3c7061746820905560078098017f643d224d3132203868317631682d317a222f3e3c2f673e3c2f7376673e00000090556001600052600081528a60002080546200031b9062000f47565b62000327908262000f9d565b610201815560009081528181208b8155600181018490557f696c6c3d2223433043304330223e3c7061746820643d224d3131203468327631858201557f32682d327a222f3e3c2f673e3c672066696c6c3d2223384234353133223e3c70868201557f61746820643d224d313020313668347632682d347a222f3e3c2f673e3c672066878201557f696c6c3d2223464644373030223e3c7061746820643d224d3920313568367631888201557f48397a222f3e3c2f673e3c672066696c6c3d2223453045304530223e3c706174898201557f6820643d224d313120346831763132682d317a222f3e3c2f673e3c2f7376673e908a01558381528082528b90208054620004329062000f47565b6200043e908262000fcd565b610257815560009081528181208b8155600181018490557f696c6c3d2223343638324234223e3c7061746820643d224d3820366838763148858201557f387a6d2d312031683130763148377a6d2d312031683132763248367a6d302032868201557f683132763248367a6d302032683132763248367a6d312032683130763248377a878201557f6d3120326838763148387a6d3120316836763148397a222f3e3c2f673e3c6720888201557f66696c6c3d2223464644373030223e3c7061746820643d224d31312039683276898201557f34682d327a222f3e3c2f673e3c672066696c6c3d2223314539304646223e3c708a8201557f61746820643d224d3720386831763148377a6d39203068317631682d317a222f8b8201556a1f1e17b39f1e17b9bb339f60a91b6009909101558481528082528b90208054620005839062000f47565b6200058f908262000ffb565b61022f815560009081528181208b8155600181018490557f696c6c3d2223344230303832223e3c7061746820643d224d3130203668347631858201557f682d347a6d2d3120316836763148397a6d2d3120316838763648387a6d312036868201557f6836763248397a6d31203268347632682d347a222f3e3c2f673e3c672066696c878201557f6c3d2223393430304433223e3c7061746820643d224d31302031306831763268888201557f2d317a6d33203068317632682d317a222f3e3c2f673e3c672066696c6c3d2223898201557f30304646303022206f7061636974793d22302e36223e3c7061746820643d224d8a8201557f3920396836763448397a222f3e3c2f673e3c2f7376673e000000000000000000908b01558581528082528b90208054620006bf9062000f47565b620006cb908262000ffb565b610233815560009081528181208b8155600181018490557f696c6c3d2223464634353030223e3c7061746820643d224d3131203468327633858201557f682d327a6d2d31203168347633682d347a6d2d3120316836763348397a222f3e868201557f3c2f673e3c672066696c6c3d2223464644373030223e3c7061746820643d224d878201557f3131203568327632682d327a222f3e3c2f673e3c672066696c6c3d2223384234888201557f353133223e3c7061746820643d224d313120396832763130682d327a222f3e3c898201557f2f673e3c672066696c6c3d2223363534333231223e3c7061746820643d224d318a8201557f3020313768347632682d347a222f3e3c2f673e3c2f7376673e00000000000000908b01558681528082528b90208054620007fb9062000f47565b62000807908262000ffb565b610205815560009081528181208b8155600181018490557f696c6c3d2223384230303030223e3c7061746820643d224d3130203668347636858201557f682d347a222f3e3c2f673e3c672066696c6c3d2223324634463446223e3c7061868201557f746820643d224d3130203668347631682d347a6d31203668327634682d327a6d878201557f2d31203468347631682d347a6d30203168347632682d347a222f3e3c2f673e3c888201557f672066696c6c3d222344433134334322206f7061636974793d22302e37223e3c898201557f7061746820643d224d3130203768347634682d347a222f3e3c2f673e3c2f73768a82015561339f60f11b908b01558781528082528b902080546200091c9062000f47565b62000928908262000ffb565b610211815560009081528181208b8155600181018490557f696c6c3d2223433043304330223e3c7061746820643d224d3820346838763148858201557f387a6d36203168337631682d337a6d35203168317631682d317a6d3020316831868201557f7632682d317a222f3e3c2f673e3c672066696c6c3d2223384234353133223e3c878201557f7061746820643d224d313120356832763134682d327a222f3e3c2f673e3c6720888201557f66696c6c3d2223413941394139223e3c7061746820643d224d38203468317631898201557f48387a6d37203168317631682d317a6d33203168317631682d317a222f3e3c2f8a82015567339f1e17b9bb339f60c11b908b01558881528082528b9020805462000a439062000f47565b62000a4f908262000fcd565b610249815560009081528181208b8155600181018490557f696c6c3d2223384234353133223e3c7061746820643d224d3131203668327631858201557f34682d327a222f3e3c2f673e3c672066696c6c3d2223393337304442223e3c70868201557f61746820643d224d3130203468347634682d347a222f3e3c2f673e3c67206669878201557f6c6c3d2223464644373030223e3c7061746820643d224d313120356832763268888201557f2d327a222f3e3c2f673e3c672066696c6c3d2223344230303832223e3c706174898201557f6820643d224d3130203468317631682d317a6d33203068317631682d317a6d2d8a8201557f33203368317631682d317a6d33203068317631682d317a222f3e3c2f673e3c2f8b8201556339bb339f60e11b6009909101558981528082528b9020805462000b8d9062000f47565b62000b99908262000f9d565b6101db815560009081528181208b8155600181018490557f696c6c3d2223363936393639223e3c7061746820643d224d3720386834763348858201557f377a6d36203068347633682d347a222f3e3c2f673e3c672066696c6c3d222341868201557f3941394139223e3c7061746820643d224d3720386834763148377a6d36203068878201557f347631682d347a222f3e3c2f673e3c672066696c6c3d2223464630303030223e888201557f3c7061746820643d224d3820396832763148387a6d36203068327631682d327a898201556c11179f1e17b39f1e17b9bb339f60991b908a0155600981528082528b9020805462000c959062000f47565b62000ca1908262000fcd565b61024f8155600052600020988955600189015587017f696c6c3d2223464644373030223e3c7061746820643d224d3131203768327631905586017f682d327a6d2d31203168347631682d347a6d2d3120316836763648397a6d3120905585017f3668347631682d347a6d31203168327631682d327a222f3e3c2f673e3c672066905584017f696c6c3d2223464630303030223e3c7061746820643d224d3131203131683276905583017f32682d327a222f3e3c2f673e3c672066696c6c3d2223464641353030223e3c70905582017f61746820643d224d313020313068317631682d317a6d33203068317631682d31905581017f7a6d2d33203368317631682d317a6d33203068317631682d317a222f3e3c2f679055600901661f1e17b9bb339f60c91b9055516104dd90816200102a8239f35b805180519084821162000ef757908a9162000df1855462000f47565b90601f9182811162000ebc575b508391831160011462000e4a5791806001959286959460009262000e3e575b5050600019600383901b1c191690841b1785555b0192019301929062000179565b01519050388062000e1d565b939190601f1982169086600052846000209160005b81811062000ea357509183916001978897969588951062000e89575b505050811b01855562000e31565b015160001960f88460031b161c1916905538808062000e7b565b8783015184558f96600190940193928301920162000e5f565b62000ee6908760005285600020848087018d1c82019288881062000eed575b018c1c019062000f84565b3862000dfe565b9250819262000edb565b604189634e487b7160e01b6000525260246000fd5b634e487b7160e01b600052604160045260246000fd5b600080fd5b60408051919082016001600160401b0381118382101762000f0c57604052565b90600182811c9216801562000f79575b602083101462000f6357565b634e487b7160e01b600052602260045260246000fd5b91607f169162000f57565b81811062000f90575050565b6000815560010162000f84565b90601f811162000fab575050565b62000fcb916000526008601f6020600020920160051c8201910162000f84565b565b90601f811162000fdb575050565b62000fcb91600052600a601f6020600020920160051c8201910162000f84565b90601f811162001009575050565b62000fcb916000526009601f6020600020920160051c8201910162000f8456fe604060808152600436101561001357600080fd5b600090813560e01c806330a86006146102af5780638da5cb5b14610287578063a7363fe2146100d7578063c34a5b98146100a55763f6d405581461005657600080fd5b346100a15760203660031901126100a1576100928161009d9360ff610079610306565b16610086600a8210610469565b8152806020522061039e565b90519182918261031b565b0390f35b5080fd5b50346100a15760203660031901126100a15760043591600a8310156100d4575061009261009d9260010161039e565b80fd5b5090346100d457816003193601126100d4576100f1610306565b60249081359167ffffffffffffffff918284116102835736602385011215610283578360040135928311610283573682848601011161028357600b546001600160a01b031633036102545760ff1661014b600a8210610469565b84526020948486528420926101608454610364565b601f8111610211575b508495601f84116001146101a957509484958394959361019c575b5050508160011b916000199060031b1c191617905580f35b0101359050388080610184565b91601f198416968587528387209387905b8982106101f7575050846001969798106101db575b50505050811b01905580f35b60001960f88660031b161c1992010135169055388080806101cf565b8060018497868395968901013581550196019201906101ba565b848652868620601f850160051c81019188861061024a575b601f0160051c01905b81811061023f5750610169565b868155600101610232565b9091508190610229565b855162461bcd60e51b815260206004820152600981840152682737ba1037bbb732b960b91b6044820152606490fd5b8480fd5b50346100a157816003193601126100a157600b5490516001600160a01b039091168152602090f35b50346100a15760203660031901126100a1576102c9610306565b916102d9600a60ff851610610469565b600a8310156102f2575061009261009d9260010161039e565b634e487b7160e01b81526032600452602490fd5b6004359060ff8216820361031657565b600080fd5b6020808252825181830181905290939260005b82811061035057505060409293506000838284010152601f8019910116010190565b81810186015184820160400152850161032e565b90600182811c92168015610394575b602083101461037e57565b634e487b7160e01b600052602260045260246000fd5b91607f1691610373565b90604051916000908054906103b282610364565b908186526001928381169081600014610448575060011461040b575b505050829003601f01601f1916820167ffffffffffffffff8111838210176103f557604052565b634e487b7160e01b600052604160045260246000fd5b9092506000526020918260002091836000935b83851061043457505050508301013880806103ce565b80548886018301529301928490820161041e565b92935050506020925060ff191682850152151560051b8301013880806103ce565b1561047057565b60405162461bcd60e51b815260206004820152600f60248201526e125b9d985b1a59081a5d195b481251608a1b6044820152606490fdfea2646970667358221220ce2fc3301186a83d5bd06229ab9fc6393486ed1725b4dc45be38e476f5b87fb064736f6c63430008140033","opcodes":"PUSH1 0x80 CALLVALUE PUSH3 0xF22 JUMPI PUSH2 0x140 DUP2 ADD SWAP1 PUSH1 0x1 PUSH1 0x1 PUSH1 0x40 SHL SUB SWAP1 DUP2 DUP4 GT DUP2 DUP5 LT OR PUSH3 0xF0C JUMPI PUSH1 0x40 SWAP3 DUP4 MSTORE PUSH3 0x31 PUSH3 0xF27 JUMP JUMPDEST SWAP2 PUSH1 0x5 DUP1 DUP5 MSTORE PUSH1 0x20 SWAP4 PUSH5 0x21B937BBB7 PUSH1 0xD9 SHL DUP6 DUP3 ADD MSTORE DUP4 MSTORE PUSH3 0x53 PUSH3 0xF27 JUMP JUMPDEST DUP2 DUP2 MSTORE PUSH5 0x14DDDBDC99 PUSH1 0xDA SHL DUP6 DUP3 ADD MSTORE DUP5 DUP5 ADD MSTORE PUSH3 0x71 PUSH3 0xF27 JUMP JUMPDEST SWAP1 PUSH1 0x6 SWAP2 DUP3 DUP2 MSTORE PUSH6 0x14DA1A595B19 PUSH1 0xD2 SHL DUP7 DUP3 ADD MSTORE DUP7 DUP6 ADD MSTORE PUSH3 0x94 PUSH3 0xF27 JUMP JUMPDEST DUP3 DUP2 MSTORE PUSH6 0x2837B4B9B7B7 PUSH1 0xD1 SHL DUP7 DUP3 ADD MSTORE PUSH1 0x60 DUP6 ADD MSTORE PUSH3 0xB4 PUSH3 0xF27 JUMP JUMPDEST DUP2 DUP2 MSTORE PUSH5 0xA8DEE4C6D PUSH1 0xDB SHL DUP7 DUP3 ADD MSTORE PUSH1 0x80 DUP6 ADD MSTORE PUSH3 0xD3 PUSH3 0xF27 JUMP JUMPDEST SWAP3 PUSH1 0x4 SWAP4 DUP5 DUP2 MSTORE PUSH4 0x57696E65 PUSH1 0xE0 SHL DUP8 DUP3 ADD MSTORE PUSH1 0xA0 DUP7 ADD MSTORE PUSH3 0xF5 PUSH3 0xF27 JUMP JUMPDEST DUP4 DUP2 MSTORE PUSH6 0x536379746865 PUSH1 0xD0 SHL DUP8 DUP3 ADD MSTORE PUSH1 0xC0 DUP7 ADD MSTORE PUSH3 0x115 PUSH3 0xF27 JUMP JUMPDEST DUP3 DUP2 MSTORE PUSH5 0x29BA30B333 PUSH1 0xD9 SHL DUP8 DUP3 ADD MSTORE PUSH1 0xE0 DUP7 ADD MSTORE PUSH3 0x134 PUSH3 0xF27 JUMP JUMPDEST SWAP5 PUSH1 0x8 SWAP6 DUP7 DUP2 MSTORE PUSH8 0x29B437BAB63232B9 PUSH1 0xC1 SHL DUP9 DUP3 ADD MSTORE PUSH2 0x100 DUP3 ADD MSTORE PUSH3 0x15B PUSH3 0xF27 JUMP JUMPDEST DUP5 DUP2 MSTORE PUSH6 0x105B5D5B195D PUSH1 0xD2 SHL DUP9 DUP3 ADD MSTORE PUSH2 0x120 DUP3 ADD MSTORE SWAP1 PUSH1 0x1 PUSH1 0x0 SWAP3 JUMPDEST PUSH1 0xA DUP5 LT PUSH3 0xDD5 JUMPI POP POP PUSH1 0xB DUP1 SLOAD PUSH1 0x1 PUSH1 0x1 PUSH1 0xA0 SHL SUB NOT AND CALLER OR SWAP1 SSTORE POP POP PUSH1 0x0 DUP1 DUP1 MSTORE DUP1 DUP7 MSTORE DUP7 SWAP1 KECCAK256 DUP1 SLOAD PUSH3 0x1B0 SWAP1 PUSH3 0xF47 JUMP JUMPDEST PUSH3 0x1BC SWAP1 DUP3 PUSH3 0xF9D JUMP JUMPDEST PUSH2 0x1FB DUP2 SSTORE PUSH1 0x0 MSTORE DUP5 PUSH1 0x0 KECCAK256 SWAP3 PUSH32 0x3C73766720786D6C6E733D22687474703A2F2F7777772E77332E6F72672F3230 SWAP6 DUP7 DUP6 SSTORE PUSH32 0x30302F737667222076696577426F783D22302030203234203234223E3C672066 DUP1 PUSH1 0x1 DUP8 ADD SSTORE PUSH1 0x2 SWAP1 DUP2 DUP8 ADD PUSH32 0x696C6C3D2223464644373030223E3C7061746820643D224D3720386831307632 SWAP1 SSTORE PUSH1 0x3 SWAP3 DUP4 DUP9 ADD PUSH32 0x48377A6D2D312032683132763148367A6D312031683130763148377A6D332031 SWAP1 SSTORE DUP5 DUP9 ADD PUSH32 0x68347631682D347A222F3E3C2F673E3C672066696C6C3D222346463030303022 SWAP1 SSTORE DUP6 DUP9 ADD PUSH32 0x3E3C7061746820643D224D3920386831763148397A6D35203068317631682D31 SWAP1 SSTORE DUP7 DUP9 ADD PUSH32 0x7A222F3E3C2F673E3C672066696C6C3D2223303030304646223E3C7061746820 SWAP1 SSTORE PUSH1 0x7 DUP1 SWAP9 ADD PUSH32 0x643D224D3132203868317631682D317A222F3E3C2F673E3C2F7376673E000000 SWAP1 SSTORE PUSH1 0x1 PUSH1 0x0 MSTORE PUSH1 0x0 DUP2 MSTORE DUP11 PUSH1 0x0 KECCAK256 DUP1 SLOAD PUSH3 0x31B SWAP1 PUSH3 0xF47 JUMP JUMPDEST PUSH3 0x327 SWAP1 DUP3 PUSH3 0xF9D JUMP JUMPDEST PUSH2 0x201 DUP2 SSTORE PUSH1 0x0 SWAP1 DUP2 MSTORE DUP2 DUP2 KECCAK256 DUP12 DUP2 SSTORE PUSH1 0x1 DUP2 ADD DUP5 SWAP1 SSTORE PUSH32 0x696C6C3D2223433043304330223E3C7061746820643D224D3131203468327631 DUP6 DUP3 ADD SSTORE PUSH32 0x32682D327A222F3E3C2F673E3C672066696C6C3D2223384234353133223E3C70 DUP7 DUP3 ADD SSTORE PUSH32 0x61746820643D224D313020313668347632682D347A222F3E3C2F673E3C672066 DUP8 DUP3 ADD SSTORE PUSH32 0x696C6C3D2223464644373030223E3C7061746820643D224D3920313568367631 DUP9 DUP3 ADD SSTORE PUSH32 0x48397A222F3E3C2F673E3C672066696C6C3D2223453045304530223E3C706174 DUP10 DUP3 ADD SSTORE PUSH32 0x6820643D224D313120346831763132682D317A222F3E3C2F673E3C2F7376673E SWAP1 DUP11 ADD SSTORE DUP4 DUP2 MSTORE DUP1 DUP3 MSTORE DUP12 SWAP1 KECCAK256 DUP1 SLOAD PUSH3 0x432 SWAP1 PUSH3 0xF47 JUMP JUMPDEST PUSH3 0x43E SWAP1 DUP3 PUSH3 0xFCD JUMP JUMPDEST PUSH2 0x257 DUP2 SSTORE PUSH1 0x0 SWAP1 DUP2 MSTORE DUP2 DUP2 KECCAK256 DUP12 DUP2 SSTORE PUSH1 0x1 DUP2 ADD DUP5 SWAP1 SSTORE PUSH32 0x696C6C3D2223343638324234223E3C7061746820643D224D3820366838763148 DUP6 DUP3 ADD SSTORE PUSH32 0x387A6D2D312031683130763148377A6D2D312031683132763248367A6D302032 DUP7 DUP3 ADD SSTORE PUSH32 0x683132763248367A6D302032683132763248367A6D312032683130763248377A DUP8 DUP3 ADD SSTORE PUSH32 0x6D3120326838763148387A6D3120316836763148397A222F3E3C2F673E3C6720 DUP9 DUP3 ADD SSTORE PUSH32 0x66696C6C3D2223464644373030223E3C7061746820643D224D31312039683276 DUP10 DUP3 ADD SSTORE PUSH32 0x34682D327A222F3E3C2F673E3C672066696C6C3D2223314539304646223E3C70 DUP11 DUP3 ADD SSTORE PUSH32 0x61746820643D224D3720386831763148377A6D39203068317631682D317A222F DUP12 DUP3 ADD SSTORE PUSH11 0x1F1E17B39F1E17B9BB339F PUSH1 0xA9 SHL PUSH1 0x9 SWAP1 SWAP2 ADD SSTORE DUP5 DUP2 MSTORE DUP1 DUP3 MSTORE DUP12 SWAP1 KECCAK256 DUP1 SLOAD PUSH3 0x583 SWAP1 PUSH3 0xF47 JUMP JUMPDEST PUSH3 0x58F SWAP1 DUP3 PUSH3 0xFFB JUMP JUMPDEST PUSH2 0x22F DUP2 SSTORE PUSH1 0x0 SWAP1 DUP2 MSTORE DUP2 DUP2 KECCAK256 DUP12 DUP2 SSTORE PUSH1 0x1 DUP2 ADD DUP5 SWAP1 SSTORE PUSH32 0x696C6C3D2223344230303832223E3C7061746820643D224D3130203668347631 DUP6 DUP3 ADD SSTORE PUSH32 0x682D347A6D2D3120316836763148397A6D2D3120316838763648387A6D312036 DUP7 DUP3 ADD SSTORE PUSH32 0x6836763248397A6D31203268347632682D347A222F3E3C2F673E3C672066696C DUP8 DUP3 ADD SSTORE PUSH32 0x6C3D2223393430304433223E3C7061746820643D224D31302031306831763268 DUP9 DUP3 ADD SSTORE PUSH32 0x2D317A6D33203068317632682D317A222F3E3C2F673E3C672066696C6C3D2223 DUP10 DUP3 ADD SSTORE PUSH32 0x30304646303022206F7061636974793D22302E36223E3C7061746820643D224D DUP11 DUP3 ADD SSTORE PUSH32 0x3920396836763448397A222F3E3C2F673E3C2F7376673E000000000000000000 SWAP1 DUP12 ADD SSTORE DUP6 DUP2 MSTORE DUP1 DUP3 MSTORE DUP12 SWAP1 KECCAK256 DUP1 SLOAD PUSH3 0x6BF SWAP1 PUSH3 0xF47 JUMP JUMPDEST PUSH3 0x6CB SWAP1 DUP3 PUSH3 0xFFB JUMP JUMPDEST PUSH2 0x233 DUP2 SSTORE PUSH1 0x0 SWAP1 DUP2 MSTORE DUP2 DUP2 KECCAK256 DUP12 DUP2 SSTORE PUSH1 0x1 DUP2 ADD DUP5 SWAP1 SSTORE PUSH32 0x696C6C3D2223464634353030223E3C7061746820643D224D3131203468327633 DUP6 DUP3 ADD SSTORE PUSH32 0x682D327A6D2D31203168347633682D347A6D2D3120316836763348397A222F3E DUP7 DUP3 ADD SSTORE PUSH32 0x3C2F673E3C672066696C6C3D2223464644373030223E3C7061746820643D224D DUP8 DUP3 ADD SSTORE PUSH32 0x3131203568327632682D327A222F3E3C2F673E3C672066696C6C3D2223384234 DUP9 DUP3 ADD SSTORE PUSH32 0x353133223E3C7061746820643D224D313120396832763130682D327A222F3E3C DUP10 DUP3 ADD SSTORE PUSH32 0x2F673E3C672066696C6C3D2223363534333231223E3C7061746820643D224D31 DUP11 DUP3 ADD SSTORE PUSH32 0x3020313768347632682D347A222F3E3C2F673E3C2F7376673E00000000000000 SWAP1 DUP12 ADD SSTORE DUP7 DUP2 MSTORE DUP1 DUP3 MSTORE DUP12 SWAP1 KECCAK256 DUP1 SLOAD PUSH3 0x7FB SWAP1 PUSH3 0xF47 JUMP JUMPDEST PUSH3 0x807 SWAP1 DUP3 PUSH3 0xFFB JUMP JUMPDEST PUSH2 0x205 DUP2 SSTORE PUSH1 0x0 SWAP1 DUP2 MSTORE DUP2 DUP2 KECCAK256 DUP12 DUP2 SSTORE PUSH1 0x1 DUP2 ADD DUP5 SWAP1 SSTORE PUSH32 0x696C6C3D2223384230303030223E3C7061746820643D224D3130203668347636 DUP6 DUP3 ADD SSTORE PUSH32 0x682D347A222F3E3C2F673E3C672066696C6C3D2223324634463446223E3C7061 DUP7 DUP3 ADD SSTORE PUSH32 0x746820643D224D3130203668347631682D347A6D31203668327634682D327A6D DUP8 DUP3 ADD SSTORE PUSH32 0x2D31203468347631682D347A6D30203168347632682D347A222F3E3C2F673E3C DUP9 DUP3 ADD SSTORE PUSH32 0x672066696C6C3D222344433134334322206F7061636974793D22302E37223E3C DUP10 DUP3 ADD SSTORE PUSH32 0x7061746820643D224D3130203768347634682D347A222F3E3C2F673E3C2F7376 DUP11 DUP3 ADD SSTORE PUSH2 0x339F PUSH1 0xF1 SHL SWAP1 DUP12 ADD SSTORE DUP8 DUP2 MSTORE DUP1 DUP3 MSTORE DUP12 SWAP1 KECCAK256 DUP1 SLOAD PUSH3 0x91C SWAP1 PUSH3 0xF47 JUMP JUMPDEST PUSH3 0x928 SWAP1 DUP3 PUSH3 0xFFB JUMP JUMPDEST PUSH2 0x211 DUP2 SSTORE PUSH1 0x0 SWAP1 DUP2 MSTORE DUP2 DUP2 KECCAK256 DUP12 DUP2 SSTORE PUSH1 0x1 DUP2 ADD DUP5 SWAP1 SSTORE PUSH32 0x696C6C3D2223433043304330223E3C7061746820643D224D3820346838763148 DUP6 DUP3 ADD SSTORE PUSH32 0x387A6D36203168337631682D337A6D35203168317631682D317A6D3020316831 DUP7 DUP3 ADD SSTORE PUSH32 0x7632682D317A222F3E3C2F673E3C672066696C6C3D2223384234353133223E3C DUP8 DUP3 ADD SSTORE PUSH32 0x7061746820643D224D313120356832763134682D327A222F3E3C2F673E3C6720 DUP9 DUP3 ADD SSTORE PUSH32 0x66696C6C3D2223413941394139223E3C7061746820643D224D38203468317631 DUP10 DUP3 ADD SSTORE PUSH32 0x48387A6D37203168317631682D317A6D33203168317631682D317A222F3E3C2F DUP11 DUP3 ADD SSTORE PUSH8 0x339F1E17B9BB339F PUSH1 0xC1 SHL SWAP1 DUP12 ADD SSTORE DUP9 DUP2 MSTORE DUP1 DUP3 MSTORE DUP12 SWAP1 KECCAK256 DUP1 SLOAD PUSH3 0xA43 SWAP1 PUSH3 0xF47 JUMP JUMPDEST PUSH3 0xA4F SWAP1 DUP3 PUSH3 0xFCD JUMP JUMPDEST PUSH2 0x249 DUP2 SSTORE PUSH1 0x0 SWAP1 DUP2 MSTORE DUP2 DUP2 KECCAK256 DUP12 DUP2 SSTORE PUSH1 0x1 DUP2 ADD DUP5 SWAP1 SSTORE PUSH32 0x696C6C3D2223384234353133223E3C7061746820643D224D3131203668327631 DUP6 DUP3 ADD SSTORE PUSH32 0x34682D327A222F3E3C2F673E3C672066696C6C3D2223393337304442223E3C70 DUP7 DUP3 ADD SSTORE PUSH32 0x61746820643D224D3130203468347634682D347A222F3E3C2F673E3C67206669 DUP8 DUP3 ADD SSTORE PUSH32 0x6C6C3D2223464644373030223E3C7061746820643D224D313120356832763268 DUP9 DUP3 ADD SSTORE PUSH32 0x2D327A222F3E3C2F673E3C672066696C6C3D2223344230303832223E3C706174 DUP10 DUP3 ADD SSTORE PUSH32 0x6820643D224D3130203468317631682D317A6D33203068317631682D317A6D2D DUP11 DUP3 ADD SSTORE PUSH32 0x33203368317631682D317A6D33203068317631682D317A222F3E3C2F673E3C2F DUP12 DUP3 ADD SSTORE PUSH4 0x39BB339F PUSH1 0xE1 SHL PUSH1 0x9 SWAP1 SWAP2 ADD SSTORE DUP10 DUP2 MSTORE DUP1 DUP3 MSTORE DUP12 SWAP1 KECCAK256 DUP1 SLOAD PUSH3 0xB8D SWAP1 PUSH3 0xF47 JUMP JUMPDEST PUSH3 0xB99 SWAP1 DUP3 PUSH3 0xF9D JUMP JUMPDEST PUSH2 0x1DB DUP2 SSTORE PUSH1 0x0 SWAP1 DUP2 MSTORE DUP2 DUP2 KECCAK256 DUP12 DUP2 SSTORE PUSH1 0x1 DUP2 ADD DUP5 SWAP1 SSTORE PUSH32 0x696C6C3D2223363936393639223E3C7061746820643D224D3720386834763348 DUP6 DUP3 ADD SSTORE PUSH32 0x377A6D36203068347633682D347A222F3E3C2F673E3C672066696C6C3D222341 DUP7 DUP3 ADD SSTORE PUSH32 0x3941394139223E3C7061746820643D224D3720386834763148377A6D36203068 DUP8 DUP3 ADD SSTORE PUSH32 0x347631682D347A222F3E3C2F673E3C672066696C6C3D2223464630303030223E DUP9 DUP3 ADD SSTORE PUSH32 0x3C7061746820643D224D3820396832763148387A6D36203068327631682D327A DUP10 DUP3 ADD SSTORE PUSH13 0x11179F1E17B39F1E17B9BB339F PUSH1 0x99 SHL SWAP1 DUP11 ADD SSTORE PUSH1 0x9 DUP2 MSTORE DUP1 DUP3 MSTORE DUP12 SWAP1 KECCAK256 DUP1 SLOAD PUSH3 0xC95 SWAP1 PUSH3 0xF47 JUMP JUMPDEST PUSH3 0xCA1 SWAP1 DUP3 PUSH3 0xFCD JUMP JUMPDEST PUSH2 0x24F DUP2 SSTORE PUSH1 0x0 MSTORE PUSH1 0x0 KECCAK256 SWAP9 DUP10 SSTORE PUSH1 0x1 DUP10 ADD SSTORE DUP8 ADD PUSH32 0x696C6C3D2223464644373030223E3C7061746820643D224D3131203768327631 SWAP1 SSTORE DUP7 ADD PUSH32 0x682D327A6D2D31203168347631682D347A6D2D3120316836763648397A6D3120 SWAP1 SSTORE DUP6 ADD PUSH32 0x3668347631682D347A6D31203168327631682D327A222F3E3C2F673E3C672066 SWAP1 SSTORE DUP5 ADD PUSH32 0x696C6C3D2223464630303030223E3C7061746820643D224D3131203131683276 SWAP1 SSTORE DUP4 ADD PUSH32 0x32682D327A222F3E3C2F673E3C672066696C6C3D2223464641353030223E3C70 SWAP1 SSTORE DUP3 ADD PUSH32 0x61746820643D224D313020313068317631682D317A6D33203068317631682D31 SWAP1 SSTORE DUP2 ADD PUSH32 0x7A6D2D33203368317631682D317A6D33203068317631682D317A222F3E3C2F67 SWAP1 SSTORE PUSH1 0x9 ADD PUSH7 0x1F1E17B9BB339F PUSH1 0xC9 SHL SWAP1 SSTORE MLOAD PUSH2 0x4DD SWAP1 DUP2 PUSH3 0x102A DUP3 CODECOPY RETURN JUMPDEST DUP1 MLOAD DUP1 MLOAD SWAP1 DUP5 DUP3 GT PUSH3 0xEF7 JUMPI SWAP1 DUP11 SWAP2 PUSH3 0xDF1 DUP6 SLOAD PUSH3 0xF47 JUMP JUMPDEST SWAP1 PUSH1 0x1F SWAP2 DUP3 DUP2 GT PUSH3 0xEBC JUMPI JUMPDEST POP DUP4 SWAP2 DUP4 GT PUSH1 0x1 EQ PUSH3 0xE4A JUMPI SWAP2 DUP1 PUSH1 0x1 SWAP6 SWAP3 DUP7 SWAP6 SWAP5 PUSH1 0x0 SWAP3 PUSH3 0xE3E JUMPI JUMPDEST POP POP PUSH1 0x0 NOT PUSH1 0x3 DUP4 SWAP1 SHL SHR NOT AND SWAP1 DUP5 SHL OR DUP6 SSTORE JUMPDEST ADD SWAP3 ADD SWAP4 ADD SWAP3 SWAP1 PUSH3 0x179 JUMP JUMPDEST ADD MLOAD SWAP1 POP CODESIZE DUP1 PUSH3 0xE1D JUMP JUMPDEST SWAP4 SWAP2 SWAP1 PUSH1 0x1F NOT DUP3 AND SWAP1 DUP7 PUSH1 0x0 MSTORE DUP5 PUSH1 0x0 KECCAK256 SWAP2 PUSH1 0x0 JUMPDEST DUP2 DUP2 LT PUSH3 0xEA3 JUMPI POP SWAP2 DUP4 SWAP2 PUSH1 0x1 SWAP8 DUP9 SWAP8 SWAP7 SWAP6 DUP9 SWAP6 LT PUSH3 0xE89 JUMPI JUMPDEST POP POP POP DUP2 SHL ADD DUP6 SSTORE PUSH3 0xE31 JUMP JUMPDEST ADD MLOAD PUSH1 0x0 NOT PUSH1 0xF8 DUP5 PUSH1 0x3 SHL AND SHR NOT AND SWAP1 SSTORE CODESIZE DUP1 DUP1 PUSH3 0xE7B JUMP JUMPDEST DUP8 DUP4 ADD MLOAD DUP5 SSTORE DUP16 SWAP7 PUSH1 0x1 SWAP1 SWAP5 ADD SWAP4 SWAP3 DUP4 ADD SWAP3 ADD PUSH3 0xE5F JUMP JUMPDEST PUSH3 0xEE6 SWAP1 DUP8 PUSH1 0x0 MSTORE DUP6 PUSH1 0x0 KECCAK256 DUP5 DUP1 DUP8 ADD DUP14 SHR DUP3 ADD SWAP3 DUP9 DUP9 LT PUSH3 0xEED JUMPI JUMPDEST ADD DUP13 SHR ADD SWAP1 PUSH3 0xF84 JUMP JUMPDEST CODESIZE PUSH3 0xDFE JUMP JUMPDEST SWAP3 POP DUP2 SWAP3 PUSH3 0xEDB JUMP JUMPDEST PUSH1 0x41 DUP10 PUSH4 0x4E487B71 PUSH1 0xE0 SHL PUSH1 0x0 MSTORE MSTORE PUSH1 0x24 PUSH1 0x0 REVERT JUMPDEST PUSH4 0x4E487B71 PUSH1 0xE0 SHL PUSH1 0x0 MSTORE PUSH1 0x41 PUSH1 0x4 MSTORE PUSH1 0x24 PUSH1 0x0 REVERT JUMPDEST PUSH1 0x0 DUP1 REVERT JUMPDEST PUSH1 0x40 DUP1 MLOAD SWAP2 SWAP1 DUP3 ADD PUSH1 0x1 PUSH1 0x1 PUSH1 0x40 SHL SUB DUP2 GT DUP4 DUP3 LT OR PUSH3 0xF0C JUMPI PUSH1 0x40 MSTORE JUMP JUMPDEST SWAP1 PUSH1 0x1 DUP3 DUP2 SHR SWAP3 AND DUP1 ISZERO PUSH3 0xF79 JUMPI JUMPDEST PUSH1 0x20 DUP4 LT EQ PUSH3 0xF63 JUMPI JUMP JUMPDEST PUSH4 0x4E487B71 PUSH1 0xE0 SHL PUSH1 0x0 MSTORE PUSH1 0x22 PUSH1 0x4 MSTORE PUSH1 0x24 PUSH1 0x0 REVERT JUMPDEST SWAP2 PUSH1 0x7F AND SWAP2 PUSH3 0xF57 JUMP JUMPDEST DUP2 DUP2 LT PUSH3 0xF90 JUMPI POP POP JUMP JUMPDEST PUSH1 0x0 DUP2 SSTORE PUSH1 0x1 ADD PUSH3 0xF84 JUMP JUMPDEST SWAP1 PUSH1 0x1F DUP2 GT PUSH3 0xFAB JUMPI POP POP JUMP JUMPDEST PUSH3 0xFCB SWAP2 PUSH1 0x0 MSTORE PUSH1 0x8 PUSH1 0x1F PUSH1 0x20 PUSH1 0x0 KECCAK256 SWAP3 ADD PUSH1 0x5 SHR DUP3 ADD SWAP2 ADD PUSH3 0xF84 JUMP JUMPDEST JUMP JUMPDEST SWAP1 PUSH1 0x1F DUP2 GT PUSH3 0xFDB JUMPI POP POP JUMP JUMPDEST PUSH3 0xFCB SWAP2 PUSH1 0x0 MSTORE PUSH1 0xA PUSH1 0x1F PUSH1 0x20 PUSH1 0x0 KECCAK256 SWAP3 ADD PUSH1 0x5 SHR DUP3 ADD SWAP2 ADD PUSH3 0xF84 JUMP JUMPDEST SWAP1 PUSH1 0x1F DUP2 GT PUSH3 0x1009 JUMPI POP POP JUMP JUMPDEST PUSH3 0xFCB SWAP2 PUSH1 0x0 MSTORE PUSH1 0x9 PUSH1 0x1F PUSH1 0x20 PUSH1 0x0 KECCAK256 SWAP3 ADD PUSH1 0x5 SHR DUP3 ADD SWAP2 ADD PUSH3 0xF84 JUMP INVALID PUSH1 0x40 PUSH1 0x80 DUP2 MSTORE PUSH1 0x4 CALLDATASIZE LT ISZERO PUSH2 0x13 JUMPI PUSH1 0x0 DUP1 REVERT JUMPDEST PUSH1 0x0 SWAP1 DUP2 CALLDATALOAD PUSH1 0xE0 SHR DUP1 PUSH4 0x30A86006 EQ PUSH2 0x2AF JUMPI DUP1 PUSH4 0x8DA5CB5B EQ PUSH2 0x287 JUMPI DUP1 PUSH4 0xA7363FE2 EQ PUSH2 0xD7 JUMPI DUP1 PUSH4 0xC34A5B98 EQ PUSH2 0xA5 JUMPI PUSH4 0xF6D40558 EQ PUSH2 0x56 JUMPI PUSH1 0x0 DUP1 REVERT JUMPDEST CALLVALUE PUSH2 0xA1 JUMPI PUSH1 0x20 CALLDATASIZE PUSH1 0x3 NOT ADD SLT PUSH2 0xA1 JUMPI PUSH2 0x92 DUP2 PUSH2 0x9D SWAP4 PUSH1 0xFF PUSH2 0x79 PUSH2 0x306 JUMP JUMPDEST AND PUSH2 0x86 PUSH1 0xA DUP3 LT PUSH2 0x469 JUMP JUMPDEST DUP2 MSTORE DUP1 PUSH1 0x20 MSTORE KECCAK256 PUSH2 0x39E JUMP JUMPDEST SWAP1 MLOAD SWAP2 DUP3 SWAP2 DUP3 PUSH2 0x31B JUMP JUMPDEST SUB SWAP1 RETURN JUMPDEST POP DUP1 REVERT JUMPDEST POP CALLVALUE PUSH2 0xA1 JUMPI PUSH1 0x20 CALLDATASIZE PUSH1 0x3 NOT ADD SLT PUSH2 0xA1 JUMPI PUSH1 0x4 CALLDATALOAD SWAP2 PUSH1 0xA DUP4 LT ISZERO PUSH2 0xD4 JUMPI POP PUSH2 0x92 PUSH2 0x9D SWAP3 PUSH1 0x1 ADD PUSH2 0x39E JUMP JUMPDEST DUP1 REVERT JUMPDEST POP SWAP1 CALLVALUE PUSH2 0xD4 JUMPI DUP2 PUSH1 0x3 NOT CALLDATASIZE ADD SLT PUSH2 0xD4 JUMPI PUSH2 0xF1 PUSH2 0x306 JUMP JUMPDEST PUSH1 0x24 SWAP1 DUP2 CALLDATALOAD SWAP2 PUSH8 0xFFFFFFFFFFFFFFFF SWAP2 DUP3 DUP5 GT PUSH2 0x283 JUMPI CALLDATASIZE PUSH1 0x23 DUP6 ADD SLT ISZERO PUSH2 0x283 JUMPI DUP4 PUSH1 0x4 ADD CALLDATALOAD SWAP3 DUP4 GT PUSH2 0x283 JUMPI CALLDATASIZE DUP3 DUP5 DUP7 ADD ADD GT PUSH2 0x283 JUMPI PUSH1 0xB SLOAD PUSH1 0x1 PUSH1 0x1 PUSH1 0xA0 SHL SUB AND CALLER SUB PUSH2 0x254 JUMPI PUSH1 0xFF AND PUSH2 0x14B PUSH1 0xA DUP3 LT PUSH2 0x469 JUMP JUMPDEST DUP5 MSTORE PUSH1 0x20 SWAP5 DUP5 DUP7 MSTORE DUP5 KECCAK256 SWAP3 PUSH2 0x160 DUP5 SLOAD PUSH2 0x364 JUMP JUMPDEST PUSH1 0x1F DUP2 GT PUSH2 0x211 JUMPI JUMPDEST POP DUP5 SWAP6 PUSH1 0x1F DUP5 GT PUSH1 0x1 EQ PUSH2 0x1A9 JUMPI POP SWAP5 DUP5 SWAP6 DUP4 SWAP5 SWAP6 SWAP4 PUSH2 0x19C JUMPI JUMPDEST POP POP POP DUP2 PUSH1 0x1 SHL SWAP2 PUSH1 0x0 NOT SWAP1 PUSH1 0x3 SHL SHR NOT AND OR SWAP1 SSTORE DUP1 RETURN JUMPDEST ADD ADD CALLDATALOAD SWAP1 POP CODESIZE DUP1 DUP1 PUSH2 0x184 JUMP JUMPDEST SWAP2 PUSH1 0x1F NOT DUP5 AND SWAP7 DUP6 DUP8 MSTORE DUP4 DUP8 KECCAK256 SWAP4 DUP8 SWAP1 JUMPDEST DUP10 DUP3 LT PUSH2 0x1F7 JUMPI POP POP DUP5 PUSH1 0x1 SWAP7 SWAP8 SWAP9 LT PUSH2 0x1DB JUMPI JUMPDEST POP POP POP POP DUP2 SHL ADD SWAP1 SSTORE DUP1 RETURN JUMPDEST PUSH1 0x0 NOT PUSH1 0xF8 DUP7 PUSH1 0x3 SHL AND SHR NOT SWAP3 ADD ADD CALLDATALOAD AND SWAP1 SSTORE CODESIZE DUP1 DUP1 DUP1 PUSH2 0x1CF JUMP JUMPDEST DUP1 PUSH1 0x1 DUP5 SWAP8 DUP7 DUP4 SWAP6 SWAP7 DUP10 ADD ADD CALLDATALOAD DUP2 SSTORE ADD SWAP7 ADD SWAP3 ADD SWAP1 PUSH2 0x1BA JUMP JUMPDEST DUP5 DUP7 MSTORE DUP7 DUP7 KECCAK256 PUSH1 0x1F DUP6 ADD PUSH1 0x5 SHR DUP2 ADD SWAP2 DUP9 DUP7 LT PUSH2 0x24A JUMPI JUMPDEST PUSH1 0x1F ADD PUSH1 0x5 SHR ADD SWAP1 JUMPDEST DUP2 DUP2 LT PUSH2 0x23F JUMPI POP PUSH2 0x169 JUMP JUMPDEST DUP7 DUP2 SSTORE PUSH1 0x1 ADD PUSH2 0x232 JUMP JUMPDEST SWAP1 SWAP2 POP DUP2 SWAP1 PUSH2 0x229 JUMP JUMPDEST DUP6 MLOAD PUSH3 0x461BCD PUSH1 0xE5 SHL DUP2 MSTORE PUSH1 0x20 PUSH1 0x4 DUP3 ADD MSTORE PUSH1 0x9 DUP2 DUP5 ADD MSTORE PUSH9 0x2737BA1037BBB732B9 PUSH1 0xB9 SHL PUSH1 0x44 DUP3 ADD MSTORE PUSH1 0x64 SWAP1 REVERT JUMPDEST DUP5 DUP1 REVERT JUMPDEST POP CALLVALUE PUSH2 0xA1 JUMPI DUP2 PUSH1 0x3 NOT CALLDATASIZE ADD SLT PUSH2 0xA1 JUMPI PUSH1 0xB SLOAD SWAP1 MLOAD PUSH1 0x1 PUSH1 0x1 PUSH1 0xA0 SHL SUB SWAP1 SWAP2 AND DUP2 MSTORE PUSH1 0x20 SWAP1 RETURN JUMPDEST POP CALLVALUE PUSH2 0xA1 JUMPI PUSH1 0x20 CALLDATASIZE PUSH1 0x3 NOT ADD SLT PUSH2 0xA1 JUMPI PUSH2 0x2C9 PUSH2 0x306 JUMP JUMPDEST SWAP2 PUSH2 0x2D9 PUSH1 0xA PUSH1 0xFF DUP6 AND LT PUSH2 0x469 JUMP JUMPDEST PUSH1 0xA DUP4 LT ISZERO PUSH2 0x2F2 JUMPI POP PUSH2 0x92 PUSH2 0x9D SWAP3 PUSH1 0x1 ADD PUSH2 0x39E JUMP JUMPDEST PUSH4 0x4E487B71 PUSH1 0xE0 SHL DUP2 MSTORE PUSH1 0x32 PUSH1 0x4 MSTORE PUSH1 0x24 SWAP1 REVERT JUMPDEST PUSH1 0x4 CALLDATALOAD SWAP1 PUSH1 0xFF DUP3 AND DUP3 SUB PUSH2 0x316 JUMPI JUMP JUMPDEST PUSH1 0x0 DUP1 REVERT JUMPDEST PUSH1 0x20 DUP1 DUP3 MSTORE DUP3 MLOAD DUP2 DUP4 ADD DUP2 SWAP1 MSTORE SWAP1 SWAP4 SWAP3 PUSH1 0x0 JUMPDEST DUP3 DUP2 LT PUSH2 0x350 JUMPI POP POP PUSH1 0x40 SWAP3 SWAP4 POP PUSH1 0x0 DUP4 DUP3 DUP5 ADD ADD MSTORE PUSH1 0x1F DUP1 NOT SWAP2 ADD AND ADD ADD SWAP1 JUMP JUMPDEST DUP2 DUP2 ADD DUP7 ADD MLOAD DUP5 DUP3 ADD PUSH1 0x40 ADD MSTORE DUP6 ADD PUSH2 0x32E JUMP JUMPDEST SWAP1 PUSH1 0x1 DUP3 DUP2 SHR SWAP3 AND DUP1 ISZERO PUSH2 0x394 JUMPI JUMPDEST PUSH1 0x20 DUP4 LT EQ PUSH2 0x37E JUMPI JUMP JUMPDEST PUSH4 0x4E487B71 PUSH1 0xE0 SHL PUSH1 0x0 MSTORE PUSH1 0x22 PUSH1 0x4 MSTORE PUSH1 0x24 PUSH1 0x0 REVERT JUMPDEST SWAP2 PUSH1 0x7F AND SWAP2 PUSH2 0x373 JUMP JUMPDEST SWAP1 PUSH1 0x40 MLOAD SWAP2 PUSH1 0x0 SWAP1 DUP1 SLOAD SWAP1 PUSH2 0x3B2 DUP3 PUSH2 0x364 JUMP JUMPDEST SWAP1 DUP2 DUP7 MSTORE PUSH1 0x1 SWAP3 DUP4 DUP2 AND SWAP1 DUP2 PUSH1 0x0 EQ PUSH2 0x448 JUMPI POP PUSH1 0x1 EQ PUSH2 0x40B JUMPI JUMPDEST POP POP POP DUP3 SWAP1 SUB PUSH1 0x1F ADD PUSH1 0x1F NOT AND DUP3 ADD PUSH8 0xFFFFFFFFFFFFFFFF DUP2 GT DUP4 DUP3 LT OR PUSH2 0x3F5 JUMPI PUSH1 0x40 MSTORE JUMP JUMPDEST PUSH4 0x4E487B71 PUSH1 0xE0 SHL PUSH1 0x0 MSTORE PUSH1 0x41 PUSH1 0x4 MSTORE PUSH1 0x24 PUSH1 0x0 REVERT JUMPDEST SWAP1 SWAP3 POP PUSH1 0x0 MSTORE PUSH1 0x20 SWAP2 DUP3 PUSH1 0x0 KECCAK256 SWAP2 DUP4 PUSH1 0x0 SWAP4 JUMPDEST DUP4 DUP6 LT PUSH2 0x434 JUMPI POP POP POP POP DUP4 ADD ADD CODESIZE DUP1 DUP1 PUSH2 0x3CE JUMP JUMPDEST DUP1 SLOAD DUP9 DUP7 ADD DUP4 ADD MSTORE SWAP4 ADD SWAP3 DUP5 SWAP1 DUP3 ADD PUSH2 0x41E JUMP JUMPDEST SWAP3 SWAP4 POP POP POP PUSH1 0x20 SWAP3 POP PUSH1 0xFF NOT AND DUP3 DUP6 ADD MSTORE ISZERO ISZERO PUSH1 0x5 SHL DUP4 ADD ADD CODESIZE DUP1 DUP1 PUSH2 0x3CE JUMP JUMPDEST ISZERO PUSH2 0x470 JUMPI JUMP JUMPDEST PUSH1 0x40 MLOAD PUSH3 0x461BCD PUSH1 0xE5 SHL DUP2 MSTORE PUSH1 0x20 PUSH1 0x4 DUP3 ADD MSTORE PUSH1 0xF PUSH1 0x24 DUP3 ADD MSTORE PUSH15 0x125B9D985B1A59081A5D195B481251 PUSH1 0x8A SHL PUSH1 0x44 DUP3 ADD MSTORE PUSH1 0x64 SWAP1 REVERT INVALID LOG2 PUSH5 0x6970667358 0x22 SLT KECCAK256 0xCE 0x2F 0xC3 ADDRESS GT DUP7 0xA8 RETURNDATASIZE JUMPDEST 0xD0 PUSH3 0x29AB9F 0xC6 CODECOPY CALLVALUE DUP7 0xED OR 0x25 0xB4 0xDC GASLIMIT 0xBE CODESIZE 0xE4 PUSH23 0xF5B87FB064736F6C634300081400330000000000000000 "},"methodIdentifiers":{"getItemName(uint8)":"30a86006","getItemSVG(uint8)":"f6d40558","itemNames(uint256)":"c34a5b98","owner()":"8da5cb5b","setItemSVG(uint8,string)":"a7363fe2"}}}}}