{
  "_format": "hh-sol-artifact-1",
  "contractName": "ArweaveItemBank1",
  "sourceName": "contracts/ArweaveItemBank1.sol",
  "abi": [
    {
      "inputs": [
        {
          "internalType": "uint8",
          "name": "itemId",
          "type": "uint8"
        }
      ],
      "name": "getItemName",
      "outputs": [
        {
          "internalType": "string",
          "name": "",
          "type": "string"
        }
      ],
      "stateMutability": "pure",
      "type": "function"
    },
    {
      "inputs": [
        {
          "internalType": "uint8",
          "name": "itemId",
          "type": "uint8"
        }
      ],
      "name": "getItemSVG",
      "outputs": [
        {
          "internalType": "string",
          "name": "",
          "type": "string"
        }
      ],
      "stateMutability": "pure",
      "type": "function"
    }
  ],
  "bytecode": "0x6080806040523461001657612e21908161001c8239f35b600080fdfe6080604052600436101561001257600080fd5b6000803560e01c806330a86006146100715763f6d405581461003357600080fd5b3461006e57602036600319011261006e576004359060ff8216820361006e5761006a61005e8361019a565b6040519182918261009d565b0390f35b80fd5b503461006e57602036600319011261006e576004359060ff8216820361006e5761006a61005e83612c8e565b6020808252825181830181905290939260005b8281106100d257505060409293506000838284010152601f8019910116010190565b8181018601518482016040015285016100b0565b604051906106a082018281106001600160401b0382111761010b576040526106788252565b634e487b7160e01b600052604160045260246000fd5b60405190604082018281106001600160401b0382111761010b5760405260058252565b60405190604082018281106001600160401b0382111761010b5760405260068252565b6060906020815260186020820152774974656d204944206e6f7420696e20746869732062616e6b60401b60408201520190565b60ff1680156125c85760018114612290576002811461184b576003811461109557600481146108df576005146101e75760405162461bcd60e51b8152806101e360048201610167565b0390fd5b60405161060081018181106001600160401b0382111761010b576040526105c48152600080516020612dcc8339815191526020820152600080516020612dac8339815191526040820152600080516020612d8c83398151915260608201527f72696e673d2263726973704564676573223e3c7265637420783d22333522207960808201527f3d223239222077696474683d223922206865696768743d2231222066696c6c3d60a08201527f2223453045304530222f3e3c7265637420783d2233382220793d22333022207760c08201527f696474683d223622206865696768743d2232222066696c6c3d2223453045304560e08201527f30222f3e3c7265637420783d2233352220793d223331222077696474683d22316101008201527f22206865696768743d2235222066696c6c3d2223453045304530222f3e3c72656101208201527f637420783d2234332220793d223332222077696474683d2231222068656967686101408201527f743d2234222066696c6c3d2223453045304530222f3e3c7265637420783d22336101608201527f362220793d223335222077696474683d223122206865696768743d22312220666101808201527f696c6c3d2223453045304530222f3e3c7265637420783d2234322220793d22336101a08201527f35222077696474683d223122206865696768743d2232222066696c6c3d2223456101c08201527f3045304530222f3e3c7265637420783d2233372220793d2233362220776964746101e08201527f683d223122206865696768743d2232222066696c6c3d2223453045304530222f6102008201527f3e3c7265637420783d2234312220793d223336222077696474683d22312220686102208201527f65696768743d2232222066696c6c3d2223453045304530222f3e3c72656374206102408201527f783d2233382220793d223337222077696474683d223322206865696768743d226102608201527f31222066696c6c3d2223453045304530222f3e3c7265637420783d22333922206102808201527f793d223338222077696474683d223122206865696768743d2235222066696c6c6102a08201527f3d2223453045304530222f3e3c7265637420783d2233382220793d22343122206102c08201527f77696474683d223122206865696768743d2232222066696c6c3d2223453045306102e08201527f4530222f3e3c7265637420783d2234302220793d223431222077696474683d226103008201527f3122206865696768743d2232222066696c6c3d2223453045304530222f3e3c726103208201527f65637420783d2233372220793d223432222077696474683d22312220686569676103408201527f68743d2231222066696c6c3d2223453045304530222f3e3c7265637420783d226103608201527f34312220793d223432222077696474683d223122206865696768743d223122206103808201527f66696c6c3d2223453045304530222f3e3c7265637420783d2233352220793d226103a08201527f3330222077696474683d223322206865696768743d2231222066696c6c3d22236103c08201527f464646222f3e3c7265637420783d2233362220793d223331222077696474683d6103e08201527f223222206865696768743d2231222066696c6c3d2223464646222f3e3c7265636104008201527f7420783d2233362220793d223332222077696474683d223122206865696768746104208201527f3d2232222066696c6c3d2223464646222f3e3c7265637420783d2233362220796104408201527f3d223336222077696474683d223122206865696768743d2231222066696c6c3d6104608201527f2223464646222f3e3c7265637420783d2233372220793d2233322220776964746104808201527f683d223222206865696768743d2232222066696c6c3d2223464645304530222f6104a08201527f3e3c7265637420783d2233392220793d223332222077696474683d22342220686104c08201527f65696768743d2231222066696c6c3d2223464631373434222f3e3c72656374206104e08201527f783d2233392220793d223333222077696474683d223422206865696768743d226105008201527f32222066696c6c3d2223444331343343222f3e3c7265637420783d22333622206105208201527f793d223334222077696474683d223322206865696768743d2231222066696c6c6105408201527f3d2223444331343343222f3e3c7265637420783d2233372220793d22333522206105608201527f77696474683d223522206865696768743d2231222066696c6c3d2223444331346105808201527f3343222f3e3c7265637420783d2233382220793d223336222077696474683d226105a08201527f3322206865696768743d2231222066696c6c3d2223444331343343222f3e3c2f6105c08201526339bb339f60e11b6105e082015290565b506108e86100e6565b600080516020612dcc8339815191526020820152600080516020612dac8339815191526040820152600080516020612d8c83398151915260608201527f72696e673d2263726973704564676573223e3c7265637420783d22333422207960808201527f3d223233222077696474683d223122206865696768743d2231222066696c6c3d60a08201527f2223464641353030222f3e3c7265637420783d2234312220793d22323322207760c08201527f696474683d223122206865696768743d2231222066696c6c3d2223464641353060e08201527f30222f3e3c7265637420783d2233372220793d223236222077696474683d22326101008201527f22206865696768743d2232222066696c6c3d2223464641353030222f3e3c72656101208201527f637420783d2233362220793d223237222077696474683d2231222068656967686101408201527f743d2232222066696c6c3d2223464641353030222f3e3c7265637420783d22336101608201527f392220793d223237222077696474683d223122206865696768743d22322220666101808201527f696c6c3d2223464641353030222f3e3c7265637420783d2233372220793d22336101a08201527f30222077696474683d223222206865696768743d2231222066696c6c3d2223466101c08201527f4641353030222f3e3c7265637420783d2233372220793d2232332220776964746101e08201527f683d223122206865696768743d2231222066696c6c3d2223464644373030222f6102008201527f3e3c7265637420783d2233332220793d223234222077696474683d22312220686102208201527f65696768743d2231222066696c6c3d2223464636333437222f3e3c72656374206102408201527f783d2234322220793d223234222077696474683d223122206865696768743d226102608201527f31222066696c6c3d2223464636333437222f3e3c7265637420783d22333622206102808201527f793d223234222077696474683d223122206865696768743d2233222066696c6c6102a08201527f3d2223464634353030222f3e3c7265637420783d2233392220793d22323422206102c08201527f77696474683d223122206865696768743d2233222066696c6c3d2223464634356102e08201527f3030222f3e3c7265637420783d2233352220793d223235222077696474683d226103008201527f3122206865696768743d2234222066696c6c3d2223464634353030222f3e3c726103208201527f65637420783d2234302220793d223235222077696474683d22312220686569676103408201527f68743d2234222066696c6c3d2223464634353030222f3e3c7265637420783d226103608201527f33342220793d223236222077696474683d223122206865696768743d223222206103808201527f66696c6c3d2223464634353030222f3e3c7265637420783d2234312220793d226103a08201527f3236222077696474683d223122206865696768743d2232222066696c6c3d22236103c08201527f464634353030222f3e3c7265637420783d2233362220793d22323922207769646103e08201527f74683d223122206865696768743d2232222066696c6c3d2223464634353030226104008201527f2f3e3c7265637420783d2233392220793d223239222077696474683d223122206104208201527f6865696768743d2232222066696c6c3d2223464634353030222f3e3c726563746104408201527f20783d2233322220793d223236222077696474683d223122206865696768743d6104608201527f2231222066696c6c3d2223464638433030222f3e3c7265637420783d223433226104808201527f20793d223236222077696474683d223122206865696768743d2231222066696c6104a08201527f6c3d2223464638433030222f3e3c7265637420783d2233372220793d223238226104c08201527f2077696474683d223222206865696768743d2231222066696c6c3d22234646456104e08201527f344235222f3e3c7265637420783d2233372220793d223239222077696474683d6105008201527f223222206865696768743d2231222066696c6c3d2223464630222f3e3c7265636105208201527f7420783d2233362220793d223331222077696474683d223422206865696768746105408201527f3d2231222066696c6c3d2223344134413441222f3e3c7265637420783d2233366105608201527f2220793d223332222077696474683d223422206865696768743d2231222066696105808201527f6c6c3d2223324632463246222f3e3c7265637420783d2233362220793d2234316105a08201527f222077696474683d223422206865696768743d2231222066696c6c3d222332466105c08201527f32463246222f3e3c7265637420783d2233372220793d223333222077696474686105e08201527f3d223222206865696768743d2238222066696c6c3d2223384234353133222f3e6106008201527f3c7265637420783d2233362220793d223334222077696474683d2231222068656106208201527f696768743d2236222066696c6c3d2223363534333231222f3e3c7265637420786106408201527f3d2233392220793d223334222077696474683d223122206865696768743d22366106608201527711103334b6361e9111a0981a99192211179f1e17b9bb339f60411b61068082015290565b5061109e6100e6565b600080516020612dcc8339815191526020820152600080516020612dac8339815191526040820152600080516020612d8c83398151915260608201527f72696e673d2263726973704564676573223e3c7265637420783d22333822207960808201527f3d223236222077696474683d223122206865696768743d2231222066696c6c3d60a08201527f2223323238423232222f3e3c7265637420783d2234312220793d22323622207760c08201527f696474683d223122206865696768743d2231222066696c6c3d2223374346433060e08201527f30222f3e3c7265637420783d2233382220793d223335222077696474683d22316101008201527f22206865696768743d2231222066696c6c3d2223374346433030222f3e3c72656101208201527f637420783d2234312220793d223336222077696474683d2231222068656967686101408201527f743d2231222066696c6c3d2223374346433030222f3e3c7265637420783d22336101608201527f392220793d223237222077696474683d223122206865696768743d22312220666101808201527f696c6c3d2223333243443332222f3e3c7265637420783d2233382220793d22336101a08201527f34222077696474683d223422206865696768743d2231222066696c6c3d2223336101c08201527f3243443332222f3e3c7265637420783d2233392220793d2233352220776964746101e08201527f683d223422206865696768743d2231222066696c6c3d2223333243443332222f6102008201527f3e3c7265637420783d2233372220793d223336222077696474683d22322220686102208201527f65696768743d2233222066696c6c3d2223333243443332222f3e3c72656374206102408201527f783d2234322220793d223336222077696474683d223122206865696768743d226102608201527f33222066696c6c3d2223333243443332222f3e3c7265637420783d22343122206102808201527f793d223337222077696474683d223122206865696768743d2233222066696c6c6102a08201527f3d2223333243443332222f3e3c7265637420783d2233392220793d22333822206102c08201527f77696474683d223222206865696768743d2232222066696c6c3d2223333243446102e08201527f3332222f3e3c7265637420783d2233382220793d223339222077696474683d226103008201527f3122206865696768743d2231222066696c6c3d2223333243443332222f3e3c726103208201527f65637420783d2233382220793d223238222077696474683d22342220686569676103408201527f68743d2232222066696c6c3d2223324632463246222f3e3c7265637420783d226103608201527f33392220793d223330222077696474683d223222206865696768743d223122206103808201527f66696c6c3d2223324632463246222f3e3c7265637420783d2233392220793d226103a08201527f3331222077696474683d223222206865696768743d2233222066696c6c3d22236103c08201527f383038303830222f3e3c7265637420783d2233372220793d22333322207769646103e08201527f74683d223222206865696768743d2231222066696c6c3d2223383038303830226104008201527f2f3e3c7265637420783d2234312220793d223333222077696474683d223222206104208201527f6865696768743d2231222066696c6c3d2223383038303830222f3e3c726563746104408201527f20783d2233362220793d223334222077696474683d223122206865696768743d6104608201527f2231222066696c6c3d2223383038303830222f3e3c7265637420783d223432226104808201527f20793d223334222077696474683d223222206865696768743d2231222066696c6104a08201527f6c3d2223383038303830222f3e3c7265637420783d2234332220793d223335226104c08201527f2077696474683d223122206865696768743d2235222066696c6c3d22233830386104e08201527f303830222f3e3c7265637420783d2233362220793d223336222077696474683d6105008201527f223122206865696768743d2234222066696c6c3d2223383038303830222f3e3c6105208201527f7265637420783d2233372220793d223339222077696474683d223122206865696105408201527f6768743d2232222066696c6c3d2223383038303830222f3e3c7265637420783d6105608201527f2234322220793d223339222077696474683d223122206865696768743d2232226105808201527f2066696c6c3d2223383038303830222f3e3c7265637420783d2233382220793d6105a08201527f223430222077696474683d223422206865696768743d2231222066696c6c3d226105c08201527f23383038303830222f3e3c7265637420783d2233372220793d223334222077696105e08201527f6474683d223122206865696768743d2232222066696c6c3d22234330433043306106008201527f222f3e3c7265637420783d2233362220793d223335222077696474683d2231226106208201527f206865696768743d2231222066696c6c3d2223413941394139222f3e3c7265636106408201527f7420783d2233392220793d223336222077696474683d22322220686569676874610660820152771e911911103334b6361e911198181811179f1e17b9bb339f60411b61068082015290565b506040516108a081018181106001600160401b0382111761010b5760405261087e8152600080516020612dcc8339815191526020820152600080516020612dac8339815191526040820152600080516020612d8c83398151915260608201527f72696e673d2263726973704564676573223e3c7265637420783d22333322207960808201527f3d223238222077696474683d22313022206865696768743d2231222066696c6c60a08201527f3d2223363936393639222f3e3c7265637420783d2234322220793d223239222060c08201527f77696474683d223122206865696768743d2232222066696c6c3d22233639363960e08201527f3639222f3e3c7265637420783d2233342220793d223330222077696474683d226101008201527f3822206865696768743d2231222066696c6c3d2223363936393639222f3e3c726101208201527f65637420783d2234332220793d223330222077696474683d22312220686569676101408201527f68743d2233222066696c6c3d2223363936393639222f3e3c7265637420783d226101608201527f33322220793d223331222077696474683d223122206865696768743d223222206101808201527f66696c6c3d2223363936393639222f3e3c7265637420783d2233332220793d226101a08201527f3332222077696474683d223422206865696768743d2231222066696c6c3d22236101c08201527f363936393639222f3e3c7265637420783d2233392220793d22333222207769646101e08201527f74683d223422206865696768743d2231222066696c6c3d2223363936393639226102008201527f2f3e3c7265637420783d2234342220793d223332222077696474683d223122206102208201527f6865696768743d2236222066696c6c3d2223363936393639222f3e3c726563746102408201527f20783d2233312220793d223334222077696474683d223122206865696768743d6102608201527f2234222066696c6c3d2223363936393639222f3e3c7265637420783d223332226102808201527f20793d223337222077696474683d223122206865696768743d2233222066696c6102a08201527f6c3d2223363936393639222f3e3c7265637420783d2234332220793d223337226102c08201527f2077696474683d223122206865696768743d2233222066696c6c3d22233639366102e08201527f393639222f3e3c7265637420783d2233332220793d223339222077696474683d6103008201527f223122206865696768743d2233222066696c6c3d2223363936393639222f3e3c6103208201527f7265637420783d2234322220793d223339222077696474683d223122206865696103408201527f6768743d2233222066696c6c3d2223363936393639222f3e3c7265637420783d6103608201527f2233342220793d223431222077696474683d223222206865696768743d2231226103808201527f2066696c6c3d2223363936393639222f3e3c7265637420783d2234302220793d6103a08201527f223431222077696474683d223222206865696768743d2231222066696c6c3d226103c08201527f23363936393639222f3e3c7265637420783d2233352220793d223432222077696103e08201527f6474683d223122206865696768743d2232222066696c6c3d22233639363936396104008201527f222f3e3c7265637420783d2234302220793d223432222077696474683d2231226104208201527f206865696768743d2232222066696c6c3d2223363936393639222f3e3c7265636104408201527f7420783d2233362220793d223433222077696474683d223422206865696768746104608201527f3d2231222066696c6c3d2223363936393639222f3e3c7265637420783d2233336104808201527f2220793d223239222077696474683d223122206865696768743d2231222066696104a08201527f6c6c3d2223383038303830222f3e3c7265637420783d2233342220793d2232396104c08201527f222077696474683d223822206865696768743d2231222066696c6c3d222332466104e08201527f32463246222f3e3c7265637420783d2233332220793d223331222077696474686105008201527f3d223422206865696768743d2231222066696c6c3d2223324632463246222f3e6105208201527f3c7265637420783d2233392220793d223331222077696474683d2234222068656105408201527f696768743d2231222066696c6c3d2223324632463246222f3e3c7265637420786105608201527f3d2233322220793d223333222077696474683d223522206865696768743d22316105808201527f222066696c6c3d2223324632463246222f3e3c7265637420783d2233392220796105a08201527f3d223333222077696474683d223522206865696768743d2231222066696c6c3d6105c08201527f2223324632463246222f3e3c7265637420783d2233322220793d2233342220776105e08201527f696474683d223222206865696768743d2233222066696c6c3d222332463246326106008201527f46222f3e3c7265637420783d2234322220793d223334222077696474683d22326106208201527f22206865696768743d2233222066696c6c3d2223324632463246222f3e3c72656106408201527f637420783d2233342220793d223336222077696474683d2233222068656967686106608201527f743d2235222066696c6c3d2223324632463246222f3e3c7265637420783d22336106808201527f392220793d223336222077696474683d223322206865696768743d22352220666106a08201527f696c6c3d2223324632463246222f3e3c7265637420783d2233332220793d22336106c08201527f37222077696474683d223122206865696768743d2232222066696c6c3d2223326106e08201527f4632463246222f3e3c7265637420783d2234322220793d2233372220776964746107008201527f683d223122206865696768743d2232222066696c6c3d2223324632463246222f6107208201527f3e3c7265637420783d2233362220793d223431222077696474683d22342220686107408201527f65696768743d2232222066696c6c3d2223324632463246222f3e3c72656374206107608201527f783d2233322220793d223330222077696474683d223222206865696768743d226107808201527f31222066696c6c3d2223413941394139222f3e3c7265637420783d22333122206107a08201527f793d223332222077696474683d223122206865696768743d2232222066696c6c6107c08201527f3d2223413941394139222f3e3c7265637420783d2233372220793d22333122206107e08201527f77696474683d223222206865696768743d223130222066696c6c3d22234646446108008201527f373030222f3e3c7265637420783d2233342220793d223334222077696474683d6108208201527f223322206865696768743d2232222066696c6c3d2223464644373030222f3e3c6108408201527f7265637420783d2233392220793d223334222077696474683d223322206865696108608201527f6768743d2232222066696c6c3d2223464644373030222f3e3c2f7376673e000061088082015290565b506040516102e081018181106001600160401b0382111761010b576040526102b28152600080516020612dcc8339815191526020820152600080516020612dac8339815191526040820152600080516020612d8c83398151915260608201527f72696e673d2263726973704564676573223e3c7265637420783d22333822207960808201527f3d223135222077696474683d223122206865696768743d2234222066696c6c3d60a08201527f2223433043304330222f3e3c7265637420783d2233392220793d22313622207760c08201527f696474683d223122206865696768743d223133222066696c6c3d22234330433060e08201527f4330222f3e3c7265637420783d2233382220793d223236222077696474683d226101008201527f3122206865696768743d2233222066696c6c3d2223433043304330222f3e3c726101208201527f65637420783d2233372220793d223137222077696474683d22312220686569676101408201527f68743d223132222066696c6c3d2223453545354535222f3e3c7265637420783d6101608201527f2234302220793d223137222077696474683d223122206865696768743d2231326101808201527f222066696c6c3d2223383038303830222f3e3c7265637420783d2233382220796101a08201527f3d223139222077696474683d223122206865696768743d2237222066696c6c3d6101c08201527f2223464646222f3e3c7265637420783d2233372220793d2232392220776964746101e08201527f683d223422206865696768743d2231222066696c6c3d2223413035323244222f6102008201527f3e3c7265637420783d2233352220793d223330222077696474683d22382220686102208201527f65696768743d2232222066696c6c3d2223384234353133222f3e3c72656374206102408201527f783d2233372220793d223332222077696474683d223422206865696768743d226102608201527f33222066696c6c3d2223363534333231222f3e3c7265637420783d22333822206102808201527f793d223335222077696474683d223222206865696768743d2231222066696c6c6102a0820152711e91119b1a9a19991891179f1e17b9bb339f60711b6102c082015290565b506040516105e081018181106001600160401b0382111761010b576040526105b88152600080516020612dcc8339815191526020820152600080516020612dac8339815191526040820152600080516020612d8c83398151915260608201527f72696e673d2263726973704564676573223e3c7265637420783d22323422207960808201527f3d2231222077696474683d223222206865696768743d2231222066696c6c3d2260a08201527f23433043304330222f3e3c7265637420783d2232302220793d2232222077696460c08201527f74683d223222206865696768743d2231222066696c6c3d22234330433043302260e08201527f2f3e3c7265637420783d2232332220793d2232222077696474683d22312220686101008201527f65696768743d2232222066696c6c3d2223433043304330222f3e3c7265637420806101208301527f783d2232362220793d2232222077696474683d223122206865696768743d22326101408301527f222066696c6c3d2223433043304330222f3e3c7265637420783d2232382220796101608301527f3d2232222077696474683d223222206865696768743d2231222066696c6c3d226101808301527f23433043304330222f3e3c7265637420783d2231392220793d223322207769646101a08301527f74683d223122206865696768743d2232222066696c6c3d2223433043304330226101c08301527f2f3e3c7265637420783d2232322220793d2233222077696474683d22312220686101e08301526102008201527f783d2232372220793d2233222077696474683d223122206865696768743d22326102208201527f222066696c6c3d2223433043304330222f3e3c7265637420783d2233302220796102408201527f3d2233222077696474683d223122206865696768743d2232222066696c6c3d226102608201527f23433043304330222f3e3c7265637420783d2232342220793d223222207769646102808201527f74683d223222206865696768743d2232222066696c6c3d2223444331343343226102a08201527f2f3e3c7265637420783d2232302220793d2233222077696474683d22322220686102c08201527f65696768743d2232222066696c6c3d2223444331343343222f3e3c72656374206102e08201527f783d2232382220793d2233222077696474683d223222206865696768743d22326103008201527f222066696c6c3d2223444331343343222f3e3c7265637420783d2232342220796103208201527f3d2236222077696474683d223222206865696768743d2232222066696c6c3d226103408201527f23444331343343222f3e3c7265637420783d2232342220793d223422207769646103608201527f74683d223122206865696768743d2232222066696c6c3d2223464644373030226103808201527f2f3e3c7265637420783d2232302220793d2235222077696474683d22312220686103a08201527f65696768743d2235222066696c6c3d2223464644373030222f3e3c72656374206103c08201527f783d2232382220793d2235222077696474683d223122206865696768743d22346103e08201527f222066696c6c3d2223464644373030222f3e3c7265637420783d2232322220796104008201527f3d2236222077696474683d223222206865696768743d2233222066696c6c3d226104208201527f23464644373030222f3e3c7265637420783d2232362220793d223622207769646104408201527f74683d223222206865696768743d2233222066696c6c3d2223464644373030226104608201527f2f3e3c7265637420783d2232312220793d2237222077696474683d22312220686104808201527f65696768743d2232222066696c6c3d2223464644373030222f3e3c72656374206104a08201527f783d2232342220793d2238222077696474683d223222206865696768743d22316104c08201527f222066696c6c3d2223464644373030222f3e3c7265637420783d2232392220796104e08201527f3d2238222077696474683d223122206865696768743d2232222066696c6c3d226105008201527f23464644373030222f3e3c7265637420783d2232352220793d223422207769646105208201527f74683d223122206865696768743d2232222066696c6c3d2223464646464530226105408201527f2f3e3c7265637420783d2232312220793d2235222077696474683d22312220686105608201527f65696768743d2232222066696c6c3d2223464646464530222f3e3c72656374206105808201527f783d2232392220793d2235222077696474683d223122206865696768743d22336105a08201527711103334b6361e9111a3232323229811179f1e17b9bb339f60411b6105c082015290565b60ff168015612d715760018114612d575760028114612d3c5760038114612d215760048114612d0757600514612cd75760405162461bcd60e51b8152806101e360048201610167565b604051604081018181106001600160401b0382111761010b57604052600481526357696e6560e01b602082015290565b50612d10610121565b640a8dee4c6d60db1b602082015290565b50612d2a610144565b652837b4b9b7b760d11b602082015290565b50612d45610144565b6514da1a595b1960d21b602082015290565b50612d60610121565b6414dddbdc9960da1b602082015290565b50612d7a610121565b6421b937bbb760d91b60208201529056fe7777772e77332e6f72672f323030302f737667222073686170652d72656e64656577426f783d223020302034382034382220786d6c6e733d22687474703a2f2f3c7376672077696474683d2237363822206865696768743d2237363822207669a2646970667358221220fd8c9bf46a42341771e58a264a6668322bc448afd909604838d1697c2462568164736f6c63430008140033",
  "linkReferences": {},
  "deployedLinkReferences": {}
}