{
  "_format": "hh-sol-artifact-1",
  "contractName": "TragedyMythNFT",
  "sourceName": "contracts/TragedyMythNFT.sol",
  "abi": [
    {
      "inputs": [
        {
          "internalType": "address",
          "name": "_metadata",
          "type": "address"
        }
      ],
      "stateMutability": "nonpayable",
      "type": "constructor"
    },
    {
      "inputs": [
        {
          "internalType": "address",
          "name": "sender",
          "type": "address"
        },
        {
          "internalType": "uint256",
          "name": "tokenId",
          "type": "uint256"
        },
        {
          "internalType": "address",
          "name": "owner",
          "type": "address"
        }
      ],
      "name": "ERC721IncorrectOwner",
      "type": "error"
    },
    {
      "inputs": [
        {
          "internalType": "address",
          "name": "operator",
          "type": "address"
        },
        {
          "internalType": "uint256",
          "name": "tokenId",
          "type": "uint256"
        }
      ],
      "name": "ERC721InsufficientApproval",
      "type": "error"
    },
    {
      "inputs": [
        {
          "internalType": "address",
          "name": "approver",
          "type": "address"
        }
      ],
      "name": "ERC721InvalidApprover",
      "type": "error"
    },
    {
      "inputs": [
        {
          "internalType": "address",
          "name": "operator",
          "type": "address"
        }
      ],
      "name": "ERC721InvalidOperator",
      "type": "error"
    },
    {
      "inputs": [
        {
          "internalType": "address",
          "name": "owner",
          "type": "address"
        }
      ],
      "name": "ERC721InvalidOwner",
      "type": "error"
    },
    {
      "inputs": [
        {
          "internalType": "address",
          "name": "receiver",
          "type": "address"
        }
      ],
      "name": "ERC721InvalidReceiver",
      "type": "error"
    },
    {
      "inputs": [
        {
          "internalType": "address",
          "name": "sender",
          "type": "address"
        }
      ],
      "name": "ERC721InvalidSender",
      "type": "error"
    },
    {
      "inputs": [
        {
          "internalType": "uint256",
          "name": "tokenId",
          "type": "uint256"
        }
      ],
      "name": "ERC721NonexistentToken",
      "type": "error"
    },
    {
      "inputs": [
        {
          "internalType": "address",
          "name": "owner",
          "type": "address"
        }
      ],
      "name": "OwnableInvalidOwner",
      "type": "error"
    },
    {
      "inputs": [
        {
          "internalType": "address",
          "name": "account",
          "type": "address"
        }
      ],
      "name": "OwnableUnauthorizedAccount",
      "type": "error"
    },
    {
      "anonymous": false,
      "inputs": [
        {
          "indexed": true,
          "internalType": "address",
          "name": "owner",
          "type": "address"
        },
        {
          "indexed": true,
          "internalType": "address",
          "name": "approved",
          "type": "address"
        },
        {
          "indexed": true,
          "internalType": "uint256",
          "name": "tokenId",
          "type": "uint256"
        }
      ],
      "name": "Approval",
      "type": "event"
    },
    {
      "anonymous": false,
      "inputs": [
        {
          "indexed": true,
          "internalType": "address",
          "name": "owner",
          "type": "address"
        },
        {
          "indexed": true,
          "internalType": "address",
          "name": "operator",
          "type": "address"
        },
        {
          "indexed": false,
          "internalType": "bool",
          "name": "approved",
          "type": "bool"
        }
      ],
      "name": "ApprovalForAll",
      "type": "event"
    },
    {
      "anonymous": false,
      "inputs": [
        {
          "indexed": true,
          "internalType": "address",
          "name": "previousOwner",
          "type": "address"
        },
        {
          "indexed": true,
          "internalType": "address",
          "name": "newOwner",
          "type": "address"
        }
      ],
      "name": "OwnershipTransferred",
      "type": "event"
    },
    {
      "anonymous": false,
      "inputs": [
        {
          "indexed": true,
          "internalType": "uint256",
          "name": "tokenId",
          "type": "uint256"
        },
        {
          "indexed": true,
          "internalType": "address",
          "name": "minter",
          "type": "address"
        },
        {
          "indexed": false,
          "internalType": "uint8",
          "name": "species",
          "type": "uint8"
        },
        {
          "indexed": false,
          "internalType": "uint8",
          "name": "background",
          "type": "uint8"
        },
        {
          "indexed": false,
          "internalType": "uint8",
          "name": "item",
          "type": "uint8"
        },
        {
          "indexed": false,
          "internalType": "uint8",
          "name": "effect",
          "type": "uint8"
        }
      ],
      "name": "TragedyMinted",
      "type": "event"
    },
    {
      "anonymous": false,
      "inputs": [
        {
          "indexed": true,
          "internalType": "address",
          "name": "from",
          "type": "address"
        },
        {
          "indexed": true,
          "internalType": "address",
          "name": "to",
          "type": "address"
        },
        {
          "indexed": true,
          "internalType": "uint256",
          "name": "tokenId",
          "type": "uint256"
        }
      ],
      "name": "Transfer",
      "type": "event"
    },
    {
      "inputs": [
        {
          "internalType": "address",
          "name": "to",
          "type": "address"
        },
        {
          "internalType": "uint256",
          "name": "tokenId",
          "type": "uint256"
        }
      ],
      "name": "approve",
      "outputs": [],
      "stateMutability": "nonpayable",
      "type": "function"
    },
    {
      "inputs": [
        {
          "internalType": "address",
          "name": "owner",
          "type": "address"
        }
      ],
      "name": "balanceOf",
      "outputs": [
        {
          "internalType": "uint256",
          "name": "",
          "type": "uint256"
        }
      ],
      "stateMutability": "view",
      "type": "function"
    },
    {
      "inputs": [
        {
          "internalType": "uint256",
          "name": "tokenId",
          "type": "uint256"
        }
      ],
      "name": "getApproved",
      "outputs": [
        {
          "internalType": "address",
          "name": "",
          "type": "address"
        }
      ],
      "stateMutability": "view",
      "type": "function"
    },
    {
      "inputs": [
        {
          "internalType": "address",
          "name": "owner",
          "type": "address"
        },
        {
          "internalType": "address",
          "name": "operator",
          "type": "address"
        }
      ],
      "name": "isApprovedForAll",
      "outputs": [
        {
          "internalType": "bool",
          "name": "",
          "type": "bool"
        }
      ],
      "stateMutability": "view",
      "type": "function"
    },
    {
      "inputs": [],
      "name": "metadata",
      "outputs": [
        {
          "internalType": "contract TragedyMetadataV5",
          "name": "",
          "type": "address"
        }
      ],
      "stateMutability": "view",
      "type": "function"
    },
    {
      "inputs": [
        {
          "internalType": "uint8",
          "name": "species",
          "type": "uint8"
        },
        {
          "internalType": "uint8",
          "name": "background",
          "type": "uint8"
        },
        {
          "internalType": "uint8",
          "name": "item",
          "type": "uint8"
        },
        {
          "internalType": "uint8",
          "name": "effect",
          "type": "uint8"
        }
      ],
      "name": "mint",
      "outputs": [
        {
          "internalType": "uint256",
          "name": "",
          "type": "uint256"
        }
      ],
      "stateMutability": "nonpayable",
      "type": "function"
    },
    {
      "inputs": [
        {
          "internalType": "uint8[]",
          "name": "species",
          "type": "uint8[]"
        },
        {
          "internalType": "uint8[]",
          "name": "backgrounds",
          "type": "uint8[]"
        },
        {
          "internalType": "uint8[]",
          "name": "items",
          "type": "uint8[]"
        },
        {
          "internalType": "uint8[]",
          "name": "effects",
          "type": "uint8[]"
        }
      ],
      "name": "mintBatch",
      "outputs": [
        {
          "internalType": "uint256[]",
          "name": "",
          "type": "uint256[]"
        }
      ],
      "stateMutability": "nonpayable",
      "type": "function"
    },
    {
      "inputs": [],
      "name": "name",
      "outputs": [
        {
          "internalType": "string",
          "name": "",
          "type": "string"
        }
      ],
      "stateMutability": "view",
      "type": "function"
    },
    {
      "inputs": [],
      "name": "nextTokenId",
      "outputs": [
        {
          "internalType": "uint256",
          "name": "",
          "type": "uint256"
        }
      ],
      "stateMutability": "view",
      "type": "function"
    },
    {
      "inputs": [],
      "name": "owner",
      "outputs": [
        {
          "internalType": "address",
          "name": "",
          "type": "address"
        }
      ],
      "stateMutability": "view",
      "type": "function"
    },
    {
      "inputs": [
        {
          "internalType": "uint256",
          "name": "tokenId",
          "type": "uint256"
        }
      ],
      "name": "ownerOf",
      "outputs": [
        {
          "internalType": "address",
          "name": "",
          "type": "address"
        }
      ],
      "stateMutability": "view",
      "type": "function"
    },
    {
      "inputs": [],
      "name": "renounceOwnership",
      "outputs": [],
      "stateMutability": "nonpayable",
      "type": "function"
    },
    {
      "inputs": [
        {
          "internalType": "address",
          "name": "from",
          "type": "address"
        },
        {
          "internalType": "address",
          "name": "to",
          "type": "address"
        },
        {
          "internalType": "uint256",
          "name": "tokenId",
          "type": "uint256"
        }
      ],
      "name": "safeTransferFrom",
      "outputs": [],
      "stateMutability": "nonpayable",
      "type": "function"
    },
    {
      "inputs": [
        {
          "internalType": "address",
          "name": "from",
          "type": "address"
        },
        {
          "internalType": "address",
          "name": "to",
          "type": "address"
        },
        {
          "internalType": "uint256",
          "name": "tokenId",
          "type": "uint256"
        },
        {
          "internalType": "bytes",
          "name": "data",
          "type": "bytes"
        }
      ],
      "name": "safeTransferFrom",
      "outputs": [],
      "stateMutability": "nonpayable",
      "type": "function"
    },
    {
      "inputs": [
        {
          "internalType": "address",
          "name": "operator",
          "type": "address"
        },
        {
          "internalType": "bool",
          "name": "approved",
          "type": "bool"
        }
      ],
      "name": "setApprovalForAll",
      "outputs": [],
      "stateMutability": "nonpayable",
      "type": "function"
    },
    {
      "inputs": [
        {
          "internalType": "address",
          "name": "_metadata",
          "type": "address"
        }
      ],
      "name": "setMetadata",
      "outputs": [],
      "stateMutability": "nonpayable",
      "type": "function"
    },
    {
      "inputs": [
        {
          "internalType": "bytes4",
          "name": "interfaceId",
          "type": "bytes4"
        }
      ],
      "name": "supportsInterface",
      "outputs": [
        {
          "internalType": "bool",
          "name": "",
          "type": "bool"
        }
      ],
      "stateMutability": "view",
      "type": "function"
    },
    {
      "inputs": [],
      "name": "symbol",
      "outputs": [
        {
          "internalType": "string",
          "name": "",
          "type": "string"
        }
      ],
      "stateMutability": "view",
      "type": "function"
    },
    {
      "inputs": [
        {
          "internalType": "uint256",
          "name": "",
          "type": "uint256"
        }
      ],
      "name": "tokenParams",
      "outputs": [
        {
          "internalType": "uint8",
          "name": "species",
          "type": "uint8"
        },
        {
          "internalType": "uint8",
          "name": "background",
          "type": "uint8"
        },
        {
          "internalType": "uint8",
          "name": "item",
          "type": "uint8"
        },
        {
          "internalType": "uint8",
          "name": "effect",
          "type": "uint8"
        }
      ],
      "stateMutability": "view",
      "type": "function"
    },
    {
      "inputs": [
        {
          "internalType": "uint256",
          "name": "tokenId",
          "type": "uint256"
        }
      ],
      "name": "tokenURI",
      "outputs": [
        {
          "internalType": "string",
          "name": "",
          "type": "string"
        }
      ],
      "stateMutability": "view",
      "type": "function"
    },
    {
      "inputs": [
        {
          "internalType": "address",
          "name": "from",
          "type": "address"
        },
        {
          "internalType": "address",
          "name": "to",
          "type": "address"
        },
        {
          "internalType": "uint256",
          "name": "tokenId",
          "type": "uint256"
        }
      ],
      "name": "transferFrom",
      "outputs": [],
      "stateMutability": "nonpayable",
      "type": "function"
    },
    {
      "inputs": [
        {
          "internalType": "address",
          "name": "newOwner",
          "type": "address"
        }
      ],
      "name": "transferOwnership",
      "outputs": [],
      "stateMutability": "nonpayable",
      "type": "function"
    }
  ],
  "bytecode": "0x608034620003c0576001600160401b0390601f19601f62001b71388190038281018416850186811186821017620003c557859282916040528339602094859181010312620003c057516001600160a01b03948582169491859003620003c05762000068620003db565b92600c84526b0a8e4c2cecac8f2409af2e8d60a31b838501526200008b620003db565b6004938482526309ab2a8960e31b81830152855196848811620003ab576000978854976001988981811c91168015620003a0575b858210146200038d579081878493116200033a575b508490878311600114620002d9578b92620002cd575b5050600019600383901b1c191690881b1788555b8251948511620002ba5786548781811c91168015620002af575b838210146200029c5790818587969594931162000243575b5081938511600114620001de5750508692620001d2575b5050600019600383901b1c191690831b1782555b3315620001ba575060065460018060a01b03199233848316176006557f8be0079c531659141344cd1fd0a4f28419497f9722a3daafe3b4186f6b6457e0604051963393169180a360085560075416176007556117759081620003fc8239f35b604051631e4fbdf760e01b8152908101839052602490fd5b01519050388062000147565b879593929193168589528389209389905b8282106200022957505084116200020f575b505050811b0182556200015b565b015160001960f88460031b161c1916905538808062000201565b8484015186558997909501949384019390810190620001ef565b9091929394508789528289208580880160051c82019285891062000292575b9188978b9297969594930160051c01915b8281106200028357505062000130565b8b81558897508a910162000273565b9250819262000262565b634e487b7160e01b895260228752602489fd5b90607f169062000118565b634e487b7160e01b885260418652602488fd5b015190503880620000ea565b90848b9416918c8052868d20928d5b8882821062000323575050841162000309575b505050811b018855620000fe565b015160001960f88460031b161c19169055388080620002fb565b8385015186558e97909501949384019301620002e8565b9091508a8052848b208780850160051c82019287861062000383575b918c91869594930160051c01915b82811062000374575050620000d4565b8d81558594508c910162000364565b9250819262000356565b634e487b7160e01b8b526022895260248bfd5b90607f1690620000bf565b604186634e487b7160e01b6000525260246000fd5b600080fd5b634e487b7160e01b600052604160045260246000fd5b60408051919082016001600160401b03811183821017620003c55760405256fe60808060405260048036101561001457600080fd5b60003560e01c91826301ffc9a714610e675750816306fdde0314610dc2578163081812fc14610d87578163095ea7b314610c9f57816323b872dd14610c88578163392f37e914610c5f57816342842e0e14610c315781636352211e14610c0257816370a0823114610ba8578163715018a614610b4b578163754263e114610b0257816375794a3c14610ae45781638da5cb5b14610abb5781639531097b1461073357816395d89b4114610643578163a22cb4651461059e578163b88d4fde1461050a578163c32bb6e4146103cc578163c87b56dd14610239578163e985e9c5146101e3578163f2fde38b1461015b575063f3cb83851461011357600080fd5b346101565760203660031901126101565761012c610f19565b610134611056565b600780546001600160a01b0319166001600160a01b0392909216919091179055005b600080fd5b3461015657602036600319011261015657610174610f19565b61017c611056565b6001600160a01b039081169182156101cb5750600680546001600160a01b031981168417909155167f8be0079c531659141344cd1fd0a4f28419497f9722a3daafe3b4186f6b6457e0600080a3005b602490600060405191631e4fbdf760e01b8352820152fd5b34610156576040366003190112610156576101fc610f19565b610204610f2f565b9060018060a01b03809116600052600560205260406000209116600052602052602060ff604060002054166040519015158152f35b3461015657602080600319360112610156576001600160a01b03918035908361026183611221565b1615610391579060a4600092828452600985526040842060606040519161028783610fce565b5460ff81169889845260ff8260081c1693848a82015260ff808460101c169384604084015260181c1693849101526007541692604051998a9788966333cf8a4360e21b885287015260248601526044850152606484015260848301525afa9182156103855760009261030d575b50610309604051928284938452830190610ef4565b0390f35b9091503d806000833e610320818361101a565b8101908281830312610156578051906001600160401b038211610156570181601f820112156101565780516103548161103b565b92610362604051948561101a565b8184528482840101116101565761037e91848085019101610ed1565b90826102f4565b6040513d6000823e3d90fd5b60405162461bcd60e51b81529081018390526014602482015273151bdad95b88191bd95cc81b9bdd08195e1a5cdd60621b6044820152606490fd5b34610156576080366003190112610156573560ff8116808203610156576024359160ff831691828403610156576044359060ff821691828103610156576064359560ff87169586880361015657602097846104ff9261044e600a7f74bda5e10367cceb47615bd4a67157d5be4ba2badb12a662522bf234e4a0d8a998106113aa565b61045a600a82106113e8565b610466600a8910611429565b610472600a8b10611464565b600854998a986104818a6114a1565b6008556040519361049185610fce565b84528c840192835260408401908152606084019182528960005260098d5260ff604060002094511663ff00000062ff000061ff008754965160081b16935160101b16935160181b169363ffffffff19161717171790556104f186336114c6565b604051938493339885610f7a565b0390a3604051908152f35b3461015657608036600319011261015657610523610f19565b61052b610f2f565b60443590606435936001600160401b038511610156573660238601121561015657840135926105598461103b565b93610567604051958661101a565b808552366024828801011161015657602081600092602461059c99018389013786010152610596838383611082565b3361125c565b005b34610156576040366003190112610156576105b7610f19565b60243590811515809203610156576001600160a01b031691821561062b5750336000526005602052604060002082600052602052604060002060ff1981541660ff83161790556040519081527f17307eab39ab6107e8899845ad3d59bd9653f200f220920489ca2b5937696c3160203392a3005b604051630b61174360e31b8152908101839052602490fd5b346101565760003660031901126101565760405190600060019081549182811c928181168015610729575b6020958686108214610714575084875286939291869082156106f45750506001146106b5575b506106a19250038361101a565b610309604051928284938452830190610ef4565b8491508060005281600020906000915b8583106106dc5750506106a1935082010185610694565b805483890185015287945086939092019181016106c5565b60ff1916858201526106a195151560051b85010192508791506106949050565b602290634e487b7160e01b6000525260246000fd5b93607f169361066e565b34610156576080366003190112610156576001600160401b03908035828111610156576107639036908301610f9e565b9160249081358581116101565761077d9036908301610f9e565b9094604435878111610156576107969036908501610f9e565b929097606435908111610156576107b09036908601610f9e565b9082841480610ab2575b80610aa9575b15610a6e576107ce846116f4565b996107dc6040519b8c61101a565b848b526107e8856116f4565b60208c019a90601f1901368c3760005b868110610844578b8d6040519182916020830190602084525180915260408301919060005b81811061082b575050500390f35b825184528594506020938401939092019160010161081d565b61084f81888d61170b565b61085890611731565b60ff16600a11610867906113aa565b61087281878461170b565b61087b90611731565b60ff16600a1161088a906113e8565b61089581898561170b565b61089e90611731565b60ff16600a116108ad90611429565b6108b881868661170b565b6108c190611731565b60ff16600a116108d090611464565b6008548b82896108df846114a1565b6008556108eb9261170b565b6108f490611731565b6108ff83898661170b565b61090890611731565b610913848c8861170b565b61091c90611731565b610927858a8a61170b565b61093090611731565b906040519361093e85610fce565b60ff168452602084019260ff168352604084019060ff168152606084019160ff1682528460005260096020526040600020935160ff168454935160081b61ff0016915160101b62ff000016925160181b63ff000000169363ffffffff19161717171790558b82898333906109b1916114c6565b6109ba9261170b565b6109c390611731565b816109cf848a8761170b565b6109d890611731565b916109e4858d8961170b565b6109ed90611731565b6109f8868b8b61170b565b610a0190611731565b916040519283923396610a149385610f7a565b037f74bda5e10367cceb47615bd4a67157d5be4ba2badb12a662522bf234e4a0d8a991a38d51821015610a5a5790610a559160208f8360051b0101526114a1565b6107f8565b8a60328b634e487b7160e01b600052526000fd5b60405162461bcd60e51b815260208188015260158189015274082e4e4c2f240d8cadccee8d040dad2e6dac2e8c6d605b1b6044820152606490fd5b508184146107c0565b508484146107ba565b34610156576000366003190112610156576006546040516001600160a01b039091168152602090f35b34610156576000366003190112610156576020600854604051908152f35b3461015657602036600319011261015657356000526009602052610309604060002054604051918160ff849360181c169060ff8160101c169060ff808260081c16911685610f7a565b3461015657600036600319011261015657610b64611056565b600680546001600160a01b031981169091556000906001600160a01b03167f8be0079c531659141344cd1fd0a4f28419497f9722a3daafe3b4186f6b6457e08280a3005b34610156576020366003190112610156576001600160a01b03610bc9610f19565b16908115610bea575060005260036020526020604060002054604051908152f35b6024906000604051916322718ad960e21b8352820152fd5b3461015657602036600319011261015657610c1f60209135611221565b6040516001600160a01b039091168152f35b346101565761059c610c4236610f45565b9060405192610c5084610fff565b60008452610596838383611082565b34610156576000366003190112610156576007546040516001600160a01b039091168152602090f35b346101565761059c610c9936610f45565b91611082565b3461015657604036600319011261015657610cb8610f19565b90602435610cc581611221565b33151580610d74575b80610d47575b610d30576001600160a01b039384169382918591167f8c5be1e5ebec7d5bd14f71427d1e84f3dd0314c0f7b2291e5b200ac8c7c3b925600080a460009081526020919091526040902080546001600160a01b0319169091179055005b60405163a9fbf51f60e01b81523381850152602490fd5b5060018060a01b038116600052600560205260406000203360005260205260ff6040600020541615610cd4565b506001600160a01b038116331415610cce565b34610156576020366003190112610156578035610da381611221565b50600052602052602060018060a01b0360406000205416604051908152f35b3461015657600036600319011261015657604051906000805490600182811c928181168015610e5d575b6020958686108214610714575084875286939291869082156106f4575050600114610e1e57506106a19250038361101a565b8491506000805281600020906000915b858310610e455750506106a1935082010185610694565b80548389018501528794508693909201918101610e2e565b93607f1693610dec565b903461015657602036600319011261015657359063ffffffff60e01b8216809203610156576020916380ac58cd60e01b8114908115610ec0575b8115610eaf575b5015158152f35b6301ffc9a760e01b14905083610ea8565b635b5e139f60e01b81149150610ea1565b60005b838110610ee45750506000910152565b8181015183820152602001610ed4565b90602091610f0d81518092818552858086019101610ed1565b601f01601f1916010190565b600435906001600160a01b038216820361015657565b602435906001600160a01b038216820361015657565b6060906003190112610156576001600160a01b0390600435828116810361015657916024359081168103610156579060443590565b60ff9182168152918116602083015291821660408201529116606082015260800190565b9181601f84011215610156578235916001600160401b038311610156576020808501948460051b01011161015657565b608081019081106001600160401b03821117610fe957604052565b634e487b7160e01b600052604160045260246000fd5b602081019081106001600160401b03821117610fe957604052565b90601f801991011681019081106001600160401b03821117610fe957604052565b6001600160401b038111610fe957601f01601f191660200190565b6006546001600160a01b0316330361106a57565b60405163118cdaa760e01b8152336004820152602490fd5b6001600160a01b03918216929091831561120857600092828452826020956002875260409684888820541696879133151580611172575b509060027fddf252ad1be2c89b69c2b068fc378daa952ba7f163c4a11628f55a4df523b3ef928461113f575b858352600381528b8320805460010190558683525289812080546001600160a01b0319168517905580a4169283830361111e5750505050565b6064945051926364283d7b60e01b8452600484015260248301526044820152fd5b600087815260046020526040902080546001600160a01b0319169055848352600381528b832080546000190190556110e5565b919394509150806111c7575b1561118e578592918791386110b9565b8786886111ab576024915190637e27328960e01b82526004820152fd5b604491519063177e802f60e01b82523360048301526024820152fd5b5033871480156111ec575b8061117e575085825260048152338589842054161461117e565b5086825260058152878220338352815260ff88832054166111d2565b604051633250574960e11b815260006004820152602490fd5b6000818152600260205260409020546001600160a01b0316908115611244575090565b60249060405190637e27328960e01b82526004820152fd5b90939192833b61126e575b5050505050565b604051630a85bd0160e11b8082526001600160a01b0393841660048301529583166024820152604481019190915260806064820152949216926020929185906112bb906084830190610ef4565b039483816000978189895af1869181611366575b50611330575050503d600014611327573d6112e98161103b565b906112f7604051928361101a565b81528093823d92013e5b8251928361132257604051633250574960e11b815260048101849052602490fd5b019050fd5b60609250611301565b919450915063ffffffff60e01b160361134e57503880808080611267565b60249060405190633250574960e11b82526004820152fd5b9091508481813d83116113a3575b61137e818361101a565b8101031261139f57516001600160e01b03198116810361139f5790386112cf565b8680fd5b503d611374565b156113b157565b60405162461bcd60e51b815260206004820152600f60248201526e496e76616c6964207370656369657360881b6044820152606490fd5b156113ef57565b60405162461bcd60e51b8152602060048201526012602482015271125b9d985b1a5908189858dad9dc9bdd5b9960721b6044820152606490fd5b1561143057565b60405162461bcd60e51b815260206004820152600c60248201526b496e76616c6964206974656d60a01b6044820152606490fd5b1561146b57565b60405162461bcd60e51b815260206004820152600e60248201526d125b9d985b1a59081959999958dd60921b6044820152606490fd5b60001981146114b05760010190565b634e487b7160e01b600052601160045260246000fd5b604080516114d381610fff565b6000808252936001600160a01b038481169490929085156116dc57828752602093600285528588205416838782151592836116a9575b818b5260038852888b2080546001019055828b5260028852888b2080546001600160a01b031916831790557fddf252ad1be2c89b69c2b068fc378daa952ba7f163c4a11628f55a4df523b3ef8b80a4611691573b61156a575b505050505050565b826115a8918596979894955180938192630a85bd0160e11b968784523360048501528c60248501526044840152608060648401526084830190610ef4565b03818a8a5af187918161164d575b50611616575050503d60001461160d573d6115d08161103b565b906115dd8451928361101a565b81528094823d92013e5b83519384611607578251633250574960e11b815260048101859052602490fd5b84925001fd5b606093506115e7565b919550915063ffffffff60e01b1603611636575050388080808080611562565b602492505190633250574960e11b82526004820152fd5b9091508481813d831161168a575b611665818361101a565b8101031261168657516001600160e01b0319811681036116865790386115b6565b8780fd5b503d61165b565b84516339e3563760e11b815260048101889052602490fd5b600083815260046020526040902080546001600160a01b0319169055808b5260038852888b208054600019019055611509565b8451633250574960e11b815260048101889052602490fd5b6001600160401b038111610fe95760051b60200190565b919081101561171b5760051b0190565b634e487b7160e01b600052603260045260246000fd5b3560ff81168103610156579056fea26469706673582212208a4a98112ec220e83937e3b52c0c7c6d4d5baa891292047c436a1ed9d816a72a64736f6c63430008140033",
  "linkReferences": {},
  "deployedLinkReferences": {}
}