{
  "_format": "hh-sol-artifact-1",
  "contractName": "ArweaveTragedyComposerV5",
  "sourceName": "contracts/ArweaveTragedyComposerV5.sol",
  "abi": [
    {
      "inputs": [
        {
          "internalType": "address",
          "name": "_monsterBank",
          "type": "address"
        },
        {
          "internalType": "address",
          "name": "_backgroundBank",
          "type": "address"
        },
        {
          "internalType": "address",
          "name": "_itemBank",
          "type": "address"
        },
        {
          "internalType": "address",
          "name": "_effectBank",
          "type": "address"
        }
      ],
      "stateMutability": "nonpayable",
      "type": "constructor"
    },
    {
      "inputs": [],
      "name": "backgroundBank",
      "outputs": [
        {
          "internalType": "contract IArweaveBackgroundBank",
          "name": "",
          "type": "address"
        }
      ],
      "stateMutability": "view",
      "type": "function"
    },
    {
      "inputs": [
        {
          "internalType": "uint8",
          "name": "species",
          "type": "uint8"
        },
        {
          "internalType": "uint8",
          "name": "background",
          "type": "uint8"
        },
        {
          "internalType": "uint8",
          "name": "item",
          "type": "uint8"
        },
        {
          "internalType": "uint8",
          "name": "effect",
          "type": "uint8"
        }
      ],
      "name": "composeSVG",
      "outputs": [
        {
          "internalType": "string",
          "name": "",
          "type": "string"
        }
      ],
      "stateMutability": "view",
      "type": "function"
    },
    {
      "inputs": [
        {
          "internalType": "uint8",
          "name": "species",
          "type": "uint8"
        },
        {
          "internalType": "uint8",
          "name": "background",
          "type": "uint8"
        },
        {
          "internalType": "uint8",
          "name": "displayItem",
          "type": "uint8"
        },
        {
          "internalType": "uint8",
          "name": "effect",
          "type": "uint8"
        }
      ],
      "name": "composeSVGWithSynergy",
      "outputs": [
        {
          "internalType": "string",
          "name": "",
          "type": "string"
        }
      ],
      "stateMutability": "view",
      "type": "function"
    },
    {
      "inputs": [],
      "name": "effectBank",
      "outputs": [
        {
          "internalType": "contract IArweaveEffectBank",
          "name": "",
          "type": "address"
        }
      ],
      "stateMutability": "view",
      "type": "function"
    },
    {
      "inputs": [
        {
          "internalType": "uint8",
          "name": "background",
          "type": "uint8"
        }
      ],
      "name": "filterParams",
      "outputs": [
        {
          "internalType": "uint16",
          "name": "",
          "type": "uint16"
        },
        {
          "internalType": "uint16",
          "name": "",
          "type": "uint16"
        },
        {
          "internalType": "uint16",
          "name": "",
          "type": "uint16"
        }
      ],
      "stateMutability": "view",
      "type": "function"
    },
    {
      "inputs": [
        {
          "internalType": "uint8",
          "name": "species",
          "type": "uint8"
        },
        {
          "internalType": "uint8",
          "name": "item",
          "type": "uint8"
        }
      ],
      "name": "getDisplayItem",
      "outputs": [
        {
          "internalType": "uint8",
          "name": "",
          "type": "uint8"
        }
      ],
      "stateMutability": "pure",
      "type": "function"
    },
    {
      "inputs": [],
      "name": "itemBank",
      "outputs": [
        {
          "internalType": "contract IArweaveItemBank",
          "name": "",
          "type": "address"
        }
      ],
      "stateMutability": "view",
      "type": "function"
    },
    {
      "inputs": [],
      "name": "monsterBank",
      "outputs": [
        {
          "internalType": "contract IArweaveMonsterBank",
          "name": "",
          "type": "address"
        }
      ],
      "stateMutability": "view",
      "type": "function"
    },
    {
      "inputs": [
        {
          "internalType": "string",
          "name": "svg",
          "type": "string"
        }
      ],
      "name": "svgToBase64DataUri",
      "outputs": [
        {
          "internalType": "string",
          "name": "",
          "type": "string"
        }
      ],
      "stateMutability": "pure",
      "type": "function"
    }
  ],
  "bytecode": "0x608034620004f257601f620014ad38819003918201601f191683019291906001600160401b03841183851017620004f7578160809284926040968752833981010312620004f25762000051816200052d565b906020620000618183016200052d565b6200007c6060620000748786016200052d565b94016200052d565b9260018060a01b038060018060a01b031992816000981684895416178855816001951684865416178555168260025416176002556003941690845416178355620000c56200050d565b92848452607883850152606480878601528580526004948585528787208791885b858110620004ba57505055620000fb6200050d565b60f0815281858201526050888201528387528585528787208791885b85811062000482575050556200012c6200050d565b605a8152605085820152604688820152600287528585528787208791885b8581106200044a575050556200015f6200050d565b61010e81528185820152605a888201528287528585528787208791885b8581106200041257505055620001916200050d565b61012c8152818582015281888201528587528585528787208791885b858110620003da57505055620001c26200050d565b6101048152603c85820152603288820152600587528585528787208791885b858110620003a257505055620001f66200050d565b60148152609685820152607888820152600687528585528787208791885b8581106200036a57505055620002296200050d565b9060c3825284820152606e87820152600786528484528686208691875b84811062000332575050556200025b6200050d565b602d8152607884820152606e87820152600886528484528686208691875b848110620002fa575050556200028e6200050d565b9385855285848601526046878601526009865283528585209392855b828110620002c4578787875551610f6a9081620005438239f35b90919282620002ed869861ffff849851169085851b60031b9161ffff809116831b921b19161790565b97019493929101620002aa565b90929486620003248298969761ffff8751169085851b60031b9161ffff809116831b921b19161790565b940191019594939562000279565b909294866200035c8298969761ffff8751169085851b60031b9161ffff809116831b921b19161790565b940191019594939562000246565b90929587620003948299979861ffff8751169085851b60031b9161ffff809116831b921b19161790565b940191019695949662000214565b90929587620003cc8299979861ffff8751169085851b60031b9161ffff809116831b921b19161790565b9401910196959496620001e1565b90929587620004048299979861ffff8751169085851b60031b9161ffff809116831b921b19161790565b9401910196959496620001ad565b909295876200043c8299979861ffff8751169085851b60031b9161ffff809116831b921b19161790565b94019101969594966200017c565b90929587620004748299979861ffff8751169085851b60031b9161ffff809116831b921b19161790565b94019101969594966200014a565b90929587620004ac8299979861ffff8751169085851b60031b9161ffff809116831b921b19161790565b940191019695949662000117565b90929587620004e48299979861ffff8751169085851b60031b9161ffff809116831b921b19161790565b9401910196959496620000e6565b600080fd5b634e487b7160e01b600052604160045260246000fd5b60405190606082016001600160401b03811183821017620004f757604052565b51906001600160a01b0382168203620004f25756fe6080604052600436101561001257600080fd5b6000803560e01c908163064a61af146100aa57508063310290b8146100a5578063345c0af4146100a0578063567f3aa21461009b5780638e8245691461009657806390852d4e146100915780639e5dca9a1461008c578063b23617fa146100875763bacc8aef1461008257600080fd5b610395565b610346565b610321565b6102ac565b610211565b6101e4565b610111565b6100d3565b346100d057806003193601126100d0576002546001600160a01b03166080908152602090f35b80fd5b346100fc5760003660031901126100fc576000546040516001600160a01b039091168152602090f35b600080fd5b6004359060ff821682036100fc57565b346100fc5760403660031901126100fc5761012a610101565b6024359060ff821682036100fc5760209161014491610bcd565b60ff60405191168152f35b60809060031901126100fc5760043560ff811681036100fc579060243560ff811681036100fc579060443560ff811681036100fc579060643560ff811681036100fc5790565b60005b8381106101a85750506000910152565b8181015183820152602001610198565b604091602082526101d88151809281602086015260208686019101610195565b601f01601f1916010190565b346100fc5761020d6102016101f83661014f565b92919091610567565b604051918291826101b8565b0390f35b346100fc5760003660031901126100fc576003546040516001600160a01b039091168152602090f35b634e487b7160e01b600052604160045260246000fd5b606081019081106001600160401b0382111761026b57604052565b61023a565b90601f801991011681019081106001600160401b0382111761026b57604052565b6001600160401b03811161026b57601f01601f191660200190565b346100fc5760203660031901126100fc576004356001600160401b0381116100fc57366023820112156100fc578060040135906102e882610291565b6102f56040519182610270565b82815236602484840101116100fc57600060208461020d95602461020196018386013783010152610c13565b346100fc5761020d6102016103406103383661014f565b939083610bcd565b91610567565b346100fc5760203660031901126100fc5760ff610361610101565b16600052600460205260606040600020546040519061ffff908181168352818160101c16602084015260201c166040820152f35b346100fc5760003660031901126100fc576001546040516001600160a01b039091168152602090f35b60405190602082018281106001600160401b0382111761026b5760405260008252565b6040519060a082018281106001600160401b0382111761026b576040908152607283527f3c7376672077696474683d2237363822206865696768743d223736382220766960208401527f6577426f783d223020302034382034382220786d6c6e733d22687474703a2f2f908301527f7777772e77332e6f72672f323030302f737667222073686170652d72656e64656060830152713934b7339e9131b934b9b822b233b2b9911f60711b6080830152565b90604051915461ffff908181168452818160101c16602085015260201c1660408301526104be82610250565b565b634e487b7160e01b600052601160045260246000fd5b906104e960209282815194859201610195565b0190565b601760f91b815260010190565b6020818303126100fc578051906001600160401b0382116100fc570181601f820112156100fc57805161052c81610291565b9261053a6040519485610270565b818452602082840101116100fc576105589160208085019101610195565b90565b6040513d6000823e3d90fd5b909291926105736103e1565b9361058b8260ff166000526004602052604060002090565b61059490610492565b9161ffff958684511660209485918980848401511660409b8c8095015116926105bc90610d06565b90826105cc606483048216610d06565b9160649006166105db90610d06565b93836064820416936105ec85610d06565b916064900616946105fc86610d06565b9261060686610d06565b9461061088610d06565b9661061a90610d06565b9761062490610d06565b98519a8b9a8b01610634916104d6565b7f3c646566733e3c66696c7465722069643d22636f6c6f7246696c746572223e008152601f017f3c6665436f6c6f724d617472697820747970653d22687565526f7461746522208152673b30b63ab2b99e9160c11b602082015260280161069a916104d6565b6211179f60e91b81526003017f3c6665436f6c6f724d617472697820747970653d22736174757261746522207681526630b63ab2b99e9160c91b60208201526027016106e5916104d6565b6106ee906104ed565b6106f7916104d6565b6211179f60e91b81526003017f3c6665436f6d706f6e656e745472616e736665723e3c666546756e634120747981527f70653d22646973637265746522207461626c6556616c7565733d22302031222f60208201527f3e3c666546756e635220747970653d226c696e6561722220736c6f70653d22006040820152605f0161077e916104d6565b610787906104ed565b610790916104d6565b7f222f3e3c666546756e634720747970653d226c696e6561722220736c6f70653d8152601160f91b60208201526021016107c9916104d6565b6107d2906104ed565b6107db916104d6565b7f222f3e3c666546756e634220747970653d226c696e6561722220736c6f70653d8152601160f91b6020820152602101610814916104d6565b61081d906104ed565b610826916104d6565b7811179f1e17b332a1b7b6b837b732b73a2a3930b739b332b91f60391b81526019016f1e17b334b63a32b91f1e17b232b3399f60811b81526010010394601f199586810183526108769083610270565b6001548851632a0cc71d60e21b815260ff949094166004850152600093908490829060249082906001600160a01b03165afa918215610b765761093e876109326108fa61097e968e8a978892610ba9575b506108db6108f491519a8b968701906104d6565b6c1e34b6b0b3b290343932b31e9160991b8152600d0190565b906104d6565b7f2220783d22302220793d2230222077696474683d22343822206865696768743d815265111a1c11179f60d11b602082015260260190565b03898101865285610270565b815461095a906001600160a01b03165b6001600160a01b031690565b8a518080958194631b340f3b60e11b83526004830191909160ff6020820193169052565b03915afa938415610b7657610a23610a5c93610a176109be8c6108f46109b06108db9b8b998a91610b95575b50610c13565b91519a8b958d8701906104d6565b7f2220783d22302220793d2230222077696474683d22343822206865696768743d81527f223438222066696c7465723d2275726c2823636f6c6f7246696c74657229222f6020820152601f60f91b604082015260410190565b03888101875286610270565b600254610a38906001600160a01b031661094e565b89518080958194631eda80ab60e31b83526004830191909160ff6020820193169052565b03915afa958615610b7657610aa6610adf94610a9a6108fa610a896108db9b88978891610b7b5750610c13565b6108f48d519c8d958c8701906104d6565b03878101895288610270565b600354610abb906001600160a01b031661094e565b885180809681946326bcddeb60e01b83526004830191909160ff6020820193169052565b03915afa958615610b7657610b2961055896610b1d6108fa6108db9a610b479787610b359892610b53575b50506108f486519c8d958b8701906104d6565b03868101895288610270565b519586938401906104d6565b651e17b9bb339f60d11b815260060190565b03908101835282610270565b610b6f92503d8091833e610b678183610270565b8101906104fa565b3880610b0a565b61055b565b610b8f91503d808a833e610b678183610270565b386109aa565b610b8f91503d808c833e610b678183610270565b6108f4919250610bc56108db913d808c833e610b678183610270565b9291506108c7565b60ff16801580610c06575b610bff5760021480610bf2575b610bec5790565b50600b90565b50600860ff821614610be5565b5050600a90565b50600960ff831614610bd8565b610c1c90610e37565b610558603a60405180937f646174613a696d6167652f7376672b786d6c3b6261736536342c0000000000006020830152610c5f8151809260208686019101610195565b810103601a810184520182610270565b90610c7982610291565b610c866040519182610270565b8281528092610c97601f1991610291565b0190602036910137565b600019810191908211610cb057565b6104c0565b6030019081603011610cb057565b9060028201809211610cb057565b9060208201809211610cb057565b908151811015610cf0570160200190565b634e487b7160e01b600052603260045260246000fd5b8015610d92576000818181805b610d765750610d2181610c6f565b935b610d2d5750505090565b610d3690610ca1565b90600a90610d61610d51610d4b848406610cb5565b60ff1690565b60f81b6001600160f81b03191690565b841a610d6d8487610cdf565b53049081610d23565b91506000198114610cb0576001600a9101910480849291610d13565b50604051604081018181106001600160401b0382111761026b5760405260018152600360fc1b602082015290565b600281901b91906001600160fe1b03811603610cb057565b60405190610de582610250565b604082527f6768696a6b6c6d6e6f707172737475767778797a303132333435363738392b2f6040837f4142434445464748494a4b4c4d4e4f505152535455565758595a61626364656660208201520152565b8051908115610f2a57610e5b610e56610e4f84610cc3565b6003900490565b610dc0565b91610e6d610e6884610cd1565b610c6f565b90610e76610dd8565b92600092602081015b8484811015610ee35790600491600380910196850101516001603f9080828460121c168b010151918a60ff9384848488600c1c1684010151168585600894868a60061c160101511691831b01821b01901b93168a010151160160e01b815201610e7f565b509350949350506003900680600114610f1657600214610f04575b50815290565b603d60f81b6000199091015238610efe565b50613d3d60f01b6001199091015238610efe565b50506105586103be56fea264697066735822122060c4ac1f9aa1ef233f6fb1fad0287a7593c63c16751cbc5cf0d3c0d2165abec164736f6c63430008140033",
  "linkReferences": {},
  "deployedLinkReferences": {}
}