{
  "_format": "hh-sol-artifact-1",
  "contractName": "ArweaveEffectBank",
  "sourceName": "contracts/ArweaveEffectBank.sol",
  "abi": [
    {
      "inputs": [],
      "stateMutability": "nonpayable",
      "type": "constructor"
    },
    {
      "inputs": [
        {
          "internalType": "uint256",
          "name": "",
          "type": "uint256"
        }
      ],
      "name": "effectNames",
      "outputs": [
        {
          "internalType": "string",
          "name": "",
          "type": "string"
        }
      ],
      "stateMutability": "view",
      "type": "function"
    },
    {
      "inputs": [
        {
          "internalType": "uint8",
          "name": "id",
          "type": "uint8"
        }
      ],
      "name": "getEffectName",
      "outputs": [
        {
          "internalType": "string",
          "name": "",
          "type": "string"
        }
      ],
      "stateMutability": "view",
      "type": "function"
    },
    {
      "inputs": [
        {
          "internalType": "uint8",
          "name": "id",
          "type": "uint8"
        }
      ],
      "name": "getEffectUrl",
      "outputs": [
        {
          "internalType": "string",
          "name": "",
          "type": "string"
        }
      ],
      "stateMutability": "view",
      "type": "function"
    },
    {
      "inputs": [],
      "name": "owner",
      "outputs": [
        {
          "internalType": "address",
          "name": "",
          "type": "address"
        }
      ],
      "stateMutability": "view",
      "type": "function"
    },
    {
      "inputs": [
        {
          "internalType": "uint8",
          "name": "id",
          "type": "uint8"
        },
        {
          "internalType": "string",
          "name": "url",
          "type": "string"
        }
      ],
      "name": "setEffectUrl",
      "outputs": [],
      "stateMutability": "nonpayable",
      "type": "function"
    },
    {
      "inputs": [
        {
          "internalType": "uint8[]",
          "name": "ids",
          "type": "uint8[]"
        },
        {
          "internalType": "string[]",
          "name": "urls",
          "type": "string[]"
        }
      ],
      "name": "setMultipleUrls",
      "outputs": [],
      "stateMutability": "nonpayable",
      "type": "function"
    }
  ],
  "bytecode": "0x60803462000652576001600160401b0390610140810190828211818310176200063c5760409182526200003162000657565b9060078252602091665365697a75726560c81b8382015281526200005462000657565b9360099485815268135a5b99189b185cdd60ba1b84820152838301526200007a62000657565b8581526821b7b7333ab9b4b7b760b91b84820152848301526200009c62000657565b600681526526b2ba32b7b960d11b848201526060830152620000bd62000657565b91600492838152634261747360e01b858201526080820152620000df62000657565b86815268506f69736f6e696e6760b81b8582015260a08201526200010262000657565b868152684c696768746e696e6760b81b8582015260c08201526200012562000657565b6008815267109b1a5e9e985c9960c21b8582015260e08201526200014862000657565b60078152664275726e696e6760c81b858201526101008201526200016b62000657565b86815268084e4c2d2dceec2e6d60bb1b858201526101208201529060016000925b600a8410620005035786600180888b828a33828060a01b0319600b541617600b55600080526000845286600020620001d0620001c9825462000677565b82620006cd565b604f8155600052836000207f68747470733a2f2f617277656176652e6e65742f7365697a7572652d706c616381556632b437b63232b960c91b92839101558460005260008452866000206200022a620001c9825462000677565b60538155600052836000207f68747470733a2f2f617277656176652e6e65742f6d696e64626c6173742d706c81556830b1b2b437b63232b960b91b96879101556002600052600084528660002062000287620001c9825462000677565b605381556000528585856000207f68747470733a2f2f617277656176652e6e65742f636f6e667573696f6e2d706c8155015560036000526000845286600020620002d6620001c9825462000677565b604d8155600052653437b63232b960d11b85856000207f68747470733a2f2f617277656176652e6e65742f6d6574656f722d706c6163658155015560005260008352856000206200032c620001c9825462000677565b6049815560005263363232b960e11b84846000207f68747470733a2f2f617277656176652e6e65742f626174732d706c616365686f815501556005600052600083528560002062000382620001c9825462000677565b605381556000528484846000207f68747470733a2f2f617277656176652e6e65742f706f69736f6e696e672d706c8155015560066000526000835285600020620003d1620001c9825462000677565b605381556000528484846000207f68747470733a2f2f617277656176652e6e65742f6c696768746e696e672d706c815501556007600052600083528560002062000420620001c9825462000677565b605181556000526731b2b437b63232b960c11b84846000207f68747470733a2f2f617277656176652e6e65742f626c697a7a6172642d706c6181550155600860005260008352856000206200047a620001c9825462000677565b604f815560005283836000207f68747470733a2f2f617277656176652e6e65742f6275726e696e672d706c6163815501556000526000815283600020620004c6620001c9825462000677565b605381556000526000207f68747470733a2f2f617277656176652e6e65742f627261696e776173682d706c81550155516107c29081620006fe8239f35b805180519084821162000627579087916200051f855462000677565b90601f91828111620005ea575b508391831160011462000578579180600195928695946000926200056c575b5050600019600383901b1c191690841b1785555b019201930192906200018c565b0151905038806200054b565b939190601f1982169086600052846000209160005b818110620005d1575091839160019788979695889510620005b7575b505050811b0185556200055f565b015160001960f88460031b161c19169055388080620005a9565b8783015184558c9660019094019392830192016200058d565b62000616908760005285600020600585808801821c8301938989106200061d575b01901c0190620006b4565b386200052c565b935082936200060b565b604187634e487b7160e01b6000525260246000fd5b634e487b7160e01b600052604160045260246000fd5b600080fd5b60408051919082016001600160401b038111838210176200063c57604052565b90600182811c92168015620006a9575b60208310146200069357565b634e487b7160e01b600052602260045260246000fd5b91607f169162000687565b818110620006c0575050565b60008155600101620006b4565b90601f8111620006db575050565b620006fb916000526002601f6020600020920160051c82019101620006b4565b56fe6080604052600436101561001257600080fd5b60003560e01c806326bcddeb146105275780632884b764146102a957806331c9ceb0146102535780634e07522a146102175780638da5cb5b146101ee5763c7ccb9691461005e57600080fd5b346101e95760403660031901126101e957610077610567565b60249081359067ffffffffffffffff908183116101e957366023840112156101e95782600401359182116101e957368483850101116101e95760ff906100c860018060a01b03600b54163314610736565b166100d5600a82106106f6565b600052602092600084526040600020926100ef84546105f1565b601f81116101a3575b50600094601f841160011461013a57509382939460009361012d575b505050600019600383901b1c191660019190911b179055005b0101359050388080610114565b91601f198416958560005283600020936000905b88821061018957505084600196971061016d575b50505050811b019055005b60001960f88660031b161c199201013516905538808080610162565b80600184978683959689010135815501960192019061014e565b8460005285600020601f850160051c8101918786106101df575b601f0160051c01905b8181106101d357506100f8565b600081556001016101c6565b90915081906101bd565b600080fd5b346101e95760003660031901126101e957600b546040516001600160a01b039091168152602090f35b346101e95760203660031901126101e957600435600a8110156101e95761024361024f9160010161062b565b60405191829182610577565b0390f35b346101e95760203660031901126101e95761026c610567565b61027b600a60ff8316106106f6565b600a8110156102935761024361024f9160010161062b565b634e487b7160e01b600052603260045260246000fd5b346101e95760403660031901126101e95760043567ffffffffffffffff81116101e9576102da9036906004016105c0565b60243567ffffffffffffffff81116101e9576102fa9036906004016105c0565b61031260018060a09594951b03600b54163314610736565b8082036104e95760005b82811061032557005b60ff610347600a8261034061033b86898c61076e565b61077e565b16106106f6565b82821015610293578160051b85013590601e19863603018212156101e95767ffffffffffffffff82870135116101e957818601353603602083880101136101e95761039661033b84878a61076e565b1660005260006020526040600020906103af82546105f1565b601f811161049f575b506000601f82880135116001146104265760009082880135610416575b508187013560011b916000199088013560031b1c19161790555b60001981146104005760010161031c565b634e487b7160e01b600052601160045260246000fd5b60209150828801010135886103d5565b601f198288013516908360005260206000209160005b848a83831061048457909150013511610462575b5050600190860135811b0190556103ef565b602060001960f8858b013560031b161c1991848a010101351690558780610450565b0183016020908101358555600190940193928301920161043c565b826000526020600020601f838901350160051c81016020848a0135106104e2575b601f830160051c820181106104d65750506103b8565b600081556001016104c0565b50806104c0565b60405162461bcd60e51b8152602060048201526016602482015275082e4e4c2f2e640d8cadccee8d040dad2e6dac2e8c6d60531b6044820152606490fd5b346101e95760203660031901126101e95760ff610542610567565b1661054f600a82106106f6565b600052600060205261024f610243604060002061062b565b6004359060ff821682036101e957565b6020808252825181830181905290939260005b8281106105ac57505060409293506000838284010152601f8019910116010190565b81810186015184820160400152850161058a565b9181601f840112156101e95782359167ffffffffffffffff83116101e9576020808501948460051b0101116101e957565b90600182811c92168015610621575b602083101461060b57565b634e487b7160e01b600052602260045260246000fd5b91607f1691610600565b906040519160009080549061063f826105f1565b9081865260019283811690816000146106d55750600114610698575b505050829003601f01601f1916820167ffffffffffffffff81118382101761068257604052565b634e487b7160e01b600052604160045260246000fd5b9092506000526020918260002091836000935b8385106106c1575050505083010138808061065b565b8054888601830152930192849082016106ab565b92935050506020925060ff191682850152151560051b83010138808061065b565b156106fd57565b60405162461bcd60e51b8152602060048201526011602482015270125b9d985b1a59081959999958dd081251607a1b6044820152606490fd5b1561073d57565b60405162461bcd60e51b81526020600482015260096024820152682737ba1037bbb732b960b91b6044820152606490fd5b91908110156102935760051b0190565b3560ff811681036101e9579056fea2646970667358221220abc4119e85ff9da16fa5639b6d1afab017cd8cddc1618415ab1ba35fc71bf36f64736f6c63430008140033",
  "linkReferences": {},
  "deployedLinkReferences": {}
}