{
  "_format": "hh-sol-artifact-1",
  "contractName": "ArweaveItemBank",
  "sourceName": "contracts/ArweaveItemBank.sol",
  "abi": [
    {
      "inputs": [],
      "stateMutability": "nonpayable",
      "type": "constructor"
    },
    {
      "inputs": [
        {
          "internalType": "uint8",
          "name": "id",
          "type": "uint8"
        }
      ],
      "name": "getItemName",
      "outputs": [
        {
          "internalType": "string",
          "name": "",
          "type": "string"
        }
      ],
      "stateMutability": "view",
      "type": "function"
    },
    {
      "inputs": [
        {
          "internalType": "uint8",
          "name": "id",
          "type": "uint8"
        }
      ],
      "name": "getItemSVG",
      "outputs": [
        {
          "internalType": "string",
          "name": "",
          "type": "string"
        }
      ],
      "stateMutability": "view",
      "type": "function"
    },
    {
      "inputs": [
        {
          "internalType": "uint256",
          "name": "",
          "type": "uint256"
        }
      ],
      "name": "itemNames",
      "outputs": [
        {
          "internalType": "string",
          "name": "",
          "type": "string"
        }
      ],
      "stateMutability": "view",
      "type": "function"
    },
    {
      "inputs": [],
      "name": "owner",
      "outputs": [
        {
          "internalType": "address",
          "name": "",
          "type": "address"
        }
      ],
      "stateMutability": "view",
      "type": "function"
    },
    {
      "inputs": [
        {
          "internalType": "uint8",
          "name": "id",
          "type": "uint8"
        },
        {
          "internalType": "string",
          "name": "svg",
          "type": "string"
        }
      ],
      "name": "setItemSVG",
      "outputs": [],
      "stateMutability": "nonpayable",
      "type": "function"
    }
  ],
  "bytecode": "0x60803462000f22576101408101906001600160401b03908183118184101762000f0c5760409283526200003162000f27565b9160058084526020936421b937bbb760d91b8582015283526200005362000f27565b8181526414dddbdc9960da1b85820152848401526200007162000f27565b906006918281526514da1a595b1960d21b86820152868501526200009462000f27565b828152652837b4b9b7b760d11b868201526060850152620000b462000f27565b818152640a8dee4c6d60db1b868201526080850152620000d362000f27565b926004938481526357696e6560e01b8782015260a0860152620000f562000f27565b8381526553637974686560d01b8782015260c08601526200011562000f27565b8281526429ba30b33360d91b8782015260e08601526200013462000f27565b946008958681526729b437bab63232b960c11b888201526101008201526200015b62000f27565b84815265105b5d5b195d60d21b888201526101208201529060016000925b600a841062000dd5575050600b80546001600160a01b03191633179055505060008080528086528690208054620001b09062000f47565b620001bc908262000f9d565b6101fb815560005284600020927f3c73766720786d6c6e733d22687474703a2f2f7777772e77332e6f72672f3230958685557f30302f737667222076696577426f783d22302030203234203234223e3c6720668060018701556002908187017f696c6c3d2223464644373030223e3c7061746820643d224d372038683130763290556003928388017f48377a6d2d312032683132763148367a6d312031683130763148377a6d33203190558488017f68347631682d347a222f3e3c2f673e3c672066696c6c3d22234646303030302290558588017f3e3c7061746820643d224d3920386831763148397a6d35203068317631682d3190558688017f7a222f3e3c2f673e3c672066696c6c3d2223303030304646223e3c7061746820905560078098017f643d224d3132203868317631682d317a222f3e3c2f673e3c2f7376673e00000090556001600052600081528a60002080546200031b9062000f47565b62000327908262000f9d565b610201815560009081528181208b8155600181018490557f696c6c3d2223433043304330223e3c7061746820643d224d3131203468327631858201557f32682d327a222f3e3c2f673e3c672066696c6c3d2223384234353133223e3c70868201557f61746820643d224d313020313668347632682d347a222f3e3c2f673e3c672066878201557f696c6c3d2223464644373030223e3c7061746820643d224d3920313568367631888201557f48397a222f3e3c2f673e3c672066696c6c3d2223453045304530223e3c706174898201557f6820643d224d313120346831763132682d317a222f3e3c2f673e3c2f7376673e908a01558381528082528b90208054620004329062000f47565b6200043e908262000fcd565b610257815560009081528181208b8155600181018490557f696c6c3d2223343638324234223e3c7061746820643d224d3820366838763148858201557f387a6d2d312031683130763148377a6d2d312031683132763248367a6d302032868201557f683132763248367a6d302032683132763248367a6d312032683130763248377a878201557f6d3120326838763148387a6d3120316836763148397a222f3e3c2f673e3c6720888201557f66696c6c3d2223464644373030223e3c7061746820643d224d31312039683276898201557f34682d327a222f3e3c2f673e3c672066696c6c3d2223314539304646223e3c708a8201557f61746820643d224d3720386831763148377a6d39203068317631682d317a222f8b8201556a1f1e17b39f1e17b9bb339f60a91b6009909101558481528082528b90208054620005839062000f47565b6200058f908262000ffb565b61022f815560009081528181208b8155600181018490557f696c6c3d2223344230303832223e3c7061746820643d224d3130203668347631858201557f682d347a6d2d3120316836763148397a6d2d3120316838763648387a6d312036868201557f6836763248397a6d31203268347632682d347a222f3e3c2f673e3c672066696c878201557f6c3d2223393430304433223e3c7061746820643d224d31302031306831763268888201557f2d317a6d33203068317632682d317a222f3e3c2f673e3c672066696c6c3d2223898201557f30304646303022206f7061636974793d22302e36223e3c7061746820643d224d8a8201557f3920396836763448397a222f3e3c2f673e3c2f7376673e000000000000000000908b01558581528082528b90208054620006bf9062000f47565b620006cb908262000ffb565b610233815560009081528181208b8155600181018490557f696c6c3d2223464634353030223e3c7061746820643d224d3131203468327633858201557f682d327a6d2d31203168347633682d347a6d2d3120316836763348397a222f3e868201557f3c2f673e3c672066696c6c3d2223464644373030223e3c7061746820643d224d878201557f3131203568327632682d327a222f3e3c2f673e3c672066696c6c3d2223384234888201557f353133223e3c7061746820643d224d313120396832763130682d327a222f3e3c898201557f2f673e3c672066696c6c3d2223363534333231223e3c7061746820643d224d318a8201557f3020313768347632682d347a222f3e3c2f673e3c2f7376673e00000000000000908b01558681528082528b90208054620007fb9062000f47565b62000807908262000ffb565b610205815560009081528181208b8155600181018490557f696c6c3d2223384230303030223e3c7061746820643d224d3130203668347636858201557f682d347a222f3e3c2f673e3c672066696c6c3d2223324634463446223e3c7061868201557f746820643d224d3130203668347631682d347a6d31203668327634682d327a6d878201557f2d31203468347631682d347a6d30203168347632682d347a222f3e3c2f673e3c888201557f672066696c6c3d222344433134334322206f7061636974793d22302e37223e3c898201557f7061746820643d224d3130203768347634682d347a222f3e3c2f673e3c2f73768a82015561339f60f11b908b01558781528082528b902080546200091c9062000f47565b62000928908262000ffb565b610211815560009081528181208b8155600181018490557f696c6c3d2223433043304330223e3c7061746820643d224d3820346838763148858201557f387a6d36203168337631682d337a6d35203168317631682d317a6d3020316831868201557f7632682d317a222f3e3c2f673e3c672066696c6c3d2223384234353133223e3c878201557f7061746820643d224d313120356832763134682d327a222f3e3c2f673e3c6720888201557f66696c6c3d2223413941394139223e3c7061746820643d224d38203468317631898201557f48387a6d37203168317631682d317a6d33203168317631682d317a222f3e3c2f8a82015567339f1e17b9bb339f60c11b908b01558881528082528b9020805462000a439062000f47565b62000a4f908262000fcd565b610249815560009081528181208b8155600181018490557f696c6c3d2223384234353133223e3c7061746820643d224d3131203668327631858201557f34682d327a222f3e3c2f673e3c672066696c6c3d2223393337304442223e3c70868201557f61746820643d224d3130203468347634682d347a222f3e3c2f673e3c67206669878201557f6c6c3d2223464644373030223e3c7061746820643d224d313120356832763268888201557f2d327a222f3e3c2f673e3c672066696c6c3d2223344230303832223e3c706174898201557f6820643d224d3130203468317631682d317a6d33203068317631682d317a6d2d8a8201557f33203368317631682d317a6d33203068317631682d317a222f3e3c2f673e3c2f8b8201556339bb339f60e11b6009909101558981528082528b9020805462000b8d9062000f47565b62000b99908262000f9d565b6101db815560009081528181208b8155600181018490557f696c6c3d2223363936393639223e3c7061746820643d224d3720386834763348858201557f377a6d36203068347633682d347a222f3e3c2f673e3c672066696c6c3d222341868201557f3941394139223e3c7061746820643d224d3720386834763148377a6d36203068878201557f347631682d347a222f3e3c2f673e3c672066696c6c3d2223464630303030223e888201557f3c7061746820643d224d3820396832763148387a6d36203068327631682d327a898201556c11179f1e17b39f1e17b9bb339f60991b908a0155600981528082528b9020805462000c959062000f47565b62000ca1908262000fcd565b61024f8155600052600020988955600189015587017f696c6c3d2223464644373030223e3c7061746820643d224d3131203768327631905586017f682d327a6d2d31203168347631682d347a6d2d3120316836763648397a6d3120905585017f3668347631682d347a6d31203168327631682d327a222f3e3c2f673e3c672066905584017f696c6c3d2223464630303030223e3c7061746820643d224d3131203131683276905583017f32682d327a222f3e3c2f673e3c672066696c6c3d2223464641353030223e3c70905582017f61746820643d224d313020313068317631682d317a6d33203068317631682d31905581017f7a6d2d33203368317631682d317a6d33203068317631682d317a222f3e3c2f679055600901661f1e17b9bb339f60c91b9055516104dd90816200102a8239f35b805180519084821162000ef757908a9162000df1855462000f47565b90601f9182811162000ebc575b508391831160011462000e4a5791806001959286959460009262000e3e575b5050600019600383901b1c191690841b1785555b0192019301929062000179565b01519050388062000e1d565b939190601f1982169086600052846000209160005b81811062000ea357509183916001978897969588951062000e89575b505050811b01855562000e31565b015160001960f88460031b161c1916905538808062000e7b565b8783015184558f96600190940193928301920162000e5f565b62000ee6908760005285600020848087018d1c82019288881062000eed575b018c1c019062000f84565b3862000dfe565b9250819262000edb565b604189634e487b7160e01b6000525260246000fd5b634e487b7160e01b600052604160045260246000fd5b600080fd5b60408051919082016001600160401b0381118382101762000f0c57604052565b90600182811c9216801562000f79575b602083101462000f6357565b634e487b7160e01b600052602260045260246000fd5b91607f169162000f57565b81811062000f90575050565b6000815560010162000f84565b90601f811162000fab575050565b62000fcb916000526008601f6020600020920160051c8201910162000f84565b565b90601f811162000fdb575050565b62000fcb91600052600a601f6020600020920160051c8201910162000f84565b90601f811162001009575050565b62000fcb916000526009601f6020600020920160051c8201910162000f8456fe604060808152600436101561001357600080fd5b600090813560e01c806330a86006146102af5780638da5cb5b14610287578063a7363fe2146100d7578063c34a5b98146100a55763f6d405581461005657600080fd5b346100a15760203660031901126100a1576100928161009d9360ff610079610306565b16610086600a8210610469565b8152806020522061039e565b90519182918261031b565b0390f35b5080fd5b50346100a15760203660031901126100a15760043591600a8310156100d4575061009261009d9260010161039e565b80fd5b5090346100d457816003193601126100d4576100f1610306565b60249081359167ffffffffffffffff918284116102835736602385011215610283578360040135928311610283573682848601011161028357600b546001600160a01b031633036102545760ff1661014b600a8210610469565b84526020948486528420926101608454610364565b601f8111610211575b508495601f84116001146101a957509484958394959361019c575b5050508160011b916000199060031b1c191617905580f35b0101359050388080610184565b91601f198416968587528387209387905b8982106101f7575050846001969798106101db575b50505050811b01905580f35b60001960f88660031b161c1992010135169055388080806101cf565b8060018497868395968901013581550196019201906101ba565b848652868620601f850160051c81019188861061024a575b601f0160051c01905b81811061023f5750610169565b868155600101610232565b9091508190610229565b855162461bcd60e51b815260206004820152600981840152682737ba1037bbb732b960b91b6044820152606490fd5b8480fd5b50346100a157816003193601126100a157600b5490516001600160a01b039091168152602090f35b50346100a15760203660031901126100a1576102c9610306565b916102d9600a60ff851610610469565b600a8310156102f2575061009261009d9260010161039e565b634e487b7160e01b81526032600452602490fd5b6004359060ff8216820361031657565b600080fd5b6020808252825181830181905290939260005b82811061035057505060409293506000838284010152601f8019910116010190565b81810186015184820160400152850161032e565b90600182811c92168015610394575b602083101461037e57565b634e487b7160e01b600052602260045260246000fd5b91607f1691610373565b90604051916000908054906103b282610364565b908186526001928381169081600014610448575060011461040b575b505050829003601f01601f1916820167ffffffffffffffff8111838210176103f557604052565b634e487b7160e01b600052604160045260246000fd5b9092506000526020918260002091836000935b83851061043457505050508301013880806103ce565b80548886018301529301928490820161041e565b92935050506020925060ff191682850152151560051b8301013880806103ce565b1561047057565b60405162461bcd60e51b815260206004820152600f60248201526e125b9d985b1a59081a5d195b481251608a1b6044820152606490fdfea2646970667358221220ce2fc3301186a83d5bd06229ab9fc6393486ed1725b4dc45be38e476f5b87fb064736f6c63430008140033",
  "linkReferences": {},
  "deployedLinkReferences": {}
}