{
  "_format": "hh-sol-artifact-1",
  "contractName": "ArweaveMonsterBankV3",
  "sourceName": "contracts/ArweaveMonsterBankV3.sol",
  "abi": [
    {
      "inputs": [
        {
          "internalType": "address",
          "name": "_bank1",
          "type": "address"
        },
        {
          "internalType": "address",
          "name": "_bank2",
          "type": "address"
        }
      ],
      "stateMutability": "nonpayable",
      "type": "constructor"
    },
    {
      "inputs": [],
      "name": "bank1",
      "outputs": [
        {
          "internalType": "contract IMonsterBank",
          "name": "",
          "type": "address"
        }
      ],
      "stateMutability": "view",
      "type": "function"
    },
    {
      "inputs": [],
      "name": "bank2",
      "outputs": [
        {
          "internalType": "contract IMonsterBank",
          "name": "",
          "type": "address"
        }
      ],
      "stateMutability": "view",
      "type": "function"
    },
    {
      "inputs": [
        {
          "internalType": "uint8",
          "name": "monsterId",
          "type": "uint8"
        }
      ],
      "name": "getMonsterName",
      "outputs": [
        {
          "internalType": "string",
          "name": "",
          "type": "string"
        }
      ],
      "stateMutability": "view",
      "type": "function"
    },
    {
      "inputs": [
        {
          "internalType": "uint8",
          "name": "monsterId",
          "type": "uint8"
        }
      ],
      "name": "getMonsterSVG",
      "outputs": [
        {
          "internalType": "string",
          "name": "",
          "type": "string"
        }
      ],
      "stateMutability": "view",
      "type": "function"
    }
  ],
  "bytecode": "0x60803461008d57601f61049538819003918201601f19168301916001600160401b0383118484101761009257808492604094855283398101031261008d57610052602061004b836100a8565b92016100a8565b600080546001600160a01b039384166001600160a01b031991821617909155600180549290931691161790556040516103d890816100bd8239f35b600080fd5b634e487b7160e01b600052604160045260246000fd5b51906001600160a01b038216820361008d5756fe6080604052600436101561001257600080fd5b6000803560e01c80626b0216146100d657806336681e761461009a578063d001425a146100715763da11f7091461004857600080fd5b3461006e578060031936011261006e57546040516001600160a01b039091168152602090f35b80fd5b503461006e578060031936011261006e576001546040516001600160a01b039091168152602090f35b503461006e57602036600319011261006e576004359060ff8216820361006e576100d26100c683610227565b60405191829182610125565b0390f35b503461006e57602036600319011261006e576004359060ff8216820361006e576100d26100c6836102fb565b60005b8381106101155750506000910152565b8181015183820152602001610105565b604091602082526101458151809281602086015260208686019101610102565b601f01601f1916010190565b90601f8019910116810190811067ffffffffffffffff82111761017357604052565b634e487b7160e01b600052604160045260246000fd5b6020818303126101f557805167ffffffffffffffff918282116101f557019082601f830112156101f557815190811161017357604051926101d4601f8301601f191660200185610151565b818452602082840101116101f5576101f29160208085019101610102565b90565b600080fd5b606090602081526012602082015271125b9d985b1a59081b5bdb9cdd195c88125160721b60408201520190565b60ff1660058110156102975760008054604051631b340f3b60e11b81526004810193909352829060249082906001600160a01b03165afa90811561028b57600091610270575090565b6101f2913d8091833e6102838183610151565b810190610189565b6040513d6000823e3d90fd5b600a81106102bc5760405162461bcd60e51b8152806102b8600482016101fa565b0390fd5b600154604051631b340f3b60e11b81526004810192909252600090829060249082906001600160a01b03165afa90811561028b57600091610270575090565b60ff16600581101561034357600080546040516235810b60e11b81526004810193909352829060249082906001600160a01b03165afa90811561028b57600091610270575090565b600a81106103645760405162461bcd60e51b8152806102b8600482016101fa565b6001546040516235810b60e11b81526004810192909252600090829060249082906001600160a01b03165afa90811561028b5760009161027057509056fea264697066735822122053c435b70e7ea97297a83f512b5ad9338151c6e2353d770121c2e3dc78817b0364736f6c63430008140033",
  "linkReferences": {},
  "deployedLinkReferences": {}
}