{
  "_format": "hh-sol-artifact-1",
  "contractName": "ArweaveBackgroundBank",
  "sourceName": "contracts/ArweaveBackgroundBank.sol",
  "abi": [
    {
      "inputs": [],
      "stateMutability": "nonpayable",
      "type": "constructor"
    },
    {
      "inputs": [
        {
          "internalType": "uint256",
          "name": "",
          "type": "uint256"
        }
      ],
      "name": "backgroundNames",
      "outputs": [
        {
          "internalType": "string",
          "name": "",
          "type": "string"
        }
      ],
      "stateMutability": "view",
      "type": "function"
    },
    {
      "inputs": [
        {
          "internalType": "uint8",
          "name": "id",
          "type": "uint8"
        }
      ],
      "name": "getBackgroundName",
      "outputs": [
        {
          "internalType": "string",
          "name": "",
          "type": "string"
        }
      ],
      "stateMutability": "view",
      "type": "function"
    },
    {
      "inputs": [
        {
          "internalType": "uint8",
          "name": "id",
          "type": "uint8"
        }
      ],
      "name": "getBackgroundUrl",
      "outputs": [
        {
          "internalType": "string",
          "name": "",
          "type": "string"
        }
      ],
      "stateMutability": "view",
      "type": "function"
    },
    {
      "inputs": [],
      "name": "owner",
      "outputs": [
        {
          "internalType": "address",
          "name": "",
          "type": "address"
        }
      ],
      "stateMutability": "view",
      "type": "function"
    },
    {
      "inputs": [
        {
          "internalType": "uint8",
          "name": "id",
          "type": "uint8"
        },
        {
          "internalType": "string",
          "name": "url",
          "type": "string"
        }
      ],
      "name": "setBackgroundUrl",
      "outputs": [],
      "stateMutability": "nonpayable",
      "type": "function"
    },
    {
      "inputs": [
        {
          "internalType": "uint8[]",
          "name": "ids",
          "type": "uint8[]"
        },
        {
          "internalType": "string[]",
          "name": "urls",
          "type": "string[]"
        }
      ],
      "name": "setMultipleUrls",
      "outputs": [],
      "stateMutability": "nonpayable",
      "type": "function"
    }
  ],
  "bytecode": "0x6080346200065c576001600160401b039061014081019082821181831017620006465760409182526200003162000661565b906009825260209168213637b7b236b7b7b760b91b8382015281526200005662000661565b9360059485815264416279737360d81b84820152838301526200007862000661565b85815264446563617960d81b84820152848301526200009662000661565b600a908181526921b7b9393ab83a34b7b760b11b858201526060840152620000bd62000661565b8681526456656e6f6d60d81b858201526080840152620000dc62000661565b9260049384815263159bda5960e21b8682015260a0820152620000fe62000661565b6007815266496e6665726e6f60c81b8682015260c08201526200012062000661565b87815264119c9bdcdd60da1b8682015260e08201526200013f62000661565b60088152675261676e61726f6b60c01b868201526101008201526200016362000661565b6006815265536861646f7760d01b868201526101208201526000926001915b8385106200050b5787653437b63232b960d11b600189818d8b33838060a01b0319600b541617600b55600080526000845286600020620001ce620001c7825462000681565b82620006d7565b605381556000526830b1b2b437b63232b960b91b83856000207f68747470733a2f2f617277656176652e6e65742f626c6f6f646d6f6f6e2d706c8155015582600052600084528660002062000228620001c7825462000681565b604b8155600052836000207f68747470733a2f2f617277656176652e6e65742f61627973732d706c6163656881556437b63232b960d91b93849101556002600052600084528660002062000281620001c7825462000681565b604b81556000528285856000207f68747470733a2f2f617277656176652e6e65742f64656361792d706c616365688155015560036000526000845286600020620002d0620001c7825462000681565b60558155600052693630b1b2b437b63232b960b11b85856000207f68747470733a2f2f617277656176652e6e65742f636f7272757074696f6e2d708155015560005260008352856000206200032a620001c7825462000681565b604b81556000528184846000207f68747470733a2f2f617277656176652e6e65742f76656e6f6d2d706c6163656881550155600052600082528460002062000377620001c7825462000681565b6049815560005263363232b960e11b83836000207f68747470733a2f2f617277656176652e6e65742f766f69642d706c616365686f8155015560066000526000825284600020620003cd620001c7825462000681565b604f81556000526632b437b63232b960c91b83836000207f68747470733a2f2f617277656176652e6e65742f696e6665726e6f2d706c6163815501556007600052600082528460002062000426620001c7825462000681565b604b815560005282826000207f68747470733a2f2f617277656176652e6e65742f66726f73742d706c61636568815501556008600052600081528360002062000474620001c7825462000681565b605181556000526731b2b437b63232b960c11b82826000207f68747470733a2f2f617277656176652e6e65742f7261676e61726f6b2d706c618155015560096000526000815283600020620004ce620001c7825462000681565b604d81556000526000207f68747470733a2f2f617277656176652e6e65742f736861646f772d706c61636581550155516107c69081620007088239f35b8051805190838211620006315790889162000527865462000681565b908c601f92838111620005f4575b505083918311600114620005825791806001959286959460009262000576575b5050600019600383901b1c191690841b1786555b0193019401939162000182565b01519050388062000555565b939190601f1982169087600052846000209160005b818110620005db575091839160019788979695889510620005c1575b505050811b01865562000569565b015160001960f88460031b161c19169055388080620005b3565b8783015184558d96600190940193928301920162000597565b6200061f9189600052866000209085808801821c83019389891062000627575b01901c0190620006be565b8c3862000535565b9350829362000614565b604188634e487b7160e01b6000525260246000fd5b634e487b7160e01b600052604160045260246000fd5b600080fd5b60408051919082016001600160401b038111838210176200064657604052565b90600182811c92168015620006b3575b60208310146200069d57565b634e487b7160e01b600052602260045260246000fd5b91607f169162000691565b818110620006ca575050565b60008155600101620006be565b90601f8111620006e5575050565b62000705916000526002601f6020600020920160051c82019101620006be565b56fe6080604052600436101561001257600080fd5b60003560e01c806310d4070d146103dc5780632884b7641461015e5780634342e652146101085780634e6dcee4146100dc5780638da5cb5b146100b35763a8331c741461005e57600080fd5b346100ae5760203660031901126100ae5760ff610079610567565b16610086600a82106106f6565b60005260006020526100aa61009e604060002061062b565b604051918291826105a8565b0390f35b600080fd5b346100ae5760003660031901126100ae57600b546040516001600160a01b039091168152602090f35b346100ae5760203660031901126100ae57600435600a8110156100ae5761009e6100aa9160010161062b565b346100ae5760203660031901126100ae57610121610567565b610130600a60ff8316106106f6565b600a8110156101485761009e6100aa9160010161062b565b634e487b7160e01b600052603260045260246000fd5b346100ae5760403660031901126100ae5760043567ffffffffffffffff81116100ae5761018f903690600401610577565b60243567ffffffffffffffff81116100ae576101af903690600401610577565b6101c760018060a09594951b03600b5416331461073a565b80820361039e5760005b8281106101da57005b60ff6101fc600a826101f56101f086898c610772565b610782565b16106106f6565b82821015610148578160051b85013590601e19863603018212156100ae5767ffffffffffffffff82870135116100ae57818601353603602083880101136100ae5761024b6101f084878a610772565b16600052600060205260406000209061026482546105f1565b601f8111610354575b506000601f82880135116001146102db57600090828801356102cb575b508187013560011b916000199088013560031b1c19161790555b60001981146102b5576001016101d1565b634e487b7160e01b600052601160045260246000fd5b602091508288010101358861028a565b601f198288013516908360005260206000209160005b848a83831061033957909150013511610317575b5050600190860135811b0190556102a4565b602060001960f8858b013560031b161c1991848a010101351690558780610305565b018301602090810135855560019094019392830192016102f1565b826000526020600020601f838901350160051c81016020848a013510610397575b601f830160051c8201811061038b57505061026d565b60008155600101610375565b5080610375565b60405162461bcd60e51b8152602060048201526016602482015275082e4e4c2f2e640d8cadccee8d040dad2e6dac2e8c6d60531b6044820152606490fd5b346100ae5760403660031901126100ae576103f5610567565b60249081359067ffffffffffffffff908183116100ae57366023840112156100ae5782600401359182116100ae57368483850101116100ae5760ff9061044660018060a01b03600b5416331461073a565b16610453600a82106106f6565b6000526020926000845260406000209261046d84546105f1565b601f8111610521575b50600094601f84116001146104b85750938293946000936104ab575b505050600019600383901b1c191660019190911b179055005b0101359050838080610492565b91601f198416958560005283600020936000905b8882106105075750508460019697106104eb575b50505050811b019055005b60001960f88660031b161c1992010135169055838080806104e0565b8060018497868395968901013581550196019201906104cc565b8460005285600020601f850160051c81019187861061055d575b601f0160051c01905b8181106105515750610476565b60008155600101610544565b909150819061053b565b6004359060ff821682036100ae57565b9181601f840112156100ae5782359167ffffffffffffffff83116100ae576020808501948460051b0101116100ae57565b6020808252825181830181905290939260005b8281106105dd57505060409293506000838284010152601f8019910116010190565b8181018601518482016040015285016105bb565b90600182811c92168015610621575b602083101461060b57565b634e487b7160e01b600052602260045260246000fd5b91607f1691610600565b906040519160009080549061063f826105f1565b9081865260019283811690816000146106d55750600114610698575b505050829003601f01601f1916820167ffffffffffffffff81118382101761068257604052565b634e487b7160e01b600052604160045260246000fd5b9092506000526020918260002091836000935b8385106106c1575050505083010138808061065b565b8054888601830152930192849082016106ab565b92935050506020925060ff191682850152151560051b83010138808061065b565b156106fd57565b60405162461bcd60e51b8152602060048201526015602482015274125b9d985b1a5908189858dad9dc9bdd5b99081251605a1b6044820152606490fd5b1561074157565b60405162461bcd60e51b81526020600482015260096024820152682737ba1037bbb732b960b91b6044820152606490fd5b91908110156101485760051b0190565b3560ff811681036100ae579056fea26469706673582212206a81e6c95464da52714a0c39b90c8555996897ca8b3500b208576e5ae8475d8664736f6c63430008140033",
  "linkReferences": {},
  "deployedLinkReferences": {}
}