{
  "_format": "hh-sol-artifact-1",
  "contractName": "TragedyMetadataV5",
  "sourceName": "contracts/TragedyMetadataV5.sol",
  "abi": [
    {
      "inputs": [
        {
          "internalType": "address",
          "name": "_composer",
          "type": "address"
        }
      ],
      "stateMutability": "nonpayable",
      "type": "constructor"
    },
    {
      "inputs": [],
      "name": "composer",
      "outputs": [
        {
          "internalType": "contract IArweaveTragedyComposer",
          "name": "",
          "type": "address"
        }
      ],
      "stateMutability": "view",
      "type": "function"
    },
    {
      "inputs": [
        {
          "internalType": "uint256",
          "name": "tokenId",
          "type": "uint256"
        }
      ],
      "name": "decodeTokenId",
      "outputs": [
        {
          "internalType": "uint8",
          "name": "species",
          "type": "uint8"
        },
        {
          "internalType": "uint8",
          "name": "background",
          "type": "uint8"
        },
        {
          "internalType": "uint8",
          "name": "item",
          "type": "uint8"
        },
        {
          "internalType": "uint8",
          "name": "effect",
          "type": "uint8"
        }
      ],
      "stateMutability": "pure",
      "type": "function"
    },
    {
      "inputs": [
        {
          "internalType": "uint256",
          "name": "tokenId",
          "type": "uint256"
        },
        {
          "internalType": "uint8",
          "name": "species",
          "type": "uint8"
        },
        {
          "internalType": "uint8",
          "name": "background",
          "type": "uint8"
        },
        {
          "internalType": "uint8",
          "name": "item",
          "type": "uint8"
        },
        {
          "internalType": "uint8",
          "name": "effect",
          "type": "uint8"
        }
      ],
      "name": "generateMetadata",
      "outputs": [
        {
          "internalType": "string",
          "name": "",
          "type": "string"
        }
      ],
      "stateMutability": "view",
      "type": "function"
    },
    {
      "inputs": [
        {
          "internalType": "uint256",
          "name": "index",
          "type": "uint256"
        }
      ],
      "name": "getMetadata",
      "outputs": [
        {
          "internalType": "string",
          "name": "",
          "type": "string"
        }
      ],
      "stateMutability": "view",
      "type": "function"
    },
    {
      "inputs": [],
      "name": "getMetadataCount",
      "outputs": [
        {
          "internalType": "uint256",
          "name": "",
          "type": "uint256"
        }
      ],
      "stateMutability": "pure",
      "type": "function"
    }
  ],
  "bytecode": "0x6080346200007a57601f6200429738819003918201601f19168301916001600160401b038311848410176200007f578084926020946040528339810103126200007a57516001600160a01b038116908190036200007a57600080546001600160a01b0319169190911790556040516142019081620000968239f35b600080fd5b634e487b7160e01b600052604160045260246000fdfe6080604052600436101561001257600080fd5b6000803560e01c9081637efd9112146100b5578163a574cea41461006557508063aeb1fe5114610060578063b93f3f341461005b5763cf3e290c1461005657600080fd5b6101ad565b610180565b610152565b346100b25760203660031901126100b257600435600181018091116100ad5761009d816100946100a9936102a7565b93929092610487565b60405191829182610126565b0390f35b6102ea565b80fd5b346100b25760203660031901126100b2576100a96100d46004356102a7565b6040805160ff958616815293851660208501529184169183019190915290911660608201529081906080820190565b60005b8381106101165750506000910152565b8181015183820152602001610106565b604091602082526101468151809281602086015260208686019101610103565b601f01601f1916010190565b3461017b57600036600319011261017b576000546040516001600160a01b039091168152602090f35b600080fd5b3461017b57600036600319011261017b5760206040516127108152f35b6084359060ff8216820361017b57565b3461017b5760a036600319011261017b5760243560ff8116810361017b5760443560ff8116810361017b576064359160ff8316830361017b576100a99261009d926101f661019d565b92600435610487565b634e487b7160e01b600052604160045260246000fd5b604081019081106001600160401b0382111761023057604052565b6101ff565b608081019081106001600160401b0382111761023057604052565b60a081019081106001600160401b0382111761023057604052565b606081019081106001600160401b0382111761023057604052565b90601f801991011681019081106001600160401b0382111761023057604052565b60405160208101918252602081526102be81610215565b5190209060ff600a8306169160ff600a8260081c06169160ff600a81818560101c06169360181c061690565b634e487b7160e01b600052601160045260246000fd5b90600282018092116100ad57565b90602082018092116100ad57565b6040519061032982610235565b565b6001600160401b03811161023057601f01601f191660200190565b60208183031261017b578051906001600160401b03821161017b570181601f8201121561017b5780516103788161032b565b926103866040519485610286565b8184526020828401011161017b576103a49160208085019101610103565b90565b6040513d6000823e3d90fd5b9081602091031261017b57516001600160a01b038116810361017b5790565b60405190602082018281106001600160401b038211176102305760405260008252565b6040519061040282610215565b600382526241726d60e81b6020830152565b6040519061042182610215565b60048252631219585960e21b6020830152565b519061ffff8216820361017b57565b9081606091031261017b5761045781610434565b916103a4604061046960208501610434565b9301610434565b9061048360209282815194859201610103565b0190565b6000805460408051634f2ee54d60e11b815260ff86811660048084019190915288821660248401528982166044840152908a16606483015291986001600160a01b0390931697929693949193909285846084818c5afa938415610bfa578694610d86575b508951630620521760e31b815297602097888a88818e5afa998a15610bfa57889a610d5f575b508b516235810b60e11b815260ff9091168782019081529091908890839081906020015b038160018060a01b03809e165afa938415610bfa57898c8e8a958c98610d42575b505163bacc8aef60e01b815294859182905afa8015610bfa57818a918f8e8c918f986105a7998795610d23575b5050518098819582946321a1732960e11b8452830191909160ff6020820193169052565b0392165afa918215610bfa578a8d8f8b968d96610d06575b505163064a61af60e01b81529a8b9182905afa988915610bfa578c8f8c928e849d610ce7575b5050519a8b8092631854300360e11b82528161060d8b8b830191909160ff6020820193169052565b0392165afa988915610bfa578d8f8d928d809d610cc3575b505051638e82456960e01b815291908290879082905afa8015610bfa578f928c93610677938f8694610c94575b5050519e8f8094819363031c9ceb60e41b83528a830191909160ff6020820193169052565b0392165afa928315610bfa578d9b8a94610c70575b50610699848a8589611b3e565b98806106a58b51151590565b15610c425750908c929160ff8d8c0151948c0151971660098114600014610bff5750509061070198999a9b9c9d6060926106dd610414565b9f5b51809b8194829363591b0bfd60e11b8452830191909160ff6020820193169052565b03915afa978815610bfa578a978b99610bbd575b5061071f90613577565b8d51683d913730b6b2911d1160b91b8d820190815290958693909160090161074691610470565b61088b60f21b81526002016e113232b9b1b934b83a34b7b7111d1160891b8152600f0161077291610470565b61088b60f21b81526002017f22696d616765223a22646174613a696d6167652f7376672b786d6c3b626173658152620d8d0b60ea1b60208201526023016107b891610470565b61088b60f21b81526002016d2261747472696275746573223a5b60901b8152600e01039a601f199b8c810185526107ef9085610286565b8c519485948c860161080091610470565b7f7b2274726169745f74797065223a2253706563696573222c2276616c7565223a8152601160f91b602082015260210161083991610470565b62089f4b60ea1b81526003017f7b2274726169745f74797065223a2245717569706d656e74222c2276616c7565815262111d1160e91b602082015260230161088091610470565b62089f4b60ea1b81526003017f7b2274726169745f74797065223a225265616c6d222c2276616c7565223a22008152601f016108bb91610470565b62089f4b60ea1b81526003017f7b2274726169745f74797065223a224375727365222c2276616c7565223a22008152601f016108f691610470565b61227d60f01b81526002010388810182526109119082610286565b86819260608701516109239060ff1690565b61092c91613139565b95805161093890151590565b610b3d575b505050875193849187830161095191610470565b7f2c7b2274726169745f74797065223a22526172697479222c2276616c7565223a8152601160f91b602082015260210161098a91610470565b61227d60f01b81526002010386810184526109a59084610286565b61ffff808092166109b59061301d565b94166109c09061301d565b91166109cb9061301d565b9086519384938685016109dd91610470565b7f2c7b2274726169745f74797065223a2248756520526f746174696f6e222c227681526530b63ab2911d60d11b6020820152602601610a1b91610470565b611f4b60f21b81526002017f7b2274726169745f74797065223a2253617475726174696f6e222c2276616c7581526232911d60e91b6020820152602301610a6191610470565b611f4b60f21b81526002017f7b2274726169745f74797065223a224272696768746e657373222c2276616c7581526232911d60e91b6020820152602301610aa791610470565b607d60f81b8152600101038381018252610ac19082610286565b83518091838201610ad191610470565b615d7d60f01b8152600201038381018252610aec9082610286565b610af590613577565b92517f646174613a6170706c69636174696f6e2f6a736f6e3b6261736536342c000000918101918252928391601d01610b2d91610470565b0390810182526103a49082610286565b610b619350610b9b610bb59392610ba9920151610b958d519687958d870190610470565b7f2c7b2274726169745f74797065223a2253796e65726779222c2276616c7565228152611d1160f11b602082015260220190565b90610470565b61227d60f01b815260020190565b03888101835282610286565b38868161093d565b909850610be7919a5061071f975060603d8111610bf3575b610bdf8183610286565b810190610443565b9a9197909a9890610715565b503d610bd5565b6103a7565b909d90600814610c1d575b9d606092916107019a9b9c9d9e9f6106df565b9d610701999a9b9c9d5060609291610c336103f5565b9e9d9c9b9a509192509d610c0a565b92909d610701999a9b9c9d9650606092610c6a87610c628c888a8e613c4c565b96888c61220c565b976106df565b610c8d9194503d808c833e610c858183610286565b810190610346565b923861068c565b610cb4929450803d10610cbc575b610cac8183610286565b8101906103b3565b91388f610652565b503d610ca2565b889493929d5090610cdd913d8091833e610c858183610286565b9b9091928d610625565b610cfe929d50803d10610cbc57610cac8183610286565b9a388e6105e5565b610d1c9196508d3d8091833e610c858183610286565b94386105bf565b610d3a929550803d10610cbc57610cac8183610286565b928f80610583565b610d589198508c3d8091833e610c858183610286565b9638610556565b61053592919a50610d7d89918b3d8d11610cbc57610cac8183610286565b9a919250610511565b610d9b9194503d8088833e610c858183610286565b92386104eb565b60405190608082018281106001600160401b038211176102305760405260006060838281528160208201528160408201520152565b60405190610de482610215565b6006825265223930b3b7b760d11b6020830152565b60405190610e0682610215565b600582526421b937bbb760d91b6020830152565b60405190610e2782610215565b60088252675261676e61726f6b60c01b6020830152565b60405190610e4b82610215565b600682526526b2ba32b7b960d11b6020830152565b60405190610e6d82610215565b601082526f21b7b9b6b4b19029b7bb32b932b4b3b760811b6020830152565b60405190610e9982610250565b606782526636103230bcb99760c91b6080837f54686520636f736d69632072756c65722077686f206272696e6773207468652060208201527f656e642074696d65732e204974732063726f776e206368616e6e656c73206d6560408201527f74656f722073746f726d73207468617420686572616c64207468652066696e6160608201520152565b60405190610f2e82610215565b600782526656616d7069726560c81b6020830152565b60405190610f5182610215565b600482526357696e6560e01b6020830152565b60405190610f7182610215565b6009825268213637b7b236b7b7b760b91b6020830152565b60405190610f9682610215565b60048252634261747360e01b6020830152565b60405190610fb682610215565b600c82526b10dc9a5b5cdbdb88131bdc9960a21b6020830152565b60405190610fde82610250565b606e82526d39903a393ab2b9ba103337b9369760911b6080837f556e6465722074686520626c6f6f64206d6f6f6e2c20746865206372696d736f60208201527f6e2072756c657220636f6d6d616e6473206c6567696f6e73206f66206261747360408201527f2e2054686520616e6369656e742076616d70697265206c6f726420696e20697460608201520152565b6040519061107a82610215565b60088252672bb2b932bbb7b63360c11b6020830152565b6040519061109e82610215565b6006825265105b5d5b195d60d21b6020830152565b604051906110c082610215565b601282527154686520416c70686127732054726f70687960701b6020830152565b604051906110ee82610235565b605f82527f6164206f66207468652070726576696f7573207061636b206c65616465722e006060837f57686174206170706561727320746f20626520612073696d706c6520616d756c60208201527f65742069732072657665616c656420617320746865207365766572656420686560408201520152565b6040519061117382610215565b600c82526b233930b735b2b739ba32b4b760a11b6020830152565b6040519061119b82610215565b600882526729b437bab63232b960c11b6020830152565b604051906111bf82610215565b600d82526c2a34329021b7b63632b1ba37b960991b6020830152565b604051906111e882610250565b606382526233329760e91b6080837f5468652073686f756c6465722061726d6f722069732061637475616c6c79206160208201527f20636f6c6c656374696f6e206f66206861727665737465642061726d732c207360408201527f74696c6c20747769746368696e67207769746820756e6e61747572616c206c6960608201520152565b6040519061127982610215565b60078252664275726e696e6760c81b6020830152565b6040519061129c82610215565b6007825266496e6665726e6f60c81b6020830152565b604051906112bf82610215565b600d82526c457465726e616c20466c616d6560981b6020830152565b604051906112e88261026b565b60378252763739bab6b4b733903932b0b634ba3c9034ba39b2b6331760491b6040837f466972652074686174206275726e7320776974686f7574206675656c2c20636f60208201520152565b6040519061134182610215565b6008825267109b1a5e9e985c9960c21b6020830152565b6040519061136582610215565b6005825264119c9bdcdd60da1b6020830152565b6040519061138682610215565b600d82526c4162736f6c757465205a65726f60981b6020830152565b604051906113af8261026b565b60288252673ab93b34bb32b99760c11b6040837f576865726520696365206d656574732073746f726d2c206e6f7468696e67207360208201520152565b604051906113f982610215565b6009825268506f69736f6e696e6760b81b6020830152565b6040519061141e82610215565b600582526456656e6f6d60d81b6020830152565b6040519061143f82610215565b600c82526b546f786963204d6961736d6160a01b6020830152565b604051906114678261026b565b602d82526c361034ba103a37bab1b432b99760991b6040837f4120706f69736f6e6f757320666f67207468617420636f72727570747320616c60208201520152565b604051906114b682610215565b6009825268135a5b99189b185cdd60ba1b6020830152565b604051906114db82610215565b6004825263159bda5960e21b6020830152565b604051906114fb82610215565b600f82526e4d656e74616c20436f6c6c6170736560881b6020830152565b604051906115268261026b565b602c82526b39b0b734ba3c903234b2b99760a11b6040837f54686520766f6964206265747765656e2074686f75676874732077686572652060208201520152565b6040519061157482610215565b60098252684c696768746e696e6760b81b6020830152565b6040519061159982610215565b600f82526e21b934b6b9b7b7102a343ab73232b960891b6020830152565b604051906115c48261026b565b6033825272103bb4ba34103234bb34b732903bb930ba341760691b6040837f426c6f6f642d726564206c696768746e696e67207468617420737472696b657360208201520152565b6040519061161982610215565b6009825268084e4c2d2dceec2e6d60bb1b6020830152565b6040519061163e82610215565b600a82526921b7b9393ab83a34b7b760b11b6020830152565b6040519061166482610215565b600f82526e26b4b7321021b7b9393ab83a34b7b760891b6020830152565b6040519061168f8261026b565b603282527130b4b739ba103a3432b4b91037bbb732b91760711b6040837f54686f7567687473207477697374656420696e746f20776561706f6e7320616760208201520152565b604051906116e382610215565b600f82526e20b837b1b0b63cb839b2902930b4b760891b6020830152565b6040519061170e8261026b565b602e82526d37b31030b636103a3434b733b99760911b6040837f54686520736b792066616c6c732c206272696e67696e672074686520656e642060208201520152565b6040519061175e82610215565b6006825265536861646f7760d01b6020830152565b6040519061178082610215565b600c82526b2734b3b43a102a32b93937b960a11b6020830152565b604051906117a88261026b565b6022825261391760f11b6040837f4c6976696e6720736861646f77732074686174206665617374206f6e2066656160208201520152565b604051906117ec82610215565b600982526821b7b7333ab9b4b7b760b91b6020830152565b6040519061181182610215565b6005825264446563617960d81b6020830152565b6040519061183282610215565b600e82526d4d61646e65737320506c6167756560901b6020830152565b6040519061185c8261026b565b602782526632103137b23c9760c91b6040837f412064697365617365207468617420726f747320626f7468206d696e6420616e60208201520152565b604051906118a582610215565b60078252665365697a75726560c81b6020830152565b604051906118c882610215565b6005825264416279737360d81b6020830152565b604051906118e982610215565b600b82526a2232b2b8102a3932b6b7b960a91b6020830152565b604051906119108261026b565b6039825278339034b73a37903a34329034b73334b734ba32903230b9359760391b6040837f436f6e76756c73696f6e732066726f6d2073746172696e6720746f6f206c6f6e60208201520152565b6040519061196b82610215565b600f82526e213637b7b21029b7b6b6b2b634b2b960891b6020830152565b6040519061199682610250565b607e82527f616c61746520666f72207468652066696e6573742076696e74616765732e00006080837f4120726566696e6564207072656461746f722077686f20686173207472616e7360208201527f63656e646564206d65726520737572766976616c2e20546869732076616d706960408201527f7265206861732063756c7469766174656420616e20657871756973697465207060608201520152565b60405190611a4182610215565b600882526729b5b2b632ba37b760c11b6020830152565b60405190611a6582610215565b600682526553637974686560d01b6020830152565b60405190611a8782610215565b600e82526d1119585d1a09dcc812195c985b1960921b6020830152565b60405190611ab182610250565b606c82526b3634ba3c9034ba39b2b6331760a11b6080837f546865206f726967696e616c2068617262696e676572206f6620646f6f6d2e2060208201527f5468697320736b656c6574616c207265617065722068617320636f6c6c65637460408201527f656420736f756c732073696e636520746865206461776e206f66206d6f72746160608201520152565b611b46610da2565b50805191602094858301938420611b5b610dd7565b87815191012014806121f1575b806121d6575b806121bb575b6121955782518420611b84610f21565b878151910120148061217a575b8061215f575b80612144575b61210f5782518420611bad61106d565b87815191012014806120f4575b6120ce5782518420611bca611166565b87815191012014806120b3575b61208d57805190868101918220611bec61126c565b8881519101201480612072575b61204b5780518220611c09611334565b8881519101201480612030575b6120095780518220611c266113ec565b8881519101201480611fee575b611fc75780518220611c436114a9565b8881519101201480611fac575b611f855780518220611c60611567565b8881519101201480611f6a575b611f435780518220611c7d61160c565b8881519101201480611f28575b611f015780518220611c9a610e3e565b8881519101201480611ee6575b611ebf5780518220611cb7610f89565b8881519101201480611ea4575b611e7d5780518220611cd46117df565b8881519101201480611e62575b611e3b57519020611cf0611898565b868151910120149081611e1e575b50611dfa5780518220611d0f610f21565b8581519101201480611ddf575b611dbb57519020611d2b611a34565b838151910120149081611d9e575b50611d6e57611d4661031c565b9060008252611d536103d2565b90820152611d5f6103d2565b60408201526000606082015290565b611d7661031c565b6001815290611d83611a7a565b90820152611d8f611aa4565b60408201526001606082015290565b9050818151910120611dae611a58565b8281519101201438611d39565b505050611dc661031c565b6001815290611dd361195e565b90820152611d8f611989565b50825184840120611dee610f44565b85815191012014611d1c565b505050611e0561031c565b6001815290611e126118dc565b90820152611d8f611903565b9050848151910120611e2e6118bb565b8581519101201438611cfe565b505050505050611e4961031c565b6001815290611e56611825565b90820152611d8f61184f565b50825187840120611e71611804565b88815191012014611ce1565b505050505050611e8b61031c565b6001815290611e98611773565b90820152611d8f61179b565b50825187840120611eb3611751565b88815191012014611cc4565b505050505050611ecd61031c565b6001815290611eda6116d6565b90820152611d8f611701565b50825187840120611ef5610e1a565b88815191012014611ca7565b505050505050611f0f61031c565b6001815290611f1c611657565b90820152611d8f611682565b50825187840120611f37611631565b88815191012014611c8a565b505050505050611f5161031c565b6001815290611f5e61158c565b90820152611d8f6115b7565b50825187840120611f79610f64565b88815191012014611c6d565b505050505050611f9361031c565b6001815290611fa06114ee565b90820152611d8f611519565b50825187840120611fbb6114ce565b88815191012014611c50565b505050505050611fd561031c565b6001815290611fe2611432565b90820152611d8f61145a565b50825187840120611ffd611411565b88815191012014611c33565b50505050505061201761031c565b6001815290612024611379565b90820152611d8f6113a2565b5082518784012061203f611358565b88815191012014611c16565b50505050505061205961031c565b60018152906120666112b2565b90820152611d8f6112db565b5082518784012061208161128f565b88815191012014611bf9565b505050505061209a61031c565b60018152906120a76111b2565b90820152611d8f6111db565b508451868601206120c261118e565b87815191012014611bd7565b50505050506120db61031c565b60018152906120e86110b3565b90820152611d8f6110e1565b50845186860120612103611091565b87815191012014611bba565b505050505061211c61031c565b6001815290612129610fa9565b90820152612135610fd1565b60408201526003606082015290565b50805186820120612153610f89565b87815191012014611b9d565b5081518683012061216e610f64565b87815191012014611b97565b50845186860120612189610f44565b87815191012014611b91565b50505050506121a261031c565b60018152906121af610e60565b90820152612135610e8c565b508051868201206121ca610e3e565b87815191012014611b74565b508151868301206121e5610e1a565b87815191012014611b6e565b50845186860120612200610df9565b87815191012014611b68565b61222d6122276103a494612221602295612470565b93612a9d565b94612ea9565b6040519482612246879451809260208088019101610103565b830190600160fd1b91826020820152612269825180936020602185019101610103565b019060218201526122838251809360208785019101610103565b01036002810184520182610286565b6040519061229f82610215565b6012825271125b881cda18591bddc9dcc81c995858da0b60721b6020830152565b604051906122cd82610215565b6012825271105cc81d1a19481ddbdc9b1908195b991ccb60721b6020830152565b604051906122fb82610215565b6011825270125b88199c9bde995b881dd85cdd195ccb607a1b6020830152565b6040519061232882610215565b601682527515da5d1a1a5b88195d195c9b985b08199b185b595ccb60521b6020830152565b6040519061235a82610215565b6014825273105d08195e1a5cdd195b98d949dcc8195919d94b60621b6020830152565b6040519061238a82610215565b600f82526e125b881d1bde1a58c81b5a5cdd1ccb608a1b6020830152565b604051906123b582610215565b601582527415da195c99481c99585b1a5d1e48189c99585adccb605a1b6020830152565b604051906123e682610215565b6016825275125b881c9bdd1d1a5b99c81dd85cdd195b185b991ccb60521b6020830152565b6040519061241882610215565b6016825275119c9bdb481d1a1948195b991b195cdcc81d9bda590b60521b6020830152565b6040519061244a82610215565b6017825276155b99195c881d1a194818dc9a5b5cdbdb8819d85e994b604a1b6020830152565b805160208092012090612481610f64565b80519082012082036124975750506103a461243d565b61249f6118bb565b80519082012082036124b55750506103a461240b565b6124bd611804565b80519082012082036124d35750506103a46123d9565b6124db611631565b80519082012082036124f15750506103a46123a8565b6124f9611411565b805190820120820361250f5750506103a461237d565b6125176114ce565b805190820120820361252d5750506103a461234d565b61253561128f565b805190820120820361254b5750506103a461231b565b612553611358565b80519082012082036125695750506103a46122ee565b612571610e1a565b805191012003612583576103a46122c0565b6103a4612292565b6040519061259882610215565b60058252642232b6b7b760d91b6020830152565b604051906125b982610215565b60068252655a6f6d62696560d01b6020830152565b604051906125db82610215565b60058252644d756d6d7960d81b6020830152565b604051906125fc82610215565b6008825267537563637562757360c01b6020830152565b6040519061262082610215565b60198252783a34329033b7b13634b710383637ba399036b4b9b1b434b2b360391b6020830152565b6040519061265582610215565b601b82527f74686973206372656174696f6e20646566696573206e617475726500000000006020830152565b6040519061268e82610215565b601c82527f7468652074656d70747265737320656e736e6172657320736f756c73000000006020830152565b604051906126c782610215565b600582526429ba30b33360d91b6020830152565b604051906126e882610215565b601f82527f7468697320677561726469616e20656e647572657320657465726e616c6c79006020830152565b6040519061272182610215565b601d82527f7468652070686172616f6820636f6d6d616e647320646976696e656c790000006020830152565b6040519061275a82610215565b60068252652837b4b9b7b760d11b6020830152565b6040519061277c82610215565b601b82527f7468697320636f72707365207368616d626c6573206f6e7761726400000000006020830152565b604051906127b58261026b565b602382526234b7b760e91b6040837f74686520706c616775652077616c6b6572207370726561647320696e6665637460208201520152565b604051906127fa8261026b565b60218252607960f81b6040837f746865206265617374207374616c6b732077697468207072696d616c2066757260208201520152565b6040519061283d82610215565b60058252640a8dee4c6d60db1b6020830152565b6040519061285e82610215565b60198252781d1a1a5cc8199a595b99081dda595b191cc81d1bdc9b595b9d603a1b6020830152565b604051906128938261026b565b6025825264040e0c2e8d60db1b6040837f7468652068656c6c737061776e206c696768747320706572646974696f6e277360208201520152565b604051906128da8261026b565b60218252607360f81b6040837f616e6369656e7420626f6e657320636c757463682074686569722072656c696360208201520152565b6040519061291d82610215565b601a82527f6465617468277320686572616c6420726561707320736f756c730000000000006020830152565b6040519061295682610215565b602082527f74686973206e6967687477616c6b65722068756e747320657465726e616c6c796020830152565b6040519061298f82610215565b602082527f746865206e6f626c65207361766f7273206372696d736f6e2076696e746167656020830152565b604051906129c882610215565b600582526414dddbdc9960da1b6020830152565b604051906129e98261026b565b602382526272657360e81b6040837f7468697320746572726f7220686f61726473206375727365642074726561737560208201520152565b60405190612a2e8261026b565b60218252601b60fa1b6040837f746865206472616b65207769656c647320647261676f6e66697265207374656560208201520152565b60405190612a7182610215565b601a82527f746865207779726d207265636c61696d7320646f6d696e696f6e0000000000006020830152565b80516020809201209181815191012091612ab5610dd7565b8051908301208103612b025750612aca610df9565b8051908201208203612ae05750506103a4612a64565b612ae86129bb565b805191012003612afa576103a4612a21565b6103a46129dc565b612b0a610f21565b8051908301208103612b395750612b1f610f44565b805191012003612b31576103a4612982565b6103a4612949565b612b41611a34565b8051908301208103612b705750612b56611a58565b805191012003612b68576103a4612910565b6103a46128cd565b612b7861258b565b8051908301208103612ba75750612b8d612830565b805191012003612b9f576103a4612886565b6103a4612851565b612baf61106d565b8051908301208103612bc6575050506103a46127ed565b612bce6125ac565b8051908301208103612bfd5750612be361274d565b805191012003612bf5576103a46127a8565b6103a461276f565b612c056125ce565b8051908301208103612c345750612c1a6126ba565b805191012003612c2c576103a4612714565b6103a46126db565b9150612c3e6125ef565b8051908201208203612c545750506103a4612681565b612c5c611166565b805191012003612c6e576103a4612648565b6103a4612613565b60405190612c8382610215565b601e82527f636f6d6d616e64696e67206e69676874626f726e2073657276616e74732e00006020830152565b60405190612cbc82610215565b601b82527f6c656176696e6720746f78696320646561746820626568696e642e00000000006020830152565b60405190612cf582610215565b601c82527f63617573696e67207265616c69747920746f20636f6e76756c73652e000000006020830152565b60405190612d2e82610215565b601a82527f737072656164696e6720667261637475726564206368616f732e0000000000006020830152565b60405190612d6782610215565b601d82527f656e736c6176696e67206d696e64732077697468206d61646e6573732e0000006020830152565b60405190612da082610215565b601b82527f6974732073637265616d7320736861747465722073616e6974792e00000000006020830152565b60405190612dd982610215565b601f82527f7768696c652068656176656e73207261696e206465737472756374696f6e2e006020830152565b60405190612e1282610215565b60168252753132b732b0ba341032b632b1ba3934b190333ab93c9760511b6020830152565b60405190612e4482610215565b601d82527f61732066726f7a656e2077696e64732074656172207265616c6974792e0000006020830152565b60405190612e7d82610215565b601f82527f7768696c6520666c616d657320636f6e73756d6520656e646c6573736c792e006020830152565b805160208092012090612eba61126c565b8051908201208203612ed05750506103a4612e70565b612ed8611334565b8051908201208203612eee5750506103a4612e37565b612ef6611567565b8051908201208203612f0c5750506103a4612e05565b612f14610e3e565b8051908201208203612f2a5750506103a4612dcc565b612f326114a9565b8051908201208203612f485750506103a4612d93565b612f5061160c565b8051908201208203612f665750506103a4612d5a565b612f6e6117df565b8051908201208203612f845750506103a4612d21565b612f8c611898565b8051908201208203612fa25750506103a4612ce8565b612faa6113ec565b805191012003612fbc576103a4612caf565b6103a4612c76565b90612fce8261032b565b612fdb6040519182610286565b8281528092612fec601f199161032b565b0190602036910137565b908151811015613007570160200190565b634e487b7160e01b600052603260045260246000fd5b80156130a2578060008082805b613086575061303881612fc4565b935b6130445750505090565b60001981019081116100ad578092600a91603083830681018091116100ad5760f81b6001600160f81b031916841a9061307d9087612ff6565b5304918261303a565b925060001981146100ad576001600a910192048084939161302a565b506040516130af81610215565b60018152600360fc1b602082015290565b604051906130cd82610215565b60098252684c6567656e6461727960b81b6020830152565b604051906130f282610215565b60068252654d797468696360d01b6020830152565b6040519061311482610215565b60048252634570696360e01b6020830152565b60ff60019116019060ff82116100ad57565b906001821480156133eb575b80156133e1575b80156133d7575b80156133cd575b80156133c3575b80156133b9575b80156133af575b80156133a5575b801561339b575b8015613390575b8015613385575b801561337a575b801561336f575b8015613364575b8015613359575b801561334e575b8015613343575b8015613338575b801561332d575b8015613322575b8015613317575b801561330c575b8015613301575b80156132f6575b80156132eb575b80156132e0575b80156132d5575b80156132ca575b80156132bf575b80156132b4575b80156132a9575b801561329e575b8015613293575b6132895760ff16906003821461327f5760028214613275576132486001916133f5565b9114613258575b6103a49061346e565b61326190613127565b600460ff8216111561324f5750600461324f565b50506103a4613107565b50506103a46130e5565b50506103a46130c0565b5061270f8214613225565b50611fc0821461321e565b50611e618214613217565b5061181e8214613210565b5061141e8214613209565b50610fed8214613202565b50610c4582146131fb565b5061088b82146131f4565b506106f082146131ed565b5061069c82146131e6565b506105d482146131df565b5061058082146131d8565b5061054382146131d1565b5061053982146131ca565b5061045782146131c3565b506103e882146131bc565b506103e782146131b5565b5061038f82146131ae565b5061030982146131a7565b5061029a82146131a0565b506102688214613199565b5061022b8214613192565b50610194821461318b565b5061014d8214613184565b5060d9821461317d565b5060bb8214613176565b50606f821461316f565b5060648214613168565b5060568214613161565b50602a821461315a565b5060178214613153565b50600d821461314c565b5060078214613145565b606490604051602081019182526020815261340f81610215565b51902006602881106134485760468110613442576055811061343c57605f1161343757600490565b600390565b50600290565b50600190565b50600090565b6040519061345b82610215565b60048252635261726560e01b6020830152565b60ff1680156134dd57600181146134b857600281146134af57600381146134a65760041461349e576103a46130e5565b6103a46130c0565b506103a4613107565b506103a461344e565b506040516134c581610215565b60088152672ab731b7b6b6b7b760c11b602082015290565b506040516134ea81610215565b600681526521b7b6b6b7b760d11b602082015290565b600281901b91906001600160fe1b038116036100ad57565b604051906135258261026b565b604082527f6768696a6b6c6d6e6f707172737475767778797a303132333435363738392b2f6040837f4142434445464748494a4b4c4d4e4f505152535455565758595a61626364656660208201520152565b805190811561366a5761359b61359661358f84610300565b6003900490565b613500565b916135ad6135a88461030e565b612fc4565b906135b6613518565b92600092602081015b84848110156136235790600491600380910196850101516001603f9080828460121c168b010151918a60ff9384848488600c1c1684010151168585600894868a60061c160101511691831b01821b01901b93168a010151160160e01b8152016135bf565b50935094935050600390068060011461365657600214613644575b50815290565b603d60f81b600019909101523861363e565b50613d3d60f01b600119909101523861363e565b50506103a46103d2565b6040519061368182610215565b60078252660233937bd32b7160cd1b6020830152565b604051906136a482610215565b6009825268024b73332b93730b6160bd1b6020830152565b604051906136c982610215565b6008825267021b934b6b9b7b7160c51b6020830152565b604051906136ed82610215565b600a825269021b7b9393ab83a32b2160b51b6020830152565b6040519061371382610215565b600582526402b37b4b2160dd1b6020830152565b6040519061373482610215565b600582526402630b9ba160dd1b6020830152565b6040519061375582610215565b600682526514da1a595b1960d21b6020830152565b6040519061377782610215565b600e82526d29b430b237bb9023b932b6b634b760911b6020830152565b604051906137a182610215565b600c82526b151c9a58985b0811dd585c9960a21b6020830152565b604051906137c982610215565b600b82526a21b0bb32902930b4b232b960a91b6020830152565b604051906137f082610215565b600f82526e29ba34ba31b432b2102437b93937b960891b6020830152565b6040519061381b82610215565b600e82526d2a37bc34b19021b932b0ba34b7b760911b6020830152565b6040519061384582610215565b600e82526d233632b9b41029b1bab6383a37b960911b6020830152565b6040519061386f82610215565b600e82526d536f756c2054656d70747265737360901b6020830152565b6040519061389982610215565b600c82526b223932b0b6902bb2b0bb32b960a11b6020830152565b604051906138c182610215565b600d82526c2232b9b4b9329026b0b4b232b760991b6020830152565b604051906138ea82610215565b600d82526c105b98da595b9d0811dd585c99609a1b6020830152565b6040519061391382610215565b600e82526d2232b9b2b93a102bb0b93934b7b960911b6020830152565b6040519061393d82610215565b600b82526a151bdb5888141c9a595cdd60aa1b6020830152565b6040519061396482610215565b600e82526d14da185b589b1a5b99c81119585960921b6020830152565b6040519061398e82610215565b600d82526c43757273656420436f7270736560981b6020830152565b604051906139b782610215565b600d82526c283630b3bab2902bb0b635b2b960991b6020830152565b604051906139e082610215565b600c82526b26b7b7b71029ba30b635b2b960a11b6020830152565b60405190613a0882610215565b600d82526c2132b0b9ba102bb0b93934b7b960991b6020830152565b60405190613a3182610215565b600a8252695061636b20416c70686160b01b6020830152565b60405190613a5782610215565b600a825269119a595b9908131bdc9960b21b6020830152565b60405190613a7d82610215565b600a82526948656c6c20426c61646560b01b6020830152565b60405190613aa382610215565b600c82526b233630b6b2902132b0b932b960a11b6020830152565b60405190613acb82610215565b600a825269486f6c6c6f77204f6e6560b01b6020830152565b60405190613af182610215565b600f82526e155b991958590814d95b9d1a5b995b608a1b6020830152565b60405190613b1c82610215565b600b82526a2137b732902932b0b832b960a91b6020830152565b60405190613b4382610215565b600e82526d22ba32b93730b610243ab73a32b960911b6020830152565b60405190613b6d82610215565b600a8252694e69676874204b696e6760b01b6020830152565b60405190613b9382610215565b600b82526a426c6f6f64204e6f626c6560a81b6020830152565b60405190613bba82610215565b600c82526b416e6369656e74205779726d60a01b6020830152565b60405190613be282610215565b600a825269111c985ad948131bdc9960b21b6020830152565b60405190613c0882610215565b600e82526d29b1b0b6329023bab0b93234b0b760911b6020830152565b60405190613c3282610215565b600b82526a15de5c9b4812db9a59da1d60aa1b6020830152565b906103a49293613cec9183516020809501209584815191012090848151910120613c74610e1a565b805190860120810361412e5750613c89613727565b955b613c93610dd7565b8051908601208103613d555750613ca86129bb565b8051908501208103613cfa5750610b95613cde613ccc613cc6613c25565b9361301d565b92610b95604051988997880190610470565b61202360f01b815260020190565b03601f198101835282610286565b613d02613748565b8051908501208103613d205750610b95613cde613ccc613cc6613bfb565b613d28610df9565b80519085012003613d4457610b95613cde613ccc613cc6613bd5565b610b95613cde613ccc613cc6613bad565b613d5d610f21565b8051908601208103613dc55750613d72610f44565b8051908501208103613d905750610b95613cde613ccc613cc6613b86565b613d98610df9565b80519085012003613db457610b95613cde613ccc613cc6613b60565b610b95613cde613ccc613cc6613b36565b613dcd611a34565b8051908601208103613e355750613de2611a58565b8051908501208103613e005750610b95613cde613ccc613cc6613b0f565b613e08613748565b80519085012003613e2457610b95613cde613ccc613cc6613ae4565b610b95613cde613ccc613cc6613abe565b613e3d61258b565b8051908601208103613ea55750613e52612830565b8051908501208103613e705750610b95613cde613ccc613cc6613a96565b613e786129bb565b80519085012003613e9457610b95613cde613ccc613cc6613a70565b610b95613cde613ccc613cc6613a4a565b613ead61106d565b8051908601208103613f155750613ec2611091565b8051908501208103613ee05750610b95613cde613ccc613cc6613a24565b613ee861118e565b80519085012003613f0457610b95613cde613ccc613cc66139fb565b610b95613cde613ccc613cc66139d3565b613f1d6125ac565b8051908601208103613f855750613f3261274d565b8051908501208103613f505750610b95613cde613ccc613cc66139aa565b613f58611091565b80519085012003613f7457610b95613cde613ccc613cc6613981565b610b95613cde613ccc613cc6613957565b613f8d6125ce565b8051908601208103613ff55750613fa26126ba565b8051908501208103613fc05750610b95613cde613ccc613cc6613930565b613fc86129bb565b80519085012003613fe457610b95613cde613ccc613cc6613906565b610b95613cde613ccc613cc66138dd565b613ffd6125ef565b80519086012081036140655750614012610f44565b80519085012081036140305750610b95613cde613ccc613cc66138b4565b6140386126ba565b8051908501200361405457610b95613cde613ccc613cc661388c565b610b95613cde613ccc613cc6613862565b61406d611166565b805190860120036140d35761408061118e565b805190850120810361409e5750610b95613cde613ccc613cc6613838565b6140a661274d565b805190850120036140c257610b95613cde613ccc613cc661380e565b610b95613cde613ccc613cc66137e3565b6140db6129bb565b80519085012081036140f95750610b95613cde613ccc613cc66137bc565b614101613748565b8051908501200361411d57610b95613cde613ccc613cc6613794565b610b95613cde613ccc613cc661376a565b6141366114ce565b8051908601208103614151575061414b613706565b95613c8b565b614159611631565b805190860120810361416e575061414b6136e0565b614176610f64565b805190860120810361418b575061414b6136bc565b61419361128f565b80519086012081036141a8575061414b613697565b6141b0611358565b805190860120036141c35761414b613674565b61414b6103d256fea2646970667358221220fc9971301e0c84202dd140cef0d2d8d71f42af95e5c39b83054753e52d64bef564736f6c63430008140033",
  "linkReferences": {},
  "deployedLinkReferences": {}
}