{
  "_format": "hh-sol-artifact-1",
  "contractName": "MetadataBankV5",
  "sourceName": "contracts/bank/MetadataBankV5.sol",
  "abi": [
    {
      "inputs": [
        {
          "internalType": "address",
          "name": "_metadataContract",
          "type": "address"
        }
      ],
      "stateMutability": "nonpayable",
      "type": "constructor"
    },
    {
      "inputs": [
        {
          "internalType": "uint256",
          "name": "index",
          "type": "uint256"
        }
      ],
      "name": "getMetadata",
      "outputs": [
        {
          "internalType": "string",
          "name": "",
          "type": "string"
        }
      ],
      "stateMutability": "view",
      "type": "function"
    },
    {
      "inputs": [],
      "name": "getMetadataCount",
      "outputs": [
        {
          "internalType": "uint256",
          "name": "",
          "type": "uint256"
        }
      ],
      "stateMutability": "view",
      "type": "function"
    },
    {
      "inputs": [],
      "name": "metadataContract",
      "outputs": [
        {
          "internalType": "address",
          "name": "",
          "type": "address"
        }
      ],
      "stateMutability": "view",
      "type": "function"
    }
  ],
  "bytecode": "0x60a03461007757601f61039638819003918201601f19168301916001600160401b0383118484101761007c5780849260209460405283398101031261007757516001600160a01b0381168103610077576080526040516103039081610093823960805181818160680152818161012201526102430152f35b600080fd5b634e487b7160e01b600052604160045260246000fdfe60806040818152600436101561001457600080fd5b600091823560e01c908163352098211461022f57508063a574cea4146100f35763b93f3f341461004357600080fd5b346100ef57816003193601126100ef578051632e4fcfcd60e21b8152906020826004817f00000000000000000000000000000000000000000000000000000000000000006001600160a01b03165afa9182156100e55783926100aa575b6020838351908152f35b9091506020813d82116100dd575b816100c560209383610295565b810103126100d957602092505190386100a0565b8280fd5b3d91506100b8565b81513d85823e3d90fd5b5080fd5b50346100ef576020806003193601126100d957815163295d33a960e21b815260048035908201529280846024817f00000000000000000000000000000000000000000000000000000000000000006001600160a01b03165afa90811561022457809161018a575b5061017c93508251938285938452825192818480938701528686019101610272565b601f01601f19168101030190f35b90503d8082863e61019b8186610295565b840190828583031261020d57845167ffffffffffffffff958682116100d957019082601f8301121561020d578151958611610210578451926101e6601f8801601f1916860185610295565b86845284878401011161020d575061017c9461020791848085019101610272565b3861015a565b80fd5b634e487b7160e01b81526041600452602490fd5b8351903d90823e3d90fd5b8390346100ef57816003193601126100ef577f00000000000000000000000000000000000000000000000000000000000000006001600160a01b03168152602090f35b60005b8381106102855750506000910152565b8181015183820152602001610275565b90601f8019910116810190811067ffffffffffffffff8211176102b757604052565b634e487b7160e01b600052604160045260246000fdfea2646970667358221220128c6cc3352af02f32cb204e4dca7867ef30ecaf16d78a247bae1f2dc0c2c52f64736f6c63430008140033",
  "linkReferences": {},
  "deployedLinkReferences": {}
}