{
  "_format": "hh-sol-artifact-1",
  "contractName": "ArweaveMonsterBank1",
  "sourceName": "contracts/ArweaveMonsterBank1.sol",
  "abi": [
    {
      "inputs": [
        {
          "internalType": "uint8",
          "name": "monsterId",
          "type": "uint8"
        }
      ],
      "name": "getMonsterName",
      "outputs": [
        {
          "internalType": "string",
          "name": "",
          "type": "string"
        }
      ],
      "stateMutability": "pure",
      "type": "function"
    },
    {
      "inputs": [
        {
          "internalType": "uint8",
          "name": "monsterId",
          "type": "uint8"
        }
      ],
      "name": "getMonsterSVG",
      "outputs": [
        {
          "internalType": "string",
          "name": "",
          "type": "string"
        }
      ],
      "stateMutability": "pure",
      "type": "function"
    }
  ],
  "bytecode": "0x6080806040523461001657613aa6908161001c8239f35b600080fdfe6080604052600436101561001257600080fd5b6000803560e01c80626b021614610070576336681e761461003257600080fd5b3461006d57602036600319011261006d576004359060ff8216820361006d5761006961005d83610156565b6040519182918261009c565b0390f35b80fd5b503461006d57602036600319011261006d576004359060ff8216820361006d5761006961005d8361391a565b6020808252825181830181905290939260005b8281106100d157505060409293506000838284010152601f8019910116010190565b8181018601518482016040015285016100af565b60405190604082018281106001600160401b038211176101085760405260068252565b634e487b7160e01b600052604160045260246000fd5b60609060208152601b60208201527f4d6f6e73746572204944206e6f7420696e20746869732062616e6b000000000060408201520190565b60ff168015612eab576001811461231c57600281146116095760038114610f0c5760041461019b5760405162461bcd60e51b8152806101976004820161011e565b0390fd5b604051610b4081018181106001600160401b0382111761010857604052610b058152600080516020613a518339815191526020820152600080516020613a3183398151915260408201527f7420783d22362220793d2231222077696474683d223222206865696768743d2260608201527f33222066696c6c3d2223384230303030222f3e3c7265637420783d223136222060808201527f793d2231222077696474683d223222206865696768743d2233222066696c6c3d60a08201527f2223384230303030222f3e3c7265637420783d22372220793d2232222077696460c08201527f74683d223122206865696768743d2232222066696c6c3d22234443313433432260e08201527f2f3e3c7265637420783d2231362220793d2232222077696474683d22312220686101008201527f65696768743d2232222066696c6c3d2223444331343343222f3e3c72656374206101208201527f783d2231312220793d2232222077696474683d223222206865696768743d22326101408201527f222066696c6c3d2223384230303030222f3e3c7265637420783d2231302220796101608201527f3d2233222077696474683d223422206865696768743d2231222066696c6c3d226101808201527f23384230303030222f3e3c7265637420783d22372220793d22342220776964746101a08201527f683d22313022206865696768743d2232222066696c6c3d2223324632463246226101c08201527f2f3e3c7265637420783d22352220793d2236222077696474683d2231342220686101e08201527f65696768743d2234222066696c6c3d2223324632463246222f3e3c72656374206102008201527f783d22372220793d2237222077696474683d223322206865696768743d2232226102208201527f2066696c6c3d2223464634353030222f3e3c7265637420783d2231342220793d6102408201527f2237222077696474683d223322206865696768743d2232222066696c6c3d22236102608201527f464634353030222f3e3c7265637420783d22382220793d2237222077696474686102808201527f3d223122206865696768743d2231222066696c6c3d2223464644373030222f3e6102a08201527f3c7265637420783d2231352220793d2237222077696474683d223122206865696102c08201527f6768743d2231222066696c6c3d2223464644373030222f3e3c7265637420783d6102e08201527f22342220793d2238222077696474683d223422206865696768743d22322220666103008201527f696c6c3d2223324632463246222f3e3c7265637420783d22352220793d2239226103208201527f2077696474683d223222206865696768743d2231222066696c6c3d22233143316103408201527f433143222f3e3c7265637420783d22322220793d2237222077696474683d22326103608201527f22206865696768743d2231222066696c6c3d2223464634353030222f3e3c72656103808201527f637420783d22312220793d2236222077696474683d223222206865696768743d6103a08201527f2231222066696c6c3d2223464641353030222f3e3c7265637420783d223222206103c08201527f793d2238222077696474683d223122206865696768743d2231222066696c6c3d6103e08201527f2223464644373030222f3e3c7265637420783d22382220793d223130222077696104008201527f6474683d223822206865696768743d2232222066696c6c3d22233246324632466104208201527f222f3e3c7265637420783d22362220793d223132222077696474683d223132226104408201527f206865696768743d2234222066696c6c3d2223324632463246222f3e3c7265636104608201527f7420783d22372220793d223136222077696474683d22313022206865696768746104808201527f3d2233222066696c6c3d2223324632463246222f3e3c7265637420783d2238226104a08201527f20793d223133222077696474683d223222206865696768743d2231222066696c6104c08201527f6c3d2223344134413441222f3e3c7265637420783d2231322220793d223133226104e08201527f2077696474683d223222206865696768743d2231222066696c6c3d22233441346105008201527f413441222f3e3c7265637420783d2231302220793d223134222077696474683d6105208201527f223222206865696768743d2231222066696c6c3d2223344134413441222f3e3c6105408201527f7265637420783d2231342220793d223134222077696474683d223222206865696105608201527f6768743d2231222066696c6c3d2223344134413441222f3e3c7265637420783d6105808201527f22392220793d223135222077696474683d223222206865696768743d223122206105a08201527f66696c6c3d2223344134413441222f3e3c7265637420783d2231332220793d226105c08201527f3135222077696474683d223222206865696768743d2231222066696c6c3d22236105e08201527f344134413441222f3e3c7265637420783d22322220793d2231312220776964746106008201527f683d223422206865696768743d2232222066696c6c3d2223384230303030222f6106208201527f3e3c7265637420783d2231382220793d223131222077696474683d22342220686106408201527f65696768743d2232222066696c6c3d2223384230303030222f3e3c72656374206106608201527f783d22312220793d223132222077696474683d223322206865696768743d22346106808201527f222066696c6c3d2223384230303030222f3e3c7265637420783d2232302220796106a08201527f3d223132222077696474683d223322206865696768743d2234222066696c6c3d6106c08201527f2223384230303030222f3e3c7265637420783d22302220793d223133222077696106e08201527f6474683d223222206865696768743d2232222066696c6c3d22234443313433436107008201527f222f3e3c7265637420783d2232322220793d223133222077696474683d2232226107208201527f206865696768743d2232222066696c6c3d2223444331343343222f3e3c7265636107408201527f7420783d22392220793d223131222077696474683d223122206865696768743d6107608201527f2232222066696c6c3d2223384230303030222f3e3c7265637420783d223132226107808201527f20793d223131222077696474683d223122206865696768743d2232222066696c6107a08201527f6c3d2223384230303030222f3e3c7265637420783d2231352220793d223131226107c08201527f2077696474683d223122206865696768743d2232222066696c6c3d22233842306107e08201527f303030222f3e3c7265637420783d22372220793d223139222077696474683d226108008201527f3322206865696768743d2232222066696c6c3d2223324632463246222f3e3c726108208201527f65637420783d2231342220793d223139222077696474683d22332220686569676108408201527f68743d2232222066696c6c3d2223324632463246222f3e3c7265637420783d226108608201527f362220793d223231222077696474683d223122206865696768743d22322220666108808201527f696c6c3d2223443344334433222f3e3c7265637420783d22372220793d2232316108a08201527f222077696474683d223122206865696768743d2232222066696c6c3d222344336108c08201527f44334433222f3e3c7265637420783d22382220793d223231222077696474683d6108e08201527f223122206865696768743d2232222066696c6c3d2223443344334433222f3e3c6109008201527f7265637420783d22392220793d223231222077696474683d22312220686569676109208201527f68743d2232222066696c6c3d2223443344334433222f3e3c7265637420783d226109408201527f31342220793d223231222077696474683d223122206865696768743d223222206109608201527f66696c6c3d2223443344334433222f3e3c7265637420783d2231352220793d226109808201527f3231222077696474683d223122206865696768743d2232222066696c6c3d22236109a08201527f443344334433222f3e3c7265637420783d2231362220793d22323122207769646109c08201527f74683d223122206865696768743d2232222066696c6c3d2223443344334433226109e08201527f2f3e3c7265637420783d2231372220793d223231222077696474683d22312220610a008201527f6865696768743d2232222066696c6c3d2223443344334433222f3e3c72656374610a208201527f20783d2231372220793d223137222077696474683d223322206865696768743d610a408201527f2232222066696c6c3d2223324632463246222f3e3c7265637420783d22313922610a608201527f20793d223138222077696474683d223222206865696768743d2232222066696c610a808201527f6c3d2223324632463246222f3e3c7265637420783d2232302220793d22313922610aa08201527f2077696474683d223222206865696768743d2231222066696c6c3d2223324632610ac08201527f463246222f3e3c7265637420783d2232312220793d223139222077696474683d610ae08201527f223122206865696768743d2231222066696c6c3d2223384230303030222f3e3c610b008201526417b9bb339f60d91b610b2082015290565b506040516105e081018181106001600160401b03821117610108576040526105bc8152600080516020613a518339815191526020820152600080516020613a3183398151915260408201527f7420783d22362220793d2232222077696474683d223222206865696768743d2260608201527f33222066696c6c3d2223384230303030222f3e3c7265637420783d223136222060808201527f793d2232222077696474683d223222206865696768743d2233222066696c6c3d60a08201527f2223384230303030222f3e3c7265637420783d22352220793d2233222077696460c08201527f74683d223122206865696768743d2232222066696c6c3d22233842303030302260e08201527f2f3e3c7265637420783d2231382220793d2233222077696474683d22312220686101008201527f65696768743d2232222066696c6c3d2223384230303030222f3e3c72656374206101208201527f783d22372220793d2235222077696474683d22313022206865696768743d22386101408201527f222066696c6c3d2223444331343343222f3e3c7265637420783d22362220793d6101608201527f2236222077696474683d223122206865696768743d2236222066696c6c3d22236101808201527f444331343343222f3e3c7265637420783d2231372220793d22362220776964746101a08201527f683d223122206865696768743d2236222066696c6c3d2223444331343343222f6101c08201527f3e3c7265637420783d22382220793d2237222077696474683d223322206865696101e08201527f6768743d2232222066696c6c3d2223464646463030222f3e3c7265637420783d6102008201527f2231332220793d2237222077696474683d223322206865696768743d223222206102208201527f66696c6c3d2223464646463030222f3e3c7265637420783d22392220793d22386102408201527f222077696474683d223122206865696768743d2231222066696c6c3d222330306102608201527f30303030222f3e3c7265637420783d2231342220793d2238222077696474683d6102808201527f223122206865696768743d2231222066696c6c3d2223303030303030222f3e3c6102a08201527f7265637420783d22392220793d223130222077696474683d22362220686569676102c08201527f68743d2231222066696c6c3d2223303030303030222f3e3c7265637420783d226102e08201527f392220793d223131222077696474683d223122206865696768743d22312220666103008201527f696c6c3d2223464646464646222f3e3c7265637420783d2231342220793d22316103208201527f31222077696474683d223122206865696768743d2231222066696c6c3d2223466103408201527f4646464646222f3e3c7265637420783d22362220793d223133222077696474686103608201527f3d22313222206865696768743d2236222066696c6c3d2223444331343343222f6103808201527f3e3c7265637420783d22352220793d223134222077696474683d2231222068656103a08201527f696768743d2234222066696c6c3d2223444331343343222f3e3c7265637420786103c08201527f3d2231382220793d223134222077696474683d223122206865696768743d22346103e08201527f222066696c6c3d2223444331343343222f3e3c7265637420783d22332220793d6104008201527f223132222077696474683d223222206865696768743d2235222066696c6c3d226104208201527f23344230303030222f3e3c7265637420783d2231392220793d223132222077696104408201527f6474683d223222206865696768743d2235222066696c6c3d22233442303030306104608201527f222f3e3c7265637420783d22322220793d223133222077696474683d223122206104808201527f6865696768743d2233222066696c6c3d2223344230303030222f3e3c726563746104a08201527f20783d2232312220793d223133222077696474683d223122206865696768743d6104c08201527f2233222066696c6c3d2223344230303030222f3e3c7265637420783d223722206104e08201527f793d223139222077696474683d223322206865696768743d2233222066696c6c6105008201527f3d2223444331343343222f3e3c7265637420783d2231342220793d22313922206105208201527f77696474683d223322206865696768743d2233222066696c6c3d2223444331346105408201527f3343222f3e3c7265637420783d22382220793d223232222077696474683d22326105608201527f22206865696768743d2231222066696c6c3d2223344230303030222f3e3c72656105808201527f637420783d2231352220793d223232222077696474683d2232222068656967686105a08201527f743d2231222066696c6c3d2223344230303030222f3e3c2f7376673e000000006105c082015290565b50604051610b4081018181106001600160401b0382111761010857604052610b068152600080516020613a518339815191526020820152600080516020613a3183398151915260408201527f7420783d22372220793d2230222077696474683d22313022206865696768743d60608201527f2232222066696c6c3d2223314331433143222f3e3c7265637420783d2236222060808201527f793d2231222077696474683d22313222206865696768743d2231222066696c6c60a08201527f3d2223314331433143222f3e3c7265637420783d22362220793d22322220776960c08201527f6474683d22313222206865696768743d2232222066696c6c3d2223373038303960e08201527f30222f3e3c7265637420783d22362220793d2234222077696474683d223132226101008201527f206865696768743d2236222066696c6c3d2223373038303930222f3e3c7265636101208201527f7420783d22362220793d223130222077696474683d22313222206865696768746101408201527f3d2232222066696c6c3d2223373038303930222f3e3c7265637420783d2237226101608201527f20793d223131222077696474683d22313022206865696768743d2231222066696101808201527f6c6c3d2223373038303930222f3e3c7265637420783d22342220793d223722206101a08201527f77696474683d223222206865696768743d2232222066696c6c3d2223433043306101c08201527f4330222f3e3c7265637420783d2231382220793d2237222077696474683d22326101e08201527f22206865696768743d2232222066696c6c3d2223433043304330222f3e3c72656102008201527f637420783d22332220793d2237222077696474683d223122206865696768743d6102208201527f2232222066696c6c3d2223383038303830222f3e3c7265637420783d223230226102408201527f20793d2237222077696474683d223122206865696768743d2232222066696c6c6102608201527f3d2223383038303830222f3e3c7265637420783d22382220793d2233222077696102808201527f6474683d223322206865696768743d2231222066696c6c3d22233246324632466102a08201527f222f3e3c7265637420783d2231322220793d2233222077696474683d223322206102c08201527f6865696768743d2231222066696c6c3d2223324632463246222f3e3c72656374806102e08301527f20783d2231312220793d2232222077696474683d223122206865696768743d226103008301527f32222066696c6c3d2223324632463246222f3e3c7265637420783d22372220796103208301527f3d2236222077696474683d223322206865696768743d2232222066696c6c3d226103408301527f23314331433143222f3e3c7265637420783d2231342220793d223622207769646103608301527f74683d223322206865696768743d2232222066696c6c3d2223314331433143226103808301527f2f3e3c7265637420783d22382220793d2236222077696474683d2231222068656103a08301527f696768743d2231222066696c6c3d2223463546354443222f3e3c7265637420786103c08301527f3d2231352220793d2236222077696474683d223122206865696768743d2231226103e08301527f2066696c6c3d2223463546354443222f3e3c7265637420783d2231312220793d6104008301527f2238222077696474683d223222206865696768743d2231222066696c6c3d22236104208301527f324632463246222f3e3c7265637420783d22392220793d2231302220776964746104408301527f683d223622206865696768743d2231222066696c6c3d2223314331433143222f6104608301527f3e3c7265637420783d22382220793d2239222077696474683d223122206865696104808301527f6768743d2231222066696c6c3d2223324632463246222f3e3c7265637420783d806104a08401527f2231302220793d2239222077696474683d223122206865696768743d223122206104c08401527f66696c6c3d2223324632463246222f3e3c7265637420783d2231322220793d226104e08401527f39222077696474683d223122206865696768743d2231222066696c6c3d2223326105008401527f4632463246222f3e3c7265637420783d2231342220793d2239222077696474686105208401527f3d223122206865696768743d2231222066696c6c3d2223324632463246222f3e6105408401527f3c7265637420783d2231352220793d2239222077696474683d223122206865696105608401526105808301527f22382220793d223132222077696474683d223822206865696768743d223222206105a08301527f66696c6c3d2223373038303930222f3e3c7265637420783d2231302220793d226105c08301527f3132222077696474683d223122206865696768743d2231222066696c6c3d22236105e08301527f324632463246222f3e3c7265637420783d2231332220793d22313322207769646106008301527f74683d223122206865696768743d2231222066696c6c3d222332463246324622806106208401527f2f3e3c7265637420783d22362220793d223134222077696474683d22313222206106408401527f6865696768743d2234222066696c6c3d2223314331433143222f3e3c726563746106608401527f20783d22372220793d223138222077696474683d22313022206865696768743d6106808401527f2232222066696c6c3d2223314331433143222f3e3c7265637420783d223722206106a08401527f793d223134222077696474683d223322206865696768743d2232222066696c6c6106c08401527f3d2223324632463246222f3e3c7265637420783d2231342220793d22313422206106e08401527f77696474683d223322206865696768743d2232222066696c6c3d2223324632466107008401527f3246222f3e3c7265637420783d2231302220793d223134222077696474683d226107208401527f3422206865696768743d2233222066696c6c3d2223423232323232222f3e3c726107408401527f65637420783d2231312220793d223137222077696474683d22322220686569676107608401527f68743d2231222066696c6c3d2223423232323232222f3e3c7265637420783d226107808401527f332220793d223134222077696474683d223322206865696768743d22322220666107a08401527f696c6c3d2223314331433143222f3e3c7265637420783d2231382220793d22316107c08401527f34222077696474683d223322206865696768743d2232222066696c6c3d2223316107e08401527f4331433143222f3e3c7265637420783d22322220793d223136222077696474686108008401527f3d223322206865696768743d2233222066696c6c3d2223314331433143222f3e6108208401527f3c7265637420783d2231392220793d223136222077696474683d2233222068656108408401527f696768743d2233222066696c6c3d2223314331433143222f3e3c7265637420786108608401527f3d22322220793d223139222077696474683d223322206865696768743d2231226108808401527f2066696c6c3d2223373038303930222f3e3c7265637420783d2231392220793d6108a08401527f223139222077696474683d223322206865696768743d2231222066696c6c3d226108c08401527f23373038303930222f3e3c7265637420783d22332220793d22313722207769646108e08401526109008301527f2f3e3c7265637420783d2232302220793d223137222077696474683d223122206109208301526109408201527f20783d22322220793d223230222077696474683d223322206865696768743d226109608201527f32222066696c6c3d2223373038303930222f3e3c7265637420783d22313922206109808201527f793d223230222077696474683d223322206865696768743d2232222066696c6c6109a08201527f3d2223373038303930222f3e3c7265637420783d22382220793d2232302220776109c08201527f696474683d223322206865696768743d2232222066696c6c3d222334363832426109e08201527f34222f3e3c7265637420783d2231332220793d223230222077696474683d2233610a008201527f22206865696768743d2232222066696c6c3d2223343638324234222f3e3c7265610a208201527f637420783d2231312220793d223230222077696474683d223122206865696768610a408201527f743d2232222066696c6c3d2223313931393730222f3e3c7265637420783d2231610a608201527f322220793d223230222077696474683d223122206865696768743d2232222066610a808201527f696c6c3d2223313931393730222f3e3c7265637420783d22382220793d223232610aa08201527f222077696474683d223322206865696768743d2231222066696c6c3d22233246610ac08201527f32463246222f3e3c7265637420783d2231332220793d22323222207769647468610ae08201527f3d223322206865696768743d2231222066696c6c3d2223324632463246222f3e610b00820152651e17b9bb339f60d11b610b2082015290565b506040516109a081018181106001600160401b038211176101085760405261097d8152600080516020613a518339815191526020820152600080516020613a3183398151915260408201527f7420783d22332220793d2235222077696474683d223222206865696768743d2260608201527f32222066696c6c3d2223324634463246222f3e3c7265637420783d223422207960808201527f3d2236222077696474683d223222206865696768743d2233222066696c6c3d2260a08201527f23324634463246222f3e3c7265637420783d22352220793d223722207769647460c08201527f683d223122206865696768743d2232222066696c6c3d2223334342333731222f60e08201527f3e3c7265637420783d2231392220793d2235222077696474683d2232222068656101008201527f696768743d2232222066696c6c3d2223324634463246222f3e3c7265637420786101208201527f3d2231382220793d2236222077696474683d223222206865696768743d2233226101408201527f2066696c6c3d2223324634463246222f3e3c7265637420783d2231382220793d6101608201527f2237222077696474683d223122206865696768743d2232222066696c6c3d22236101808201527f334342333731222f3e3c7265637420783d22362220793d2234222077696474686101a08201527f3d22313222206865696768743d2232222066696c6c3d2223324634463246222f6101c08201527f3e3c7265637420783d22352220793d2236222077696474683d223134222068656101e08201527f696768743d2233222066696c6c3d2223324634463246222f3e3c7265637420786102008201527f3d22362220793d2239222077696474683d22313222206865696768743d2233226102208201527f2066696c6c3d2223324634463246222f3e3c7265637420783d22382220793d226102408201527f37222077696474683d223322206865696768743d2232222066696c6c3d2223446102608201527f4331343343222f3e3c7265637420783d2231332220793d2237222077696474686102808201527f3d223322206865696768743d2232222066696c6c3d2223444331343343222f3e6102a08201527f3c7265637420783d22392220793d2237222077696474683d22312220686569676102c08201527f68743d2231222066696c6c3d2223464641353030222f3e3c7265637420783d226102e08201527f31342220793d2237222077696474683d223122206865696768743d22312220666103008201527f696c6c3d2223464641353030222f3e3c7265637420783d2231312220793d22396103208201527f222077696474683d223222206865696768743d2232222066696c6c3d222331436103408201527f31433143222f3e3c7265637420783d2231302220793d223130222077696474686103608201527f3d223122206865696768743d2231222066696c6c3d2223314331433143222f3e6103808201527f3c7265637420783d2231332220793d223130222077696474683d2231222068656103a08201527f696768743d2231222066696c6c3d2223314331433143222f3e3c7265637420786103c08201527f3d22392220793d223131222077696474683d223622206865696768743d2231226103e08201527f2066696c6c3d2223314331433143222f3e3c7265637420783d22382220793d226104008201527f3132222077696474683d223822206865696768743d2231222066696c6c3d22236104208201527f324634463246222f3e3c7265637420783d22392220793d2231312220776964746104408201527f683d223122206865696768743d2232222066696c6c3d2223463546354635222f6104608201527f3e3c7265637420783d2231312220793d223131222077696474683d22312220686104808201527f65696768743d2232222066696c6c3d2223463546354635222f3e3c72656374206104a08201527f783d2231332220793d223131222077696474683d223122206865696768743d226104c08201527f32222066696c6c3d2223463546354635222f3e3c7265637420783d22313422206104e08201527f793d223131222077696474683d223122206865696768743d2232222066696c6c6105008201527f3d2223463546354635222f3e3c7265637420783d2231302220793d22313322206105208201527f77696474683d223422206865696768743d2231222066696c6c3d2223324634466105408201527f3246222f3e3c7265637420783d22372220793d223134222077696474683d22316105608201527f3022206865696768743d2234222066696c6c3d2223324634463246222f3e3c726105808201527f65637420783d22382220793d223138222077696474683d2238222068656967686105a08201527f743d2232222066696c6c3d2223324634463246222f3e3c7265637420783d22396105c08201527f2220793d223135222077696474683d223622206865696768743d2231222066696105e08201527f6c6c3d2223334342333731222f3e3c7265637420783d2231302220793d2231376106008201527f222077696474683d223422206865696768743d2231222066696c6c3d222333436106208201527f42333731222f3e3c7265637420783d2231322220793d223136222077696474686106408201527f3d223322206865696768743d2231222066696c6c3d2223314331433143222f3e6106608201527f3c7265637420783d22342220793d223134222077696474683d223322206865696106808201527f6768743d2232222066696c6c3d2223324634463246222f3e3c7265637420783d6106a08201527f2231372220793d223134222077696474683d223322206865696768743d2232226106c08201527f2066696c6c3d2223324634463246222f3e3c7265637420783d22332220793d226106e08201527f3136222077696474683d223322206865696768743d2233222066696c6c3d22236107008201527f324634463246222f3e3c7265637420783d2231382220793d22313622207769646107208201527f74683d223322206865696768743d2233222066696c6c3d2223324634463246226107408201527f2f3e3c7265637420783d22322220793d223138222077696474683d22312220686107608201527f65696768743d2232222066696c6c3d2223443344334433222f3e3c72656374206107808201527f783d22332220793d223139222077696474683d223122206865696768743d22326107a08201527f222066696c6c3d2223443344334433222f3e3c7265637420783d22342220793d6107c08201527f223139222077696474683d223122206865696768743d2232222066696c6c3d226107e08201527f23443344334433222f3e3c7265637420783d2231392220793d223139222077696108008201527f6474683d223122206865696768743d2232222066696c6c3d22234433443344336108208201527f222f3e3c7265637420783d2232302220793d223139222077696474683d2231226108408201527f206865696768743d2232222066696c6c3d2223443344334433222f3e3c7265636108608201527f7420783d2232312220793d223138222077696474683d223122206865696768746108808201527f3d2232222066696c6c3d2223443344334433222f3e3c7265637420783d2238226108a08201527f20793d223230222077696474683d223322206865696768743d2232222066696c6108c08201527f6c3d2223324634463246222f3e3c7265637420783d2231332220793d223230226108e08201527f2077696474683d223322206865696768743d2232222066696c6c3d22233246346109008201527f463246222f3e3c7265637420783d22382220793d223232222077696474683d226109208201527f3322206865696768743d2231222066696c6c3d2223314331433143222f3e3c726109408201527f65637420783d2231332220793d223232222077696474683d22332220686569676109608201527f68743d2231222066696c6c3d2223314331433143222f3e3c2f7376673e00000061098082015290565b506040516108c081018181106001600160401b038211176101085760405261088e8152600080516020613a518339815191526020820152600080516020613a3183398151915260408201527f7420783d22362220793d2232222077696474683d223222206865696768743d2260608201527f35222066696c6c3d2223344134413441222f3e3c7265637420783d223136222060808201527f793d2232222077696474683d223222206865696768743d2235222066696c6c3d60a08201527f2223344134413441222f3e3c7265637420783d22372220793d2233222077696460c08201527f74683d223122206865696768743d2233222066696c6c3d22233639363936392260e08201527f2f3e3c7265637420783d2231362220793d2233222077696474683d22312220686101008201527f65696768743d2233222066696c6c3d2223363936393639222f3e3c72656374206101208201527f783d22372220793d2235222077696474683d22313022206865696768743d22326101408201527f222066696c6c3d2223344134413441222f3e3c7265637420783d22362220793d6101608201527f2237222077696474683d22313222206865696768743d2233222066696c6c3d226101808201527f23344134413441222f3e3c7265637420783d22342220793d22392220776964746101a08201527f683d223522206865696768743d2232222066696c6c3d2223344134413441222f6101c08201527f3e3c7265637420783d22352220793d223130222077696474683d2233222068656101e08201527f696768743d2231222066696c6c3d2223363936393639222f3e3c7265637420786102008201527f3d22392220793d2239222077696474683d223822206865696768743d223322206102208201527f66696c6c3d2223344134413441222f3e3c7265637420783d22382220793d22376102408201527f222077696474683d223322206865696768743d2232222066696c6c3d222344436102608201527f31343343222f3e3c7265637420783d2231332220793d2237222077696474683d6102808201527f223322206865696768743d2232222066696c6c3d2223444331343343222f3e3c6102a08201527f7265637420783d22392220793d2237222077696474683d2231222068656967686102c08201527f743d2231222066696c6c3d2223464646222f3e3c7265637420783d22313422206102e08201527f793d2237222077696474683d223122206865696768743d2231222066696c6c3d6103008201527f2223464646222f3e3c7265637420783d22352220793d223130222077696474686103208201527f3d223222206865696768743d2231222066696c6c3d2223303030222f3e3c72656103408201527f637420783d22362220793d223131222077696474683d223622206865696768746103608201527f3d2231222066696c6c3d2223324632463246222f3e3c7265637420783d2237226103808201527f20793d223131222077696474683d223122206865696768743d2232222066696c6103a08201527f6c3d2223463546354635222f3e3c7265637420783d22392220793d22313122206103c08201527f77696474683d223122206865696768743d2232222066696c6c3d2223463546356103e08201527f4635222f3e3c7265637420783d2231312220793d223131222077696474683d226104008201527f3122206865696768743d2232222066696c6c3d2223463546354635222f3e3c726104208201527f65637420783d22392220793d223132222077696474683d2236222068656967686104408201527f743d2232222066696c6c3d2223344134413441222f3e3c7265637420783d22376104608201527f2220793d223134222077696474683d22313022206865696768743d22342220666104808201527f696c6c3d2223344134413441222f3e3c7265637420783d22382220793d2231386104a08201527f222077696474683d223822206865696768743d2232222066696c6c3d222334416104c08201527f34413441222f3e3c7265637420783d22392220793d223135222077696474683d6104e08201527f223222206865696768743d2232222066696c6c3d2223363936393639222f3e3c6105008201527f7265637420783d2231332220793d223135222077696474683d223222206865696105208201527f6768743d2232222066696c6c3d2223363936393639222f3e3c7265637420783d6105408201527f2231312220793d223136222077696474683d223222206865696768743d2232226105608201527f2066696c6c3d2223363936393639222f3e3c7265637420783d22352220793d226105808201527f3134222077696474683d223222206865696768743d2235222066696c6c3d22236105a08201527f344134413441222f3e3c7265637420783d2231372220793d22313422207769646105c08201527f74683d223222206865696768743d2235222066696c6c3d2223344134413441226105e08201527f2f3e3c7265637420783d22342220793d223136222077696474683d22332220686106008201527f65696768743d2232222066696c6c3d2223344134413441222f3e3c72656374206106208201527f783d2231372220793d223136222077696474683d223322206865696768743d226106408201527f32222066696c6c3d2223344134413441222f3e3c7265637420783d22332220796106608201527f3d223137222077696474683d223122206865696768743d2232222066696c6c3d6106808201527f2223443344334433222f3e3c7265637420783d22342220793d223138222077696106a08201527f6474683d223122206865696768743d2232222066696c6c3d22234433443344336106c08201527f222f3e3c7265637420783d22352220793d223138222077696474683d223122206106e08201527f6865696768743d2232222066696c6c3d2223443344334433222f3e3c726563746107008201527f20783d2231392220793d223138222077696474683d223122206865696768743d6107208201527f2232222066696c6c3d2223443344334433222f3e3c7265637420783d223230226107408201527f20793d223137222077696474683d223122206865696768743d2232222066696c6107608201527f6c3d2223443344334433222f3e3c7265637420783d2231382220793d223138226107808201527f2077696474683d223122206865696768743d2232222066696c6c3d22234433446107a08201527f334433222f3e3c7265637420783d22382220793d223139222077696474683d226107c08201527f3322206865696768743d2233222066696c6c3d2223344134413441222f3e3c726107e08201527f65637420783d2231332220793d223139222077696474683d22332220686569676108008201527f68743d2233222066696c6c3d2223344134413441222f3e3c7265637420783d226108208201527f382220793d223232222077696474683d223322206865696768743d22312220666108408201527f696c6c3d2223324632463246222f3e3c7265637420783d2231332220793d22326108608201527f32222077696474683d223322206865696768743d2231222066696c6c3d2223326108808201526d231923192311179f1e17b9bb339f60911b6108a082015290565b60ff1680156139fb57600181146139e057600281146139a757600381146139755760041461395b5760405162461bcd60e51b8152806101976004820161011e565b6139636100e5565b65223930b3b7b760d11b602082015290565b50604051604081018181106001600160401b038211176101085760405260058152642232b6b7b760d91b602082015290565b50604051604081018181106001600160401b0382111761010857604052600c81526b233930b735b2b739ba32b4b760a11b602082015290565b506139e96100e5565b6523b7b13634b760d11b602082015290565b50604051604081018181106001600160401b038211176101085760405260088152672bb2b932bbb7b63360c11b60208201529056fe687474703a2f2f7777772e77332e6f72672f323030302f737667223e3c7265633c7376672076696577426f783d223020302032342032342220786d6c6e733d22a26469706673582212201114d63374caa18622d4e7a51f8be7781909fb075ed046cce7482a1a0ec10d3164736f6c63430008140033",
  "linkReferences": {},
  "deployedLinkReferences": {}
}