{
  "_format": "hh-sol-artifact-1",
  "contractName": "TragedyBankedNFT",
  "sourceName": "contracts/TragedyBankedNFT.sol",
  "abi": [
    {
      "inputs": [
        {
          "internalType": "address",
          "name": "_metadataBank",
          "type": "address"
        }
      ],
      "stateMutability": "nonpayable",
      "type": "constructor"
    },
    {
      "inputs": [],
      "name": "ERC721EnumerableForbiddenBatchMint",
      "type": "error"
    },
    {
      "inputs": [
        {
          "internalType": "address",
          "name": "sender",
          "type": "address"
        },
        {
          "internalType": "uint256",
          "name": "tokenId",
          "type": "uint256"
        },
        {
          "internalType": "address",
          "name": "owner",
          "type": "address"
        }
      ],
      "name": "ERC721IncorrectOwner",
      "type": "error"
    },
    {
      "inputs": [
        {
          "internalType": "address",
          "name": "operator",
          "type": "address"
        },
        {
          "internalType": "uint256",
          "name": "tokenId",
          "type": "uint256"
        }
      ],
      "name": "ERC721InsufficientApproval",
      "type": "error"
    },
    {
      "inputs": [
        {
          "internalType": "address",
          "name": "approver",
          "type": "address"
        }
      ],
      "name": "ERC721InvalidApprover",
      "type": "error"
    },
    {
      "inputs": [
        {
          "internalType": "address",
          "name": "operator",
          "type": "address"
        }
      ],
      "name": "ERC721InvalidOperator",
      "type": "error"
    },
    {
      "inputs": [
        {
          "internalType": "address",
          "name": "owner",
          "type": "address"
        }
      ],
      "name": "ERC721InvalidOwner",
      "type": "error"
    },
    {
      "inputs": [
        {
          "internalType": "address",
          "name": "receiver",
          "type": "address"
        }
      ],
      "name": "ERC721InvalidReceiver",
      "type": "error"
    },
    {
      "inputs": [
        {
          "internalType": "address",
          "name": "sender",
          "type": "address"
        }
      ],
      "name": "ERC721InvalidSender",
      "type": "error"
    },
    {
      "inputs": [
        {
          "internalType": "uint256",
          "name": "tokenId",
          "type": "uint256"
        }
      ],
      "name": "ERC721NonexistentToken",
      "type": "error"
    },
    {
      "inputs": [
        {
          "internalType": "address",
          "name": "owner",
          "type": "address"
        },
        {
          "internalType": "uint256",
          "name": "index",
          "type": "uint256"
        }
      ],
      "name": "ERC721OutOfBoundsIndex",
      "type": "error"
    },
    {
      "inputs": [],
      "name": "InsufficientMintFee",
      "type": "error"
    },
    {
      "inputs": [],
      "name": "InvalidMaxSupply",
      "type": "error"
    },
    {
      "inputs": [],
      "name": "MaxSupplyReached",
      "type": "error"
    },
    {
      "inputs": [],
      "name": "MetadataBankNotSet",
      "type": "error"
    },
    {
      "inputs": [],
      "name": "NoBalanceToWithdraw",
      "type": "error"
    },
    {
      "inputs": [],
      "name": "NotOwnerOrApproved",
      "type": "error"
    },
    {
      "inputs": [],
      "name": "OnlyOwner",
      "type": "error"
    },
    {
      "inputs": [],
      "name": "TokenIsSoulBound",
      "type": "error"
    },
    {
      "inputs": [],
      "name": "TransferFailed",
      "type": "error"
    },
    {
      "anonymous": false,
      "inputs": [
        {
          "indexed": true,
          "internalType": "address",
          "name": "owner",
          "type": "address"
        },
        {
          "indexed": true,
          "internalType": "address",
          "name": "approved",
          "type": "address"
        },
        {
          "indexed": true,
          "internalType": "uint256",
          "name": "tokenId",
          "type": "uint256"
        }
      ],
      "name": "Approval",
      "type": "event"
    },
    {
      "anonymous": false,
      "inputs": [
        {
          "indexed": true,
          "internalType": "address",
          "name": "owner",
          "type": "address"
        },
        {
          "indexed": true,
          "internalType": "address",
          "name": "operator",
          "type": "address"
        },
        {
          "indexed": false,
          "internalType": "bool",
          "name": "approved",
          "type": "bool"
        }
      ],
      "name": "ApprovalForAll",
      "type": "event"
    },
    {
      "anonymous": false,
      "inputs": [
        {
          "indexed": false,
          "internalType": "string",
          "name": "name",
          "type": "string"
        },
        {
          "indexed": false,
          "internalType": "string",
          "name": "symbol",
          "type": "string"
        },
        {
          "indexed": false,
          "internalType": "uint256",
          "name": "mintFee",
          "type": "uint256"
        },
        {
          "indexed": false,
          "internalType": "uint256",
          "name": "royaltyRate",
          "type": "uint256"
        }
      ],
      "name": "ConfigUpdated",
      "type": "event"
    },
    {
      "anonymous": false,
      "inputs": [
        {
          "indexed": true,
          "internalType": "uint256",
          "name": "tokenId",
          "type": "uint256"
        }
      ],
      "name": "NFTBurned",
      "type": "event"
    },
    {
      "anonymous": false,
      "inputs": [
        {
          "indexed": true,
          "internalType": "address",
          "name": "to",
          "type": "address"
        },
        {
          "indexed": true,
          "internalType": "uint256",
          "name": "tokenId",
          "type": "uint256"
        },
        {
          "indexed": true,
          "internalType": "address",
          "name": "creator",
          "type": "address"
        },
        {
          "indexed": false,
          "internalType": "string",
          "name": "metadataURI",
          "type": "string"
        }
      ],
      "name": "NFTMinted",
      "type": "event"
    },
    {
      "anonymous": false,
      "inputs": [
        {
          "indexed": true,
          "internalType": "address",
          "name": "from",
          "type": "address"
        },
        {
          "indexed": false,
          "internalType": "uint256",
          "name": "amount",
          "type": "uint256"
        }
      ],
      "name": "ReceivedEther",
      "type": "event"
    },
    {
      "anonymous": false,
      "inputs": [
        {
          "indexed": true,
          "internalType": "address",
          "name": "to",
          "type": "address"
        },
        {
          "indexed": true,
          "internalType": "uint256",
          "name": "tokenId",
          "type": "uint256"
        },
        {
          "indexed": true,
          "internalType": "address",
          "name": "creator",
          "type": "address"
        },
        {
          "indexed": false,
          "internalType": "string",
          "name": "metadataURI",
          "type": "string"
        }
      ],
      "name": "SoulBoundNFTMinted",
      "type": "event"
    },
    {
      "anonymous": false,
      "inputs": [
        {
          "indexed": true,
          "internalType": "address",
          "name": "from",
          "type": "address"
        },
        {
          "indexed": true,
          "internalType": "address",
          "name": "to",
          "type": "address"
        },
        {
          "indexed": true,
          "internalType": "uint256",
          "name": "tokenId",
          "type": "uint256"
        }
      ],
      "name": "Transfer",
      "type": "event"
    },
    {
      "anonymous": false,
      "inputs": [
        {
          "indexed": true,
          "internalType": "address",
          "name": "owner",
          "type": "address"
        },
        {
          "indexed": false,
          "internalType": "uint256",
          "name": "amount",
          "type": "uint256"
        }
      ],
      "name": "Withdrawn",
      "type": "event"
    },
    {
      "inputs": [
        {
          "internalType": "address",
          "name": "to",
          "type": "address"
        }
      ],
      "name": "airdrop",
      "outputs": [
        {
          "internalType": "uint256",
          "name": "",
          "type": "uint256"
        }
      ],
      "stateMutability": "nonpayable",
      "type": "function"
    },
    {
      "inputs": [
        {
          "internalType": "address",
          "name": "to",
          "type": "address"
        }
      ],
      "name": "airdropSoulBound",
      "outputs": [
        {
          "internalType": "uint256",
          "name": "",
          "type": "uint256"
        }
      ],
      "stateMutability": "nonpayable",
      "type": "function"
    },
    {
      "inputs": [
        {
          "internalType": "address",
          "name": "to",
          "type": "address"
        },
        {
          "internalType": "uint256",
          "name": "tokenId",
          "type": "uint256"
        }
      ],
      "name": "approve",
      "outputs": [],
      "stateMutability": "nonpayable",
      "type": "function"
    },
    {
      "inputs": [
        {
          "internalType": "address",
          "name": "owner",
          "type": "address"
        }
      ],
      "name": "balanceOf",
      "outputs": [
        {
          "internalType": "uint256",
          "name": "",
          "type": "uint256"
        }
      ],
      "stateMutability": "view",
      "type": "function"
    },
    {
      "inputs": [
        {
          "internalType": "uint256",
          "name": "tokenId",
          "type": "uint256"
        }
      ],
      "name": "burn",
      "outputs": [],
      "stateMutability": "nonpayable",
      "type": "function"
    },
    {
      "inputs": [],
      "name": "canMint",
      "outputs": [
        {
          "internalType": "bool",
          "name": "",
          "type": "bool"
        }
      ],
      "stateMutability": "view",
      "type": "function"
    },
    {
      "inputs": [
        {
          "internalType": "string",
          "name": "newName",
          "type": "string"
        },
        {
          "internalType": "string",
          "name": "newSymbol",
          "type": "string"
        },
        {
          "internalType": "uint256",
          "name": "newMintFee",
          "type": "uint256"
        },
        {
          "internalType": "uint256",
          "name": "newRoyaltyRate",
          "type": "uint256"
        }
      ],
      "name": "config",
      "outputs": [],
      "stateMutability": "nonpayable",
      "type": "function"
    },
    {
      "inputs": [
        {
          "internalType": "uint256",
          "name": "tokenId",
          "type": "uint256"
        }
      ],
      "name": "getApproved",
      "outputs": [
        {
          "internalType": "address",
          "name": "",
          "type": "address"
        }
      ],
      "stateMutability": "view",
      "type": "function"
    },
    {
      "inputs": [
        {
          "internalType": "address",
          "name": "owner",
          "type": "address"
        },
        {
          "internalType": "address",
          "name": "operator",
          "type": "address"
        }
      ],
      "name": "isApprovedForAll",
      "outputs": [
        {
          "internalType": "bool",
          "name": "",
          "type": "bool"
        }
      ],
      "stateMutability": "view",
      "type": "function"
    },
    {
      "inputs": [
        {
          "internalType": "uint256",
          "name": "tokenId",
          "type": "uint256"
        }
      ],
      "name": "isSoulBound",
      "outputs": [
        {
          "internalType": "bool",
          "name": "",
          "type": "bool"
        }
      ],
      "stateMutability": "view",
      "type": "function"
    },
    {
      "inputs": [],
      "name": "maxSupply",
      "outputs": [
        {
          "internalType": "uint256",
          "name": "",
          "type": "uint256"
        }
      ],
      "stateMutability": "view",
      "type": "function"
    },
    {
      "inputs": [],
      "name": "metadataBank",
      "outputs": [
        {
          "internalType": "contract IMetadataBank",
          "name": "",
          "type": "address"
        }
      ],
      "stateMutability": "view",
      "type": "function"
    },
    {
      "inputs": [],
      "name": "mint",
      "outputs": [
        {
          "internalType": "uint256",
          "name": "",
          "type": "uint256"
        }
      ],
      "stateMutability": "payable",
      "type": "function"
    },
    {
      "inputs": [],
      "name": "mintFee",
      "outputs": [
        {
          "internalType": "uint256",
          "name": "",
          "type": "uint256"
        }
      ],
      "stateMutability": "view",
      "type": "function"
    },
    {
      "inputs": [],
      "name": "mintSoulBound",
      "outputs": [
        {
          "internalType": "uint256",
          "name": "",
          "type": "uint256"
        }
      ],
      "stateMutability": "payable",
      "type": "function"
    },
    {
      "inputs": [],
      "name": "name",
      "outputs": [
        {
          "internalType": "string",
          "name": "",
          "type": "string"
        }
      ],
      "stateMutability": "view",
      "type": "function"
    },
    {
      "inputs": [],
      "name": "owner",
      "outputs": [
        {
          "internalType": "address",
          "name": "",
          "type": "address"
        }
      ],
      "stateMutability": "view",
      "type": "function"
    },
    {
      "inputs": [
        {
          "internalType": "uint256",
          "name": "tokenId",
          "type": "uint256"
        }
      ],
      "name": "ownerOf",
      "outputs": [
        {
          "internalType": "address",
          "name": "",
          "type": "address"
        }
      ],
      "stateMutability": "view",
      "type": "function"
    },
    {
      "inputs": [],
      "name": "remainingSupply",
      "outputs": [
        {
          "internalType": "uint256",
          "name": "",
          "type": "uint256"
        }
      ],
      "stateMutability": "view",
      "type": "function"
    },
    {
      "inputs": [
        {
          "internalType": "uint256",
          "name": "tokenId",
          "type": "uint256"
        },
        {
          "internalType": "uint256",
          "name": "salePrice",
          "type": "uint256"
        }
      ],
      "name": "royaltyInfo",
      "outputs": [
        {
          "internalType": "address",
          "name": "receiver",
          "type": "address"
        },
        {
          "internalType": "uint256",
          "name": "royaltyAmount",
          "type": "uint256"
        }
      ],
      "stateMutability": "view",
      "type": "function"
    },
    {
      "inputs": [],
      "name": "royaltyRate",
      "outputs": [
        {
          "internalType": "uint256",
          "name": "",
          "type": "uint256"
        }
      ],
      "stateMutability": "view",
      "type": "function"
    },
    {
      "inputs": [
        {
          "internalType": "address",
          "name": "from",
          "type": "address"
        },
        {
          "internalType": "address",
          "name": "to",
          "type": "address"
        },
        {
          "internalType": "uint256",
          "name": "tokenId",
          "type": "uint256"
        }
      ],
      "name": "safeTransferFrom",
      "outputs": [],
      "stateMutability": "nonpayable",
      "type": "function"
    },
    {
      "inputs": [
        {
          "internalType": "address",
          "name": "from",
          "type": "address"
        },
        {
          "internalType": "address",
          "name": "to",
          "type": "address"
        },
        {
          "internalType": "uint256",
          "name": "tokenId",
          "type": "uint256"
        },
        {
          "internalType": "bytes",
          "name": "data",
          "type": "bytes"
        }
      ],
      "name": "safeTransferFrom",
      "outputs": [],
      "stateMutability": "nonpayable",
      "type": "function"
    },
    {
      "inputs": [
        {
          "internalType": "address",
          "name": "operator",
          "type": "address"
        },
        {
          "internalType": "bool",
          "name": "approved",
          "type": "bool"
        }
      ],
      "name": "setApprovalForAll",
      "outputs": [],
      "stateMutability": "nonpayable",
      "type": "function"
    },
    {
      "inputs": [
        {
          "internalType": "address",
          "name": "bankAddress",
          "type": "address"
        }
      ],
      "name": "setMetadataBank",
      "outputs": [],
      "stateMutability": "nonpayable",
      "type": "function"
    },
    {
      "inputs": [
        {
          "internalType": "bytes4",
          "name": "interfaceId",
          "type": "bytes4"
        }
      ],
      "name": "supportsInterface",
      "outputs": [
        {
          "internalType": "bool",
          "name": "",
          "type": "bool"
        }
      ],
      "stateMutability": "view",
      "type": "function"
    },
    {
      "inputs": [],
      "name": "symbol",
      "outputs": [
        {
          "internalType": "string",
          "name": "",
          "type": "string"
        }
      ],
      "stateMutability": "view",
      "type": "function"
    },
    {
      "inputs": [
        {
          "internalType": "uint256",
          "name": "index",
          "type": "uint256"
        }
      ],
      "name": "tokenByIndex",
      "outputs": [
        {
          "internalType": "uint256",
          "name": "",
          "type": "uint256"
        }
      ],
      "stateMutability": "view",
      "type": "function"
    },
    {
      "inputs": [
        {
          "internalType": "address",
          "name": "owner",
          "type": "address"
        },
        {
          "internalType": "uint256",
          "name": "index",
          "type": "uint256"
        }
      ],
      "name": "tokenOfOwnerByIndex",
      "outputs": [
        {
          "internalType": "uint256",
          "name": "",
          "type": "uint256"
        }
      ],
      "stateMutability": "view",
      "type": "function"
    },
    {
      "inputs": [
        {
          "internalType": "uint256",
          "name": "tokenId",
          "type": "uint256"
        }
      ],
      "name": "tokenURI",
      "outputs": [
        {
          "internalType": "string",
          "name": "",
          "type": "string"
        }
      ],
      "stateMutability": "view",
      "type": "function"
    },
    {
      "inputs": [],
      "name": "totalMinted",
      "outputs": [
        {
          "internalType": "uint256",
          "name": "",
          "type": "uint256"
        }
      ],
      "stateMutability": "view",
      "type": "function"
    },
    {
      "inputs": [],
      "name": "totalSupply",
      "outputs": [
        {
          "internalType": "uint256",
          "name": "",
          "type": "uint256"
        }
      ],
      "stateMutability": "view",
      "type": "function"
    },
    {
      "inputs": [
        {
          "internalType": "address",
          "name": "from",
          "type": "address"
        },
        {
          "internalType": "address",
          "name": "to",
          "type": "address"
        },
        {
          "internalType": "uint256",
          "name": "tokenId",
          "type": "uint256"
        }
      ],
      "name": "transferFrom",
      "outputs": [],
      "stateMutability": "nonpayable",
      "type": "function"
    },
    {
      "inputs": [],
      "name": "withdraw",
      "outputs": [],
      "stateMutability": "nonpayable",
      "type": "function"
    },
    {
      "stateMutability": "payable",
      "type": "receive"
    }
  ],
  "bytecode": "0x60c0346200061957601f196001600160401b03601f6200278338819003828101851686018481118782101762000603578692829160405283396020958691810103126200061957516001600160a01b03811694908590036200061957620000656200061e565b601381527f54726167656479204d7974682042616e6b65640000000000000000000000000082820152620000986200061e565b916005958684526426acaa242160d91b8285015282519686881162000603576000938454986001998a81811c91168015620005f8575b868210146200045757888111620005b2575b5080858982116001146200055357879162000547575b50600019600383901b1c1916908a1b1785555b8551888111620004765789548a81811c911680156200053c575b868210146200045757888111620004f6575b508085898211600114620004965787916200048a575b50600019600383901b1c1916908a1b1789555b3360805261271060a052662386f26fc10000600c556101f4600d558051908882116200047657600f548a81811c911680156200046b575b86821014620004575790818984931162000405575b508590898311600114620003a257879262000396575b5050600019600383901b1c191690891b17600f555b84519687116200038257601054908882811c9216801562000377575b8483101462000363578682116200031c575b505081948611600114620002b457505091839491849394620002a8575b50501b916000199060031b1c1916176010555b601180546001600160a01b03191691909117905560405161214490816200063f82396080518181816104e8015281816106710152818161071c01528181610a6501528181610f220152611d87015260a051818181610269015281816102ac0152818161037801528181611a460152611db30152f35b01519250388062000220565b601083528183209493928692918316915b88838310620003015750505010620002e7575b505050811b0160105562000233565b015160001960f88460031b161c19169055388080620002d8565b858701518855909601959485019487935090810190620002c5565b601085528385209087808a01821c830193868b1062000359575b01901c019088905b8281106200034d575062000203565b8581550188906200033e565b9350829362000336565b634e487b7160e01b85526022600452602485fd5b91607f1691620001f1565b634e487b7160e01b84526041600452602484fd5b015190503880620001c0565b90858c941691600f895287892092895b89828210620003ee5750508411620003d4575b505050811b01600f55620001d5565b015160001960f88460031b161c19169055388080620003c5565b8385015186558f97909501949384019301620003b2565b909150600f875285872089808501861c8201928886106200044d575b918d918695949301871c01915b8281106200043e575050620001aa565b8981558594508d91016200042e565b9250819262000421565b634e487b7160e01b87526022600452602487fd5b90607f169062000195565b634e487b7160e01b86526041600452602486fd5b9050870151386200014b565b858c93169083895287892091895b898c838310620004e0575050508311620004c6575b5050811b0189556200015e565b89015160001960f88460031b161c191690553880620004b9565b84015185558f96909401939283019201620004a4565b8a875285872089808401861c82019288851062000532575b01851c01908b905b8281106200052657505062000135565b888155018b9062000516565b925081926200050e565b90607f169062000123565b905082015138620000f6565b858c93169088805287892091895b898282106200059b575050831162000581575b5050811b01855562000109565b84015160001960f88460031b161c19169055388062000574565b8388015185558f9690940193928301920162000561565b86805285872089808401861c820192888510620005ee575b01851c01908b905b828110620005e2575050620000e0565b888155018b90620005d2565b92508192620005ca565b90607f1690620000ce565b634e487b7160e01b600052604160045260246000fd5b600080fd5b60408051919082016001600160401b03811183821017620006035760405256fe60806040908082526004908136101561004c575b5050361561002057600080fd5b513481527fa419615bc8fda4c87663805ee2a3597a6d71c1d476911d9892f340d965bc7bf160203392a2005b600091823560e01c91826301ffc9a71461134b5750816306fdde03146112a5578163081812fc14611285578163095ea7b3146111a85781631249c58b1461119057816313966db51461117157816318160ddd1461115257816321860a051461112c57816323b872dd146111145781632a55205a1461104c5781632f745c5914610fc85781633ccfd60b14610f0d57816342842e0e14610ee457816342966c6814610be55781634aa8d47214610b7e5781634f6ccce714610b285781636352211e14610af75781636d1d16a414610a3e5781636d8ae805146106c657816370a08231146106a05781638da5cb5b1461065c57816395d89b411461057b5781639f5bed3e146104c0578163a22cb46514610422578163a2309ff814610403578163b88d4fde1461039c578163beb9716d1461035b578163c4d1510d1461033c578163c87b56dd14610301578163d508a212146102cf57508063d5abeb0114610294578063da0239a61461024c578063e985e9c5146101fe5763fb684806146101d25780610013565b90346101fa57816003193601126101fa5760115490516001600160a01b039091168152602090f35b5080fd5b5090346101fa57806003193601126101fa5760ff8160209361021e6113c9565b6102266113e4565b6001600160a01b0391821683526005875283832091168252855220549151911615158152f35b5090346101fa57816003193601126101fa5760209061028d600e547f0000000000000000000000000000000000000000000000000000000000000000611a2b565b9051908152f35b5090346101fa57816003193601126101fa57602090517f00000000000000000000000000000000000000000000000000000000000000008152f35b839150346102fd5760203660031901126102fd578160209360ff923581526012855220541690519015158152f35b8280fd5b83833461033957602036600319011261033957506103226103359235611e5d565b90519182916020835260208301906113a4565b0390f35b80fd5b8284346101fa57816003193601126101fa57602090600d549051908152f35b8284346101fa57816003193601126101fa57602090600e549051907f0000000000000000000000000000000000000000000000000000000000000000118152f35b9050346101fa5760803660031901126101fa576103b76113c9565b6103bf6113e4565b906064356001600160401b0381116103ff57366023820112156103ff576103fc938160246103f2933693013591016114b7565b9160443591611847565b80f35b8480fd5b8284346101fa57816003193601126101fa57602090600e549051908152f35b905082346102fd57806003193601126102fd5761043d6113c9565b90602435918215158093036103ff576001600160a01b03169283156104ab5750338452600560205280842083855260205280842060ff1981541660ff8416179055519081527f17307eab39ab6107e8899845ad3d59bd9653f200f220920489ca2b5937696c3160203392a380f35b836024925191630b61174360e31b8352820152fd5b839150346102fd5760203660031901126102fd576104dc6113c9565b926001600160a01b03917f00000000000000000000000000000000000000000000000000000000000000008316330361056d57509282916020947f568fca197007755d09580f32c668068b2c439e532696fbcbd19e048918aab85861054084611d7c565b95869384845260128952818420600160ff198254161790558151938985528985015233951692a451908152f35b8351635fc483c560e01b8152fd5b8284346101fa57816003193601126101fa578051908260105461059d81611fb5565b8085529060019081811690811561063457506001146105db575b5050506105c98261033594038361147b565b519182916020835260208301906113a4565b60108352602095507f1b6847dc741a1b0cd08d278845f9d819d87b734759afb55fe2de5cb82a9ae6725b8284106106215750505082610335946105c992820101946105b7565b8054868501880152928601928101610605565b61033597506105c99450602092508693915060ff191682840152151560051b820101946105b7565b8284346101fa57816003193601126101fa57517f00000000000000000000000000000000000000000000000000000000000000006001600160a01b03168152602090f35b8284346101fa5760203660031901126101fa5760209061028d6106c16113c9565b61150c565b905082346102fd5760803660031901126102fd576001600160401b039180358381116103ff576106f990369083016114ee565b92602435818111610a3a5761071190369084016114ee565b6064359260443592907f00000000000000000000000000000000000000000000000000000000000000006001600160a01b03163303610a2c5761271085116109ed5786519082821161092757610768600f54611fb5565b91601f928381116109aa575b50806020848211600114610945578b9161093a575b508160011b916000199060031b1c191617600f555b835192831161092757506107b3601054611fb5565b8181116108e4575b506020908211600114610856577f72f5ca7de19aaa77fdf4818d4c0477e426386a34311319d12dc98a253c465a049694928261082e97959361083c938b9161084b575b508160011b916000199060031b1c1916176010555b82600c5583600d5584519687966080885260808801906113a4565b9086820360208801526113a4565b9284015260608301520390a180f35b90508201518b6107fe565b6010885280882090601f198316895b8181106108cc57508361083c937f72f5ca7de19aaa77fdf4818d4c0477e426386a34311319d12dc98a253c465a049a98969361082e9a9896600194106108b3575b5050811b01601055610813565b84015160001960f88460031b161c191690558b806108a6565b91926020600181928689015181550194019201610865565b60108952602089208280850160051c8201926020861061091e575b0160051c01905b81811061091357506107bb565b898155600101610906565b925081926108ff565b634e487b7160e01b895260419052602488fd5b90508901518b610789565b600f8c52808c209150601f1983168c5b8c8282106109925750509083600194939210610979575b5050811b01600f5561079e565b8b015160001960f88460031b161c191690558b8061096c565b60018495602093958493015181550194019201610955565b600f8b5260208b208480840160051c820192602085106109e4575b0160051c01905b8181106109d95750610774565b8b81556001016109cc565b925081926109c5565b606490602087519162461bcd60e51b83528201526019602482015278526f79616c747920726174652065786365656473203130302560381b6044820152fd5b8551635fc483c560e01b8152fd5b8580fd5b839150346102fd5760203660031901126102fd57610a5a6113c9565b6001600160a01b03907f000000000000000000000000000000000000000000000000000000000000000082163303610ae75716918215610aad575050601180546001600160a01b03191691909117905580f35b906020606492519162461bcd60e51b83528201526014602482015273496e76616c69642062616e6b206164647265737360601b6044820152fd5b8351635fc483c560e01b81528390fd5b8383346103395760203660031901126103395750610b176020923561196a565b90516001600160a01b039091168152f35b839150346102fd5760203660031901126102fd57803592600854841015610b6357602083610b55866119a5565b91905490519160031b1c8152f35b6044939192519263295f44f760e21b84528301526024820152fd5b8284816003193601126101fa5790602091610b97611a38565b9182815260128452818120600160ff19825416179055815190848252848201528233917f568fca197007755d09580f32c668068b2c439e532696fbcbd19e048918aab858843392a451908152f35b839150346102fd5760209182600319360112610ee0578135926001600160a01b0380610c108661196a565b1633141580610eb9575b80610ea5575b610e965784865260128252828620805460ff1916905560028252828620548116151580610e8f575b610e70575b84865260028252828620541690811591821580610e3d575b8688526002835284882080546001600160a01b03191690558688836000805160206120ef8339815191528280a48315610dcd57505060085485875260098252838720819055600160401b811015610dba5785610cca826001610ce394016008556119a5565b90919082549060031b91821b91600019901b1916179055565b60085460001991828201918211610da757600990878952818152610d0a868a2054936119a5565b90549060031b1c610d1e81610cca866119a5565b8952528387205584865285838120556008548015610d9457810190610d42826119a5565b909182549160031b1b19169055600855610d7f5750507f3c176691ca154a2f6fe978a2a633a33ee77dbe2902e67a75400720845a4b2ce18280a280f35b916024925191637e27328960e01b8352820152fd5b634e487b7160e01b875260318552602487fd5b634e487b7160e01b885260118652602488fd5b634e487b7160e01b875260418552602487fd5b610dd8575b50610ce3565b610de18161150c565b86885260078352848820549188526006835284882091818103610e1b575b5086885260078352878581205587528152858381205586610dd2565b81895282845285892054818a5280878b20558952600784528589205588610dff565b600087815260046020526040902080546001600160a01b0319169055818852600383528488208054600019019055610c65565b6012825260ff838720541615610c4d575050516328f11eb160e21b8152fd5b5085610c48565b505051636d8a29e760e11b8152fd5b503381610eb187611545565b161415610c20565b5080610ec48661196a565b16865260058252828620338752825260ff838720541615610c1a565b8380fd5b8284346101fa576103fc90610ef8366113fa565b91925192610f0584611460565b858452611847565b839150346102fd57826003193601126102fd577f00000000000000000000000000000000000000000000000000000000000000006001600160a01b03169133839003610fbb5747918215610fad578480808086885af1610f6b6119d6565b5015610f9f57507f7084f5476618d8e60b11ef0d7d3f06914655adb8793e28ff7f018d4c76d505d59160209151908152a280f35b90516312171d8360e31b8152fd5b905163177b02e160e31b8152fd5b51635fc483c560e01b8152fd5b838334610339578160031936011261033957610fe26113c9565b9260243590610ff08561150c565b82101561102057506001600160a01b03909316815260066020908152828220938252928352819020549051908152f35b925163295f44f760e21b81526001600160a01b0390941692840192835260208301525081906040010390fd5b8284346101fa57806003193601126101fa576024359183358152600b6020528181209082519161107b8361142f565b546001600160a01b0380821680855260a09290921c6020850152929190156110f1575b6001600160601b03602083015116948581029581870414901517156110de57815184519084166001600160a01b0316815261271086046020820152604090f35b634e487b7160e01b815260118652602490fd5b905082516110fe8161142f565b600a54838116825260a01c60208201529061109e565b8234610339576103fc611126366113fa565b9161156a565b8284346101fa5760203660031901126101fa5760209061028d61114d6113c9565b611d7c565b8284346101fa57816003193601126101fa576020906008549051908152f35b8284346101fa57816003193601126101fa57602090600c549051908152f35b8284816003193601126101fa5760209061028d611a38565b905082346102fd57806003193601126102fd576111c36113c9565b916024356111d08161196a565b33151580611272575b80611249575b611233576001600160a01b039485169482918691167f8c5be1e5ebec7d5bd14f71427d1e84f3dd0314c0f7b2291e5b200ac8c7c3b9258880a48452602052822080546001600160a01b031916909117905580f35b835163a9fbf51f60e01b81523381850152602490fd5b506001600160a01b03811686526005602090815284872033885290528386205460ff16156111df565b506001600160a01b0381163314156111d9565b8383346103395760203660031901126103395750610b1760209235611545565b8284346101fa57816003193601126101fa5780519082600f546112c781611fb5565b8085529060019081811690811561063457506001146112f2575050506105c98261033594038361147b565b600f8352602095507f8d1108e10bcb7c27dddfc02ed9d693a074039d026cf4ea4240b40f7d581ac8025b8284106113385750505082610335946105c992820101946105b7565b805486850188015292860192810161131c565b9150346102fd5760203660031901126102fd573563ffffffff60e01b81168091036102fd5763152a902d60e11b14815260209150f35b60005b8381106113945750506000910152565b8181015183820152602001611384565b906020916113bd81518092818552858086019101611381565b601f01601f1916010190565b600435906001600160a01b03821682036113df57565b600080fd5b602435906001600160a01b03821682036113df57565b60609060031901126113df576001600160a01b039060043582811681036113df579160243590811681036113df579060443590565b604081019081106001600160401b0382111761144a57604052565b634e487b7160e01b600052604160045260246000fd5b602081019081106001600160401b0382111761144a57604052565b90601f801991011681019081106001600160401b0382111761144a57604052565b6001600160401b03811161144a57601f01601f191660200190565b9291926114c38261149c565b916114d1604051938461147b565b8294818452818301116113df578281602093846000960137010152565b9080601f830112156113df57816020611509933591016114b7565b90565b6001600160a01b0316801561152c57600052600360205260406000205490565b6040516322718ad960e21b815260006004820152602490fd5b61154e8161196a565b506000908152600460205260409020546001600160a01b031690565b6001600160a01b038281169391841561182e5760009483865260209560028752604096848883205416151580611826575b611805575b858252600281528488832054169633151580611777575b5087158015611744575b84845260038352898420805460010190558784526002835289842080546001600160a01b0319168617905587858a6000805160206120ef8339815191528780a4156116d85760085487845260098352898420819055600160401b8110156116c45787610cca82600161163694016008556119a5565b838803611672575b5050505016928383036116515750505050565b6064945051926364283d7b60e01b8452600484015260248301526044820152fd5b61167b9061150c565b6000198101939084116116b05782916007918a945260068152838320858452815287848420558783525220553880808061163e565b634e487b7160e01b83526011600452602483fd5b634e487b7160e01b84526041600452602484fd5b878414611636576116e88861150c565b878452600783528984205490898552600684528a852091818103611722575b5088855260078452848b812055845282528289812055611636565b8186528285528b862054818752808d8820558652600785528b86205538611707565b600088815260046020526040902080546001600160a01b03191690558884526003835289842080546000190190556115c1565b806117c4575b1561178857386115b7565b8887896117a5576024915190637e27328960e01b82526004820152fd5b905163177e802f60e01b81523360048201526024810191909152604490fd5b5033881480156117e9575b8061177d57508683526004825233868a852054161461177d565b5087835260058252888320338452825260ff89842054166117cf565b6012815260ff8883205416156115a05787516328f11eb160e21b8152600490fd5b50600161159b565b604051633250574960e11b815260006004820152602490fd5b919061185482828561156a565b803b611861575b50505050565b6118a360018060a01b0380921694604051938493630a85bd0160e11b9687865233600487015216602485015260448401526080606484015260848301906113a4565b03906020816000938185885af190829082611922575b50506118f157826118c86119d6565b80519190826118ea57604051633250574960e11b815260048101839052602490fd5b6020915001fd5b6001600160e01b0319160361190a57503880808061185b565b60249060405190633250574960e11b82526004820152fd5b909192506020813d8211611962575b8161193e6020938361147b565b810103126101fa5751906001600160e01b03198216820361033957509038806118b9565b3d9150611931565b6000818152600260205260409020546001600160a01b031690811561198d575090565b60249060405190637e27328960e01b82526004820152fd5b6008548110156119c057600860005260206000200190600090565b634e487b7160e01b600052603260045260246000fd5b3d15611a01573d906119e78261149c565b916119f5604051938461147b565b82523d6000602084013e565b606090565b6000198114611a155760010190565b634e487b7160e01b600052601160045260246000fd5b91908203918211611a1557565b600c543410611b4c57600e547f0000000000000000000000000000000000000000000000000000000000000000811015611b3a576011546001600160a01b031615611b2857611a8690611a06565b80600e55611a948133611b5d565b611aaa6001600160601b03600d54163083611fef565b600c54803411611af0575b5060405160208152600060208201528133917f65377b009806411af39a50d0b0f3385ec2ffa78093a832ec03af2b50637e3fe760403392a490565b60008080611aff819434611a2b565b335af1611b0a6119d6565b5015611b165738611ab5565b6040516312171d8360e31b8152600490fd5b60405163ee91882760e01b8152600490fd5b60405163d05cb60960e01b8152600490fd5b604051623d6c2560e81b8152600490fd5b6001600160a01b0390808216801561182e5760009380855260209060028252604094808688205416151580611d74575b611d53575b818752600283528587205416938415948486159687611d20575b818a5260038652888a2080546001019055848a5260028652888a2080546001600160a01b031916831790558482846000805160206120ef8339815191528d80a415611cb2575060085483895260098552878920819055600160401b811015611c9e5790611c2484610cca8460018a96016008556119a5565b03611c4d575b50505050611c36575050565b6024925051906339e3563760e11b82526004820152fd5b611c569061150c565b600019810193908411611c8a5786526006825284862083875282528486208190558552600790528284205538808080611c2a565b634e487b7160e01b87526011600452602487fd5b634e487b7160e01b89526041600452602489fd5b90808214611c2457611cc38161150c565b848a5260078652888a205490828b5260068752898b2091818103611cfd575b50858b52600787528a8a8120558a5285528888812055611c24565b818c528288528a8c2054818d528b8d208190558c52600788528a8c205538611ce2565b600085815260046020526040902080546001600160a01b0319169055828a5260038652888a208054600019019055611bac565b6012835260ff868820541615611b925785516328f11eb160e21b8152600490fd5b506001611b8d565b6001600160a01b03907f000000000000000000000000000000000000000000000000000000000000000082163303611e4b57600e547f0000000000000000000000000000000000000000000000000000000000000000811015611b3a57826011541615611b2857611dec90611a06565b809281600e55611dfc8284611b5d565b611e126001600160601b03600d54163084611fef565b7f65377b009806411af39a50d0b0f3385ec2ffa78093a832ec03af2b50637e3fe76040805192602084526000602085015233951692a490565b604051635fc483c560e01b8152600490fd5b90611e678261196a565b506011546001600160a01b03168015611b2857604090815193632e4fcfcd60e21b85526020948581600481865afa908115611faa57600091611f7d575b508015611f66576000198201918211611a155760246000928551948593849263295d33a960e21b84520660048301525afa938415611f5b57600094611ee857505050565b3d8086843e611ef7818461147b565b8201918181840312610a3a578051906001600160401b038211611f5757019082601f83011215610a3a57815192611f39611f308561149c565b9551958661147b565b838552818484010111610a3a57839495508061150994019101611381565b8680fd5b82513d6000823e3d90fd5b50505090915051611f7681611460565b6000815290565b908682813d8311611fa3575b611f93818361147b565b8101031261033957505138611ea4565b503d611f89565b84513d6000823e3d90fd5b90600182811c92168015611fe5575b6020831014611fcf57565b634e487b7160e01b600052602260045260246000fd5b91607f1691611fc4565b916001600160601b0316906127108211612096576001600160a01b0390811692831561205157604051936120228561142f565b845260208085019384526000918252600b9052604090209251915160a01b6001600160a01b0319169116179055565b60405162461bcd60e51b815260206004820152601b60248201527f455243323938313a20496e76616c696420706172616d657465727300000000006044820152606490fd5b60405162461bcd60e51b815260206004820152602a60248201527f455243323938313a20726f79616c7479206665652077696c6c206578636565646044820152692073616c65507269636560b01b6064820152608490fdfeddf252ad1be2c89b69c2b068fc378daa952ba7f163c4a11628f55a4df523b3efa264697066735822122002ea747a58c74adef8b3e7bde584816a52b89c4e67c1b8249c3a1dbfd9441bdd64736f6c63430008140033",
  "linkReferences": {},
  "deployedLinkReferences": {}
}