{
  "_format": "hh-sol-artifact-1",
  "contractName": "ArweaveItemBankV3Fixed",
  "sourceName": "contracts/ArweaveItemBankV3Fixed.sol",
  "abi": [
    {
      "inputs": [
        {
          "internalType": "address",
          "name": "_bank1",
          "type": "address"
        },
        {
          "internalType": "address",
          "name": "_bank2",
          "type": "address"
        }
      ],
      "stateMutability": "nonpayable",
      "type": "constructor"
    },
    {
      "inputs": [],
      "name": "bank1",
      "outputs": [
        {
          "internalType": "contract IItemBank",
          "name": "",
          "type": "address"
        }
      ],
      "stateMutability": "view",
      "type": "function"
    },
    {
      "inputs": [],
      "name": "bank2",
      "outputs": [
        {
          "internalType": "contract IItemBank",
          "name": "",
          "type": "address"
        }
      ],
      "stateMutability": "view",
      "type": "function"
    },
    {
      "inputs": [
        {
          "internalType": "uint8",
          "name": "itemId",
          "type": "uint8"
        }
      ],
      "name": "getItemName",
      "outputs": [
        {
          "internalType": "string",
          "name": "",
          "type": "string"
        }
      ],
      "stateMutability": "view",
      "type": "function"
    },
    {
      "inputs": [
        {
          "internalType": "uint8",
          "name": "itemId",
          "type": "uint8"
        }
      ],
      "name": "getItemSVG",
      "outputs": [
        {
          "internalType": "string",
          "name": "",
          "type": "string"
        }
      ],
      "stateMutability": "view",
      "type": "function"
    }
  ],
  "bytecode": "0x60803461008d57601f61049538819003918201601f19168301916001600160401b0383118484101761009257808492604094855283398101031261008d57610052602061004b836100a8565b92016100a8565b600080546001600160a01b039384166001600160a01b031991821617909155600180549290931691161790556040516103d890816100bd8239f35b600080fd5b634e487b7160e01b600052604160045260246000fd5b51906001600160a01b038216820361008d5756fe6080604052600436101561001257600080fd5b6000803560e01c806330a86006146100d7578063d001425a146100ae578063da11f709146100875763f6d405581461004957600080fd5b34610084576020366003190112610084576004359060ff821682036100845761008061007483610225565b60405191829182610126565b0390f35b80fd5b5034610084578060031936011261008457546040516001600160a01b039091168152602090f35b50346100845780600319360112610084576001546040516001600160a01b039091168152602090f35b5034610084576020366003190112610084576004359060ff8216820361008457610080610074836102f9565b60005b8381106101165750506000910152565b8181015183820152602001610106565b604091602082526101468151809281602086015260208686019101610103565b601f01601f1916010190565b90601f8019910116810190811067ffffffffffffffff82111761017457604052565b634e487b7160e01b600052604160045260246000fd5b6020818303126101f657805167ffffffffffffffff918282116101f657019082601f830112156101f657815190811161017457604051926101d5601f8301601f191660200185610152565b818452602082840101116101f6576101f39160208085019101610103565b90565b600080fd5b60609060208152600f60208201526e125b9d985b1a59081a5d195b481251608a1b60408201520190565b60ff1660068110156102955760008054604051631eda80ab60e31b81526004810193909352829060249082906001600160a01b03165afa9081156102895760009161026e575090565b6101f3913d8091833e6102818183610152565b81019061018a565b6040513d6000823e3d90fd5b600c81106102ba5760405162461bcd60e51b8152806102b6600482016101fb565b0390fd5b600154604051631eda80ab60e31b81526004810192909252600090829060249082906001600160a01b03165afa9081156102895760009161026e575090565b60ff1660068110156103425760008054604051631854300360e11b81526004810193909352829060249082906001600160a01b03165afa9081156102895760009161026e575090565b600c81106103635760405162461bcd60e51b8152806102b6600482016101fb565b600154604051631854300360e11b81526004810192909252600090829060249082906001600160a01b03165afa9081156102895760009161026e57509056fea26469706673582212200f9e0be05410e9431925e3b61986a15f5187343261cedafcd0afd1e41b342b5364736f6c63430008140033",
  "linkReferences": {},
  "deployedLinkReferences": {}
}