{
  "_format": "hh-sol-artifact-1",
  "contractName": "ArweaveItemBank2",
  "sourceName": "contracts/ArweaveItemBank2.sol",
  "abi": [
    {
      "inputs": [
        {
          "internalType": "uint8",
          "name": "itemId",
          "type": "uint8"
        }
      ],
      "name": "getItemName",
      "outputs": [
        {
          "internalType": "string",
          "name": "",
          "type": "string"
        }
      ],
      "stateMutability": "pure",
      "type": "function"
    },
    {
      "inputs": [
        {
          "internalType": "uint8",
          "name": "itemId",
          "type": "uint8"
        }
      ],
      "name": "getItemSVG",
      "outputs": [
        {
          "internalType": "string",
          "name": "",
          "type": "string"
        }
      ],
      "stateMutability": "pure",
      "type": "function"
    }
  ],
  "bytecode": "0x6080806040523461001657613279908161001c8239f35b600080fdfe6080604052600436101561001257600080fd5b6000803560e01c806330a86006146100715763f6d405581461003357600080fd5b3461006e57602036600319011261006e576004359060ff8216820361006e5761006a61005e83610152565b6040519182918261009d565b0390f35b80fd5b503461006e57602036600319011261006e576004359060ff8216820361006e5761006a61005e8361309b565b6020808252825181830181905290939260005b8281106100d257505060409293506000838284010152601f8019910116010190565b8181018601518482016040015285016100b0565b60405190604082018281106001600160401b038211176101095760405260068252565b634e487b7160e01b600052604160045260246000fd5b6060906020815260186020820152774974656d204944206e6f7420696e20746869732062616e6b60401b60408201520190565b60ff1660068114612bbe57600781146125855760088114611afa57600981146112e057600a8114610a0157600b146101a15760405162461bcd60e51b81528061019d6004820161011f565b0390fd5b60405161072081018181106001600160401b03821117610109576040526106ed8152600080516020613224833981519152602082015260008051602061320483398151915260408201526000805160206131e483398151915260608201527f72696e673d2263726973704564676573223e3c7265637420783d22333122207960808201527f3d223237222077696474683d223122206865696768743d2236222066696c6c3d60a08201527f2223463544454233222f3e3c7265637420783d2233322220793d22323822207760c08201527f696474683d223122206865696768743d2234222066696c6c3d2223463544454260e08201527f33222f3e3c7265637420783d2233392220793d223238222077696474683d22346101008201527f22206865696768743d2233222066696c6c3d2223463544454233222f3e3c72656101208201527f637420783d2233342220793d223239222077696474683d2234222068656967686101408201527f743d2233222066696c6c3d2223463544454233222f3e3c7265637420783d22336101608201527f322220793d223333222077696474683d223122206865696768743d22312220666101808201527f696c6c3d2223463544454233222f3e3c7265637420783d2234302220793d22326101a08201527f37222077696474683d223222206865696768743d2231222066696c6c3d2223446101c08201527f4542383837222f3e3c7265637420783d2233352220793d2232382220776964746101e08201527f683d223222206865696768743d2231222066696c6c3d2223444542383837222f6102008201527f3e3c7265637420783d2233382220793d223238222077696474683d22312220686102208201527f65696768743d2233222066696c6c3d2223444542383837222f3e3c72656374206102408201527f783d2233332220793d223239222077696474683d223122206865696768743d226102608201527f33222066696c6c3d2223444542383837222f3e3c7265637420783d22343322206102808201527f793d223237222077696474683d223322206865696768743d2231222066696c6c6102a08201527f3d2223384230303030222f3e3c7265637420783d2234342220793d22323822206102c08201527f77696474683d223122206865696768743d2236222066696c6c3d2223384230306102e08201527f3030222f3e3c7265637420783d2234332220793d223330222077696474683d226103008201527f3122206865696768743d2231222066696c6c3d2223384230303030222f3e3c726103208201527f65637420783d2234352220793d223330222077696474683d22312220686569676103408201527f68743d2231222066696c6c3d2223384230303030222f3e3c7265637420783d226103608201527f34352220793d223332222077696474683d223122206865696768743d223122206103808201527f66696c6c3d2223384230303030222f3e3c7265637420783d2234332220793d226103a08201527f3333222077696474683d223122206865696768743d2232222066696c6c3d22236103c08201527f384230303030222f3e3c7265637420783d2234342220793d22333622207769646103e08201527f74683d223122206865696768743d2234222066696c6c3d2223384230303030226104008201527f2f3e3c7265637420783d2233302220793d223238222077696474683d223122206104208201527f6865696768743d2231222066696c6c3d2223464645344531222f3e3c726563746104408201527f20783d2233302220793d223330222077696474683d223122206865696768743d6104608201527f2231222066696c6c3d2223464645344531222f3e3c7265637420783d223330226104808201527f20793d223332222077696474683d223122206865696768743d2231222066696c6104a08201527f6c3d2223464645344531222f3e3c7265637420783d2234332220793d223238226104c08201527f2077696474683d223122206865696768743d2232222066696c6c3d22234443316104e08201527f343343222f3e3c7265637420783d2234362220793d223238222077696474683d6105008201527f223122206865696768743d2231222066696c6c3d2223444331343343222f3e3c6105208201527f7265637420783d2234332220793d223331222077696474683d223122206865696105408201527f6768743d2232222066696c6c3d2223444331343343222f3e3c7265637420783d6105608201527f2234322220793d223333222077696474683d223122206865696768743d2233226105808201527f2066696c6c3d2223444331343343222f3e3c7265637420783d2234352220793d6105a08201527f223333222077696474683d223122206865696768743d2233222066696c6c3d226105c08201527f23444331343343222f3e3c7265637420783d2234342220793d223334222077696105e08201527f6474683d223122206865696768743d2232222066696c6c3d22234443313433436106008201527f222f3e3c7265637420783d2234332220793d223335222077696474683d2231226106208201527f206865696768743d2236222066696c6c3d2223444331343343222f3e3c7265636106408201527f7420783d2234362220793d223336222077696474683d223122206865696768746106608201527f3d2231222066696c6c3d2223444331343343222f3e3c7265637420783d2234306106808201527f2220793d223331222077696474683d223222206865696768743d2231222066696106a08201527f6c6c3d2223464645344235222f3e3c7265637420783d2233352220793d2233326106c08201527f222077696474683d223222206865696768743d2231222066696c6c3d222346466106e08201526c229a211a91179f1e17b9bb339f60991b61070082015290565b5060405161078081018181106001600160401b03821117610109576040526107568152600080516020613224833981519152602082015260008051602061320483398151915260408201526000805160206131e483398151915260608201527f72696e673d2263726973704564676573223e3c7265637420783d22333822207960808201527f3d223332222077696474683d223822206865696768743d2232222066696c6c3d60a08201527f2223324634463446222f3e3c7265637420783d2233372220793d22333322207760c08201527f696474683d223122206865696768743d2233222066696c6c3d2223324634463460e08201527f46222f3e3c7265637420783d2234362220793d223333222077696474683d22316101008201527f22206865696768743d2233222066696c6c3d2223324634463446222f3e3c72656101208201527f637420783d2233382220793d223334222077696474683d2231222068656967686101408201527f743d2231222066696c6c3d2223324634463446222f3e3c7265637420783d22346101608201527f352220793d223334222077696474683d223122206865696768743d22312220666101808201527f696c6c3d2223324634463446222f3e3c7265637420783d2233392220793d22336101a08201527f34222077696474683d223622206865696768743d2232222066696c6c3d2223436101c08201527f3043304330222f3e3c7265637420783d2233382220793d2233352220776964746101e08201527f683d223122206865696768743d2231222066696c6c3d2223433043304330222f6102008201527f3e3c7265637420783d2234352220793d223335222077696474683d22312220686102208201527f65696768743d2234222066696c6c3d2223433043304330222f3e3c72656374206102408201527f783d2233392220793d223336222077696474683d223122206865696768743d226102608201527f35222066696c6c3d2223433043304330222f3e3c7265637420783d22343222206102808201527f793d223336222077696474683d223122206865696768743d2232222066696c6c6102a08201527f3d2223433043304330222f3e3c7265637420783d2234302220793d22333722206102c08201527f77696474683d223222206865696768743d2231222066696c6c3d2223433043306102e08201527f4330222f3e3c7265637420783d2234332220793d223337222077696474683d226103008201527f3222206865696768743d2231222066696c6c3d2223433043304330222f3e3c726103208201527f65637420783d2234302220793d223338222077696474683d22312220686569676103408201527f68743d2233222066696c6c3d2223433043304330222f3e3c7265637420783d226103608201527f34342220793d223338222077696474683d223122206865696768743d223322206103808201527f66696c6c3d2223433043304330222f3e3c7265637420783d2234312220793d226103a08201527f3430222077696474683d223122206865696768743d2231222066696c6c3d22236103c08201527f433043304330222f3e3c7265637420783d2234332220793d22343022207769646103e08201527f74683d223122206865696768743d2231222066696c6c3d2223433043304330226104008201527f2f3e3c7265637420783d2233382220793d223336222077696474683d223122206104208201527f6865696768743d2233222066696c6c3d2223383038303830222f3e3c726563746104408201527f20783d2234362220793d223336222077696474683d223122206865696768743d6104608201527f2233222066696c6c3d2223383038303830222f3e3c7265637420783d223430226104808201527f20793d223336222077696474683d223222206865696768743d2231222066696c6104a08201527f6c3d2223303030222f3e3c7265637420783d2234332220793d223336222077696104c08201527f6474683d223222206865696768743d2231222066696c6c3d2223303030222f3e6104e08201527f3c7265637420783d2234312220793d223338222077696474683d2233222068656105008201527f696768743d2231222066696c6c3d2223303030222f3e3c7265637420783d22346105208201527f312220793d223339222077696474683d223322206865696768743d22312220666105408201527f696c6c3d2223384230303030222f3e3c7265637420783d2234302220793d22346105608201527f31222077696474683d223522206865696768743d2231222066696c6c3d2223386105808201527f4230303030222f3e3c7265637420783d2234302220793d2234322220776964746105a08201527f683d223122206865696768743d2231222066696c6c3d2223384230303030222f6105c08201527f3e3c7265637420783d2234322220793d223432222077696474683d22312220686105e08201527f65696768743d2232222066696c6c3d2223384230303030222f3e3c72656374206106008201527f783d2234342220793d223432222077696474683d223122206865696768743d226106208201527f31222066696c6c3d2223384230303030222f3e3c7265637420783d22343222206106408201527f793d223430222077696474683d223122206865696768743d2231222066696c6c6106608201527f3d2223444331343343222f3e3c7265637420783d2233392220793d22343222206106808201527f77696474683d223122206865696768743d2231222066696c6c3d2223444331346106a08201527f3343222f3e3c7265637420783d2234312220793d223432222077696474683d226106c08201527f3122206865696768743d2232222066696c6c3d2223444331343343222f3e3c726106e08201527f65637420783d2234332220793d223432222077696474683d22312220686569676107008201527f68743d2231222066696c6c3d2223444331343343222f3e3c7265637420783d226107208201527f34352220793d223432222077696474683d223122206865696768743d22312220610740820152753334b6361e9111a221989a19a191179f1e17b9bb339f60511b61076082015290565b506040516106e081018181106001600160401b03821117610109576040526106b48152600080516020613224833981519152602082015260008051602061320483398151915260408201526000805160206131e483398151915260608201527f72696e673d2263726973704564676573223e3c7265637420783d22323022207960808201527f3d223237222077696474683d223122206865696768743d2232222066696c6c3d60a08201527f2223433043304330222f3e3c7265637420783d2232372220793d22323722207760c08201527f696474683d223122206865696768743d2232222066696c6c3d2223433043304360e08201527f30222f3e3c7265637420783d2232312220793d223239222077696474683d22366101008201527f22206865696768743d2231222066696c6c3d2223464644373030222f3e3c72656101208201527f637420783d2232302220793d223330222077696474683d2231222068656967686101408201527f743d2231222066696c6c3d2223464644373030222f3e3c7265637420783d22326101608201527f332220793d223330222077696474683d223522206865696768743d22312220666101808201527f696c6c3d2223464644373030222f3e3c7265637420783d2231392220793d22336101a08201527f31222077696474683d223122206865696768743d2233222066696c6c3d2223466101c08201527f4644373030222f3e3c7265637420783d2232312220793d2233312220776964746101e08201527f683d223122206865696768743d2231222066696c6c3d2223464644373030222f6102008201527f3e3c7265637420783d2232362220793d223331222077696474683d22332220686102208201527f65696768743d2231222066696c6c3d2223464644373030222f3e3c72656374206102408201527f783d2232302220793d223332222077696474683d223122206865696768743d226102608201527f33222066696c6c3d2223464644373030222f3e3c7265637420783d22323722206102808201527f793d223332222077696474683d223222206865696768743d2231222066696c6c6102a08201527f3d2223464644373030222f3e3c7265637420783d2232312220793d22333322206102c08201527f77696474683d223122206865696768743d2233222066696c6c3d2223464644376102e08201527f3030222f3e3c7265637420783d2232362220793d223333222077696474683d226103008201527f3122206865696768743d2231222066696c6c3d2223464644373030222f3e3c726103208201527f65637420783d2232382220793d223333222077696474683d22312220686569676103408201527f68743d2231222066696c6c3d2223464644373030222f3e3c7265637420783d226103608201527f32322220793d223334222077696474683d223422206865696768743d223122206103808201527f66696c6c3d2223464644373030222f3e3c7265637420783d2232372220793d226103a08201527f3334222077696474683d223122206865696768743d2231222066696c6c3d22236103c08201527f464644373030222f3e3c7265637420783d2232322220793d22333522207769646103e08201527f74683d223222206865696768743d2231222066696c6c3d2223464644373030226104008201527f2f3e3c7265637420783d2232362220793d223335222077696474683d223122206104208201527f6865696768743d2231222066696c6c3d2223464644373030222f3e3c726563746104408201527f20783d2232332220793d223336222077696474683d223222206865696768743d6104608201527f2231222066696c6c3d2223464644373030222f3e3c7265637420783d223231226104808201527f20793d223330222077696474683d223222206865696768743d2231222066696c6104a08201527f6c3d2223464646464530222f3e3c7265637420783d2232302220793d223331226104c08201527f2077696474683d223122206865696768743d2231222066696c6c3d22234646466104e08201527f464530222f3e3c7265637420783d2232322220793d223331222077696474683d6105008201527f223422206865696768743d2231222066696c6c3d2223393337304442222f3e3c6105208201527f7265637420783d2232312220793d223332222077696474683d223222206865696105408201527f6768743d2231222066696c6c3d2223393337304442222f3e3c7265637420783d6105608201527f2232352220793d223332222077696474683d223222206865696768743d2231226105808201527f2066696c6c3d2223393337304442222f3e3c7265637420783d2232322220793d6105a08201527f223333222077696474683d223422206865696768743d2231222066696c6c3d226105c08201527f23393337304442222f3e3c7265637420783d2232332220793d223332222077696105e08201527f6474683d223222206865696768743d2231222066696c6c3d22234444413044446106008201527f222f3e3c7265637420783d2232372220793d223333222077696474683d2231226106208201527f206865696768743d2231222066696c6c3d2223444141353230222f3e3c7265636106408201527f7420783d2232362220793d223334222077696474683d223122206865696768746106608201527f3d2231222066696c6c3d2223444141353230222f3e3c7265637420783d2232346106808201527f2220793d223335222077696474683d223222206865696768743d2231222066696106a08201527336361e9111a220a09a991811179f1e17b9bb339f60611b6106c082015290565b506040516108e081018181106001600160401b03821117610109576040526108b58152600080516020613224833981519152602082015260008051602061320483398151915260408201526000805160206131e483398151915260608201527f72696e673d2263726973704564676573223e3c7265637420783d22333822207960808201527f3d223138222077696474683d223122206865696768743d2231222066696c6c3d60a08201527f2223413941394139222f3e3c7265637420783d2234312220793d22313822207760c08201527f696474683d223122206865696768743d2231222066696c6c3d2223413941394160e08201527f39222f3e3c7265637420783d2233382220793d223139222077696474683d22316101008201527f22206865696768743d2231222066696c6c3d2223383038303830222f3e3c72656101208201527f637420783d2234312220793d223139222077696474683d2231222068656967686101408201527f743d2231222066696c6c3d2223383038303830222f3e3c7265637420783d22336101608201527f362220793d223230222077696474683d223822206865696768743d22312220666101808201527f696c6c3d2223363936393639222f3e3c7265637420783d2233352220793d22326101a08201527f31222077696474683d223222206865696768743d2231222066696c6c3d2223366101c08201527f3936393639222f3e3c7265637420783d2233392220793d2232312220776964746101e08201527f683d223622206865696768743d2231222066696c6c3d2223363936393639222f6102008201527f3e3c7265637420783d2233342220793d223232222077696474683d22322220686102208201527f65696768743d2231222066696c6c3d2223363936393639222f3e3c72656374206102408201527f783d2233382220793d223232222077696474683d223622206865696768743d226102608201527f32222066696c6c3d2223363936393639222f3e3c7265637420783d22343522206102808201527f793d223232222077696474683d223122206865696768743d2231222066696c6c6102a08201527f3d2223363936393639222f3e3c7265637420783d2233342220793d22323322206102c08201527f77696474683d223122206865696768743d2232222066696c6c3d2223363936396102e08201527f3639222f3e3c7265637420783d2233362220793d223233222077696474683d226103008201527f3222206865696768743d2231222066696c6c3d2223363936393639222f3e3c726103208201527f65637420783d2234342220793d223233222077696474683d22312220686569676103408201527f68743d2231222066696c6c3d2223363936393639222f3e3c7265637420783d226103608201527f33352220793d223234222077696474683d223122206865696768743d223222206103808201527f66696c6c3d2223363936393639222f3e3c7265637420783d2233372220793d226103a08201527f3234222077696474683d223622206865696768743d2232222066696c6c3d22236103c08201527f363936393639222f3e3c7265637420783d2234352220793d22323422207769646103e08201527f74683d223122206865696768743d2231222066696c6c3d2223363936393639226104008201527f2f3e3c7265637420783d2233362220793d223235222077696474683d223122206104208201527f6865696768743d2232222066696c6c3d2223363936393639222f3e3c726563746104408201527f20783d2234332220793d223235222077696474683d223222206865696768743d6104608201527f2231222066696c6c3d2223363936393639222f3e3c7265637420783d223337226104808201527f20793d223236222077696474683d223122206865696768743d2232222066696c6104a08201527f6c3d2223363936393639222f3e3c7265637420783d2233392220793d223236226104c08201527f2077696474683d223222206865696768743d2232222066696c6c3d22233639366104e08201527f393639222f3e3c7265637420783d2234322220793d223236222077696474683d6105008201527f223222206865696768743d2231222066696c6c3d2223363936393639222f3e3c6105208201527f7265637420783d2233382220793d223237222077696474683d223122206865696105408201527f6768743d2231222066696c6c3d2223363936393639222f3e3c7265637420783d6105608201527f2234312220793d223237222077696474683d223122206865696768743d2231226105808201527f2066696c6c3d2223363936393639222f3e3c7265637420783d2233372220793d6105a08201527f223231222077696474683d223222206865696768743d2231222066696c6c3d226105c08201527f23433043304330222f3e3c7265637420783d2233362220793d223232222077696105e08201527f6474683d223222206865696768743d2231222066696c6c3d22234330433043306106008201527f222f3e3c7265637420783d2233352220793d223233222077696474683d2231226106208201527f206865696768743d2231222066696c6c3d2223433043304330222f3e3c7265636106408201527f7420783d2234342220793d223232222077696474683d223122206865696768746106608201527f3d2231222066696c6c3d2223324632463246222f3e3c7265637420783d2234356106808201527f2220793d223233222077696474683d223122206865696768743d2231222066696106a08201527f6c6c3d2223324632463246222f3e3c7265637420783d2234342220793d2232346106c08201527f222077696474683d223122206865696768743d2231222066696c6c3d222332466106e08201527f32463246222f3e3c7265637420783d2234322220793d223237222077696474686107008201527f3d223122206865696768743d2231222066696c6c3d2223324632463246222f3e6107208201527f3c7265637420783d2233362220793d223234222077696474683d2231222068656107408201527f696768743d2231222066696c6c3d2223344234423442222f3e3c7265637420786107608201527f3d2234332220793d223234222077696474683d223122206865696768743d22316107808201527f222066696c6c3d2223344234423442222f3e3c7265637420783d2233382220796107a08201527f3d223236222077696474683d223122206865696768743d2231222066696c6c3d6107c08201527f2223344234423442222f3e3c7265637420783d2234312220793d2232362220776107e08201527f696474683d223122206865696768743d2231222066696c6c3d222334423442346108008201527f42222f3e3c7265637420783d2233382220793d223238222077696474683d22316108208201527f22206865696768743d2232222066696c6c3d2223384234353133222f3e3c72656108408201527f637420783d2234312220793d223238222077696474683d2231222068656967686108608201527f743d2232222066696c6c3d2223384234353133222f3e3c7265637420783d22336108808201527f392220793d223239222077696474683d223222206865696768743d22312220666108a08201527434b6361e91119c211a1a989991179f1e17b9bb339f60591b6108c082015290565b5060405161056081018181106001600160401b03821117610109576040526105278152600080516020613224833981519152602082015260008051602061320483398151915260408201526000805160206131e483398151915260608201527f72696e673d2263726973704564676573223e3c7265637420783d22343022207960808201527f3d223230222077696474683d223122206865696768743d2231222066696c6c3d60a08201527f2223464644373030222f3e3c7265637420783d2233362220793d22323322207760c08201527f696474683d223122206865696768743d2231222066696c6c3d2223464644373060e08201527f30222f3e3c7265637420783d2234342220793d223233222077696474683d22316101008201527f22206865696768743d2231222066696c6c3d2223464644373030222f3e3c72656101208201527f637420783d2234302220793d223237222077696474683d2231222068656967686101408201527f743d2231222066696c6c3d2223464644373030222f3e3c7265637420783d22336101608201527f382220793d223232222077696474683d223522206865696768743d22312220666101808201527f696c6c3d2223393337304442222f3e3c7265637420783d2233372220793d22326101a08201527f33222077696474683d223222206865696768743d2232222066696c6c3d2223396101c08201527f3337304442222f3e3c7265637420783d2234312220793d2232332220776964746101e08201527f683d223322206865696768743d2231222066696c6c3d2223393337304442222f6102008201527f3e3c7265637420783d2233392220793d223234222077696474683d22312220686102208201527f65696768743d2233222066696c6c3d2223393337304442222f3e3c72656374206102408201527f783d2234322220793d223234222077696474683d223222206865696768743d226102608201527f31222066696c6c3d2223393337304442222f3e3c7265637420783d22343022206102808201527f793d223235222077696474683d223222206865696768743d2232222066696c6c6102a08201527f3d2223393337304442222f3e3c7265637420783d2233382220793d22323622206102c08201527f77696474683d223122206865696768743d2231222066696c6c3d2223393337306102e08201527f4442222f3e3c7265637420783d2234322220793d223236222077696474683d226103008201527f3122206865696768743d2231222066696c6c3d2223393337304442222f3e3c726103208201527f65637420783d2233392220793d223233222077696474683d22322220686569676103408201527f68743d2231222066696c6c3d2223444441304444222f3e3c7265637420783d226103608201527f34302220793d223234222077696474683d223222206865696768743d223122206103808201527f66696c6c3d2223444441304444222f3e3c7265637420783d2233372220793d226103a08201527f3235222077696474683d223222206865696768743d2231222066696c6c3d22236103c08201527f364130444144222f3e3c7265637420783d2234322220793d22323522207769646103e08201527f74683d223222206865696768743d2231222066696c6c3d2223364130444144226104008201527f2f3e3c7265637420783d2233392220793d223237222077696474683d223122206104208201527f6865696768743d223136222066696c6c3d2223363534333231222f3e3c7265636104408201527f7420783d2234302220793d223431222077696474683d223122206865696768746104608201527f3d2233222066696c6c3d2223363534333231222f3e3c7265637420783d2234316104808201527f2220793d223237222077696474683d223122206865696768743d2238222066696104a08201527f6c6c3d2223413035323244222f3e3c7265637420783d2234302220793d2232386104c08201527f222077696474683d223122206865696768743d223133222066696c6c3d2223386104e08201527f4234353133222f3e3c7265637420783d2234312220793d2233352220776964746105008201527f683d223122206865696768743d2238222066696c6c3d2223384234353133222f610520820152661f1e17b9bb339f60c91b61054082015290565b5060405161044081018181106001600160401b038211176101095760405261040a8152600080516020613224833981519152602082015260008051602061320483398151915260408201526000805160206131e483398151915260608201527f72696e673d2263726973704564676573223e3c7265637420783d22333722207960808201527f3d223135222077696474683d223322206865696768743d2231222066696c6c3d60a08201527f2223324632463246222f3e3c7265637420783d2233372220793d22313622207760c08201527f696474683d223322206865696768743d2231222066696c6c3d2223344134413460e08201527f41222f3e3c7265637420783d2233382220793d223137222077696474683d22336101008201527f22206865696768743d2231222066696c6c3d2223433043304330222f3e3c72656101208201527f637420783d2234342220793d223137222077696474683d2231222068656967686101408201527f743d2232222066696c6c3d2223433043304330222f3e3c7265637420783d22346101608201527f312220793d223138222077696474683d223322206865696768743d22312220666101808201527f696c6c3d2223433043304330222f3e3c7265637420783d2234352220793d22316101a08201527f38222077696474683d223122206865696768743d2233222066696c6c3d2223436101c08201527f3043304330222f3e3c7265637420783d2234312220793d2231392220776964746101e08201527f683d223222206865696768743d2231222066696c6c3d2223433043304330222f6102008201527f3e3c7265637420783d2234322220793d223230222077696474683d22332220686102208201527f65696768743d2232222066696c6c3d2223433043304330222f3e3c72656374206102408201527f783d2234332220793d223232222077696474683d223222206865696768743d226102608201527f31222066696c6c3d2223433043304330222f3e3c7265637420783d22343322206102808201527f793d223233222077696474683d223122206865696768743d2231222066696c6c6102a08201527f3d2223433043304330222f3e3c7265637420783d2234312220793d22313722206102c08201527f77696474683d223322206865696768743d2231222066696c6c3d2223453545356102e08201527f4535222f3e3c7265637420783d2234332220793d223139222077696474683d226103008201527f3222206865696768743d2231222066696c6c3d2223453545354535222f3e3c726103208201527f65637420783d2233382220793d223138222077696474683d22312220686569676103408201527f68743d223230222066696c6c3d2223384234353133222f3e3c7265637420783d6103608201527f2233392220793d223138222077696474683d223122206865696768743d2232306103808201527f222066696c6c3d2223363534333231222f3e3c7265637420783d2234302220796103a08201527f3d223138222077696474683d223122206865696768743d2233222066696c6c3d6103c08201527f2223383038303830222f3e3c7265637420783d2233372220793d2233382220776103e08201527f696474683d223422206865696768743d2231222066696c6c3d22233842303030610400820152691811179f1e17b9bb339f60b11b61042082015290565b60ff16600681146131c857600781146131965760088114613161576009811461314657600a811461311557600b146130e65760405162461bcd60e51b81528061019d6004820161011f565b604051604081018181106001600160401b0382111761010957604052600381526241726d60e81b602082015290565b50604051604081018181106001600160401b038211176101095760405260048152631219585960e21b602082015290565b5061314f6100e6565b65105b5d5b195d60d21b602082015290565b50604051604081018181106001600160401b0382111761010957604052600881526729b437bab63232b960c11b602082015290565b50604051604081018181106001600160401b0382111761010957604052600581526429ba30b33360d91b602082015290565b506131d16100e6565b6553637974686560d01b60208201529056fe7777772e77332e6f72672f323030302f737667222073686170652d72656e64656577426f783d223020302034382034382220786d6c6e733d22687474703a2f2f3c7376672077696474683d2237363822206865696768743d2237363822207669a2646970667358221220fd9776b27859c49767c35d2284a7d8de16bbfb18d7d976cdc50cc800e994cbcb64736f6c63430008140033",
  "linkReferences": {},
  "deployedLinkReferences": {}
}